{
	"errorEther.sol": {
		"sendEther": {
			"abi": [
				{
					"inputs": [
						{
							"internalType": "address payable",
							"name": "toReceiver",
							"type": "address"
						}
					],
					"name": "send",
					"outputs": [],
					"stateMutability": "payable",
					"type": "function"
				}
			],
			"devdoc": {
				"kind": "dev",
				"methods": {},
				"version": 1
			},
			"evm": {
				"assembly": "    /* \"errorEther.sol\":61:377  contract sendEther{... */\n  mstore(0x40, 0x80)\n  callvalue\n  dup1\n  iszero\n  tag_1\n  jumpi\n  revert(0x00, 0x00)\ntag_1:\n  pop\n  dataSize(sub_0)\n  dup1\n  dataOffset(sub_0)\n  0x00\n  codecopy\n  0x00\n  return\nstop\n\nsub_0: assembly {\n        /* \"errorEther.sol\":61:377  contract sendEther{... */\n      mstore(0x40, 0x80)\n      jumpi(tag_1, lt(calldatasize, 0x04))\n      shr(0xe0, calldataload(0x00))\n      dup1\n      0x3e58c58c\n      eq\n      tag_2\n      jumpi\n    tag_1:\n      revert(0x00, 0x00)\n        /* \"errorEther.sol\":84:372  function send(address payable toReceiver) public payable{... */\n    tag_2:\n      tag_3\n      0x04\n      dup1\n      calldatasize\n      sub\n      dup2\n      add\n      swap1\n      tag_4\n      swap2\n      swap1\n      tag_5\n      jump\t// in\n    tag_4:\n      tag_6\n      jump\t// in\n    tag_3:\n      stop\n    tag_6:\n        /* \"errorEther.sol\":270:279  bool sent */\n      0x00\n        /* \"errorEther.sol\":285:295  toReceiver */\n      dup2\n        /* \"errorEther.sol\":285:300  toReceiver.call */\n      0xffffffffffffffffffffffffffffffffffffffff\n      and\n        /* \"errorEther.sol\":307:316  msg.value */\n      callvalue\n        /* \"errorEther.sol\":285:323  toReceiver.call{value:msg.value} (\" \") */\n      mload(0x40)\n      tag_8\n      swap1\n      tag_9\n      jump\t// in\n    tag_8:\n      0x00\n      mload(0x40)\n      dup1\n      dup4\n      sub\n      dup2\n      dup6\n      dup8\n      gas\n      call\n      swap3\n      pop\n      pop\n      pop\n      returndatasize\n      dup1\n      0x00\n      dup2\n      eq\n      tag_12\n      jumpi\n      mload(0x40)\n      swap2\n      pop\n      and(add(returndatasize, 0x3f), not(0x1f))\n      dup3\n      add\n      0x40\n      mstore\n      returndatasize\n      dup3\n      mstore\n      returndatasize\n      0x00\n      0x20\n      dup5\n      add\n      returndatacopy\n      jump(tag_11)\n    tag_12:\n      0x60\n      swap2\n      pop\n    tag_11:\n      pop\n        /* \"errorEther.sol\":269:323  (bool sent, ) = toReceiver.call{value:msg.value} (\" \") */\n      pop\n      swap1\n      pop\n        /* \"errorEther.sol\":336:340  sent */\n      dup1\n        /* \"errorEther.sol\":328:366  require(sent, \" Failed to send Ether\") */\n      tag_13\n      jumpi\n      mload(0x40)\n      0x08c379a000000000000000000000000000000000000000000000000000000000\n      dup2\n      mstore\n      0x04\n      add\n      tag_14\n      swap1\n      tag_15\n      jump\t// in\n    tag_14:\n      mload(0x40)\n      dup1\n      swap2\n      sub\n      swap1\n      revert\n    tag_13:\n        /* \"errorEther.sol\":140:372  {... */\n      pop\n        /* \"errorEther.sol\":84:372  function send(address payable toReceiver) public payable{... */\n      pop\n      jump\t// out\n        /* \"#utility.yul\":88:205   */\n    tag_17:\n        /* \"#utility.yul\":197:198   */\n      0x00\n        /* \"#utility.yul\":194:195   */\n      0x00\n        /* \"#utility.yul\":187:199   */\n      revert\n        /* \"#utility.yul\":334:460   */\n    tag_19:\n        /* \"#utility.yul\":371:378   */\n      0x00\n        /* \"#utility.yul\":411:453   */\n      0xffffffffffffffffffffffffffffffffffffffff\n        /* \"#utility.yul\":404:409   */\n      dup3\n        /* \"#utility.yul\":400:454   */\n      and\n        /* \"#utility.yul\":389:454   */\n      swap1\n      pop\n        /* \"#utility.yul\":334:460   */\n      swap2\n      swap1\n      pop\n      jump\t// out\n        /* \"#utility.yul\":466:570   */\n    tag_20:\n        /* \"#utility.yul\":511:518   */\n      0x00\n        /* \"#utility.yul\":540:564   */\n      tag_35\n        /* \"#utility.yul\":558:563   */\n      dup3\n        /* \"#utility.yul\":540:564   */\n      tag_19\n      jump\t// in\n    tag_35:\n        /* \"#utility.yul\":529:564   */\n      swap1\n      pop\n        /* \"#utility.yul\":466:570   */\n      swap2\n      swap1\n      pop\n      jump\t// out\n        /* \"#utility.yul\":576:714   */\n    tag_21:\n        /* \"#utility.yul\":657:689   */\n      tag_37\n        /* \"#utility.yul\":683:688   */\n      dup2\n        /* \"#utility.yul\":657:689   */\n      tag_20\n      jump\t// in\n    tag_37:\n        /* \"#utility.yul\":650:655   */\n      dup2\n        /* \"#utility.yul\":647:690   */\n      eq\n        /* \"#utility.yul\":637:708   */\n      tag_38\n      jumpi\n        /* \"#utility.yul\":704:705   */\n      0x00\n        /* \"#utility.yul\":701:702   */\n      0x00\n        /* \"#utility.yul\":694:706   */\n      revert\n        /* \"#utility.yul\":637:708   */\n    tag_38:\n        /* \"#utility.yul\":576:714   */\n      pop\n      jump\t// out\n        /* \"#utility.yul\":720:875   */\n    tag_22:\n        /* \"#utility.yul\":774:779   */\n      0x00\n        /* \"#utility.yul\":812:818   */\n      dup2\n        /* \"#utility.yul\":799:819   */\n      calldataload\n        /* \"#utility.yul\":790:819   */\n      swap1\n      pop\n        /* \"#utility.yul\":828:869   */\n      tag_40\n        /* \"#utility.yul\":863:868   */\n      dup2\n        /* \"#utility.yul\":828:869   */\n      tag_21\n      jump\t// in\n    tag_40:\n        /* \"#utility.yul\":720:875   */\n      swap3\n      swap2\n      pop\n      pop\n      jump\t// out\n        /* \"#utility.yul\":881:1226   */\n    tag_5:\n        /* \"#utility.yul\":948:954   */\n      0x00\n        /* \"#utility.yul\":997:999   */\n      0x20\n        /* \"#utility.yul\":985:994   */\n      dup3\n        /* \"#utility.yul\":976:983   */\n      dup5\n        /* \"#utility.yul\":972:995   */\n      sub\n        /* \"#utility.yul\":968:1000   */\n      slt\n        /* \"#utility.yul\":965:1084   */\n      iszero\n      tag_42\n      jumpi\n        /* \"#utility.yul\":1003:1082   */\n      tag_43\n      tag_17\n      jump\t// in\n    tag_43:\n        /* \"#utility.yul\":965:1084   */\n    tag_42:\n        /* \"#utility.yul\":1123:1124   */\n      0x00\n        /* \"#utility.yul\":1148:1209   */\n      tag_44\n        /* \"#utility.yul\":1201:1208   */\n      dup5\n        /* \"#utility.yul\":1192:1198   */\n      dup3\n        /* \"#utility.yul\":1181:1190   */\n      dup6\n        /* \"#utility.yul\":1177:1199   */\n      add\n        /* \"#utility.yul\":1148:1209   */\n      tag_22\n      jump\t// in\n    tag_44:\n        /* \"#utility.yul\":1138:1209   */\n      swap2\n      pop\n        /* \"#utility.yul\":1094:1219   */\n      pop\n        /* \"#utility.yul\":881:1226   */\n      swap3\n      swap2\n      pop\n      pop\n      jump\t// out\n        /* \"#utility.yul\":1232:1379   */\n    tag_23:\n        /* \"#utility.yul\":1333:1344   */\n      0x00\n        /* \"#utility.yul\":1370:1373   */\n      dup2\n        /* \"#utility.yul\":1355:1373   */\n      swap1\n      pop\n        /* \"#utility.yul\":1232:1379   */\n      swap3\n      swap2\n      pop\n      pop\n      jump\t// out\n        /* \"#utility.yul\":1385:1536   */\n    tag_24:\n        /* \"#utility.yul\":1525:1528   */\n      0x2000000000000000000000000000000000000000000000000000000000000000\n        /* \"#utility.yul\":1521:1522   */\n      0x00\n        /* \"#utility.yul\":1513:1519   */\n      dup3\n        /* \"#utility.yul\":1509:1523   */\n      add\n        /* \"#utility.yul\":1502:1529   */\n      mstore\n        /* \"#utility.yul\":1385:1536   */\n      pop\n      jump\t// out\n        /* \"#utility.yul\":1542:1940   */\n    tag_25:\n        /* \"#utility.yul\":1701:1704   */\n      0x00\n        /* \"#utility.yul\":1722:1805   */\n      tag_48\n        /* \"#utility.yul\":1803:1804   */\n      0x01\n        /* \"#utility.yul\":1798:1801   */\n      dup4\n        /* \"#utility.yul\":1722:1805   */\n      tag_23\n      jump\t// in\n    tag_48:\n        /* \"#utility.yul\":1715:1805   */\n      swap2\n      pop\n        /* \"#utility.yul\":1814:1907   */\n      tag_49\n        /* \"#utility.yul\":1903:1906   */\n      dup3\n        /* \"#utility.yul\":1814:1907   */\n      tag_24\n      jump\t// in\n    tag_49:\n        /* \"#utility.yul\":1932:1933   */\n      0x01\n        /* \"#utility.yul\":1927:1930   */\n      dup3\n        /* \"#utility.yul\":1923:1934   */\n      add\n        /* \"#utility.yul\":1916:1934   */\n      swap1\n      pop\n        /* \"#utility.yul\":1542:1940   */\n      swap2\n      swap1\n      pop\n      jump\t// out\n        /* \"#utility.yul\":1946:2325   */\n    tag_9:\n        /* \"#utility.yul\":2130:2133   */\n      0x00\n        /* \"#utility.yul\":2152:2299   */\n      tag_51\n        /* \"#utility.yul\":2295:2298   */\n      dup3\n        /* \"#utility.yul\":2152:2299   */\n      tag_25\n      jump\t// in\n    tag_51:\n        /* \"#utility.yul\":2145:2299   */\n      swap2\n      pop\n        /* \"#utility.yul\":2316:2319   */\n      dup2\n        /* \"#utility.yul\":2309:2319   */\n      swap1\n      pop\n        /* \"#utility.yul\":1946:2325   */\n      swap2\n      swap1\n      pop\n      jump\t// out\n        /* \"#utility.yul\":2331:2500   */\n    tag_26:\n        /* \"#utility.yul\":2415:2426   */\n      0x00\n        /* \"#utility.yul\":2449:2455   */\n      dup3\n        /* \"#utility.yul\":2444:2447   */\n      dup3\n        /* \"#utility.yul\":2437:2456   */\n      mstore\n        /* \"#utility.yul\":2489:2493   */\n      0x20\n        /* \"#utility.yul\":2484:2487   */\n      dup3\n        /* \"#utility.yul\":2480:2494   */\n      add\n        /* \"#utility.yul\":2465:2494   */\n      swap1\n      pop\n        /* \"#utility.yul\":2331:2500   */\n      swap3\n      swap2\n      pop\n      pop\n      jump\t// out\n        /* \"#utility.yul\":2506:2677   */\n    tag_27:\n        /* \"#utility.yul\":2646:2669   */\n      0x204661696c656420746f2073656e642045746865720000000000000000000000\n        /* \"#utility.yul\":2642:2643   */\n      0x00\n        /* \"#utility.yul\":2634:2640   */\n      dup3\n        /* \"#utility.yul\":2630:2644   */\n      add\n        /* \"#utility.yul\":2623:2670   */\n      mstore\n        /* \"#utility.yul\":2506:2677   */\n      pop\n      jump\t// out\n        /* \"#utility.yul\":2683:3049   */\n    tag_28:\n        /* \"#utility.yul\":2825:2828   */\n      0x00\n        /* \"#utility.yul\":2846:2913   */\n      tag_55\n        /* \"#utility.yul\":2910:2912   */\n      0x15\n        /* \"#utility.yul\":2905:2908   */\n      dup4\n        /* \"#utility.yul\":2846:2913   */\n      tag_26\n      jump\t// in\n    tag_55:\n        /* \"#utility.yul\":2839:2913   */\n      swap2\n      pop\n        /* \"#utility.yul\":2922:3015   */\n      tag_56\n        /* \"#utility.yul\":3011:3014   */\n      dup3\n        /* \"#utility.yul\":2922:3015   */\n      tag_27\n      jump\t// in\n    tag_56:\n        /* \"#utility.yul\":3040:3042   */\n      0x20\n        /* \"#utility.yul\":3035:3038   */\n      dup3\n        /* \"#utility.yul\":3031:3043   */\n      add\n        /* \"#utility.yul\":3024:3043   */\n      swap1\n      pop\n        /* \"#utility.yul\":2683:3049   */\n      swap2\n      swap1\n      pop\n      jump\t// out\n        /* \"#utility.yul\":3055:3474   */\n    tag_15:\n        /* \"#utility.yul\":3221:3225   */\n      0x00\n        /* \"#utility.yul\":3259:3261   */\n      0x20\n        /* \"#utility.yul\":3248:3257   */\n      dup3\n        /* \"#utility.yul\":3244:3262   */\n      add\n        /* \"#utility.yul\":3236:3262   */\n      swap1\n      pop\n        /* \"#utility.yul\":3308:3317   */\n      dup2\n        /* \"#utility.yul\":3302:3306   */\n      dup2\n        /* \"#utility.yul\":3298:3318   */\n      sub\n        /* \"#utility.yul\":3294:3295   */\n      0x00\n        /* \"#utility.yul\":3283:3292   */\n      dup4\n        /* \"#utility.yul\":3279:3296   */\n      add\n        /* \"#utility.yul\":3272:3319   */\n      mstore\n        /* \"#utility.yul\":3336:3467   */\n      tag_58\n        /* \"#utility.yul\":3462:3466   */\n      dup2\n        /* \"#utility.yul\":3336:3467   */\n      tag_28\n      jump\t// in\n    tag_58:\n        /* \"#utility.yul\":3328:3467   */\n      swap1\n      pop\n        /* \"#utility.yul\":3055:3474   */\n      swap2\n      swap1\n      pop\n      jump\t// out\n\n    auxdata: 0xa264697066735822122080ae2024c9a556afb6b93cb37df76db26a3a9c1a1998fd49bb8ea29ca55ddec264736f6c634300081f0033\n}\n",
				"bytecode": {
					"linkReferences": {},
					"object": "6080604052348015600e575f5ffd5b506102888061001c5f395ff3fe60806040526004361061001d575f3560e01c80633e58c58c14610021575b5f5ffd5b61003b60048036038101906100369190610147565b61003d565b005b5f8173ffffffffffffffffffffffffffffffffffffffff1634604051610062906101c6565b5f6040518083038185875af1925050503d805f811461009c576040519150601f19603f3d011682016040523d82523d5f602084013e6100a1565b606091505b50509050806100e5576040517f08c379a00000000000000000000000000000000000000000000000000000000081526004016100dc90610234565b60405180910390fd5b5050565b5f5ffd5b5f73ffffffffffffffffffffffffffffffffffffffff82169050919050565b5f610116826100ed565b9050919050565b6101268161010c565b8114610130575f5ffd5b50565b5f813590506101418161011d565b92915050565b5f6020828403121561015c5761015b6100e9565b5b5f61016984828501610133565b91505092915050565b5f81905092915050565b7f20000000000000000000000000000000000000000000000000000000000000005f82015250565b5f6101b0600183610172565b91506101bb8261017c565b600182019050919050565b5f6101d0826101a4565b9150819050919050565b5f82825260208201905092915050565b7f204661696c656420746f2073656e6420457468657200000000000000000000005f82015250565b5f61021e6015836101da565b9150610229826101ea565b602082019050919050565b5f6020820190508181035f83015261024b81610212565b905091905056fea264697066735822122080ae2024c9a556afb6b93cb37df76db26a3a9c1a1998fd49bb8ea29ca55ddec264736f6c634300081f0033",
					"opcodes": "PUSH1 0x80 PUSH1 0x40 MSTORE CALLVALUE DUP1 ISZERO PUSH1 0xE JUMPI PUSH0 PUSH0 REVERT JUMPDEST POP PUSH2 0x288 DUP1 PUSH2 0x1C PUSH0 CODECOPY PUSH0 RETURN INVALID PUSH1 0x80 PUSH1 0x40 MSTORE PUSH1 0x4 CALLDATASIZE LT PUSH2 0x1D JUMPI PUSH0 CALLDATALOAD PUSH1 0xE0 SHR DUP1 PUSH4 0x3E58C58C EQ PUSH2 0x21 JUMPI JUMPDEST PUSH0 PUSH0 REVERT JUMPDEST PUSH2 0x3B PUSH1 0x4 DUP1 CALLDATASIZE SUB DUP2 ADD SWAP1 PUSH2 0x36 SWAP2 SWAP1 PUSH2 0x147 JUMP JUMPDEST PUSH2 0x3D JUMP JUMPDEST STOP JUMPDEST PUSH0 DUP2 PUSH20 0xFFFFFFFFFFFFFFFFFFFFFFFFFFFFFFFFFFFFFFFF AND CALLVALUE PUSH1 0x40 MLOAD PUSH2 0x62 SWAP1 PUSH2 0x1C6 JUMP JUMPDEST PUSH0 PUSH1 0x40 MLOAD DUP1 DUP4 SUB DUP2 DUP6 DUP8 GAS CALL SWAP3 POP POP POP RETURNDATASIZE DUP1 PUSH0 DUP2 EQ PUSH2 0x9C JUMPI PUSH1 0x40 MLOAD SWAP2 POP PUSH1 0x1F NOT PUSH1 0x3F RETURNDATASIZE ADD AND DUP3 ADD PUSH1 0x40 MSTORE RETURNDATASIZE DUP3 MSTORE RETURNDATASIZE PUSH0 PUSH1 0x20 DUP5 ADD RETURNDATACOPY PUSH2 0xA1 JUMP JUMPDEST PUSH1 0x60 SWAP2 POP JUMPDEST POP POP SWAP1 POP DUP1 PUSH2 0xE5 JUMPI PUSH1 0x40 MLOAD PUSH32 0x8C379A000000000000000000000000000000000000000000000000000000000 DUP2 MSTORE PUSH1 0x4 ADD PUSH2 0xDC SWAP1 PUSH2 0x234 JUMP JUMPDEST PUSH1 0x40 MLOAD DUP1 SWAP2 SUB SWAP1 REVERT JUMPDEST POP POP JUMP JUMPDEST PUSH0 PUSH0 REVERT JUMPDEST PUSH0 PUSH20 0xFFFFFFFFFFFFFFFFFFFFFFFFFFFFFFFFFFFFFFFF DUP3 AND SWAP1 POP SWAP2 SWAP1 POP JUMP JUMPDEST PUSH0 PUSH2 0x116 DUP3 PUSH2 0xED JUMP JUMPDEST SWAP1 POP SWAP2 SWAP1 POP JUMP JUMPDEST PUSH2 0x126 DUP2 PUSH2 0x10C JUMP JUMPDEST DUP2 EQ PUSH2 0x130 JUMPI PUSH0 PUSH0 REVERT JUMPDEST POP JUMP JUMPDEST PUSH0 DUP2 CALLDATALOAD SWAP1 POP PUSH2 0x141 DUP2 PUSH2 0x11D JUMP JUMPDEST SWAP3 SWAP2 POP POP JUMP JUMPDEST PUSH0 PUSH1 0x20 DUP3 DUP5 SUB SLT ISZERO PUSH2 0x15C JUMPI PUSH2 0x15B PUSH2 0xE9 JUMP JUMPDEST JUMPDEST PUSH0 PUSH2 0x169 DUP5 DUP3 DUP6 ADD PUSH2 0x133 JUMP JUMPDEST SWAP2 POP POP SWAP3 SWAP2 POP POP JUMP JUMPDEST PUSH0 DUP2 SWAP1 POP SWAP3 SWAP2 POP POP JUMP JUMPDEST PUSH32 0x2000000000000000000000000000000000000000000000000000000000000000 PUSH0 DUP3 ADD MSTORE POP JUMP JUMPDEST PUSH0 PUSH2 0x1B0 PUSH1 0x1 DUP4 PUSH2 0x172 JUMP JUMPDEST SWAP2 POP PUSH2 0x1BB DUP3 PUSH2 0x17C JUMP JUMPDEST PUSH1 0x1 DUP3 ADD SWAP1 POP SWAP2 SWAP1 POP JUMP JUMPDEST PUSH0 PUSH2 0x1D0 DUP3 PUSH2 0x1A4 JUMP JUMPDEST SWAP2 POP DUP2 SWAP1 POP SWAP2 SWAP1 POP JUMP JUMPDEST PUSH0 DUP3 DUP3 MSTORE PUSH1 0x20 DUP3 ADD SWAP1 POP SWAP3 SWAP2 POP POP JUMP JUMPDEST PUSH32 0x204661696C656420746F2073656E642045746865720000000000000000000000 PUSH0 DUP3 ADD MSTORE POP JUMP JUMPDEST PUSH0 PUSH2 0x21E PUSH1 0x15 DUP4 PUSH2 0x1DA JUMP JUMPDEST SWAP2 POP PUSH2 0x229 DUP3 PUSH2 0x1EA JUMP JUMPDEST PUSH1 0x20 DUP3 ADD SWAP1 POP SWAP2 SWAP1 POP JUMP JUMPDEST PUSH0 PUSH1 0x20 DUP3 ADD SWAP1 POP DUP2 DUP2 SUB PUSH0 DUP4 ADD MSTORE PUSH2 0x24B DUP2 PUSH2 0x212 JUMP JUMPDEST SWAP1 POP SWAP2 SWAP1 POP JUMP INVALID LOG2 PUSH5 0x6970667358 0x22 SLT KECCAK256 DUP1 0xAE KECCAK256 0x24 0xC9 0xA5 JUMP 0xAF 0xB6 0xB9 EXTCODECOPY 0xB3 PUSH30 0xF76DB26A3A9C1A1998FD49BB8EA29CA55DDEC264736F6C634300081F0033 "
				},
				"gasEstimates": {
					"creation": {
						"codeDepositCost": "129600",
						"executionCost": "175",
						"totalCost": "129775"
					},
					"external": {
						"send(address)": "infinite"
					}
				},
				"methodIdentifiers": {
					"send(address)": "3e58c58c"
				}
			},
			"storageLayout": {
				"storage": [],
				"types": null
			},
			"userdoc": {
				"kind": "user",
				"methods": {},
				"version": 1
			}
		}
	}
}