{
	"contracts/UserAuth.sol": {
		"UserAuth": {
			"abi": [
				{
					"anonymous": false,
					"inputs": [
						{
							"indexed": true,
							"internalType": "address",
							"name": "userAddress",
							"type": "address"
						},
						{
							"indexed": false,
							"internalType": "string",
							"name": "username",
							"type": "string"
						}
					],
					"name": "UserRegistered",
					"type": "event"
				},
				{
					"inputs": [],
					"name": "deleteAccount",
					"outputs": [],
					"stateMutability": "nonpayable",
					"type": "function"
				},
				{
					"inputs": [
						{
							"internalType": "address",
							"name": "_user",
							"type": "address"
						}
					],
					"name": "getUser",
					"outputs": [
						{
							"internalType": "string",
							"name": "",
							"type": "string"
						},
						{
							"internalType": "address",
							"name": "",
							"type": "address"
						},
						{
							"internalType": "bool",
							"name": "",
							"type": "bool"
						}
					],
					"stateMutability": "view",
					"type": "function"
				},
				{
					"inputs": [
						{
							"internalType": "address",
							"name": "_user",
							"type": "address"
						}
					],
					"name": "isUserRegistered",
					"outputs": [
						{
							"internalType": "bool",
							"name": "",
							"type": "bool"
						}
					],
					"stateMutability": "view",
					"type": "function"
				},
				{
					"inputs": [
						{
							"internalType": "string",
							"name": "_username",
							"type": "string"
						}
					],
					"name": "isUsernameRegistered",
					"outputs": [
						{
							"internalType": "bool",
							"name": "",
							"type": "bool"
						}
					],
					"stateMutability": "view",
					"type": "function"
				},
				{
					"inputs": [
						{
							"internalType": "string",
							"name": "_username",
							"type": "string"
						}
					],
					"name": "register",
					"outputs": [],
					"stateMutability": "nonpayable",
					"type": "function"
				}
			],
			"devdoc": {
				"kind": "dev",
				"methods": {},
				"version": 1
			},
			"evm": {
				"assembly": "    /* \"contracts/UserAuth.sol\":57:1633  contract UserAuth {... */\n  mstore(0x40, 0x80)\n  callvalue\n  dup1\n  iszero\n  tag_1\n  jumpi\n  0x00\n  dup1\n  revert\ntag_1:\n  pop\n  dataSize(sub_0)\n  dup1\n  dataOffset(sub_0)\n  0x00\n  codecopy\n  0x00\n  return\nstop\n\nsub_0: assembly {\n        /* \"contracts/UserAuth.sol\":57:1633  contract UserAuth {... */\n      mstore(0x40, 0x80)\n      callvalue\n      dup1\n      iszero\n      tag_1\n      jumpi\n      0x00\n      dup1\n      revert\n    tag_1:\n      pop\n      jumpi(tag_2, lt(calldatasize, 0x04))\n      shr(0xe0, calldataload(0x00))\n      dup1\n      0x163f7522\n      eq\n      tag_3\n      jumpi\n      dup1\n      0x3be32f7d\n      eq\n      tag_4\n      jumpi\n      dup1\n      0x52ac2091\n      eq\n      tag_5\n      jumpi\n      dup1\n      0x6f77926b\n      eq\n      tag_6\n      jumpi\n      dup1\n      0xf2c298be\n      eq\n      tag_7\n      jumpi\n    tag_2:\n      0x00\n      dup1\n      revert\n        /* \"contracts/UserAuth.sol\":913:1030  function isUserRegistered(address _user) public view returns (bool) {... */\n    tag_3:\n      tag_8\n      0x04\n      dup1\n      calldatasize\n      sub\n      dup2\n      add\n      swap1\n      tag_9\n      swap2\n      swap1\n      tag_10\n      jump\t// in\n    tag_9:\n      tag_11\n      jump\t// in\n    tag_8:\n      mload(0x40)\n      tag_12\n      swap2\n      swap1\n      tag_13\n      jump\t// in\n    tag_12:\n      mload(0x40)\n      dup1\n      swap2\n      sub\n      swap1\n      return\n        /* \"contracts/UserAuth.sol\":1384:1631  function deleteAccount() public {... */\n    tag_4:\n      tag_14\n      tag_15\n      jump\t// in\n    tag_14:\n      stop\n        /* \"contracts/UserAuth.sol\":1036:1184  function isUsernameRegistered(string memory _username) public view returns (bool) {... */\n    tag_5:\n      tag_16\n      0x04\n      dup1\n      calldatasize\n      sub\n      dup2\n      add\n      swap1\n      tag_17\n      swap2\n      swap1\n      tag_18\n      jump\t// in\n    tag_17:\n      tag_19\n      jump\t// in\n    tag_16:\n      mload(0x40)\n      tag_20\n      swap2\n      swap1\n      tag_13\n      jump\t// in\n    tag_20:\n      mload(0x40)\n      dup1\n      swap2\n      sub\n      swap1\n      return\n        /* \"contracts/UserAuth.sol\":1190:1378  function getUser(address _user) public view returns (string memory, address, bool) {... */\n    tag_6:\n      tag_21\n      0x04\n      dup1\n      calldatasize\n      sub\n      dup2\n      add\n      swap1\n      tag_22\n      swap2\n      swap1\n      tag_10\n      jump\t// in\n    tag_22:\n      tag_23\n      jump\t// in\n    tag_21:\n      mload(0x40)\n      tag_24\n      swap4\n      swap3\n      swap2\n      swap1\n      tag_25\n      jump\t// in\n    tag_24:\n      mload(0x40)\n      dup1\n      swap2\n      sub\n      swap1\n      return\n        /* \"contracts/UserAuth.sol\":363:907  function register(string memory _username) public {... */\n    tag_7:\n      tag_26\n      0x04\n      dup1\n      calldatasize\n      sub\n      dup2\n      add\n      swap1\n      tag_27\n      swap2\n      swap1\n      tag_18\n      jump\t// in\n    tag_27:\n      tag_28\n      jump\t// in\n    tag_26:\n      stop\n        /* \"contracts/UserAuth.sol\":913:1030  function isUserRegistered(address _user) public view returns (bool) {... */\n    tag_11:\n        /* \"contracts/UserAuth.sol\":975:979  bool */\n      0x00\n        /* \"contracts/UserAuth.sol\":998:1003  users */\n      dup1\n        /* \"contracts/UserAuth.sol\":998:1010  users[_user] */\n      0x00\n        /* \"contracts/UserAuth.sol\":1004:1009  _user */\n      dup4\n        /* \"contracts/UserAuth.sol\":998:1010  users[_user] */\n      0xffffffffffffffffffffffffffffffffffffffff\n      and\n      0xffffffffffffffffffffffffffffffffffffffff\n      and\n      dup2\n      mstore\n      0x20\n      add\n      swap1\n      dup2\n      mstore\n      0x20\n      add\n      0x00\n      keccak256\n        /* \"contracts/UserAuth.sol\":998:1023  users[_user].isRegistered */\n      0x01\n      add\n      0x14\n      swap1\n      sload\n      swap1\n      0x0100\n      exp\n      swap1\n      div\n      0xff\n      and\n        /* \"contracts/UserAuth.sol\":991:1023  return users[_user].isRegistered */\n      swap1\n      pop\n        /* \"contracts/UserAuth.sol\":913:1030  function isUserRegistered(address _user) public view returns (bool) {... */\n      swap2\n      swap1\n      pop\n      jump\t// out\n        /* \"contracts/UserAuth.sol\":1384:1631  function deleteAccount() public {... */\n    tag_15:\n        /* \"contracts/UserAuth.sol\":1434:1439  users */\n      0x00\n        /* \"contracts/UserAuth.sol\":1434:1451  users[msg.sender] */\n      dup1\n        /* \"contracts/UserAuth.sol\":1440:1450  msg.sender */\n      caller\n        /* \"contracts/UserAuth.sol\":1434:1451  users[msg.sender] */\n      0xffffffffffffffffffffffffffffffffffffffff\n      and\n      0xffffffffffffffffffffffffffffffffffffffff\n      and\n      dup2\n      mstore\n      0x20\n      add\n      swap1\n      dup2\n      mstore\n      0x20\n      add\n      0x00\n      keccak256\n        /* \"contracts/UserAuth.sol\":1434:1464  users[msg.sender].isRegistered */\n      0x01\n      add\n      0x14\n      swap1\n      sload\n      swap1\n      0x0100\n      exp\n      swap1\n      div\n      0xff\n      and\n        /* \"contracts/UserAuth.sol\":1426:1483  require(users[msg.sender].isRegistered, \"Not registered\") */\n      tag_31\n      jumpi\n      mload(0x40)\n      0x08c379a000000000000000000000000000000000000000000000000000000000\n      dup2\n      mstore\n      0x04\n      add\n      tag_32\n      swap1\n      tag_33\n      jump\t// in\n    tag_32:\n      mload(0x40)\n      dup1\n      swap2\n      sub\n      swap1\n      revert\n    tag_31:\n        /* \"contracts/UserAuth.sol\":1494:1516  string memory username */\n      0x00\n        /* \"contracts/UserAuth.sol\":1519:1524  users */\n      dup1\n        /* \"contracts/UserAuth.sol\":1519:1536  users[msg.sender] */\n      0x00\n        /* \"contracts/UserAuth.sol\":1525:1535  msg.sender */\n      caller\n        /* \"contracts/UserAuth.sol\":1519:1536  users[msg.sender] */\n      0xffffffffffffffffffffffffffffffffffffffff\n      and\n      0xffffffffffffffffffffffffffffffffffffffff\n      and\n      dup2\n      mstore\n      0x20\n      add\n      swap1\n      dup2\n      mstore\n      0x20\n      add\n      0x00\n      keccak256\n        /* \"contracts/UserAuth.sol\":1519:1545  users[msg.sender].username */\n      0x00\n      add\n        /* \"contracts/UserAuth.sol\":1494:1545  string memory username = users[msg.sender].username */\n      dup1\n      sload\n      tag_34\n      swap1\n      tag_35\n      jump\t// in\n    tag_34:\n      dup1\n      0x1f\n      add\n      0x20\n      dup1\n      swap2\n      div\n      mul\n      0x20\n      add\n      mload(0x40)\n      swap1\n      dup2\n      add\n      0x40\n      mstore\n      dup1\n      swap3\n      swap2\n      swap1\n      dup2\n      dup2\n      mstore\n      0x20\n      add\n      dup3\n      dup1\n      sload\n      tag_36\n      swap1\n      tag_35\n      jump\t// in\n    tag_36:\n      dup1\n      iszero\n      tag_37\n      jumpi\n      dup1\n      0x1f\n      lt\n      tag_38\n      jumpi\n      0x0100\n      dup1\n      dup4\n      sload\n      div\n      mul\n      dup4\n      mstore\n      swap2\n      0x20\n      add\n      swap2\n      jump(tag_37)\n    tag_38:\n      dup3\n      add\n      swap2\n      swap1\n      0x00\n      mstore\n      keccak256(0x00, 0x20)\n      swap1\n    tag_39:\n      dup2\n      sload\n      dup2\n      mstore\n      swap1\n      0x01\n      add\n      swap1\n      0x20\n      add\n      dup1\n      dup4\n      gt\n      tag_39\n      jumpi\n      dup3\n      swap1\n      sub\n      0x1f\n      and\n      dup3\n      add\n      swap2\n    tag_37:\n      pop\n      pop\n      pop\n      pop\n      pop\n      swap1\n      pop\n        /* \"contracts/UserAuth.sol\":1563:1580  usernameToAddress */\n      0x01\n        /* \"contracts/UserAuth.sol\":1581:1589  username */\n      dup2\n        /* \"contracts/UserAuth.sol\":1563:1590  usernameToAddress[username] */\n      mload(0x40)\n      tag_40\n      swap2\n      swap1\n      tag_41\n      jump\t// in\n    tag_40:\n      swap1\n      dup2\n      mstore\n      0x20\n      add\n      mload(0x40)\n      dup1\n      swap2\n      sub\n      swap1\n      keccak256\n      0x00\n        /* \"contracts/UserAuth.sol\":1556:1590  delete usernameToAddress[username] */\n      0x0100\n      exp\n      dup2\n      sload\n      swap1\n      0xffffffffffffffffffffffffffffffffffffffff\n      mul\n      not\n      and\n      swap1\n      sstore\n        /* \"contracts/UserAuth.sol\":1607:1612  users */\n      0x00\n        /* \"contracts/UserAuth.sol\":1607:1624  users[msg.sender] */\n      dup1\n        /* \"contracts/UserAuth.sol\":1613:1623  msg.sender */\n      caller\n        /* \"contracts/UserAuth.sol\":1607:1624  users[msg.sender] */\n      0xffffffffffffffffffffffffffffffffffffffff\n      and\n      0xffffffffffffffffffffffffffffffffffffffff\n      and\n      dup2\n      mstore\n      0x20\n      add\n      swap1\n      dup2\n      mstore\n      0x20\n      add\n      0x00\n      keccak256\n      0x00\n        /* \"contracts/UserAuth.sol\":1600:1624  delete users[msg.sender] */\n      dup1\n      dup3\n      add\n      0x00\n      tag_42\n      swap2\n      swap1\n      tag_43\n      jump\t// in\n    tag_42:\n      0x01\n      dup3\n      add\n      exp(0x0100, 0x00)\n      dup2\n      sload\n      swap1\n      0xffffffffffffffffffffffffffffffffffffffff\n      mul\n      not\n      and\n      swap1\n      sstore\n      0x01\n      dup3\n      add\n      exp(0x0100, 0x14)\n      dup2\n      sload\n      swap1\n      0xff\n      mul\n      not\n      and\n      swap1\n      sstore\n      pop\n      pop\n        /* \"contracts/UserAuth.sol\":1416:1631  {... */\n      pop\n        /* \"contracts/UserAuth.sol\":1384:1631  function deleteAccount() public {... */\n      jump\t// out\n        /* \"contracts/UserAuth.sol\":1036:1184  function isUsernameRegistered(string memory _username) public view returns (bool) {... */\n    tag_19:\n        /* \"contracts/UserAuth.sol\":1112:1116  bool */\n      0x00\n        /* \"contracts/UserAuth.sol\":1175:1176  0 */\n      dup1\n        /* \"contracts/UserAuth.sol\":1135:1177  usernameToAddress[_username] != address(0) */\n      0xffffffffffffffffffffffffffffffffffffffff\n      and\n        /* \"contracts/UserAuth.sol\":1135:1152  usernameToAddress */\n      0x01\n        /* \"contracts/UserAuth.sol\":1153:1162  _username */\n      dup4\n        /* \"contracts/UserAuth.sol\":1135:1163  usernameToAddress[_username] */\n      mload(0x40)\n      tag_45\n      swap2\n      swap1\n      tag_41\n      jump\t// in\n    tag_45:\n      swap1\n      dup2\n      mstore\n      0x20\n      add\n      mload(0x40)\n      dup1\n      swap2\n      sub\n      swap1\n      keccak256\n      0x00\n      swap1\n      sload\n      swap1\n      0x0100\n      exp\n      swap1\n      div\n      0xffffffffffffffffffffffffffffffffffffffff\n      and\n        /* \"contracts/UserAuth.sol\":1135:1177  usernameToAddress[_username] != address(0) */\n      0xffffffffffffffffffffffffffffffffffffffff\n      and\n      eq\n      iszero\n        /* \"contracts/UserAuth.sol\":1128:1177  return usernameToAddress[_username] != address(0) */\n      swap1\n      pop\n        /* \"contracts/UserAuth.sol\":1036:1184  function isUsernameRegistered(string memory _username) public view returns (bool) {... */\n      swap2\n      swap1\n      pop\n      jump\t// out\n        /* \"contracts/UserAuth.sol\":1190:1378  function getUser(address _user) public view returns (string memory, address, bool) {... */\n    tag_23:\n        /* \"contracts/UserAuth.sol\":1243:1256  string memory */\n      0x60\n        /* \"contracts/UserAuth.sol\":1258:1265  address */\n      0x00\n        /* \"contracts/UserAuth.sol\":1267:1271  bool */\n      dup1\n        /* \"contracts/UserAuth.sol\":1283:1296  User memory u */\n      0x00\n        /* \"contracts/UserAuth.sol\":1299:1304  users */\n      dup1\n        /* \"contracts/UserAuth.sol\":1299:1311  users[_user] */\n      0x00\n        /* \"contracts/UserAuth.sol\":1305:1310  _user */\n      dup7\n        /* \"contracts/UserAuth.sol\":1299:1311  users[_user] */\n      0xffffffffffffffffffffffffffffffffffffffff\n      and\n      0xffffffffffffffffffffffffffffffffffffffff\n      and\n      dup2\n      mstore\n      0x20\n      add\n      swap1\n      dup2\n      mstore\n      0x20\n      add\n      0x00\n      keccak256\n        /* \"contracts/UserAuth.sol\":1283:1311  User memory u = users[_user] */\n      mload(0x40)\n      dup1\n      0x60\n      add\n      0x40\n      mstore\n      swap1\n      dup2\n      0x00\n      dup3\n      add\n      dup1\n      sload\n      tag_47\n      swap1\n      tag_35\n      jump\t// in\n    tag_47:\n      dup1\n      0x1f\n      add\n      0x20\n      dup1\n      swap2\n      div\n      mul\n      0x20\n      add\n      mload(0x40)\n      swap1\n      dup2\n      add\n      0x40\n      mstore\n      dup1\n      swap3\n      swap2\n      swap1\n      dup2\n      dup2\n      mstore\n      0x20\n      add\n      dup3\n      dup1\n      sload\n      tag_48\n      swap1\n      tag_35\n      jump\t// in\n    tag_48:\n      dup1\n      iszero\n      tag_49\n      jumpi\n      dup1\n      0x1f\n      lt\n      tag_50\n      jumpi\n      0x0100\n      dup1\n      dup4\n      sload\n      div\n      mul\n      dup4\n      mstore\n      swap2\n      0x20\n      add\n      swap2\n      jump(tag_49)\n    tag_50:\n      dup3\n      add\n      swap2\n      swap1\n      0x00\n      mstore\n      keccak256(0x00, 0x20)\n      swap1\n    tag_51:\n      dup2\n      sload\n      dup2\n      mstore\n      swap1\n      0x01\n      add\n      swap1\n      0x20\n      add\n      dup1\n      dup4\n      gt\n      tag_51\n      jumpi\n      dup3\n      swap1\n      sub\n      0x1f\n      and\n      dup3\n      add\n      swap2\n    tag_49:\n      pop\n      pop\n      pop\n      pop\n      pop\n      dup2\n      mstore\n      0x20\n      add\n      0x01\n      dup3\n      add\n      0x00\n      swap1\n      sload\n      swap1\n      0x0100\n      exp\n      swap1\n      div\n      0xffffffffffffffffffffffffffffffffffffffff\n      and\n      0xffffffffffffffffffffffffffffffffffffffff\n      and\n      0xffffffffffffffffffffffffffffffffffffffff\n      and\n      dup2\n      mstore\n      0x20\n      add\n      0x01\n      dup3\n      add\n      0x14\n      swap1\n      sload\n      swap1\n      0x0100\n      exp\n      swap1\n      div\n      0xff\n      and\n      iszero\n      iszero\n      iszero\n      iszero\n      dup2\n      mstore\n      pop\n      pop\n      swap1\n      pop\n        /* \"contracts/UserAuth.sol\":1329:1330  u */\n      dup1\n        /* \"contracts/UserAuth.sol\":1329:1339  u.username */\n      0x00\n      add\n      mload\n        /* \"contracts/UserAuth.sol\":1341:1342  u */\n      dup2\n        /* \"contracts/UserAuth.sol\":1341:1354  u.userAddress */\n      0x20\n      add\n      mload\n        /* \"contracts/UserAuth.sol\":1356:1357  u */\n      dup3\n        /* \"contracts/UserAuth.sol\":1356:1370  u.isRegistered */\n      0x40\n      add\n      mload\n        /* \"contracts/UserAuth.sol\":1321:1371  return (u.username, u.userAddress, u.isRegistered) */\n      swap4\n      pop\n      swap4\n      pop\n      swap4\n      pop\n      pop\n        /* \"contracts/UserAuth.sol\":1190:1378  function getUser(address _user) public view returns (string memory, address, bool) {... */\n      swap2\n      swap4\n      swap1\n      swap3\n      pop\n      jump\t// out\n        /* \"contracts/UserAuth.sol\":363:907  function register(string memory _username) public {... */\n    tag_28:\n        /* \"contracts/UserAuth.sol\":432:437  users */\n      0x00\n        /* \"contracts/UserAuth.sol\":432:449  users[msg.sender] */\n      dup1\n        /* \"contracts/UserAuth.sol\":438:448  msg.sender */\n      caller\n        /* \"contracts/UserAuth.sol\":432:449  users[msg.sender] */\n      0xffffffffffffffffffffffffffffffffffffffff\n      and\n      0xffffffffffffffffffffffffffffffffffffffff\n      and\n      dup2\n      mstore\n      0x20\n      add\n      swap1\n      dup2\n      mstore\n      0x20\n      add\n      0x00\n      keccak256\n        /* \"contracts/UserAuth.sol\":432:462  users[msg.sender].isRegistered */\n      0x01\n      add\n      0x14\n      swap1\n      sload\n      swap1\n      0x0100\n      exp\n      swap1\n      div\n      0xff\n      and\n        /* \"contracts/UserAuth.sol\":431:462  !users[msg.sender].isRegistered */\n      iszero\n        /* \"contracts/UserAuth.sol\":423:485  require(!users[msg.sender].isRegistered, \"Already registered\") */\n      tag_53\n      jumpi\n      mload(0x40)\n      0x08c379a000000000000000000000000000000000000000000000000000000000\n      dup2\n      mstore\n      0x04\n      add\n      tag_54\n      swap1\n      tag_55\n      jump\t// in\n    tag_54:\n      mload(0x40)\n      dup1\n      swap2\n      sub\n      swap1\n      revert\n    tag_53:\n        /* \"contracts/UserAuth.sol\":529:530  0 */\n      0x00\n        /* \"contracts/UserAuth.sol\":509:518  _username */\n      dup2\n        /* \"contracts/UserAuth.sol\":503:526  bytes(_username).length */\n      mload\n        /* \"contracts/UserAuth.sol\":503:530  bytes(_username).length > 0 */\n      gt\n        /* \"contracts/UserAuth.sol\":495:559  require(bytes(_username).length > 0, \"Username cannot be empty\") */\n      tag_56\n      jumpi\n      mload(0x40)\n      0x08c379a000000000000000000000000000000000000000000000000000000000\n      dup2\n      mstore\n      0x04\n      add\n      tag_57\n      swap1\n      tag_58\n      jump\t// in\n    tag_57:\n      mload(0x40)\n      dup1\n      swap2\n      sub\n      swap1\n      revert\n    tag_56:\n        /* \"contracts/UserAuth.sol\":617:618  0 */\n      0x00\n        /* \"contracts/UserAuth.sol\":577:619  usernameToAddress[_username] == address(0) */\n      0xffffffffffffffffffffffffffffffffffffffff\n      and\n        /* \"contracts/UserAuth.sol\":577:594  usernameToAddress */\n      0x01\n        /* \"contracts/UserAuth.sol\":595:604  _username */\n      dup3\n        /* \"contracts/UserAuth.sol\":577:605  usernameToAddress[_username] */\n      mload(0x40)\n      tag_59\n      swap2\n      swap1\n      tag_41\n      jump\t// in\n    tag_59:\n      swap1\n      dup2\n      mstore\n      0x20\n      add\n      mload(0x40)\n      dup1\n      swap2\n      sub\n      swap1\n      keccak256\n      0x00\n      swap1\n      sload\n      swap1\n      0x0100\n      exp\n      swap1\n      div\n      0xffffffffffffffffffffffffffffffffffffffff\n      and\n        /* \"contracts/UserAuth.sol\":577:619  usernameToAddress[_username] == address(0) */\n      0xffffffffffffffffffffffffffffffffffffffff\n      and\n      eq\n        /* \"contracts/UserAuth.sol\":569:646  require(usernameToAddress[_username] == address(0), \"Username already taken\") */\n      tag_60\n      jumpi\n      mload(0x40)\n      0x08c379a000000000000000000000000000000000000000000000000000000000\n      dup2\n      mstore\n      0x04\n      add\n      tag_61\n      swap1\n      tag_62\n      jump\t// in\n    tag_61:\n      mload(0x40)\n      dup1\n      swap2\n      sub\n      swap1\n      revert\n    tag_60:\n        /* \"contracts/UserAuth.sol\":677:795  User({... */\n      mload(0x40)\n      dup1\n      0x60\n      add\n      0x40\n      mstore\n      dup1\n        /* \"contracts/UserAuth.sol\":706:715  _username */\n      dup3\n        /* \"contracts/UserAuth.sol\":677:795  User({... */\n      dup2\n      mstore\n      0x20\n      add\n        /* \"contracts/UserAuth.sol\":742:752  msg.sender */\n      caller\n        /* \"contracts/UserAuth.sol\":677:795  User({... */\n      0xffffffffffffffffffffffffffffffffffffffff\n      and\n      dup2\n      mstore\n      0x20\n      add\n        /* \"contracts/UserAuth.sol\":780:784  true */\n      0x01\n        /* \"contracts/UserAuth.sol\":677:795  User({... */\n      iszero\n      iszero\n      dup2\n      mstore\n      pop\n        /* \"contracts/UserAuth.sol\":657:662  users */\n      0x00\n        /* \"contracts/UserAuth.sol\":657:674  users[msg.sender] */\n      dup1\n        /* \"contracts/UserAuth.sol\":663:673  msg.sender */\n      caller\n        /* \"contracts/UserAuth.sol\":657:674  users[msg.sender] */\n      0xffffffffffffffffffffffffffffffffffffffff\n      and\n      0xffffffffffffffffffffffffffffffffffffffff\n      and\n      dup2\n      mstore\n      0x20\n      add\n      swap1\n      dup2\n      mstore\n      0x20\n      add\n      0x00\n      keccak256\n        /* \"contracts/UserAuth.sol\":657:795  users[msg.sender] = User({... */\n      0x00\n      dup3\n      add\n      mload\n      dup2\n      0x00\n      add\n      swap1\n      dup2\n      tag_63\n      swap2\n      swap1\n      tag_64\n      jump\t// in\n    tag_63:\n      pop\n      0x20\n      dup3\n      add\n      mload\n      dup2\n      0x01\n      add\n      exp(0x0100, 0x00)\n      dup2\n      sload\n      dup2\n      0xffffffffffffffffffffffffffffffffffffffff\n      mul\n      not\n      and\n      swap1\n      dup4\n      0xffffffffffffffffffffffffffffffffffffffff\n      and\n      mul\n      or\n      swap1\n      sstore\n      pop\n      0x40\n      dup3\n      add\n      mload\n      dup2\n      0x01\n      add\n      exp(0x0100, 0x14)\n      dup2\n      sload\n      dup2\n      0xff\n      mul\n      not\n      and\n      swap1\n      dup4\n      iszero\n      iszero\n      mul\n      or\n      swap1\n      sstore\n      pop\n      swap1\n      pop\n      pop\n        /* \"contracts/UserAuth.sol\":837:847  msg.sender */\n      caller\n        /* \"contracts/UserAuth.sol\":806:823  usernameToAddress */\n      0x01\n        /* \"contracts/UserAuth.sol\":824:833  _username */\n      dup3\n        /* \"contracts/UserAuth.sol\":806:834  usernameToAddress[_username] */\n      mload(0x40)\n      tag_65\n      swap2\n      swap1\n      tag_41\n      jump\t// in\n    tag_65:\n      swap1\n      dup2\n      mstore\n      0x20\n      add\n      mload(0x40)\n      dup1\n      swap2\n      sub\n      swap1\n      keccak256\n      0x00\n        /* \"contracts/UserAuth.sol\":806:847  usernameToAddress[_username] = msg.sender */\n      0x0100\n      exp\n      dup2\n      sload\n      dup2\n      0xffffffffffffffffffffffffffffffffffffffff\n      mul\n      not\n      and\n      swap1\n      dup4\n      0xffffffffffffffffffffffffffffffffffffffff\n      and\n      mul\n      or\n      swap1\n      sstore\n      pop\n        /* \"contracts/UserAuth.sol\":878:888  msg.sender */\n      caller\n        /* \"contracts/UserAuth.sol\":863:900  UserRegistered(msg.sender, _username) */\n      0xffffffffffffffffffffffffffffffffffffffff\n      and\n      0x48cac28ad4dc618e15f4c2dd5e97751182f166de97b25618318b2112aa951a2f\n        /* \"contracts/UserAuth.sol\":890:899  _username */\n      dup3\n        /* \"contracts/UserAuth.sol\":863:900  UserRegistered(msg.sender, _username) */\n      mload(0x40)\n      tag_66\n      swap2\n      swap1\n      tag_67\n      jump\t// in\n    tag_66:\n      mload(0x40)\n      dup1\n      swap2\n      sub\n      swap1\n      log2\n        /* \"contracts/UserAuth.sol\":363:907  function register(string memory _username) public {... */\n      pop\n      jump\t// out\n    tag_43:\n      pop\n      dup1\n      sload\n      tag_68\n      swap1\n      tag_35\n      jump\t// in\n    tag_68:\n      0x00\n      dup3\n      sstore\n      dup1\n      0x1f\n      lt\n      tag_70\n      jumpi\n      pop\n      pop\n      jump(tag_69)\n    tag_70:\n      0x1f\n      add\n      0x20\n      swap1\n      div\n      swap1\n      0x00\n      mstore\n      keccak256(0x00, 0x20)\n      swap1\n      tag_71\n      swap2\n      swap1\n      tag_72\n      jump\t// in\n    tag_71:\n    tag_69:\n      jump\t// out\n    tag_72:\n      0x00\n    tag_73:\n      dup1\n      dup3\n      gt\n      iszero\n      tag_74\n      jumpi\n      dup3\n      dup2\n      add\n      0x00\n      swap1\n      sstore\n      0x01\n      add\n      jump(tag_73)\n    tag_74:\n      pop\n      pop\n      pop\n      jump\t// out\n        /* \"#utility.yul\":7:82   */\n    tag_75:\n        /* \"#utility.yul\":40:46   */\n      0x00\n        /* \"#utility.yul\":73:75   */\n      0x40\n        /* \"#utility.yul\":67:76   */\n      mload\n        /* \"#utility.yul\":57:76   */\n      swap1\n      pop\n        /* \"#utility.yul\":7:82   */\n      swap1\n      jump\t// out\n        /* \"#utility.yul\":88:205   */\n    tag_76:\n        /* \"#utility.yul\":197:198   */\n      0x00\n        /* \"#utility.yul\":194:195   */\n      dup1\n        /* \"#utility.yul\":187:199   */\n      revert\n        /* \"#utility.yul\":211:328   */\n    tag_77:\n        /* \"#utility.yul\":320:321   */\n      0x00\n        /* \"#utility.yul\":317:318   */\n      dup1\n        /* \"#utility.yul\":310:322   */\n      revert\n        /* \"#utility.yul\":334:460   */\n    tag_78:\n        /* \"#utility.yul\":371:378   */\n      0x00\n        /* \"#utility.yul\":411:453   */\n      0xffffffffffffffffffffffffffffffffffffffff\n        /* \"#utility.yul\":404:409   */\n      dup3\n        /* \"#utility.yul\":400:454   */\n      and\n        /* \"#utility.yul\":389:454   */\n      swap1\n      pop\n        /* \"#utility.yul\":334:460   */\n      swap2\n      swap1\n      pop\n      jump\t// out\n        /* \"#utility.yul\":466:562   */\n    tag_79:\n        /* \"#utility.yul\":503:510   */\n      0x00\n        /* \"#utility.yul\":532:556   */\n      tag_132\n        /* \"#utility.yul\":550:555   */\n      dup3\n        /* \"#utility.yul\":532:556   */\n      tag_78\n      jump\t// in\n    tag_132:\n        /* \"#utility.yul\":521:556   */\n      swap1\n      pop\n        /* \"#utility.yul\":466:562   */\n      swap2\n      swap1\n      pop\n      jump\t// out\n        /* \"#utility.yul\":568:690   */\n    tag_80:\n        /* \"#utility.yul\":641:665   */\n      tag_134\n        /* \"#utility.yul\":659:664   */\n      dup2\n        /* \"#utility.yul\":641:665   */\n      tag_79\n      jump\t// in\n    tag_134:\n        /* \"#utility.yul\":634:639   */\n      dup2\n        /* \"#utility.yul\":631:666   */\n      eq\n        /* \"#utility.yul\":621:684   */\n      tag_135\n      jumpi\n        /* \"#utility.yul\":680:681   */\n      0x00\n        /* \"#utility.yul\":677:678   */\n      dup1\n        /* \"#utility.yul\":670:682   */\n      revert\n        /* \"#utility.yul\":621:684   */\n    tag_135:\n        /* \"#utility.yul\":568:690   */\n      pop\n      jump\t// out\n        /* \"#utility.yul\":696:835   */\n    tag_81:\n        /* \"#utility.yul\":742:747   */\n      0x00\n        /* \"#utility.yul\":780:786   */\n      dup2\n        /* \"#utility.yul\":767:787   */\n      calldataload\n        /* \"#utility.yul\":758:787   */\n      swap1\n      pop\n        /* \"#utility.yul\":796:829   */\n      tag_137\n        /* \"#utility.yul\":823:828   */\n      dup2\n        /* \"#utility.yul\":796:829   */\n      tag_80\n      jump\t// in\n    tag_137:\n        /* \"#utility.yul\":696:835   */\n      swap3\n      swap2\n      pop\n      pop\n      jump\t// out\n        /* \"#utility.yul\":841:1170   */\n    tag_10:\n        /* \"#utility.yul\":900:906   */\n      0x00\n        /* \"#utility.yul\":949:951   */\n      0x20\n        /* \"#utility.yul\":937:946   */\n      dup3\n        /* \"#utility.yul\":928:935   */\n      dup5\n        /* \"#utility.yul\":924:947   */\n      sub\n        /* \"#utility.yul\":920:952   */\n      slt\n        /* \"#utility.yul\":917:1036   */\n      iszero\n      tag_139\n      jumpi\n        /* \"#utility.yul\":955:1034   */\n      tag_140\n      tag_76\n      jump\t// in\n    tag_140:\n        /* \"#utility.yul\":917:1036   */\n    tag_139:\n        /* \"#utility.yul\":1075:1076   */\n      0x00\n        /* \"#utility.yul\":1100:1153   */\n      tag_141\n        /* \"#utility.yul\":1145:1152   */\n      dup5\n        /* \"#utility.yul\":1136:1142   */\n      dup3\n        /* \"#utility.yul\":1125:1134   */\n      dup6\n        /* \"#utility.yul\":1121:1143   */\n      add\n        /* \"#utility.yul\":1100:1153   */\n      tag_81\n      jump\t// in\n    tag_141:\n        /* \"#utility.yul\":1090:1153   */\n      swap2\n      pop\n        /* \"#utility.yul\":1046:1163   */\n      pop\n        /* \"#utility.yul\":841:1170   */\n      swap3\n      swap2\n      pop\n      pop\n      jump\t// out\n        /* \"#utility.yul\":1176:1266   */\n    tag_82:\n        /* \"#utility.yul\":1210:1217   */\n      0x00\n        /* \"#utility.yul\":1253:1258   */\n      dup2\n        /* \"#utility.yul\":1246:1259   */\n      iszero\n        /* \"#utility.yul\":1239:1260   */\n      iszero\n        /* \"#utility.yul\":1228:1260   */\n      swap1\n      pop\n        /* \"#utility.yul\":1176:1266   */\n      swap2\n      swap1\n      pop\n      jump\t// out\n        /* \"#utility.yul\":1272:1381   */\n    tag_83:\n        /* \"#utility.yul\":1353:1374   */\n      tag_144\n        /* \"#utility.yul\":1368:1373   */\n      dup2\n        /* \"#utility.yul\":1353:1374   */\n      tag_82\n      jump\t// in\n    tag_144:\n        /* \"#utility.yul\":1348:1351   */\n      dup3\n        /* \"#utility.yul\":1341:1375   */\n      mstore\n        /* \"#utility.yul\":1272:1381   */\n      pop\n      pop\n      jump\t// out\n        /* \"#utility.yul\":1387:1597   */\n    tag_13:\n        /* \"#utility.yul\":1474:1478   */\n      0x00\n        /* \"#utility.yul\":1512:1514   */\n      0x20\n        /* \"#utility.yul\":1501:1510   */\n      dup3\n        /* \"#utility.yul\":1497:1515   */\n      add\n        /* \"#utility.yul\":1489:1515   */\n      swap1\n      pop\n        /* \"#utility.yul\":1525:1590   */\n      tag_146\n        /* \"#utility.yul\":1587:1588   */\n      0x00\n        /* \"#utility.yul\":1576:1585   */\n      dup4\n        /* \"#utility.yul\":1572:1589   */\n      add\n        /* \"#utility.yul\":1563:1569   */\n      dup5\n        /* \"#utility.yul\":1525:1590   */\n      tag_83\n      jump\t// in\n    tag_146:\n        /* \"#utility.yul\":1387:1597   */\n      swap3\n      swap2\n      pop\n      pop\n      jump\t// out\n        /* \"#utility.yul\":1603:1720   */\n    tag_84:\n        /* \"#utility.yul\":1712:1713   */\n      0x00\n        /* \"#utility.yul\":1709:1710   */\n      dup1\n        /* \"#utility.yul\":1702:1714   */\n      revert\n        /* \"#utility.yul\":1726:1843   */\n    tag_85:\n        /* \"#utility.yul\":1835:1836   */\n      0x00\n        /* \"#utility.yul\":1832:1833   */\n      dup1\n        /* \"#utility.yul\":1825:1837   */\n      revert\n        /* \"#utility.yul\":1849:1951   */\n    tag_86:\n        /* \"#utility.yul\":1890:1896   */\n      0x00\n        /* \"#utility.yul\":1941:1943   */\n      0x1f\n        /* \"#utility.yul\":1937:1944   */\n      not\n        /* \"#utility.yul\":1932:1934   */\n      0x1f\n        /* \"#utility.yul\":1925:1930   */\n      dup4\n        /* \"#utility.yul\":1921:1935   */\n      add\n        /* \"#utility.yul\":1917:1945   */\n      and\n        /* \"#utility.yul\":1907:1945   */\n      swap1\n      pop\n        /* \"#utility.yul\":1849:1951   */\n      swap2\n      swap1\n      pop\n      jump\t// out\n        /* \"#utility.yul\":1957:2137   */\n    tag_87:\n        /* \"#utility.yul\":2005:2082   */\n      0x4e487b7100000000000000000000000000000000000000000000000000000000\n        /* \"#utility.yul\":2002:2003   */\n      0x00\n        /* \"#utility.yul\":1995:2083   */\n      mstore\n        /* \"#utility.yul\":2102:2106   */\n      0x41\n        /* \"#utility.yul\":2099:2100   */\n      0x04\n        /* \"#utility.yul\":2092:2107   */\n      mstore\n        /* \"#utility.yul\":2126:2130   */\n      0x24\n        /* \"#utility.yul\":2123:2124   */\n      0x00\n        /* \"#utility.yul\":2116:2131   */\n      revert\n        /* \"#utility.yul\":2143:2424   */\n    tag_88:\n        /* \"#utility.yul\":2226:2253   */\n      tag_152\n        /* \"#utility.yul\":2248:2252   */\n      dup3\n        /* \"#utility.yul\":2226:2253   */\n      tag_86\n      jump\t// in\n    tag_152:\n        /* \"#utility.yul\":2218:2224   */\n      dup2\n        /* \"#utility.yul\":2214:2254   */\n      add\n        /* \"#utility.yul\":2356:2362   */\n      dup2\n        /* \"#utility.yul\":2344:2354   */\n      dup2\n        /* \"#utility.yul\":2341:2363   */\n      lt\n        /* \"#utility.yul\":2320:2338   */\n      0xffffffffffffffff\n        /* \"#utility.yul\":2308:2318   */\n      dup3\n        /* \"#utility.yul\":2305:2339   */\n      gt\n        /* \"#utility.yul\":2302:2364   */\n      or\n        /* \"#utility.yul\":2299:2387   */\n      iszero\n      tag_153\n      jumpi\n        /* \"#utility.yul\":2367:2385   */\n      tag_154\n      tag_87\n      jump\t// in\n    tag_154:\n        /* \"#utility.yul\":2299:2387   */\n    tag_153:\n        /* \"#utility.yul\":2407:2417   */\n      dup1\n        /* \"#utility.yul\":2403:2405   */\n      0x40\n        /* \"#utility.yul\":2396:2418   */\n      mstore\n        /* \"#utility.yul\":2186:2424   */\n      pop\n        /* \"#utility.yul\":2143:2424   */\n      pop\n      pop\n      jump\t// out\n        /* \"#utility.yul\":2430:2559   */\n    tag_89:\n        /* \"#utility.yul\":2464:2470   */\n      0x00\n        /* \"#utility.yul\":2491:2511   */\n      tag_156\n      tag_75\n      jump\t// in\n    tag_156:\n        /* \"#utility.yul\":2481:2511   */\n      swap1\n      pop\n        /* \"#utility.yul\":2520:2553   */\n      tag_157\n        /* \"#utility.yul\":2548:2552   */\n      dup3\n        /* \"#utility.yul\":2540:2546   */\n      dup3\n        /* \"#utility.yul\":2520:2553   */\n      tag_88\n      jump\t// in\n    tag_157:\n        /* \"#utility.yul\":2430:2559   */\n      swap2\n      swap1\n      pop\n      jump\t// out\n        /* \"#utility.yul\":2565:2873   */\n    tag_90:\n        /* \"#utility.yul\":2627:2631   */\n      0x00\n        /* \"#utility.yul\":2717:2735   */\n      0xffffffffffffffff\n        /* \"#utility.yul\":2709:2715   */\n      dup3\n        /* \"#utility.yul\":2706:2736   */\n      gt\n        /* \"#utility.yul\":2703:2759   */\n      iszero\n      tag_159\n      jumpi\n        /* \"#utility.yul\":2739:2757   */\n      tag_160\n      tag_87\n      jump\t// in\n    tag_160:\n        /* \"#utility.yul\":2703:2759   */\n    tag_159:\n        /* \"#utility.yul\":2777:2806   */\n      tag_161\n        /* \"#utility.yul\":2799:2805   */\n      dup3\n        /* \"#utility.yul\":2777:2806   */\n      tag_86\n      jump\t// in\n    tag_161:\n        /* \"#utility.yul\":2769:2806   */\n      swap1\n      pop\n        /* \"#utility.yul\":2861:2865   */\n      0x20\n        /* \"#utility.yul\":2855:2859   */\n      dup2\n        /* \"#utility.yul\":2851:2866   */\n      add\n        /* \"#utility.yul\":2843:2866   */\n      swap1\n      pop\n        /* \"#utility.yul\":2565:2873   */\n      swap2\n      swap1\n      pop\n      jump\t// out\n        /* \"#utility.yul\":2879:3027   */\n    tag_91:\n        /* \"#utility.yul\":2977:2983   */\n      dup3\n        /* \"#utility.yul\":2972:2975   */\n      dup2\n        /* \"#utility.yul\":2967:2970   */\n      dup4\n        /* \"#utility.yul\":2954:2984   */\n      calldatacopy\n        /* \"#utility.yul\":3018:3019   */\n      0x00\n        /* \"#utility.yul\":3009:3015   */\n      dup4\n        /* \"#utility.yul\":3004:3007   */\n      dup4\n        /* \"#utility.yul\":3000:3016   */\n      add\n        /* \"#utility.yul\":2993:3020   */\n      mstore\n        /* \"#utility.yul\":2879:3027   */\n      pop\n      pop\n      pop\n      jump\t// out\n        /* \"#utility.yul\":3033:3458   */\n    tag_92:\n        /* \"#utility.yul\":3111:3116   */\n      0x00\n        /* \"#utility.yul\":3136:3202   */\n      tag_164\n        /* \"#utility.yul\":3152:3201   */\n      tag_165\n        /* \"#utility.yul\":3194:3200   */\n      dup5\n        /* \"#utility.yul\":3152:3201   */\n      tag_90\n      jump\t// in\n    tag_165:\n        /* \"#utility.yul\":3136:3202   */\n      tag_89\n      jump\t// in\n    tag_164:\n        /* \"#utility.yul\":3127:3202   */\n      swap1\n      pop\n        /* \"#utility.yul\":3225:3231   */\n      dup3\n        /* \"#utility.yul\":3218:3223   */\n      dup2\n        /* \"#utility.yul\":3211:3232   */\n      mstore\n        /* \"#utility.yul\":3263:3267   */\n      0x20\n        /* \"#utility.yul\":3256:3261   */\n      dup2\n        /* \"#utility.yul\":3252:3268   */\n      add\n        /* \"#utility.yul\":3301:3304   */\n      dup5\n        /* \"#utility.yul\":3292:3298   */\n      dup5\n        /* \"#utility.yul\":3287:3290   */\n      dup5\n        /* \"#utility.yul\":3283:3299   */\n      add\n        /* \"#utility.yul\":3280:3305   */\n      gt\n        /* \"#utility.yul\":3277:3389   */\n      iszero\n      tag_166\n      jumpi\n        /* \"#utility.yul\":3308:3387   */\n      tag_167\n      tag_85\n      jump\t// in\n    tag_167:\n        /* \"#utility.yul\":3277:3389   */\n    tag_166:\n        /* \"#utility.yul\":3398:3452   */\n      tag_168\n        /* \"#utility.yul\":3445:3451   */\n      dup5\n        /* \"#utility.yul\":3440:3443   */\n      dup3\n        /* \"#utility.yul\":3435:3438   */\n      dup6\n        /* \"#utility.yul\":3398:3452   */\n      tag_91\n      jump\t// in\n    tag_168:\n        /* \"#utility.yul\":3117:3458   */\n      pop\n        /* \"#utility.yul\":3033:3458   */\n      swap4\n      swap3\n      pop\n      pop\n      pop\n      jump\t// out\n        /* \"#utility.yul\":3478:3818   */\n    tag_93:\n        /* \"#utility.yul\":3534:3539   */\n      0x00\n        /* \"#utility.yul\":3583:3586   */\n      dup3\n        /* \"#utility.yul\":3576:3580   */\n      0x1f\n        /* \"#utility.yul\":3568:3574   */\n      dup4\n        /* \"#utility.yul\":3564:3581   */\n      add\n        /* \"#utility.yul\":3560:3587   */\n      slt\n        /* \"#utility.yul\":3550:3672   */\n      tag_170\n      jumpi\n        /* \"#utility.yul\":3591:3670   */\n      tag_171\n      tag_84\n      jump\t// in\n    tag_171:\n        /* \"#utility.yul\":3550:3672   */\n    tag_170:\n        /* \"#utility.yul\":3708:3714   */\n      dup2\n        /* \"#utility.yul\":3695:3715   */\n      calldataload\n        /* \"#utility.yul\":3733:3812   */\n      tag_172\n        /* \"#utility.yul\":3808:3811   */\n      dup5\n        /* \"#utility.yul\":3800:3806   */\n      dup3\n        /* \"#utility.yul\":3793:3797   */\n      0x20\n        /* \"#utility.yul\":3785:3791   */\n      dup7\n        /* \"#utility.yul\":3781:3798   */\n      add\n        /* \"#utility.yul\":3733:3812   */\n      tag_92\n      jump\t// in\n    tag_172:\n        /* \"#utility.yul\":3724:3812   */\n      swap2\n      pop\n        /* \"#utility.yul\":3540:3818   */\n      pop\n        /* \"#utility.yul\":3478:3818   */\n      swap3\n      swap2\n      pop\n      pop\n      jump\t// out\n        /* \"#utility.yul\":3824:4333   */\n    tag_18:\n        /* \"#utility.yul\":3893:3899   */\n      0x00\n        /* \"#utility.yul\":3942:3944   */\n      0x20\n        /* \"#utility.yul\":3930:3939   */\n      dup3\n        /* \"#utility.yul\":3921:3928   */\n      dup5\n        /* \"#utility.yul\":3917:3940   */\n      sub\n        /* \"#utility.yul\":3913:3945   */\n      slt\n        /* \"#utility.yul\":3910:4029   */\n      iszero\n      tag_174\n      jumpi\n        /* \"#utility.yul\":3948:4027   */\n      tag_175\n      tag_76\n      jump\t// in\n    tag_175:\n        /* \"#utility.yul\":3910:4029   */\n    tag_174:\n        /* \"#utility.yul\":4096:4097   */\n      0x00\n        /* \"#utility.yul\":4085:4094   */\n      dup3\n        /* \"#utility.yul\":4081:4098   */\n      add\n        /* \"#utility.yul\":4068:4099   */\n      calldataload\n        /* \"#utility.yul\":4126:4144   */\n      0xffffffffffffffff\n        /* \"#utility.yul\":4118:4124   */\n      dup2\n        /* \"#utility.yul\":4115:4145   */\n      gt\n        /* \"#utility.yul\":4112:4229   */\n      iszero\n      tag_176\n      jumpi\n        /* \"#utility.yul\":4148:4227   */\n      tag_177\n      tag_77\n      jump\t// in\n    tag_177:\n        /* \"#utility.yul\":4112:4229   */\n    tag_176:\n        /* \"#utility.yul\":4253:4316   */\n      tag_178\n        /* \"#utility.yul\":4308:4315   */\n      dup5\n        /* \"#utility.yul\":4299:4305   */\n      dup3\n        /* \"#utility.yul\":4288:4297   */\n      dup6\n        /* \"#utility.yul\":4284:4306   */\n      add\n        /* \"#utility.yul\":4253:4316   */\n      tag_93\n      jump\t// in\n    tag_178:\n        /* \"#utility.yul\":4243:4316   */\n      swap2\n      pop\n        /* \"#utility.yul\":4039:4326   */\n      pop\n        /* \"#utility.yul\":3824:4333   */\n      swap3\n      swap2\n      pop\n      pop\n      jump\t// out\n        /* \"#utility.yul\":4339:4438   */\n    tag_94:\n        /* \"#utility.yul\":4391:4397   */\n      0x00\n        /* \"#utility.yul\":4425:4430   */\n      dup2\n        /* \"#utility.yul\":4419:4431   */\n      mload\n        /* \"#utility.yul\":4409:4431   */\n      swap1\n      pop\n        /* \"#utility.yul\":4339:4438   */\n      swap2\n      swap1\n      pop\n      jump\t// out\n        /* \"#utility.yul\":4444:4613   */\n    tag_95:\n        /* \"#utility.yul\":4528:4539   */\n      0x00\n        /* \"#utility.yul\":4562:4568   */\n      dup3\n        /* \"#utility.yul\":4557:4560   */\n      dup3\n        /* \"#utility.yul\":4550:4569   */\n      mstore\n        /* \"#utility.yul\":4602:4606   */\n      0x20\n        /* \"#utility.yul\":4597:4600   */\n      dup3\n        /* \"#utility.yul\":4593:4607   */\n      add\n        /* \"#utility.yul\":4578:4607   */\n      swap1\n      pop\n        /* \"#utility.yul\":4444:4613   */\n      swap3\n      swap2\n      pop\n      pop\n      jump\t// out\n        /* \"#utility.yul\":4619:4867   */\n    tag_96:\n        /* \"#utility.yul\":4701:4702   */\n      0x00\n        /* \"#utility.yul\":4711:4824   */\n    tag_182:\n        /* \"#utility.yul\":4725:4731   */\n      dup4\n        /* \"#utility.yul\":4722:4723   */\n      dup2\n        /* \"#utility.yul\":4719:4732   */\n      lt\n        /* \"#utility.yul\":4711:4824   */\n      iszero\n      tag_184\n      jumpi\n        /* \"#utility.yul\":4810:4811   */\n      dup1\n        /* \"#utility.yul\":4805:4808   */\n      dup3\n        /* \"#utility.yul\":4801:4812   */\n      add\n        /* \"#utility.yul\":4795:4813   */\n      mload\n        /* \"#utility.yul\":4791:4792   */\n      dup2\n        /* \"#utility.yul\":4786:4789   */\n      dup5\n        /* \"#utility.yul\":4782:4793   */\n      add\n        /* \"#utility.yul\":4775:4814   */\n      mstore\n        /* \"#utility.yul\":4747:4749   */\n      0x20\n        /* \"#utility.yul\":4744:4745   */\n      dup2\n        /* \"#utility.yul\":4740:4750   */\n      add\n        /* \"#utility.yul\":4735:4750   */\n      swap1\n      pop\n        /* \"#utility.yul\":4711:4824   */\n      jump(tag_182)\n    tag_184:\n        /* \"#utility.yul\":4858:4859   */\n      0x00\n        /* \"#utility.yul\":4849:4855   */\n      dup5\n        /* \"#utility.yul\":4844:4847   */\n      dup5\n        /* \"#utility.yul\":4840:4856   */\n      add\n        /* \"#utility.yul\":4833:4860   */\n      mstore\n        /* \"#utility.yul\":4681:4867   */\n      pop\n        /* \"#utility.yul\":4619:4867   */\n      pop\n      pop\n      pop\n      jump\t// out\n        /* \"#utility.yul\":4873:5250   */\n    tag_97:\n        /* \"#utility.yul\":4961:4964   */\n      0x00\n        /* \"#utility.yul\":4989:5028   */\n      tag_186\n        /* \"#utility.yul\":5022:5027   */\n      dup3\n        /* \"#utility.yul\":4989:5028   */\n      tag_94\n      jump\t// in\n    tag_186:\n        /* \"#utility.yul\":5044:5115   */\n      tag_187\n        /* \"#utility.yul\":5108:5114   */\n      dup2\n        /* \"#utility.yul\":5103:5106   */\n      dup6\n        /* \"#utility.yul\":5044:5115   */\n      tag_95\n      jump\t// in\n    tag_187:\n        /* \"#utility.yul\":5037:5115   */\n      swap4\n      pop\n        /* \"#utility.yul\":5124:5189   */\n      tag_188\n        /* \"#utility.yul\":5182:5188   */\n      dup2\n        /* \"#utility.yul\":5177:5180   */\n      dup6\n        /* \"#utility.yul\":5170:5174   */\n      0x20\n        /* \"#utility.yul\":5163:5168   */\n      dup7\n        /* \"#utility.yul\":5159:5175   */\n      add\n        /* \"#utility.yul\":5124:5189   */\n      tag_96\n      jump\t// in\n    tag_188:\n        /* \"#utility.yul\":5214:5243   */\n      tag_189\n        /* \"#utility.yul\":5236:5242   */\n      dup2\n        /* \"#utility.yul\":5214:5243   */\n      tag_86\n      jump\t// in\n    tag_189:\n        /* \"#utility.yul\":5209:5212   */\n      dup5\n        /* \"#utility.yul\":5205:5244   */\n      add\n        /* \"#utility.yul\":5198:5244   */\n      swap2\n      pop\n        /* \"#utility.yul\":4965:5250   */\n      pop\n        /* \"#utility.yul\":4873:5250   */\n      swap3\n      swap2\n      pop\n      pop\n      jump\t// out\n        /* \"#utility.yul\":5256:5374   */\n    tag_98:\n        /* \"#utility.yul\":5343:5367   */\n      tag_191\n        /* \"#utility.yul\":5361:5366   */\n      dup2\n        /* \"#utility.yul\":5343:5367   */\n      tag_79\n      jump\t// in\n    tag_191:\n        /* \"#utility.yul\":5338:5341   */\n      dup3\n        /* \"#utility.yul\":5331:5368   */\n      mstore\n        /* \"#utility.yul\":5256:5374   */\n      pop\n      pop\n      jump\t// out\n        /* \"#utility.yul\":5380:5901   */\n    tag_25:\n        /* \"#utility.yul\":5543:5547   */\n      0x00\n        /* \"#utility.yul\":5581:5583   */\n      0x60\n        /* \"#utility.yul\":5570:5579   */\n      dup3\n        /* \"#utility.yul\":5566:5584   */\n      add\n        /* \"#utility.yul\":5558:5584   */\n      swap1\n      pop\n        /* \"#utility.yul\":5630:5639   */\n      dup2\n        /* \"#utility.yul\":5624:5628   */\n      dup2\n        /* \"#utility.yul\":5620:5640   */\n      sub\n        /* \"#utility.yul\":5616:5617   */\n      0x00\n        /* \"#utility.yul\":5605:5614   */\n      dup4\n        /* \"#utility.yul\":5601:5618   */\n      add\n        /* \"#utility.yul\":5594:5641   */\n      mstore\n        /* \"#utility.yul\":5658:5736   */\n      tag_193\n        /* \"#utility.yul\":5731:5735   */\n      dup2\n        /* \"#utility.yul\":5722:5728   */\n      dup7\n        /* \"#utility.yul\":5658:5736   */\n      tag_97\n      jump\t// in\n    tag_193:\n        /* \"#utility.yul\":5650:5736   */\n      swap1\n      pop\n        /* \"#utility.yul\":5746:5818   */\n      tag_194\n        /* \"#utility.yul\":5814:5816   */\n      0x20\n        /* \"#utility.yul\":5803:5812   */\n      dup4\n        /* \"#utility.yul\":5799:5817   */\n      add\n        /* \"#utility.yul\":5790:5796   */\n      dup6\n        /* \"#utility.yul\":5746:5818   */\n      tag_98\n      jump\t// in\n    tag_194:\n        /* \"#utility.yul\":5828:5894   */\n      tag_195\n        /* \"#utility.yul\":5890:5892   */\n      0x40\n        /* \"#utility.yul\":5879:5888   */\n      dup4\n        /* \"#utility.yul\":5875:5893   */\n      add\n        /* \"#utility.yul\":5866:5872   */\n      dup5\n        /* \"#utility.yul\":5828:5894   */\n      tag_83\n      jump\t// in\n    tag_195:\n        /* \"#utility.yul\":5380:5901   */\n      swap5\n      swap4\n      pop\n      pop\n      pop\n      pop\n      jump\t// out\n        /* \"#utility.yul\":5907:6071   */\n    tag_99:\n        /* \"#utility.yul\":6047:6063   */\n      0x4e6f742072656769737465726564000000000000000000000000000000000000\n        /* \"#utility.yul\":6043:6044   */\n      0x00\n        /* \"#utility.yul\":6035:6041   */\n      dup3\n        /* \"#utility.yul\":6031:6045   */\n      add\n        /* \"#utility.yul\":6024:6064   */\n      mstore\n        /* \"#utility.yul\":5907:6071   */\n      pop\n      jump\t// out\n        /* \"#utility.yul\":6077:6443   */\n    tag_100:\n        /* \"#utility.yul\":6219:6222   */\n      0x00\n        /* \"#utility.yul\":6240:6307   */\n      tag_198\n        /* \"#utility.yul\":6304:6306   */\n      0x0e\n        /* \"#utility.yul\":6299:6302   */\n      dup4\n        /* \"#utility.yul\":6240:6307   */\n      tag_95\n      jump\t// in\n    tag_198:\n        /* \"#utility.yul\":6233:6307   */\n      swap2\n      pop\n        /* \"#utility.yul\":6316:6409   */\n      tag_199\n        /* \"#utility.yul\":6405:6408   */\n      dup3\n        /* \"#utility.yul\":6316:6409   */\n      tag_99\n      jump\t// in\n    tag_199:\n        /* \"#utility.yul\":6434:6436   */\n      0x20\n        /* \"#utility.yul\":6429:6432   */\n      dup3\n        /* \"#utility.yul\":6425:6437   */\n      add\n        /* \"#utility.yul\":6418:6437   */\n      swap1\n      pop\n        /* \"#utility.yul\":6077:6443   */\n      swap2\n      swap1\n      pop\n      jump\t// out\n        /* \"#utility.yul\":6449:6868   */\n    tag_33:\n        /* \"#utility.yul\":6615:6619   */\n      0x00\n        /* \"#utility.yul\":6653:6655   */\n      0x20\n        /* \"#utility.yul\":6642:6651   */\n      dup3\n        /* \"#utility.yul\":6638:6656   */\n      add\n        /* \"#utility.yul\":6630:6656   */\n      swap1\n      pop\n        /* \"#utility.yul\":6702:6711   */\n      dup2\n        /* \"#utility.yul\":6696:6700   */\n      dup2\n        /* \"#utility.yul\":6692:6712   */\n      sub\n        /* \"#utility.yul\":6688:6689   */\n      0x00\n        /* \"#utility.yul\":6677:6686   */\n      dup4\n        /* \"#utility.yul\":6673:6690   */\n      add\n        /* \"#utility.yul\":6666:6713   */\n      mstore\n        /* \"#utility.yul\":6730:6861   */\n      tag_201\n        /* \"#utility.yul\":6856:6860   */\n      dup2\n        /* \"#utility.yul\":6730:6861   */\n      tag_100\n      jump\t// in\n    tag_201:\n        /* \"#utility.yul\":6722:6861   */\n      swap1\n      pop\n        /* \"#utility.yul\":6449:6868   */\n      swap2\n      swap1\n      pop\n      jump\t// out\n        /* \"#utility.yul\":6874:7054   */\n    tag_101:\n        /* \"#utility.yul\":6922:6999   */\n      0x4e487b7100000000000000000000000000000000000000000000000000000000\n        /* \"#utility.yul\":6919:6920   */\n      0x00\n        /* \"#utility.yul\":6912:7000   */\n      mstore\n        /* \"#utility.yul\":7019:7023   */\n      0x22\n        /* \"#utility.yul\":7016:7017   */\n      0x04\n        /* \"#utility.yul\":7009:7024   */\n      mstore\n        /* \"#utility.yul\":7043:7047   */\n      0x24\n        /* \"#utility.yul\":7040:7041   */\n      0x00\n        /* \"#utility.yul\":7033:7048   */\n      revert\n        /* \"#utility.yul\":7060:7380   */\n    tag_35:\n        /* \"#utility.yul\":7104:7110   */\n      0x00\n        /* \"#utility.yul\":7141:7142   */\n      0x02\n        /* \"#utility.yul\":7135:7139   */\n      dup3\n        /* \"#utility.yul\":7131:7143   */\n      div\n        /* \"#utility.yul\":7121:7143   */\n      swap1\n      pop\n        /* \"#utility.yul\":7188:7189   */\n      0x01\n        /* \"#utility.yul\":7182:7186   */\n      dup3\n        /* \"#utility.yul\":7178:7190   */\n      and\n        /* \"#utility.yul\":7209:7227   */\n      dup1\n        /* \"#utility.yul\":7199:7280   */\n      tag_204\n      jumpi\n        /* \"#utility.yul\":7265:7269   */\n      0x7f\n        /* \"#utility.yul\":7257:7263   */\n      dup3\n        /* \"#utility.yul\":7253:7270   */\n      and\n        /* \"#utility.yul\":7243:7270   */\n      swap2\n      pop\n        /* \"#utility.yul\":7199:7280   */\n    tag_204:\n        /* \"#utility.yul\":7327:7329   */\n      0x20\n        /* \"#utility.yul\":7319:7325   */\n      dup3\n        /* \"#utility.yul\":7316:7330   */\n      lt\n        /* \"#utility.yul\":7296:7314   */\n      dup2\n        /* \"#utility.yul\":7293:7331   */\n      sub\n        /* \"#utility.yul\":7290:7374   */\n      tag_205\n      jumpi\n        /* \"#utility.yul\":7346:7364   */\n      tag_206\n      tag_101\n      jump\t// in\n    tag_206:\n        /* \"#utility.yul\":7290:7374   */\n    tag_205:\n        /* \"#utility.yul\":7111:7380   */\n      pop\n        /* \"#utility.yul\":7060:7380   */\n      swap2\n      swap1\n      pop\n      jump\t// out\n        /* \"#utility.yul\":7386:7534   */\n    tag_102:\n        /* \"#utility.yul\":7488:7499   */\n      0x00\n        /* \"#utility.yul\":7525:7528   */\n      dup2\n        /* \"#utility.yul\":7510:7528   */\n      swap1\n      pop\n        /* \"#utility.yul\":7386:7534   */\n      swap3\n      swap2\n      pop\n      pop\n      jump\t// out\n        /* \"#utility.yul\":7540:7930   */\n    tag_103:\n        /* \"#utility.yul\":7646:7649   */\n      0x00\n        /* \"#utility.yul\":7674:7713   */\n      tag_209\n        /* \"#utility.yul\":7707:7712   */\n      dup3\n        /* \"#utility.yul\":7674:7713   */\n      tag_94\n      jump\t// in\n    tag_209:\n        /* \"#utility.yul\":7729:7818   */\n      tag_210\n        /* \"#utility.yul\":7811:7817   */\n      dup2\n        /* \"#utility.yul\":7806:7809   */\n      dup6\n        /* \"#utility.yul\":7729:7818   */\n      tag_102\n      jump\t// in\n    tag_210:\n        /* \"#utility.yul\":7722:7818   */\n      swap4\n      pop\n        /* \"#utility.yul\":7827:7892   */\n      tag_211\n        /* \"#utility.yul\":7885:7891   */\n      dup2\n        /* \"#utility.yul\":7880:7883   */\n      dup6\n        /* \"#utility.yul\":7873:7877   */\n      0x20\n        /* \"#utility.yul\":7866:7871   */\n      dup7\n        /* \"#utility.yul\":7862:7878   */\n      add\n        /* \"#utility.yul\":7827:7892   */\n      tag_96\n      jump\t// in\n    tag_211:\n        /* \"#utility.yul\":7917:7923   */\n      dup1\n        /* \"#utility.yul\":7912:7915   */\n      dup5\n        /* \"#utility.yul\":7908:7924   */\n      add\n        /* \"#utility.yul\":7901:7924   */\n      swap2\n      pop\n        /* \"#utility.yul\":7650:7930   */\n      pop\n        /* \"#utility.yul\":7540:7930   */\n      swap3\n      swap2\n      pop\n      pop\n      jump\t// out\n        /* \"#utility.yul\":7936:8211   */\n    tag_41:\n        /* \"#utility.yul\":8068:8071   */\n      0x00\n        /* \"#utility.yul\":8090:8185   */\n      tag_213\n        /* \"#utility.yul\":8181:8184   */\n      dup3\n        /* \"#utility.yul\":8172:8178   */\n      dup5\n        /* \"#utility.yul\":8090:8185   */\n      tag_103\n      jump\t// in\n    tag_213:\n        /* \"#utility.yul\":8083:8185   */\n      swap2\n      pop\n        /* \"#utility.yul\":8202:8205   */\n      dup2\n        /* \"#utility.yul\":8195:8205   */\n      swap1\n      pop\n        /* \"#utility.yul\":7936:8211   */\n      swap3\n      swap2\n      pop\n      pop\n      jump\t// out\n        /* \"#utility.yul\":8217:8385   */\n    tag_104:\n        /* \"#utility.yul\":8357:8377   */\n      0x416c726561647920726567697374657265640000000000000000000000000000\n        /* \"#utility.yul\":8353:8354   */\n      0x00\n        /* \"#utility.yul\":8345:8351   */\n      dup3\n        /* \"#utility.yul\":8341:8355   */\n      add\n        /* \"#utility.yul\":8334:8378   */\n      mstore\n        /* \"#utility.yul\":8217:8385   */\n      pop\n      jump\t// out\n        /* \"#utility.yul\":8391:8757   */\n    tag_105:\n        /* \"#utility.yul\":8533:8536   */\n      0x00\n        /* \"#utility.yul\":8554:8621   */\n      tag_216\n        /* \"#utility.yul\":8618:8620   */\n      0x12\n        /* \"#utility.yul\":8613:8616   */\n      dup4\n        /* \"#utility.yul\":8554:8621   */\n      tag_95\n      jump\t// in\n    tag_216:\n        /* \"#utility.yul\":8547:8621   */\n      swap2\n      pop\n        /* \"#utility.yul\":8630:8723   */\n      tag_217\n        /* \"#utility.yul\":8719:8722   */\n      dup3\n        /* \"#utility.yul\":8630:8723   */\n      tag_104\n      jump\t// in\n    tag_217:\n        /* \"#utility.yul\":8748:8750   */\n      0x20\n        /* \"#utility.yul\":8743:8746   */\n      dup3\n        /* \"#utility.yul\":8739:8751   */\n      add\n        /* \"#utility.yul\":8732:8751   */\n      swap1\n      pop\n        /* \"#utility.yul\":8391:8757   */\n      swap2\n      swap1\n      pop\n      jump\t// out\n        /* \"#utility.yul\":8763:9182   */\n    tag_55:\n        /* \"#utility.yul\":8929:8933   */\n      0x00\n        /* \"#utility.yul\":8967:8969   */\n      0x20\n        /* \"#utility.yul\":8956:8965   */\n      dup3\n        /* \"#utility.yul\":8952:8970   */\n      add\n        /* \"#utility.yul\":8944:8970   */\n      swap1\n      pop\n        /* \"#utility.yul\":9016:9025   */\n      dup2\n        /* \"#utility.yul\":9010:9014   */\n      dup2\n        /* \"#utility.yul\":9006:9026   */\n      sub\n        /* \"#utility.yul\":9002:9003   */\n      0x00\n        /* \"#utility.yul\":8991:9000   */\n      dup4\n        /* \"#utility.yul\":8987:9004   */\n      add\n        /* \"#utility.yul\":8980:9027   */\n      mstore\n        /* \"#utility.yul\":9044:9175   */\n      tag_219\n        /* \"#utility.yul\":9170:9174   */\n      dup2\n        /* \"#utility.yul\":9044:9175   */\n      tag_105\n      jump\t// in\n    tag_219:\n        /* \"#utility.yul\":9036:9175   */\n      swap1\n      pop\n        /* \"#utility.yul\":8763:9182   */\n      swap2\n      swap1\n      pop\n      jump\t// out\n        /* \"#utility.yul\":9188:9362   */\n    tag_106:\n        /* \"#utility.yul\":9328:9354   */\n      0x557365726e616d652063616e6e6f7420626520656d7074790000000000000000\n        /* \"#utility.yul\":9324:9325   */\n      0x00\n        /* \"#utility.yul\":9316:9322   */\n      dup3\n        /* \"#utility.yul\":9312:9326   */\n      add\n        /* \"#utility.yul\":9305:9355   */\n      mstore\n        /* \"#utility.yul\":9188:9362   */\n      pop\n      jump\t// out\n        /* \"#utility.yul\":9368:9734   */\n    tag_107:\n        /* \"#utility.yul\":9510:9513   */\n      0x00\n        /* \"#utility.yul\":9531:9598   */\n      tag_222\n        /* \"#utility.yul\":9595:9597   */\n      0x18\n        /* \"#utility.yul\":9590:9593   */\n      dup4\n        /* \"#utility.yul\":9531:9598   */\n      tag_95\n      jump\t// in\n    tag_222:\n        /* \"#utility.yul\":9524:9598   */\n      swap2\n      pop\n        /* \"#utility.yul\":9607:9700   */\n      tag_223\n        /* \"#utility.yul\":9696:9699   */\n      dup3\n        /* \"#utility.yul\":9607:9700   */\n      tag_106\n      jump\t// in\n    tag_223:\n        /* \"#utility.yul\":9725:9727   */\n      0x20\n        /* \"#utility.yul\":9720:9723   */\n      dup3\n        /* \"#utility.yul\":9716:9728   */\n      add\n        /* \"#utility.yul\":9709:9728   */\n      swap1\n      pop\n        /* \"#utility.yul\":9368:9734   */\n      swap2\n      swap1\n      pop\n      jump\t// out\n        /* \"#utility.yul\":9740:10159   */\n    tag_58:\n        /* \"#utility.yul\":9906:9910   */\n      0x00\n        /* \"#utility.yul\":9944:9946   */\n      0x20\n        /* \"#utility.yul\":9933:9942   */\n      dup3\n        /* \"#utility.yul\":9929:9947   */\n      add\n        /* \"#utility.yul\":9921:9947   */\n      swap1\n      pop\n        /* \"#utility.yul\":9993:10002   */\n      dup2\n        /* \"#utility.yul\":9987:9991   */\n      dup2\n        /* \"#utility.yul\":9983:10003   */\n      sub\n        /* \"#utility.yul\":9979:9980   */\n      0x00\n        /* \"#utility.yul\":9968:9977   */\n      dup4\n        /* \"#utility.yul\":9964:9981   */\n      add\n        /* \"#utility.yul\":9957:10004   */\n      mstore\n        /* \"#utility.yul\":10021:10152   */\n      tag_225\n        /* \"#utility.yul\":10147:10151   */\n      dup2\n        /* \"#utility.yul\":10021:10152   */\n      tag_107\n      jump\t// in\n    tag_225:\n        /* \"#utility.yul\":10013:10152   */\n      swap1\n      pop\n        /* \"#utility.yul\":9740:10159   */\n      swap2\n      swap1\n      pop\n      jump\t// out\n        /* \"#utility.yul\":10165:10337   */\n    tag_108:\n        /* \"#utility.yul\":10305:10329   */\n      0x557365726e616d6520616c72656164792074616b656e00000000000000000000\n        /* \"#utility.yul\":10301:10302   */\n      0x00\n        /* \"#utility.yul\":10293:10299   */\n      dup3\n        /* \"#utility.yul\":10289:10303   */\n      add\n        /* \"#utility.yul\":10282:10330   */\n      mstore\n        /* \"#utility.yul\":10165:10337   */\n      pop\n      jump\t// out\n        /* \"#utility.yul\":10343:10709   */\n    tag_109:\n        /* \"#utility.yul\":10485:10488   */\n      0x00\n        /* \"#utility.yul\":10506:10573   */\n      tag_228\n        /* \"#utility.yul\":10570:10572   */\n      0x16\n        /* \"#utility.yul\":10565:10568   */\n      dup4\n        /* \"#utility.yul\":10506:10573   */\n      tag_95\n      jump\t// in\n    tag_228:\n        /* \"#utility.yul\":10499:10573   */\n      swap2\n      pop\n        /* \"#utility.yul\":10582:10675   */\n      tag_229\n        /* \"#utility.yul\":10671:10674   */\n      dup3\n        /* \"#utility.yul\":10582:10675   */\n      tag_108\n      jump\t// in\n    tag_229:\n        /* \"#utility.yul\":10700:10702   */\n      0x20\n        /* \"#utility.yul\":10695:10698   */\n      dup3\n        /* \"#utility.yul\":10691:10703   */\n      add\n        /* \"#utility.yul\":10684:10703   */\n      swap1\n      pop\n        /* \"#utility.yul\":10343:10709   */\n      swap2\n      swap1\n      pop\n      jump\t// out\n        /* \"#utility.yul\":10715:11134   */\n    tag_62:\n        /* \"#utility.yul\":10881:10885   */\n      0x00\n        /* \"#utility.yul\":10919:10921   */\n      0x20\n        /* \"#utility.yul\":10908:10917   */\n      dup3\n        /* \"#utility.yul\":10904:10922   */\n      add\n        /* \"#utility.yul\":10896:10922   */\n      swap1\n      pop\n        /* \"#utility.yul\":10968:10977   */\n      dup2\n        /* \"#utility.yul\":10962:10966   */\n      dup2\n        /* \"#utility.yul\":10958:10978   */\n      sub\n        /* \"#utility.yul\":10954:10955   */\n      0x00\n        /* \"#utility.yul\":10943:10952   */\n      dup4\n        /* \"#utility.yul\":10939:10956   */\n      add\n        /* \"#utility.yul\":10932:10979   */\n      mstore\n        /* \"#utility.yul\":10996:11127   */\n      tag_231\n        /* \"#utility.yul\":11122:11126   */\n      dup2\n        /* \"#utility.yul\":10996:11127   */\n      tag_109\n      jump\t// in\n    tag_231:\n        /* \"#utility.yul\":10988:11127   */\n      swap1\n      pop\n        /* \"#utility.yul\":10715:11134   */\n      swap2\n      swap1\n      pop\n      jump\t// out\n        /* \"#utility.yul\":11140:11281   */\n    tag_110:\n        /* \"#utility.yul\":11189:11193   */\n      0x00\n        /* \"#utility.yul\":11212:11215   */\n      dup2\n        /* \"#utility.yul\":11204:11215   */\n      swap1\n      pop\n        /* \"#utility.yul\":11235:11238   */\n      dup2\n        /* \"#utility.yul\":11232:11233   */\n      0x00\n        /* \"#utility.yul\":11225:11239   */\n      mstore\n        /* \"#utility.yul\":11269:11273   */\n      0x20\n        /* \"#utility.yul\":11266:11267   */\n      0x00\n        /* \"#utility.yul\":11256:11274   */\n      keccak256\n        /* \"#utility.yul\":11248:11274   */\n      swap1\n      pop\n        /* \"#utility.yul\":11140:11281   */\n      swap2\n      swap1\n      pop\n      jump\t// out\n        /* \"#utility.yul\":11287:11380   */\n    tag_111:\n        /* \"#utility.yul\":11324:11330   */\n      0x00\n        /* \"#utility.yul\":11371:11373   */\n      0x20\n        /* \"#utility.yul\":11366:11368   */\n      0x1f\n        /* \"#utility.yul\":11359:11364   */\n      dup4\n        /* \"#utility.yul\":11355:11369   */\n      add\n        /* \"#utility.yul\":11351:11374   */\n      div\n        /* \"#utility.yul\":11341:11374   */\n      swap1\n      pop\n        /* \"#utility.yul\":11287:11380   */\n      swap2\n      swap1\n      pop\n      jump\t// out\n        /* \"#utility.yul\":11386:11493   */\n    tag_112:\n        /* \"#utility.yul\":11430:11438   */\n      0x00\n        /* \"#utility.yul\":11480:11485   */\n      dup3\n        /* \"#utility.yul\":11474:11478   */\n      dup3\n        /* \"#utility.yul\":11470:11486   */\n      shl\n        /* \"#utility.yul\":11449:11486   */\n      swap1\n      pop\n        /* \"#utility.yul\":11386:11493   */\n      swap3\n      swap2\n      pop\n      pop\n      jump\t// out\n        /* \"#utility.yul\":11499:11892   */\n    tag_113:\n        /* \"#utility.yul\":11568:11574   */\n      0x00\n        /* \"#utility.yul\":11618:11619   */\n      0x08\n        /* \"#utility.yul\":11606:11616   */\n      dup4\n        /* \"#utility.yul\":11602:11620   */\n      mul\n        /* \"#utility.yul\":11641:11738   */\n      tag_236\n        /* \"#utility.yul\":11671:11737   */\n      0xffffffffffffffffffffffffffffffffffffffffffffffffffffffffffffffff\n        /* \"#utility.yul\":11660:11669   */\n      dup3\n        /* \"#utility.yul\":11641:11738   */\n      tag_112\n      jump\t// in\n    tag_236:\n        /* \"#utility.yul\":11759:11798   */\n      tag_237\n        /* \"#utility.yul\":11789:11797   */\n      dup7\n        /* \"#utility.yul\":11778:11787   */\n      dup4\n        /* \"#utility.yul\":11759:11798   */\n      tag_112\n      jump\t// in\n    tag_237:\n        /* \"#utility.yul\":11747:11798   */\n      swap6\n      pop\n        /* \"#utility.yul\":11831:11835   */\n      dup1\n        /* \"#utility.yul\":11827:11836   */\n      not\n        /* \"#utility.yul\":11820:11825   */\n      dup5\n        /* \"#utility.yul\":11816:11837   */\n      and\n        /* \"#utility.yul\":11807:11837   */\n      swap4\n      pop\n        /* \"#utility.yul\":11880:11884   */\n      dup1\n        /* \"#utility.yul\":11870:11878   */\n      dup7\n        /* \"#utility.yul\":11866:11885   */\n      and\n        /* \"#utility.yul\":11859:11864   */\n      dup5\n        /* \"#utility.yul\":11856:11886   */\n      or\n        /* \"#utility.yul\":11846:11886   */\n      swap3\n      pop\n        /* \"#utility.yul\":11575:11892   */\n      pop\n      pop\n        /* \"#utility.yul\":11499:11892   */\n      swap4\n      swap3\n      pop\n      pop\n      pop\n      jump\t// out\n        /* \"#utility.yul\":11898:11975   */\n    tag_114:\n        /* \"#utility.yul\":11935:11942   */\n      0x00\n        /* \"#utility.yul\":11964:11969   */\n      dup2\n        /* \"#utility.yul\":11953:11969   */\n      swap1\n      pop\n        /* \"#utility.yul\":11898:11975   */\n      swap2\n      swap1\n      pop\n      jump\t// out\n        /* \"#utility.yul\":11981:12041   */\n    tag_115:\n        /* \"#utility.yul\":12009:12012   */\n      0x00\n        /* \"#utility.yul\":12030:12035   */\n      dup2\n        /* \"#utility.yul\":12023:12035   */\n      swap1\n      pop\n        /* \"#utility.yul\":11981:12041   */\n      swap2\n      swap1\n      pop\n      jump\t// out\n        /* \"#utility.yul\":12047:12189   */\n    tag_116:\n        /* \"#utility.yul\":12097:12106   */\n      0x00\n        /* \"#utility.yul\":12130:12183   */\n      tag_241\n        /* \"#utility.yul\":12148:12182   */\n      tag_242\n        /* \"#utility.yul\":12157:12181   */\n      tag_243\n        /* \"#utility.yul\":12175:12180   */\n      dup5\n        /* \"#utility.yul\":12157:12181   */\n      tag_114\n      jump\t// in\n    tag_243:\n        /* \"#utility.yul\":12148:12182   */\n      tag_115\n      jump\t// in\n    tag_242:\n        /* \"#utility.yul\":12130:12183   */\n      tag_114\n      jump\t// in\n    tag_241:\n        /* \"#utility.yul\":12117:12183   */\n      swap1\n      pop\n        /* \"#utility.yul\":12047:12189   */\n      swap2\n      swap1\n      pop\n      jump\t// out\n        /* \"#utility.yul\":12195:12270   */\n    tag_117:\n        /* \"#utility.yul\":12238:12241   */\n      0x00\n        /* \"#utility.yul\":12259:12264   */\n      dup2\n        /* \"#utility.yul\":12252:12264   */\n      swap1\n      pop\n        /* \"#utility.yul\":12195:12270   */\n      swap2\n      swap1\n      pop\n      jump\t// out\n        /* \"#utility.yul\":12276:12545   */\n    tag_118:\n        /* \"#utility.yul\":12386:12425   */\n      tag_246\n        /* \"#utility.yul\":12417:12424   */\n      dup4\n        /* \"#utility.yul\":12386:12425   */\n      tag_116\n      jump\t// in\n    tag_246:\n        /* \"#utility.yul\":12447:12538   */\n      tag_247\n        /* \"#utility.yul\":12496:12537   */\n      tag_248\n        /* \"#utility.yul\":12520:12536   */\n      dup3\n        /* \"#utility.yul\":12496:12537   */\n      tag_117\n      jump\t// in\n    tag_248:\n        /* \"#utility.yul\":12488:12494   */\n      dup5\n        /* \"#utility.yul\":12481:12485   */\n      dup5\n        /* \"#utility.yul\":12475:12486   */\n      sload\n        /* \"#utility.yul\":12447:12538   */\n      tag_113\n      jump\t// in\n    tag_247:\n        /* \"#utility.yul\":12441:12445   */\n      dup3\n        /* \"#utility.yul\":12434:12539   */\n      sstore\n        /* \"#utility.yul\":12352:12545   */\n      pop\n        /* \"#utility.yul\":12276:12545   */\n      pop\n      pop\n      pop\n      jump\t// out\n        /* \"#utility.yul\":12551:12624   */\n    tag_119:\n        /* \"#utility.yul\":12596:12599   */\n      0x00\n        /* \"#utility.yul\":12551:12624   */\n      swap1\n      jump\t// out\n        /* \"#utility.yul\":12630:12819   */\n    tag_120:\n        /* \"#utility.yul\":12707:12739   */\n      tag_251\n      tag_119\n      jump\t// in\n    tag_251:\n        /* \"#utility.yul\":12748:12813   */\n      tag_252\n        /* \"#utility.yul\":12806:12812   */\n      dup2\n        /* \"#utility.yul\":12798:12804   */\n      dup5\n        /* \"#utility.yul\":12792:12796   */\n      dup5\n        /* \"#utility.yul\":12748:12813   */\n      tag_118\n      jump\t// in\n    tag_252:\n        /* \"#utility.yul\":12683:12819   */\n      pop\n        /* \"#utility.yul\":12630:12819   */\n      pop\n      pop\n      jump\t// out\n        /* \"#utility.yul\":12825:13039   */\n    tag_121:\n        /* \"#utility.yul\":12910:12911   */\n      0x00\n        /* \"#utility.yul\":12895:13033   */\n    tag_254:\n        /* \"#utility.yul\":12920:12929   */\n      dup3\n        /* \"#utility.yul\":12917:12918   */\n      dup2\n        /* \"#utility.yul\":12914:12930   */\n      lt\n        /* \"#utility.yul\":12895:13033   */\n      iszero\n      tag_256\n      jumpi\n        /* \"#utility.yul\":12972:13023   */\n      tag_257\n        /* \"#utility.yul\":13021:13022   */\n      0x00\n        /* \"#utility.yul\":13017:13018   */\n      dup3\n        /* \"#utility.yul\":13006:13015   */\n      dup5\n        /* \"#utility.yul\":13002:13019   */\n      add\n        /* \"#utility.yul\":12972:13023   */\n      tag_120\n      jump\t// in\n    tag_257:\n        /* \"#utility.yul\":12945:12946   */\n      0x01\n        /* \"#utility.yul\":12942:12943   */\n      dup2\n        /* \"#utility.yul\":12938:12947   */\n      add\n        /* \"#utility.yul\":12933:12947   */\n      swap1\n      pop\n        /* \"#utility.yul\":12895:13033   */\n      jump(tag_254)\n    tag_256:\n        /* \"#utility.yul\":12899:12913   */\n      pop\n        /* \"#utility.yul\":12825:13039   */\n      pop\n      pop\n      jump\t// out\n        /* \"#utility.yul\":13045:13791   */\n    tag_122:\n        /* \"#utility.yul\":13146:13148   */\n      0x1f\n        /* \"#utility.yul\":13141:13144   */\n      dup3\n        /* \"#utility.yul\":13138:13149   */\n      gt\n        /* \"#utility.yul\":13135:13784   */\n      iszero\n      tag_259\n      jumpi\n        /* \"#utility.yul\":13175:13185   */\n      dup3\n        /* \"#utility.yul\":13170:13173   */\n      dup3\n        /* \"#utility.yul\":13167:13186   */\n      gt\n        /* \"#utility.yul\":13164:13774   */\n      iszero\n      tag_260\n      jumpi\n        /* \"#utility.yul\":13221:13259   */\n      tag_261\n        /* \"#utility.yul\":13253:13258   */\n      dup2\n        /* \"#utility.yul\":13221:13259   */\n      tag_110\n      jump\t// in\n    tag_261:\n        /* \"#utility.yul\":13296:13318   */\n      tag_262\n        /* \"#utility.yul\":13314:13317   */\n      dup4\n        /* \"#utility.yul\":13296:13318   */\n      tag_111\n      jump\t// in\n    tag_262:\n        /* \"#utility.yul\":13355:13384   */\n      tag_263\n        /* \"#utility.yul\":13373:13383   */\n      dup6\n        /* \"#utility.yul\":13355:13384   */\n      tag_111\n      jump\t// in\n    tag_263:\n        /* \"#utility.yul\":13545:13547   */\n      0x20\n        /* \"#utility.yul\":13533:13543   */\n      dup7\n        /* \"#utility.yul\":13530:13548   */\n      lt\n        /* \"#utility.yul\":13527:13606   */\n      iszero\n      tag_264\n      jumpi\n        /* \"#utility.yul\":13587:13588   */\n      0x00\n        /* \"#utility.yul\":13571:13588   */\n      swap1\n      pop\n        /* \"#utility.yul\":13527:13606   */\n    tag_264:\n        /* \"#utility.yul\":13656:13668   */\n      dup1\n        /* \"#utility.yul\":13646:13654   */\n      dup4\n        /* \"#utility.yul\":13642:13669   */\n      add\n        /* \"#utility.yul\":13686:13760   */\n      tag_265\n        /* \"#utility.yul\":13746:13758   */\n      dup3\n        /* \"#utility.yul\":13732:13744   */\n      dup5\n        /* \"#utility.yul\":13728:13759   */\n      sub\n        /* \"#utility.yul\":13715:13726   */\n      dup3\n        /* \"#utility.yul\":13686:13760   */\n      tag_121\n      jump\t// in\n    tag_265:\n        /* \"#utility.yul\":13187:13774   */\n      pop\n      pop\n      pop\n      pop\n        /* \"#utility.yul\":13164:13774   */\n    tag_260:\n        /* \"#utility.yul\":13135:13784   */\n    tag_259:\n        /* \"#utility.yul\":13045:13791   */\n      pop\n      pop\n      pop\n      jump\t// out\n        /* \"#utility.yul\":13797:13914   */\n    tag_123:\n        /* \"#utility.yul\":13851:13859   */\n      0x00\n        /* \"#utility.yul\":13901:13906   */\n      dup3\n        /* \"#utility.yul\":13895:13899   */\n      dup3\n        /* \"#utility.yul\":13891:13907   */\n      shr\n        /* \"#utility.yul\":13870:13907   */\n      swap1\n      pop\n        /* \"#utility.yul\":13797:13914   */\n      swap3\n      swap2\n      pop\n      pop\n      jump\t// out\n        /* \"#utility.yul\":13920:14089   */\n    tag_124:\n        /* \"#utility.yul\":13964:13970   */\n      0x00\n        /* \"#utility.yul\":13997:14048   */\n      tag_268\n        /* \"#utility.yul\":14045:14046   */\n      0x00\n        /* \"#utility.yul\":14041:14047   */\n      not\n        /* \"#utility.yul\":14033:14038   */\n      dup5\n        /* \"#utility.yul\":14030:14031   */\n      0x08\n        /* \"#utility.yul\":14026:14039   */\n      mul\n        /* \"#utility.yul\":13997:14048   */\n      tag_123\n      jump\t// in\n    tag_268:\n        /* \"#utility.yul\":13993:14049   */\n      not\n        /* \"#utility.yul\":14078:14082   */\n      dup1\n        /* \"#utility.yul\":14072:14076   */\n      dup4\n        /* \"#utility.yul\":14068:14083   */\n      and\n        /* \"#utility.yul\":14058:14083   */\n      swap2\n      pop\n        /* \"#utility.yul\":13971:14089   */\n      pop\n        /* \"#utility.yul\":13920:14089   */\n      swap3\n      swap2\n      pop\n      pop\n      jump\t// out\n        /* \"#utility.yul\":14094:14389   */\n    tag_125:\n        /* \"#utility.yul\":14170:14174   */\n      0x00\n        /* \"#utility.yul\":14316:14345   */\n      tag_270\n        /* \"#utility.yul\":14341:14344   */\n      dup4\n        /* \"#utility.yul\":14335:14339   */\n      dup4\n        /* \"#utility.yul\":14316:14345   */\n      tag_124\n      jump\t// in\n    tag_270:\n        /* \"#utility.yul\":14308:14345   */\n      swap2\n      pop\n        /* \"#utility.yul\":14378:14381   */\n      dup3\n        /* \"#utility.yul\":14375:14376   */\n      0x02\n        /* \"#utility.yul\":14371:14382   */\n      mul\n        /* \"#utility.yul\":14365:14369   */\n      dup3\n        /* \"#utility.yul\":14362:14383   */\n      or\n        /* \"#utility.yul\":14354:14383   */\n      swap1\n      pop\n        /* \"#utility.yul\":14094:14389   */\n      swap3\n      swap2\n      pop\n      pop\n      jump\t// out\n        /* \"#utility.yul\":14394:15789   */\n    tag_64:\n        /* \"#utility.yul\":14511:14548   */\n      tag_272\n        /* \"#utility.yul\":14544:14547   */\n      dup3\n        /* \"#utility.yul\":14511:14548   */\n      tag_94\n      jump\t// in\n    tag_272:\n        /* \"#utility.yul\":14613:14631   */\n      0xffffffffffffffff\n        /* \"#utility.yul\":14605:14611   */\n      dup2\n        /* \"#utility.yul\":14602:14632   */\n      gt\n        /* \"#utility.yul\":14599:14655   */\n      iszero\n      tag_273\n      jumpi\n        /* \"#utility.yul\":14635:14653   */\n      tag_274\n      tag_87\n      jump\t// in\n    tag_274:\n        /* \"#utility.yul\":14599:14655   */\n    tag_273:\n        /* \"#utility.yul\":14679:14717   */\n      tag_275\n        /* \"#utility.yul\":14711:14715   */\n      dup3\n        /* \"#utility.yul\":14705:14716   */\n      sload\n        /* \"#utility.yul\":14679:14717   */\n      tag_35\n      jump\t// in\n    tag_275:\n        /* \"#utility.yul\":14764:14831   */\n      tag_276\n        /* \"#utility.yul\":14824:14830   */\n      dup3\n        /* \"#utility.yul\":14816:14822   */\n      dup3\n        /* \"#utility.yul\":14810:14814   */\n      dup6\n        /* \"#utility.yul\":14764:14831   */\n      tag_122\n      jump\t// in\n    tag_276:\n        /* \"#utility.yul\":14858:14859   */\n      0x00\n        /* \"#utility.yul\":14882:14886   */\n      0x20\n        /* \"#utility.yul\":14869:14886   */\n      swap1\n      pop\n        /* \"#utility.yul\":14914:14916   */\n      0x1f\n        /* \"#utility.yul\":14906:14912   */\n      dup4\n        /* \"#utility.yul\":14903:14917   */\n      gt\n        /* \"#utility.yul\":14931:14932   */\n      0x01\n        /* \"#utility.yul\":14926:15544   */\n      dup2\n      eq\n      tag_278\n      jumpi\n        /* \"#utility.yul\":15588:15589   */\n      0x00\n        /* \"#utility.yul\":15605:15611   */\n      dup5\n        /* \"#utility.yul\":15602:15679   */\n      iszero\n      tag_279\n      jumpi\n        /* \"#utility.yul\":15654:15663   */\n      dup3\n        /* \"#utility.yul\":15649:15652   */\n      dup8\n        /* \"#utility.yul\":15645:15664   */\n      add\n        /* \"#utility.yul\":15639:15665   */\n      mload\n        /* \"#utility.yul\":15630:15665   */\n      swap1\n      pop\n        /* \"#utility.yul\":15602:15679   */\n    tag_279:\n        /* \"#utility.yul\":15705:15772   */\n      tag_280\n        /* \"#utility.yul\":15765:15771   */\n      dup6\n        /* \"#utility.yul\":15758:15763   */\n      dup3\n        /* \"#utility.yul\":15705:15772   */\n      tag_125\n      jump\t// in\n    tag_280:\n        /* \"#utility.yul\":15699:15703   */\n      dup7\n        /* \"#utility.yul\":15692:15773   */\n      sstore\n        /* \"#utility.yul\":15561:15783   */\n      pop\n        /* \"#utility.yul\":14896:15783   */\n      jump(tag_277)\n        /* \"#utility.yul\":14926:15544   */\n    tag_278:\n        /* \"#utility.yul\":14978:14982   */\n      0x1f\n        /* \"#utility.yul\":14974:14983   */\n      not\n        /* \"#utility.yul\":14966:14972   */\n      dup5\n        /* \"#utility.yul\":14962:14984   */\n      and\n        /* \"#utility.yul\":15012:15049   */\n      tag_281\n        /* \"#utility.yul\":15044:15048   */\n      dup7\n        /* \"#utility.yul\":15012:15049   */\n      tag_110\n      jump\t// in\n    tag_281:\n        /* \"#utility.yul\":15071:15072   */\n      0x00\n        /* \"#utility.yul\":15085:15293   */\n    tag_282:\n        /* \"#utility.yul\":15099:15106   */\n      dup3\n        /* \"#utility.yul\":15096:15097   */\n      dup2\n        /* \"#utility.yul\":15093:15107   */\n      lt\n        /* \"#utility.yul\":15085:15293   */\n      iszero\n      tag_284\n      jumpi\n        /* \"#utility.yul\":15178:15187   */\n      dup5\n        /* \"#utility.yul\":15173:15176   */\n      dup10\n        /* \"#utility.yul\":15169:15188   */\n      add\n        /* \"#utility.yul\":15163:15189   */\n      mload\n        /* \"#utility.yul\":15155:15161   */\n      dup3\n        /* \"#utility.yul\":15148:15190   */\n      sstore\n        /* \"#utility.yul\":15229:15230   */\n      0x01\n        /* \"#utility.yul\":15221:15227   */\n      dup3\n        /* \"#utility.yul\":15217:15231   */\n      add\n        /* \"#utility.yul\":15207:15231   */\n      swap2\n      pop\n        /* \"#utility.yul\":15276:15278   */\n      0x20\n        /* \"#utility.yul\":15265:15274   */\n      dup6\n        /* \"#utility.yul\":15261:15279   */\n      add\n        /* \"#utility.yul\":15248:15279   */\n      swap5\n      pop\n        /* \"#utility.yul\":15122:15126   */\n      0x20\n        /* \"#utility.yul\":15119:15120   */\n      dup2\n        /* \"#utility.yul\":15115:15127   */\n      add\n        /* \"#utility.yul\":15110:15127   */\n      swap1\n      pop\n        /* \"#utility.yul\":15085:15293   */\n      jump(tag_282)\n    tag_284:\n        /* \"#utility.yul\":15321:15327   */\n      dup7\n        /* \"#utility.yul\":15312:15319   */\n      dup4\n        /* \"#utility.yul\":15309:15328   */\n      lt\n        /* \"#utility.yul\":15306:15485   */\n      iszero\n      tag_285\n      jumpi\n        /* \"#utility.yul\":15379:15388   */\n      dup5\n        /* \"#utility.yul\":15374:15377   */\n      dup10\n        /* \"#utility.yul\":15370:15389   */\n      add\n        /* \"#utility.yul\":15364:15390   */\n      mload\n        /* \"#utility.yul\":15422:15470   */\n      tag_286\n        /* \"#utility.yul\":15464:15468   */\n      0x1f\n        /* \"#utility.yul\":15456:15462   */\n      dup10\n        /* \"#utility.yul\":15452:15469   */\n      and\n        /* \"#utility.yul\":15441:15450   */\n      dup3\n        /* \"#utility.yul\":15422:15470   */\n      tag_124\n      jump\t// in\n    tag_286:\n        /* \"#utility.yul\":15414:15420   */\n      dup4\n        /* \"#utility.yul\":15407:15471   */\n      sstore\n        /* \"#utility.yul\":15329:15485   */\n      pop\n        /* \"#utility.yul\":15306:15485   */\n    tag_285:\n        /* \"#utility.yul\":15531:15532   */\n      0x01\n        /* \"#utility.yul\":15527:15528   */\n      0x02\n        /* \"#utility.yul\":15519:15525   */\n      dup9\n        /* \"#utility.yul\":15515:15529   */\n      mul\n        /* \"#utility.yul\":15511:15533   */\n      add\n        /* \"#utility.yul\":15505:15509   */\n      dup9\n        /* \"#utility.yul\":15498:15534   */\n      sstore\n        /* \"#utility.yul\":14933:15544   */\n      pop\n      pop\n      pop\n        /* \"#utility.yul\":14896:15783   */\n    tag_277:\n      pop\n        /* \"#utility.yul\":14486:15789   */\n      pop\n      pop\n      pop\n        /* \"#utility.yul\":14394:15789   */\n      pop\n      pop\n      jump\t// out\n        /* \"#utility.yul\":15795:16108   */\n    tag_67:\n        /* \"#utility.yul\":15908:15912   */\n      0x00\n        /* \"#utility.yul\":15946:15948   */\n      0x20\n        /* \"#utility.yul\":15935:15944   */\n      dup3\n        /* \"#utility.yul\":15931:15949   */\n      add\n        /* \"#utility.yul\":15923:15949   */\n      swap1\n      pop\n        /* \"#utility.yul\":15995:16004   */\n      dup2\n        /* \"#utility.yul\":15989:15993   */\n      dup2\n        /* \"#utility.yul\":15985:16005   */\n      sub\n        /* \"#utility.yul\":15981:15982   */\n      0x00\n        /* \"#utility.yul\":15970:15979   */\n      dup4\n        /* \"#utility.yul\":15966:15983   */\n      add\n        /* \"#utility.yul\":15959:16006   */\n      mstore\n        /* \"#utility.yul\":16023:16101   */\n      tag_288\n        /* \"#utility.yul\":16096:16100   */\n      dup2\n        /* \"#utility.yul\":16087:16093   */\n      dup5\n        /* \"#utility.yul\":16023:16101   */\n      tag_97\n      jump\t// in\n    tag_288:\n        /* \"#utility.yul\":16015:16101   */\n      swap1\n      pop\n        /* \"#utility.yul\":15795:16108   */\n      swap3\n      swap2\n      pop\n      pop\n      jump\t// out\n\n    auxdata: 0xa2646970667358221220c1a6ddc4269c0215d2bc25cc87afeeb64e03f2729318c2994929904fa1f0739464736f6c63430008220033\n}\n",
				"bytecode": {
					"linkReferences": {},
					"object": "6080604052348015600f57600080fd5b506111838061001f6000396000f3fe608060405234801561001057600080fd5b50600436106100575760003560e01c8063163f75221461005c5780633be32f7d1461008c57806352ac2091146100965780636f77926b146100c6578063f2c298be146100f8575b600080fd5b6100766004803603810190610071919061096f565b610114565b60405161008391906109b7565b60405180910390f35b61009461016c565b005b6100b060048036038101906100ab9190610b18565b610398565b6040516100bd91906109b7565b60405180910390f35b6100e060048036038101906100db919061096f565b61040f565b6040516100ef93929190610bef565b60405180910390f35b610112600480360381019061010d9190610b18565b610581565b005b60008060008373ffffffffffffffffffffffffffffffffffffffff1673ffffffffffffffffffffffffffffffffffffffff16815260200190815260200160002060010160149054906101000a900460ff169050919050565b6000803373ffffffffffffffffffffffffffffffffffffffff1673ffffffffffffffffffffffffffffffffffffffff16815260200190815260200160002060010160149054906101000a900460ff166101fa576040517f08c379a00000000000000000000000000000000000000000000000000000000081526004016101f190610c79565b60405180910390fd5b60008060003373ffffffffffffffffffffffffffffffffffffffff1673ffffffffffffffffffffffffffffffffffffffff168152602001908152602001600020600001805461024890610cc8565b80601f016020809104026020016040519081016040528092919081815260200182805461027490610cc8565b80156102c15780601f10610296576101008083540402835291602001916102c1565b820191906000526020600020905b8154815290600101906020018083116102a457829003601f168201915b505050505090506001816040516102d89190610d35565b908152602001604051809103902060006101000a81549073ffffffffffffffffffffffffffffffffffffffff02191690556000803373ffffffffffffffffffffffffffffffffffffffff1673ffffffffffffffffffffffffffffffffffffffff1681526020019081526020016000206000808201600061035891906108a1565b6001820160006101000a81549073ffffffffffffffffffffffffffffffffffffffff02191690556001820160146101000a81549060ff0219169055505050565b60008073ffffffffffffffffffffffffffffffffffffffff166001836040516103c19190610d35565b908152602001604051809103902060009054906101000a900473ffffffffffffffffffffffffffffffffffffffff1673ffffffffffffffffffffffffffffffffffffffff1614159050919050565b606060008060008060008673ffffffffffffffffffffffffffffffffffffffff1673ffffffffffffffffffffffffffffffffffffffff16815260200190815260200160002060405180606001604052908160008201805461046f90610cc8565b80601f016020809104026020016040519081016040528092919081815260200182805461049b90610cc8565b80156104e85780601f106104bd576101008083540402835291602001916104e8565b820191906000526020600020905b8154815290600101906020018083116104cb57829003601f168201915b505050505081526020016001820160009054906101000a900473ffffffffffffffffffffffffffffffffffffffff1673ffffffffffffffffffffffffffffffffffffffff1673ffffffffffffffffffffffffffffffffffffffff1681526020016001820160149054906101000a900460ff1615151515815250509050806000015181602001518260400151935093509350509193909250565b6000803373ffffffffffffffffffffffffffffffffffffffff1673ffffffffffffffffffffffffffffffffffffffff16815260200190815260200160002060010160149054906101000a900460ff1615610610576040517f08c379a000000000000000000000000000000000000000000000000000000000815260040161060790610d98565b60405180910390fd5b6000815111610654576040517f08c379a000000000000000000000000000000000000000000000000000000000815260040161064b90610e04565b60405180910390fd5b600073ffffffffffffffffffffffffffffffffffffffff1660018260405161067c9190610d35565b908152602001604051809103902060009054906101000a900473ffffffffffffffffffffffffffffffffffffffff1673ffffffffffffffffffffffffffffffffffffffff1614610701576040517f08c379a00000000000000000000000000000000000000000000000000000000081526004016106f890610e70565b60405180910390fd5b60405180606001604052808281526020013373ffffffffffffffffffffffffffffffffffffffff168152602001600115158152506000803373ffffffffffffffffffffffffffffffffffffffff1673ffffffffffffffffffffffffffffffffffffffff16815260200190815260200160002060008201518160000190816107889190611059565b5060208201518160010160006101000a81548173ffffffffffffffffffffffffffffffffffffffff021916908373ffffffffffffffffffffffffffffffffffffffff16021790555060408201518160010160146101000a81548160ff021916908315150217905550905050336001826040516108049190610d35565b908152602001604051809103902060006101000a81548173ffffffffffffffffffffffffffffffffffffffff021916908373ffffffffffffffffffffffffffffffffffffffff1602179055503373ffffffffffffffffffffffffffffffffffffffff167f48cac28ad4dc618e15f4c2dd5e97751182f166de97b25618318b2112aa951a2f82604051610896919061112b565b60405180910390a250565b5080546108ad90610cc8565b6000825580601f106108c05750506108dc565b601f0160209004906000526020600020906108db91906108de565b5b565b60005b808211156108f857828101600090556001016108e1565b505050565b6000604051905090565b600080fd5b600080fd5b600073ffffffffffffffffffffffffffffffffffffffff82169050919050565b600061093c82610911565b9050919050565b61094c81610931565b811461095757600080fd5b50565b60008135905061096981610943565b92915050565b60006020828403121561098557610984610907565b5b60006109938482850161095a565b91505092915050565b60008115159050919050565b6109b18161099c565b82525050565b60006020820190506109cc60008301846109a8565b92915050565b600080fd5b600080fd5b6000601f19601f8301169050919050565b7f4e487b7100000000000000000000000000000000000000000000000000000000600052604160045260246000fd5b610a25826109dc565b810181811067ffffffffffffffff82111715610a4457610a436109ed565b5b80604052505050565b6000610a576108fd565b9050610a638282610a1c565b919050565b600067ffffffffffffffff821115610a8357610a826109ed565b5b610a8c826109dc565b9050602081019050919050565b82818337600083830152505050565b6000610abb610ab684610a68565b610a4d565b905082815260208101848484011115610ad757610ad66109d7565b5b610ae2848285610a99565b509392505050565b600082601f830112610aff57610afe6109d2565b5b8135610b0f848260208601610aa8565b91505092915050565b600060208284031215610b2e57610b2d610907565b5b600082013567ffffffffffffffff811115610b4c57610b4b61090c565b5b610b5884828501610aea565b91505092915050565b600081519050919050565b600082825260208201905092915050565b60005b83811015610b9b578082015181840152602081019050610b80565b60008484015250505050565b6000610bb282610b61565b610bbc8185610b6c565b9350610bcc818560208601610b7d565b610bd5816109dc565b840191505092915050565b610be981610931565b82525050565b60006060820190508181036000830152610c098186610ba7565b9050610c186020830185610be0565b610c2560408301846109a8565b949350505050565b7f4e6f742072656769737465726564000000000000000000000000000000000000600082015250565b6000610c63600e83610b6c565b9150610c6e82610c2d565b602082019050919050565b60006020820190508181036000830152610c9281610c56565b9050919050565b7f4e487b7100000000000000000000000000000000000000000000000000000000600052602260045260246000fd5b60006002820490506001821680610ce057607f821691505b602082108103610cf357610cf2610c99565b5b50919050565b600081905092915050565b6000610d0f82610b61565b610d198185610cf9565b9350610d29818560208601610b7d565b80840191505092915050565b6000610d418284610d04565b915081905092915050565b7f416c726561647920726567697374657265640000000000000000000000000000600082015250565b6000610d82601283610b6c565b9150610d8d82610d4c565b602082019050919050565b60006020820190508181036000830152610db181610d75565b9050919050565b7f557365726e616d652063616e6e6f7420626520656d7074790000000000000000600082015250565b6000610dee601883610b6c565b9150610df982610db8565b602082019050919050565b60006020820190508181036000830152610e1d81610de1565b9050919050565b7f557365726e616d6520616c72656164792074616b656e00000000000000000000600082015250565b6000610e5a601683610b6c565b9150610e6582610e24565b602082019050919050565b60006020820190508181036000830152610e8981610e4d565b9050919050565b60008190508160005260206000209050919050565b60006020601f8301049050919050565b600082821b905092915050565b600060088302610ef27fffffffffffffffffffffffffffffffffffffffffffffffffffffffffffffffff82610eb5565b610efc8683610eb5565b95508019841693508086168417925050509392505050565b6000819050919050565b6000819050919050565b6000610f43610f3e610f3984610f14565b610f1e565b610f14565b9050919050565b6000819050919050565b610f5d83610f28565b610f71610f6982610f4a565b848454610ec2565b825550505050565b600090565b610f86610f79565b610f91818484610f54565b505050565b60005b82811015610fb957610fae6000828401610f7e565b600181019050610f99565b505050565b601f82111561100d578282111561100c57610fd881610e90565b610fe183610ea5565b610fea85610ea5565b6020861015610ff857600090505b80830161100782840382610f96565b505050505b5b505050565b600082821c905092915050565b600061103060001984600802611012565b1980831691505092915050565b6000611049838361101f565b9150826002028217905092915050565b61106282610b61565b67ffffffffffffffff81111561107b5761107a6109ed565b5b6110858254610cc8565b611090828285610fbe565b600060209050601f8311600181146110c357600084156110b1578287015190505b6110bb858261103d565b865550611123565b601f1984166110d186610e90565b60005b828110156110f9578489015182556001820191506020850194506020810190506110d4565b868310156111165784890151611112601f89168261101f565b8355505b6001600288020188555050505b505050505050565b600060208201905081810360008301526111458184610ba7565b90509291505056fea2646970667358221220c1a6ddc4269c0215d2bc25cc87afeeb64e03f2729318c2994929904fa1f0739464736f6c63430008220033",
					"opcodes": "PUSH1 0x80 PUSH1 0x40 MSTORE CALLVALUE DUP1 ISZERO PUSH1 0xF JUMPI PUSH1 0x0 DUP1 REVERT JUMPDEST POP PUSH2 0x1183 DUP1 PUSH2 0x1F PUSH1 0x0 CODECOPY PUSH1 0x0 RETURN INVALID PUSH1 0x80 PUSH1 0x40 MSTORE CALLVALUE DUP1 ISZERO PUSH2 0x10 JUMPI PUSH1 0x0 DUP1 REVERT JUMPDEST POP PUSH1 0x4 CALLDATASIZE LT PUSH2 0x57 JUMPI PUSH1 0x0 CALLDATALOAD PUSH1 0xE0 SHR DUP1 PUSH4 0x163F7522 EQ PUSH2 0x5C JUMPI DUP1 PUSH4 0x3BE32F7D EQ PUSH2 0x8C JUMPI DUP1 PUSH4 0x52AC2091 EQ PUSH2 0x96 JUMPI DUP1 PUSH4 0x6F77926B EQ PUSH2 0xC6 JUMPI DUP1 PUSH4 0xF2C298BE EQ PUSH2 0xF8 JUMPI JUMPDEST PUSH1 0x0 DUP1 REVERT JUMPDEST PUSH2 0x76 PUSH1 0x4 DUP1 CALLDATASIZE SUB DUP2 ADD SWAP1 PUSH2 0x71 SWAP2 SWAP1 PUSH2 0x96F JUMP JUMPDEST PUSH2 0x114 JUMP JUMPDEST PUSH1 0x40 MLOAD PUSH2 0x83 SWAP2 SWAP1 PUSH2 0x9B7 JUMP JUMPDEST PUSH1 0x40 MLOAD DUP1 SWAP2 SUB SWAP1 RETURN JUMPDEST PUSH2 0x94 PUSH2 0x16C JUMP JUMPDEST STOP JUMPDEST PUSH2 0xB0 PUSH1 0x4 DUP1 CALLDATASIZE SUB DUP2 ADD SWAP1 PUSH2 0xAB SWAP2 SWAP1 PUSH2 0xB18 JUMP JUMPDEST PUSH2 0x398 JUMP JUMPDEST PUSH1 0x40 MLOAD PUSH2 0xBD SWAP2 SWAP1 PUSH2 0x9B7 JUMP JUMPDEST PUSH1 0x40 MLOAD DUP1 SWAP2 SUB SWAP1 RETURN JUMPDEST PUSH2 0xE0 PUSH1 0x4 DUP1 CALLDATASIZE SUB DUP2 ADD SWAP1 PUSH2 0xDB SWAP2 SWAP1 PUSH2 0x96F JUMP JUMPDEST PUSH2 0x40F JUMP JUMPDEST PUSH1 0x40 MLOAD PUSH2 0xEF SWAP4 SWAP3 SWAP2 SWAP1 PUSH2 0xBEF JUMP JUMPDEST PUSH1 0x40 MLOAD DUP1 SWAP2 SUB SWAP1 RETURN JUMPDEST PUSH2 0x112 PUSH1 0x4 DUP1 CALLDATASIZE SUB DUP2 ADD SWAP1 PUSH2 0x10D SWAP2 SWAP1 PUSH2 0xB18 JUMP JUMPDEST PUSH2 0x581 JUMP JUMPDEST STOP JUMPDEST PUSH1 0x0 DUP1 PUSH1 0x0 DUP4 PUSH20 0xFFFFFFFFFFFFFFFFFFFFFFFFFFFFFFFFFFFFFFFF AND PUSH20 0xFFFFFFFFFFFFFFFFFFFFFFFFFFFFFFFFFFFFFFFF AND DUP2 MSTORE PUSH1 0x20 ADD SWAP1 DUP2 MSTORE PUSH1 0x20 ADD PUSH1 0x0 KECCAK256 PUSH1 0x1 ADD PUSH1 0x14 SWAP1 SLOAD SWAP1 PUSH2 0x100 EXP SWAP1 DIV PUSH1 0xFF AND SWAP1 POP SWAP2 SWAP1 POP JUMP JUMPDEST PUSH1 0x0 DUP1 CALLER PUSH20 0xFFFFFFFFFFFFFFFFFFFFFFFFFFFFFFFFFFFFFFFF AND PUSH20 0xFFFFFFFFFFFFFFFFFFFFFFFFFFFFFFFFFFFFFFFF AND DUP2 MSTORE PUSH1 0x20 ADD SWAP1 DUP2 MSTORE PUSH1 0x20 ADD PUSH1 0x0 KECCAK256 PUSH1 0x1 ADD PUSH1 0x14 SWAP1 SLOAD SWAP1 PUSH2 0x100 EXP SWAP1 DIV PUSH1 0xFF AND PUSH2 0x1FA JUMPI PUSH1 0x40 MLOAD PUSH32 0x8C379A000000000000000000000000000000000000000000000000000000000 DUP2 MSTORE PUSH1 0x4 ADD PUSH2 0x1F1 SWAP1 PUSH2 0xC79 JUMP JUMPDEST PUSH1 0x40 MLOAD DUP1 SWAP2 SUB SWAP1 REVERT JUMPDEST PUSH1 0x0 DUP1 PUSH1 0x0 CALLER PUSH20 0xFFFFFFFFFFFFFFFFFFFFFFFFFFFFFFFFFFFFFFFF AND PUSH20 0xFFFFFFFFFFFFFFFFFFFFFFFFFFFFFFFFFFFFFFFF AND DUP2 MSTORE PUSH1 0x20 ADD SWAP1 DUP2 MSTORE PUSH1 0x20 ADD PUSH1 0x0 KECCAK256 PUSH1 0x0 ADD DUP1 SLOAD PUSH2 0x248 SWAP1 PUSH2 0xCC8 JUMP JUMPDEST DUP1 PUSH1 0x1F ADD PUSH1 0x20 DUP1 SWAP2 DIV MUL PUSH1 0x20 ADD PUSH1 0x40 MLOAD SWAP1 DUP2 ADD PUSH1 0x40 MSTORE DUP1 SWAP3 SWAP2 SWAP1 DUP2 DUP2 MSTORE PUSH1 0x20 ADD DUP3 DUP1 SLOAD PUSH2 0x274 SWAP1 PUSH2 0xCC8 JUMP JUMPDEST DUP1 ISZERO PUSH2 0x2C1 JUMPI DUP1 PUSH1 0x1F LT PUSH2 0x296 JUMPI PUSH2 0x100 DUP1 DUP4 SLOAD DIV MUL DUP4 MSTORE SWAP2 PUSH1 0x20 ADD SWAP2 PUSH2 0x2C1 JUMP JUMPDEST DUP3 ADD SWAP2 SWAP1 PUSH1 0x0 MSTORE PUSH1 0x20 PUSH1 0x0 KECCAK256 SWAP1 JUMPDEST DUP2 SLOAD DUP2 MSTORE SWAP1 PUSH1 0x1 ADD SWAP1 PUSH1 0x20 ADD DUP1 DUP4 GT PUSH2 0x2A4 JUMPI DUP3 SWAP1 SUB PUSH1 0x1F AND DUP3 ADD SWAP2 JUMPDEST POP POP POP POP POP SWAP1 POP PUSH1 0x1 DUP2 PUSH1 0x40 MLOAD PUSH2 0x2D8 SWAP2 SWAP1 PUSH2 0xD35 JUMP JUMPDEST SWAP1 DUP2 MSTORE PUSH1 0x20 ADD PUSH1 0x40 MLOAD DUP1 SWAP2 SUB SWAP1 KECCAK256 PUSH1 0x0 PUSH2 0x100 EXP DUP2 SLOAD SWAP1 PUSH20 0xFFFFFFFFFFFFFFFFFFFFFFFFFFFFFFFFFFFFFFFF MUL NOT AND SWAP1 SSTORE PUSH1 0x0 DUP1 CALLER PUSH20 0xFFFFFFFFFFFFFFFFFFFFFFFFFFFFFFFFFFFFFFFF AND PUSH20 0xFFFFFFFFFFFFFFFFFFFFFFFFFFFFFFFFFFFFFFFF AND DUP2 MSTORE PUSH1 0x20 ADD SWAP1 DUP2 MSTORE PUSH1 0x20 ADD PUSH1 0x0 KECCAK256 PUSH1 0x0 DUP1 DUP3 ADD PUSH1 0x0 PUSH2 0x358 SWAP2 SWAP1 PUSH2 0x8A1 JUMP JUMPDEST PUSH1 0x1 DUP3 ADD PUSH1 0x0 PUSH2 0x100 EXP DUP2 SLOAD SWAP1 PUSH20 0xFFFFFFFFFFFFFFFFFFFFFFFFFFFFFFFFFFFFFFFF MUL NOT AND SWAP1 SSTORE PUSH1 0x1 DUP3 ADD PUSH1 0x14 PUSH2 0x100 EXP DUP2 SLOAD SWAP1 PUSH1 0xFF MUL NOT AND SWAP1 SSTORE POP POP POP JUMP JUMPDEST PUSH1 0x0 DUP1 PUSH20 0xFFFFFFFFFFFFFFFFFFFFFFFFFFFFFFFFFFFFFFFF AND PUSH1 0x1 DUP4 PUSH1 0x40 MLOAD PUSH2 0x3C1 SWAP2 SWAP1 PUSH2 0xD35 JUMP JUMPDEST SWAP1 DUP2 MSTORE PUSH1 0x20 ADD PUSH1 0x40 MLOAD DUP1 SWAP2 SUB SWAP1 KECCAK256 PUSH1 0x0 SWAP1 SLOAD SWAP1 PUSH2 0x100 EXP SWAP1 DIV PUSH20 0xFFFFFFFFFFFFFFFFFFFFFFFFFFFFFFFFFFFFFFFF AND PUSH20 0xFFFFFFFFFFFFFFFFFFFFFFFFFFFFFFFFFFFFFFFF AND EQ ISZERO SWAP1 POP SWAP2 SWAP1 POP JUMP JUMPDEST PUSH1 0x60 PUSH1 0x0 DUP1 PUSH1 0x0 DUP1 PUSH1 0x0 DUP7 PUSH20 0xFFFFFFFFFFFFFFFFFFFFFFFFFFFFFFFFFFFFFFFF AND PUSH20 0xFFFFFFFFFFFFFFFFFFFFFFFFFFFFFFFFFFFFFFFF AND DUP2 MSTORE PUSH1 0x20 ADD SWAP1 DUP2 MSTORE PUSH1 0x20 ADD PUSH1 0x0 KECCAK256 PUSH1 0x40 MLOAD DUP1 PUSH1 0x60 ADD PUSH1 0x40 MSTORE SWAP1 DUP2 PUSH1 0x0 DUP3 ADD DUP1 SLOAD PUSH2 0x46F SWAP1 PUSH2 0xCC8 JUMP JUMPDEST DUP1 PUSH1 0x1F ADD PUSH1 0x20 DUP1 SWAP2 DIV MUL PUSH1 0x20 ADD PUSH1 0x40 MLOAD SWAP1 DUP2 ADD PUSH1 0x40 MSTORE DUP1 SWAP3 SWAP2 SWAP1 DUP2 DUP2 MSTORE PUSH1 0x20 ADD DUP3 DUP1 SLOAD PUSH2 0x49B SWAP1 PUSH2 0xCC8 JUMP JUMPDEST DUP1 ISZERO PUSH2 0x4E8 JUMPI DUP1 PUSH1 0x1F LT PUSH2 0x4BD JUMPI PUSH2 0x100 DUP1 DUP4 SLOAD DIV MUL DUP4 MSTORE SWAP2 PUSH1 0x20 ADD SWAP2 PUSH2 0x4E8 JUMP JUMPDEST DUP3 ADD SWAP2 SWAP1 PUSH1 0x0 MSTORE PUSH1 0x20 PUSH1 0x0 KECCAK256 SWAP1 JUMPDEST DUP2 SLOAD DUP2 MSTORE SWAP1 PUSH1 0x1 ADD SWAP1 PUSH1 0x20 ADD DUP1 DUP4 GT PUSH2 0x4CB JUMPI DUP3 SWAP1 SUB PUSH1 0x1F AND DUP3 ADD SWAP2 JUMPDEST POP POP POP POP POP DUP2 MSTORE PUSH1 0x20 ADD PUSH1 0x1 DUP3 ADD PUSH1 0x0 SWAP1 SLOAD SWAP1 PUSH2 0x100 EXP SWAP1 DIV PUSH20 0xFFFFFFFFFFFFFFFFFFFFFFFFFFFFFFFFFFFFFFFF AND PUSH20 0xFFFFFFFFFFFFFFFFFFFFFFFFFFFFFFFFFFFFFFFF AND PUSH20 0xFFFFFFFFFFFFFFFFFFFFFFFFFFFFFFFFFFFFFFFF AND DUP2 MSTORE PUSH1 0x20 ADD PUSH1 0x1 DUP3 ADD PUSH1 0x14 SWAP1 SLOAD SWAP1 PUSH2 0x100 EXP SWAP1 DIV PUSH1 0xFF AND ISZERO ISZERO ISZERO ISZERO DUP2 MSTORE POP POP SWAP1 POP DUP1 PUSH1 0x0 ADD MLOAD DUP2 PUSH1 0x20 ADD MLOAD DUP3 PUSH1 0x40 ADD MLOAD SWAP4 POP SWAP4 POP SWAP4 POP POP SWAP2 SWAP4 SWAP1 SWAP3 POP JUMP JUMPDEST PUSH1 0x0 DUP1 CALLER PUSH20 0xFFFFFFFFFFFFFFFFFFFFFFFFFFFFFFFFFFFFFFFF AND PUSH20 0xFFFFFFFFFFFFFFFFFFFFFFFFFFFFFFFFFFFFFFFF AND DUP2 MSTORE PUSH1 0x20 ADD SWAP1 DUP2 MSTORE PUSH1 0x20 ADD PUSH1 0x0 KECCAK256 PUSH1 0x1 ADD PUSH1 0x14 SWAP1 SLOAD SWAP1 PUSH2 0x100 EXP SWAP1 DIV PUSH1 0xFF AND ISZERO PUSH2 0x610 JUMPI PUSH1 0x40 MLOAD PUSH32 0x8C379A000000000000000000000000000000000000000000000000000000000 DUP2 MSTORE PUSH1 0x4 ADD PUSH2 0x607 SWAP1 PUSH2 0xD98 JUMP JUMPDEST PUSH1 0x40 MLOAD DUP1 SWAP2 SUB SWAP1 REVERT JUMPDEST PUSH1 0x0 DUP2 MLOAD GT PUSH2 0x654 JUMPI PUSH1 0x40 MLOAD PUSH32 0x8C379A000000000000000000000000000000000000000000000000000000000 DUP2 MSTORE PUSH1 0x4 ADD PUSH2 0x64B SWAP1 PUSH2 0xE04 JUMP JUMPDEST PUSH1 0x40 MLOAD DUP1 SWAP2 SUB SWAP1 REVERT JUMPDEST PUSH1 0x0 PUSH20 0xFFFFFFFFFFFFFFFFFFFFFFFFFFFFFFFFFFFFFFFF AND PUSH1 0x1 DUP3 PUSH1 0x40 MLOAD PUSH2 0x67C SWAP2 SWAP1 PUSH2 0xD35 JUMP JUMPDEST SWAP1 DUP2 MSTORE PUSH1 0x20 ADD PUSH1 0x40 MLOAD DUP1 SWAP2 SUB SWAP1 KECCAK256 PUSH1 0x0 SWAP1 SLOAD SWAP1 PUSH2 0x100 EXP SWAP1 DIV PUSH20 0xFFFFFFFFFFFFFFFFFFFFFFFFFFFFFFFFFFFFFFFF AND PUSH20 0xFFFFFFFFFFFFFFFFFFFFFFFFFFFFFFFFFFFFFFFF AND EQ PUSH2 0x701 JUMPI PUSH1 0x40 MLOAD PUSH32 0x8C379A000000000000000000000000000000000000000000000000000000000 DUP2 MSTORE PUSH1 0x4 ADD PUSH2 0x6F8 SWAP1 PUSH2 0xE70 JUMP JUMPDEST PUSH1 0x40 MLOAD DUP1 SWAP2 SUB SWAP1 REVERT JUMPDEST PUSH1 0x40 MLOAD DUP1 PUSH1 0x60 ADD PUSH1 0x40 MSTORE DUP1 DUP3 DUP2 MSTORE PUSH1 0x20 ADD CALLER PUSH20 0xFFFFFFFFFFFFFFFFFFFFFFFFFFFFFFFFFFFFFFFF AND DUP2 MSTORE PUSH1 0x20 ADD PUSH1 0x1 ISZERO ISZERO DUP2 MSTORE POP PUSH1 0x0 DUP1 CALLER PUSH20 0xFFFFFFFFFFFFFFFFFFFFFFFFFFFFFFFFFFFFFFFF AND PUSH20 0xFFFFFFFFFFFFFFFFFFFFFFFFFFFFFFFFFFFFFFFF AND DUP2 MSTORE PUSH1 0x20 ADD SWAP1 DUP2 MSTORE PUSH1 0x20 ADD PUSH1 0x0 KECCAK256 PUSH1 0x0 DUP3 ADD MLOAD DUP2 PUSH1 0x0 ADD SWAP1 DUP2 PUSH2 0x788 SWAP2 SWAP1 PUSH2 0x1059 JUMP JUMPDEST POP PUSH1 0x20 DUP3 ADD MLOAD DUP2 PUSH1 0x1 ADD PUSH1 0x0 PUSH2 0x100 EXP DUP2 SLOAD DUP2 PUSH20 0xFFFFFFFFFFFFFFFFFFFFFFFFFFFFFFFFFFFFFFFF MUL NOT AND SWAP1 DUP4 PUSH20 0xFFFFFFFFFFFFFFFFFFFFFFFFFFFFFFFFFFFFFFFF AND MUL OR SWAP1 SSTORE POP PUSH1 0x40 DUP3 ADD MLOAD DUP2 PUSH1 0x1 ADD PUSH1 0x14 PUSH2 0x100 EXP DUP2 SLOAD DUP2 PUSH1 0xFF MUL NOT AND SWAP1 DUP4 ISZERO ISZERO MUL OR SWAP1 SSTORE POP SWAP1 POP POP CALLER PUSH1 0x1 DUP3 PUSH1 0x40 MLOAD PUSH2 0x804 SWAP2 SWAP1 PUSH2 0xD35 JUMP JUMPDEST SWAP1 DUP2 MSTORE PUSH1 0x20 ADD PUSH1 0x40 MLOAD DUP1 SWAP2 SUB SWAP1 KECCAK256 PUSH1 0x0 PUSH2 0x100 EXP DUP2 SLOAD DUP2 PUSH20 0xFFFFFFFFFFFFFFFFFFFFFFFFFFFFFFFFFFFFFFFF MUL NOT AND SWAP1 DUP4 PUSH20 0xFFFFFFFFFFFFFFFFFFFFFFFFFFFFFFFFFFFFFFFF AND MUL OR SWAP1 SSTORE POP CALLER PUSH20 0xFFFFFFFFFFFFFFFFFFFFFFFFFFFFFFFFFFFFFFFF AND PUSH32 0x48CAC28AD4DC618E15F4C2DD5E97751182F166DE97B25618318B2112AA951A2F DUP3 PUSH1 0x40 MLOAD PUSH2 0x896 SWAP2 SWAP1 PUSH2 0x112B JUMP JUMPDEST PUSH1 0x40 MLOAD DUP1 SWAP2 SUB SWAP1 LOG2 POP JUMP JUMPDEST POP DUP1 SLOAD PUSH2 0x8AD SWAP1 PUSH2 0xCC8 JUMP JUMPDEST PUSH1 0x0 DUP3 SSTORE DUP1 PUSH1 0x1F LT PUSH2 0x8C0 JUMPI POP POP PUSH2 0x8DC JUMP JUMPDEST PUSH1 0x1F ADD PUSH1 0x20 SWAP1 DIV SWAP1 PUSH1 0x0 MSTORE PUSH1 0x20 PUSH1 0x0 KECCAK256 SWAP1 PUSH2 0x8DB SWAP2 SWAP1 PUSH2 0x8DE JUMP JUMPDEST JUMPDEST JUMP JUMPDEST PUSH1 0x0 JUMPDEST DUP1 DUP3 GT ISZERO PUSH2 0x8F8 JUMPI DUP3 DUP2 ADD PUSH1 0x0 SWAP1 SSTORE PUSH1 0x1 ADD PUSH2 0x8E1 JUMP JUMPDEST POP POP POP JUMP JUMPDEST PUSH1 0x0 PUSH1 0x40 MLOAD SWAP1 POP SWAP1 JUMP JUMPDEST PUSH1 0x0 DUP1 REVERT JUMPDEST PUSH1 0x0 DUP1 REVERT JUMPDEST PUSH1 0x0 PUSH20 0xFFFFFFFFFFFFFFFFFFFFFFFFFFFFFFFFFFFFFFFF DUP3 AND SWAP1 POP SWAP2 SWAP1 POP JUMP JUMPDEST PUSH1 0x0 PUSH2 0x93C DUP3 PUSH2 0x911 JUMP JUMPDEST SWAP1 POP SWAP2 SWAP1 POP JUMP JUMPDEST PUSH2 0x94C DUP2 PUSH2 0x931 JUMP JUMPDEST DUP2 EQ PUSH2 0x957 JUMPI PUSH1 0x0 DUP1 REVERT JUMPDEST POP JUMP JUMPDEST PUSH1 0x0 DUP2 CALLDATALOAD SWAP1 POP PUSH2 0x969 DUP2 PUSH2 0x943 JUMP JUMPDEST SWAP3 SWAP2 POP POP JUMP JUMPDEST PUSH1 0x0 PUSH1 0x20 DUP3 DUP5 SUB SLT ISZERO PUSH2 0x985 JUMPI PUSH2 0x984 PUSH2 0x907 JUMP JUMPDEST JUMPDEST PUSH1 0x0 PUSH2 0x993 DUP5 DUP3 DUP6 ADD PUSH2 0x95A JUMP JUMPDEST SWAP2 POP POP SWAP3 SWAP2 POP POP JUMP JUMPDEST PUSH1 0x0 DUP2 ISZERO ISZERO SWAP1 POP SWAP2 SWAP1 POP JUMP JUMPDEST PUSH2 0x9B1 DUP2 PUSH2 0x99C JUMP JUMPDEST DUP3 MSTORE POP POP JUMP JUMPDEST PUSH1 0x0 PUSH1 0x20 DUP3 ADD SWAP1 POP PUSH2 0x9CC PUSH1 0x0 DUP4 ADD DUP5 PUSH2 0x9A8 JUMP JUMPDEST SWAP3 SWAP2 POP POP JUMP JUMPDEST PUSH1 0x0 DUP1 REVERT JUMPDEST PUSH1 0x0 DUP1 REVERT JUMPDEST PUSH1 0x0 PUSH1 0x1F NOT PUSH1 0x1F DUP4 ADD AND SWAP1 POP SWAP2 SWAP1 POP JUMP JUMPDEST PUSH32 0x4E487B7100000000000000000000000000000000000000000000000000000000 PUSH1 0x0 MSTORE PUSH1 0x41 PUSH1 0x4 MSTORE PUSH1 0x24 PUSH1 0x0 REVERT JUMPDEST PUSH2 0xA25 DUP3 PUSH2 0x9DC JUMP JUMPDEST DUP2 ADD DUP2 DUP2 LT PUSH8 0xFFFFFFFFFFFFFFFF DUP3 GT OR ISZERO PUSH2 0xA44 JUMPI PUSH2 0xA43 PUSH2 0x9ED JUMP JUMPDEST JUMPDEST DUP1 PUSH1 0x40 MSTORE POP POP POP JUMP JUMPDEST PUSH1 0x0 PUSH2 0xA57 PUSH2 0x8FD JUMP JUMPDEST SWAP1 POP PUSH2 0xA63 DUP3 DUP3 PUSH2 0xA1C JUMP JUMPDEST SWAP2 SWAP1 POP JUMP JUMPDEST PUSH1 0x0 PUSH8 0xFFFFFFFFFFFFFFFF DUP3 GT ISZERO PUSH2 0xA83 JUMPI PUSH2 0xA82 PUSH2 0x9ED JUMP JUMPDEST JUMPDEST PUSH2 0xA8C DUP3 PUSH2 0x9DC JUMP JUMPDEST SWAP1 POP PUSH1 0x20 DUP2 ADD SWAP1 POP SWAP2 SWAP1 POP JUMP JUMPDEST DUP3 DUP2 DUP4 CALLDATACOPY PUSH1 0x0 DUP4 DUP4 ADD MSTORE POP POP POP JUMP JUMPDEST PUSH1 0x0 PUSH2 0xABB PUSH2 0xAB6 DUP5 PUSH2 0xA68 JUMP JUMPDEST PUSH2 0xA4D JUMP JUMPDEST SWAP1 POP DUP3 DUP2 MSTORE PUSH1 0x20 DUP2 ADD DUP5 DUP5 DUP5 ADD GT ISZERO PUSH2 0xAD7 JUMPI PUSH2 0xAD6 PUSH2 0x9D7 JUMP JUMPDEST JUMPDEST PUSH2 0xAE2 DUP5 DUP3 DUP6 PUSH2 0xA99 JUMP JUMPDEST POP SWAP4 SWAP3 POP POP POP JUMP JUMPDEST PUSH1 0x0 DUP3 PUSH1 0x1F DUP4 ADD SLT PUSH2 0xAFF JUMPI PUSH2 0xAFE PUSH2 0x9D2 JUMP JUMPDEST JUMPDEST DUP2 CALLDATALOAD PUSH2 0xB0F DUP5 DUP3 PUSH1 0x20 DUP7 ADD PUSH2 0xAA8 JUMP JUMPDEST SWAP2 POP POP SWAP3 SWAP2 POP POP JUMP JUMPDEST PUSH1 0x0 PUSH1 0x20 DUP3 DUP5 SUB SLT ISZERO PUSH2 0xB2E JUMPI PUSH2 0xB2D PUSH2 0x907 JUMP JUMPDEST JUMPDEST PUSH1 0x0 DUP3 ADD CALLDATALOAD PUSH8 0xFFFFFFFFFFFFFFFF DUP2 GT ISZERO PUSH2 0xB4C JUMPI PUSH2 0xB4B PUSH2 0x90C JUMP JUMPDEST JUMPDEST PUSH2 0xB58 DUP5 DUP3 DUP6 ADD PUSH2 0xAEA JUMP JUMPDEST SWAP2 POP POP SWAP3 SWAP2 POP POP JUMP JUMPDEST PUSH1 0x0 DUP2 MLOAD SWAP1 POP SWAP2 SWAP1 POP JUMP JUMPDEST PUSH1 0x0 DUP3 DUP3 MSTORE PUSH1 0x20 DUP3 ADD SWAP1 POP SWAP3 SWAP2 POP POP JUMP JUMPDEST PUSH1 0x0 JUMPDEST DUP4 DUP2 LT ISZERO PUSH2 0xB9B JUMPI DUP1 DUP3 ADD MLOAD DUP2 DUP5 ADD MSTORE PUSH1 0x20 DUP2 ADD SWAP1 POP PUSH2 0xB80 JUMP JUMPDEST PUSH1 0x0 DUP5 DUP5 ADD MSTORE POP POP POP POP JUMP JUMPDEST PUSH1 0x0 PUSH2 0xBB2 DUP3 PUSH2 0xB61 JUMP JUMPDEST PUSH2 0xBBC DUP2 DUP6 PUSH2 0xB6C JUMP JUMPDEST SWAP4 POP PUSH2 0xBCC DUP2 DUP6 PUSH1 0x20 DUP7 ADD PUSH2 0xB7D JUMP JUMPDEST PUSH2 0xBD5 DUP2 PUSH2 0x9DC JUMP JUMPDEST DUP5 ADD SWAP2 POP POP SWAP3 SWAP2 POP POP JUMP JUMPDEST PUSH2 0xBE9 DUP2 PUSH2 0x931 JUMP JUMPDEST DUP3 MSTORE POP POP JUMP JUMPDEST PUSH1 0x0 PUSH1 0x60 DUP3 ADD SWAP1 POP DUP2 DUP2 SUB PUSH1 0x0 DUP4 ADD MSTORE PUSH2 0xC09 DUP2 DUP7 PUSH2 0xBA7 JUMP JUMPDEST SWAP1 POP PUSH2 0xC18 PUSH1 0x20 DUP4 ADD DUP6 PUSH2 0xBE0 JUMP JUMPDEST PUSH2 0xC25 PUSH1 0x40 DUP4 ADD DUP5 PUSH2 0x9A8 JUMP JUMPDEST SWAP5 SWAP4 POP POP POP POP JUMP JUMPDEST PUSH32 0x4E6F742072656769737465726564000000000000000000000000000000000000 PUSH1 0x0 DUP3 ADD MSTORE POP JUMP JUMPDEST PUSH1 0x0 PUSH2 0xC63 PUSH1 0xE DUP4 PUSH2 0xB6C JUMP JUMPDEST SWAP2 POP PUSH2 0xC6E DUP3 PUSH2 0xC2D JUMP JUMPDEST PUSH1 0x20 DUP3 ADD SWAP1 POP SWAP2 SWAP1 POP JUMP JUMPDEST PUSH1 0x0 PUSH1 0x20 DUP3 ADD SWAP1 POP DUP2 DUP2 SUB PUSH1 0x0 DUP4 ADD MSTORE PUSH2 0xC92 DUP2 PUSH2 0xC56 JUMP JUMPDEST SWAP1 POP SWAP2 SWAP1 POP JUMP JUMPDEST PUSH32 0x4E487B7100000000000000000000000000000000000000000000000000000000 PUSH1 0x0 MSTORE PUSH1 0x22 PUSH1 0x4 MSTORE PUSH1 0x24 PUSH1 0x0 REVERT JUMPDEST PUSH1 0x0 PUSH1 0x2 DUP3 DIV SWAP1 POP PUSH1 0x1 DUP3 AND DUP1 PUSH2 0xCE0 JUMPI PUSH1 0x7F DUP3 AND SWAP2 POP JUMPDEST PUSH1 0x20 DUP3 LT DUP2 SUB PUSH2 0xCF3 JUMPI PUSH2 0xCF2 PUSH2 0xC99 JUMP JUMPDEST JUMPDEST POP SWAP2 SWAP1 POP JUMP JUMPDEST PUSH1 0x0 DUP2 SWAP1 POP SWAP3 SWAP2 POP POP JUMP JUMPDEST PUSH1 0x0 PUSH2 0xD0F DUP3 PUSH2 0xB61 JUMP JUMPDEST PUSH2 0xD19 DUP2 DUP6 PUSH2 0xCF9 JUMP JUMPDEST SWAP4 POP PUSH2 0xD29 DUP2 DUP6 PUSH1 0x20 DUP7 ADD PUSH2 0xB7D JUMP JUMPDEST DUP1 DUP5 ADD SWAP2 POP POP SWAP3 SWAP2 POP POP JUMP JUMPDEST PUSH1 0x0 PUSH2 0xD41 DUP3 DUP5 PUSH2 0xD04 JUMP JUMPDEST SWAP2 POP DUP2 SWAP1 POP SWAP3 SWAP2 POP POP JUMP JUMPDEST PUSH32 0x416C726561647920726567697374657265640000000000000000000000000000 PUSH1 0x0 DUP3 ADD MSTORE POP JUMP JUMPDEST PUSH1 0x0 PUSH2 0xD82 PUSH1 0x12 DUP4 PUSH2 0xB6C JUMP JUMPDEST SWAP2 POP PUSH2 0xD8D DUP3 PUSH2 0xD4C JUMP JUMPDEST PUSH1 0x20 DUP3 ADD SWAP1 POP SWAP2 SWAP1 POP JUMP JUMPDEST PUSH1 0x0 PUSH1 0x20 DUP3 ADD SWAP1 POP DUP2 DUP2 SUB PUSH1 0x0 DUP4 ADD MSTORE PUSH2 0xDB1 DUP2 PUSH2 0xD75 JUMP JUMPDEST SWAP1 POP SWAP2 SWAP1 POP JUMP JUMPDEST PUSH32 0x557365726E616D652063616E6E6F7420626520656D7074790000000000000000 PUSH1 0x0 DUP3 ADD MSTORE POP JUMP JUMPDEST PUSH1 0x0 PUSH2 0xDEE PUSH1 0x18 DUP4 PUSH2 0xB6C JUMP JUMPDEST SWAP2 POP PUSH2 0xDF9 DUP3 PUSH2 0xDB8 JUMP JUMPDEST PUSH1 0x20 DUP3 ADD SWAP1 POP SWAP2 SWAP1 POP JUMP JUMPDEST PUSH1 0x0 PUSH1 0x20 DUP3 ADD SWAP1 POP DUP2 DUP2 SUB PUSH1 0x0 DUP4 ADD MSTORE PUSH2 0xE1D DUP2 PUSH2 0xDE1 JUMP JUMPDEST SWAP1 POP SWAP2 SWAP1 POP JUMP JUMPDEST PUSH32 0x557365726E616D6520616C72656164792074616B656E00000000000000000000 PUSH1 0x0 DUP3 ADD MSTORE POP JUMP JUMPDEST PUSH1 0x0 PUSH2 0xE5A PUSH1 0x16 DUP4 PUSH2 0xB6C JUMP JUMPDEST SWAP2 POP PUSH2 0xE65 DUP3 PUSH2 0xE24 JUMP JUMPDEST PUSH1 0x20 DUP3 ADD SWAP1 POP SWAP2 SWAP1 POP JUMP JUMPDEST PUSH1 0x0 PUSH1 0x20 DUP3 ADD SWAP1 POP DUP2 DUP2 SUB PUSH1 0x0 DUP4 ADD MSTORE PUSH2 0xE89 DUP2 PUSH2 0xE4D JUMP JUMPDEST SWAP1 POP SWAP2 SWAP1 POP JUMP JUMPDEST PUSH1 0x0 DUP2 SWAP1 POP DUP2 PUSH1 0x0 MSTORE PUSH1 0x20 PUSH1 0x0 KECCAK256 SWAP1 POP SWAP2 SWAP1 POP JUMP JUMPDEST PUSH1 0x0 PUSH1 0x20 PUSH1 0x1F DUP4 ADD DIV SWAP1 POP SWAP2 SWAP1 POP JUMP JUMPDEST PUSH1 0x0 DUP3 DUP3 SHL SWAP1 POP SWAP3 SWAP2 POP POP JUMP JUMPDEST PUSH1 0x0 PUSH1 0x8 DUP4 MUL PUSH2 0xEF2 PUSH32 0xFFFFFFFFFFFFFFFFFFFFFFFFFFFFFFFFFFFFFFFFFFFFFFFFFFFFFFFFFFFFFFFF DUP3 PUSH2 0xEB5 JUMP JUMPDEST PUSH2 0xEFC DUP7 DUP4 PUSH2 0xEB5 JUMP JUMPDEST SWAP6 POP DUP1 NOT DUP5 AND SWAP4 POP DUP1 DUP7 AND DUP5 OR SWAP3 POP POP POP SWAP4 SWAP3 POP POP POP JUMP JUMPDEST PUSH1 0x0 DUP2 SWAP1 POP SWAP2 SWAP1 POP JUMP JUMPDEST PUSH1 0x0 DUP2 SWAP1 POP SWAP2 SWAP1 POP JUMP JUMPDEST PUSH1 0x0 PUSH2 0xF43 PUSH2 0xF3E PUSH2 0xF39 DUP5 PUSH2 0xF14 JUMP JUMPDEST PUSH2 0xF1E JUMP JUMPDEST PUSH2 0xF14 JUMP JUMPDEST SWAP1 POP SWAP2 SWAP1 POP JUMP JUMPDEST PUSH1 0x0 DUP2 SWAP1 POP SWAP2 SWAP1 POP JUMP JUMPDEST PUSH2 0xF5D DUP4 PUSH2 0xF28 JUMP JUMPDEST PUSH2 0xF71 PUSH2 0xF69 DUP3 PUSH2 0xF4A JUMP JUMPDEST DUP5 DUP5 SLOAD PUSH2 0xEC2 JUMP JUMPDEST DUP3 SSTORE POP POP POP POP JUMP JUMPDEST PUSH1 0x0 SWAP1 JUMP JUMPDEST PUSH2 0xF86 PUSH2 0xF79 JUMP JUMPDEST PUSH2 0xF91 DUP2 DUP5 DUP5 PUSH2 0xF54 JUMP JUMPDEST POP POP POP JUMP JUMPDEST PUSH1 0x0 JUMPDEST DUP3 DUP2 LT ISZERO PUSH2 0xFB9 JUMPI PUSH2 0xFAE PUSH1 0x0 DUP3 DUP5 ADD PUSH2 0xF7E JUMP JUMPDEST PUSH1 0x1 DUP2 ADD SWAP1 POP PUSH2 0xF99 JUMP JUMPDEST POP POP POP JUMP JUMPDEST PUSH1 0x1F DUP3 GT ISZERO PUSH2 0x100D JUMPI DUP3 DUP3 GT ISZERO PUSH2 0x100C JUMPI PUSH2 0xFD8 DUP2 PUSH2 0xE90 JUMP JUMPDEST PUSH2 0xFE1 DUP4 PUSH2 0xEA5 JUMP JUMPDEST PUSH2 0xFEA DUP6 PUSH2 0xEA5 JUMP JUMPDEST PUSH1 0x20 DUP7 LT ISZERO PUSH2 0xFF8 JUMPI PUSH1 0x0 SWAP1 POP JUMPDEST DUP1 DUP4 ADD PUSH2 0x1007 DUP3 DUP5 SUB DUP3 PUSH2 0xF96 JUMP JUMPDEST POP POP POP POP JUMPDEST JUMPDEST POP POP POP JUMP JUMPDEST PUSH1 0x0 DUP3 DUP3 SHR SWAP1 POP SWAP3 SWAP2 POP POP JUMP JUMPDEST PUSH1 0x0 PUSH2 0x1030 PUSH1 0x0 NOT DUP5 PUSH1 0x8 MUL PUSH2 0x1012 JUMP JUMPDEST NOT DUP1 DUP4 AND SWAP2 POP POP SWAP3 SWAP2 POP POP JUMP JUMPDEST PUSH1 0x0 PUSH2 0x1049 DUP4 DUP4 PUSH2 0x101F JUMP JUMPDEST SWAP2 POP DUP3 PUSH1 0x2 MUL DUP3 OR SWAP1 POP SWAP3 SWAP2 POP POP JUMP JUMPDEST PUSH2 0x1062 DUP3 PUSH2 0xB61 JUMP JUMPDEST PUSH8 0xFFFFFFFFFFFFFFFF DUP2 GT ISZERO PUSH2 0x107B JUMPI PUSH2 0x107A PUSH2 0x9ED JUMP JUMPDEST JUMPDEST PUSH2 0x1085 DUP3 SLOAD PUSH2 0xCC8 JUMP JUMPDEST PUSH2 0x1090 DUP3 DUP3 DUP6 PUSH2 0xFBE JUMP JUMPDEST PUSH1 0x0 PUSH1 0x20 SWAP1 POP PUSH1 0x1F DUP4 GT PUSH1 0x1 DUP2 EQ PUSH2 0x10C3 JUMPI PUSH1 0x0 DUP5 ISZERO PUSH2 0x10B1 JUMPI DUP3 DUP8 ADD MLOAD SWAP1 POP JUMPDEST PUSH2 0x10BB DUP6 DUP3 PUSH2 0x103D JUMP JUMPDEST DUP7 SSTORE POP PUSH2 0x1123 JUMP JUMPDEST PUSH1 0x1F NOT DUP5 AND PUSH2 0x10D1 DUP7 PUSH2 0xE90 JUMP JUMPDEST PUSH1 0x0 JUMPDEST DUP3 DUP2 LT ISZERO PUSH2 0x10F9 JUMPI DUP5 DUP10 ADD MLOAD DUP3 SSTORE PUSH1 0x1 DUP3 ADD SWAP2 POP PUSH1 0x20 DUP6 ADD SWAP5 POP PUSH1 0x20 DUP2 ADD SWAP1 POP PUSH2 0x10D4 JUMP JUMPDEST DUP7 DUP4 LT ISZERO PUSH2 0x1116 JUMPI DUP5 DUP10 ADD MLOAD PUSH2 0x1112 PUSH1 0x1F DUP10 AND DUP3 PUSH2 0x101F JUMP JUMPDEST DUP4 SSTORE POP JUMPDEST PUSH1 0x1 PUSH1 0x2 DUP9 MUL ADD DUP9 SSTORE POP POP POP JUMPDEST POP POP POP POP POP POP JUMP JUMPDEST PUSH1 0x0 PUSH1 0x20 DUP3 ADD SWAP1 POP DUP2 DUP2 SUB PUSH1 0x0 DUP4 ADD MSTORE PUSH2 0x1145 DUP2 DUP5 PUSH2 0xBA7 JUMP JUMPDEST SWAP1 POP SWAP3 SWAP2 POP POP JUMP INVALID LOG2 PUSH5 0x6970667358 0x22 SLT KECCAK256 0xC1 0xA6 0xDD 0xC4 0x26 SWAP13 MUL ISZERO 0xD2 0xBC 0x25 0xCC DUP8 0xAF RETURNCONTRACT 0xB6 0x4E SUB CALLCODE PUSH19 0x9318C2994929904FA1F0739464736F6C634300 ADDMOD 0x22 STOP CALLER "
				},
				"gasEstimates": {
					"creation": {
						"codeDepositCost": "896600",
						"executionCost": "935",
						"totalCost": "897535"
					},
					"external": {
						"deleteAccount()": "infinite",
						"getUser(address)": "infinite",
						"isUserRegistered(address)": "2917",
						"isUsernameRegistered(string)": "infinite",
						"register(string)": "infinite"
					}
				},
				"methodIdentifiers": {
					"deleteAccount()": "3be32f7d",
					"getUser(address)": "6f77926b",
					"isUserRegistered(address)": "163f7522",
					"isUsernameRegistered(string)": "52ac2091",
					"register(string)": "f2c298be"
				}
			},
			"storageLayout": {
				"storage": [
					{
						"astId": 13,
						"contract": "contracts/UserAuth.sol:UserAuth",
						"label": "users",
						"offset": 0,
						"slot": "0",
						"type": "t_mapping(t_address,t_struct(User)8_storage)"
					},
					{
						"astId": 17,
						"contract": "contracts/UserAuth.sol:UserAuth",
						"label": "usernameToAddress",
						"offset": 0,
						"slot": "1",
						"type": "t_mapping(t_string_memory_ptr,t_address)"
					}
				],
				"types": {
					"t_address": {
						"encoding": "inplace",
						"label": "address",
						"numberOfBytes": "20"
					},
					"t_bool": {
						"encoding": "inplace",
						"label": "bool",
						"numberOfBytes": "1"
					},
					"t_mapping(t_address,t_struct(User)8_storage)": {
						"encoding": "mapping",
						"key": "t_address",
						"label": "mapping(address => struct UserAuth.User)",
						"numberOfBytes": "32",
						"value": "t_struct(User)8_storage"
					},
					"t_mapping(t_string_memory_ptr,t_address)": {
						"encoding": "mapping",
						"key": "t_string_memory_ptr",
						"label": "mapping(string => address)",
						"numberOfBytes": "32",
						"value": "t_address"
					},
					"t_string_memory_ptr": {
						"encoding": "bytes",
						"label": "string",
						"numberOfBytes": "32"
					},
					"t_string_storage": {
						"encoding": "bytes",
						"label": "string",
						"numberOfBytes": "32"
					},
					"t_struct(User)8_storage": {
						"encoding": "inplace",
						"label": "struct UserAuth.User",
						"members": [
							{
								"astId": 3,
								"contract": "contracts/UserAuth.sol:UserAuth",
								"label": "username",
								"offset": 0,
								"slot": "0",
								"type": "t_string_storage"
							},
							{
								"astId": 5,
								"contract": "contracts/UserAuth.sol:UserAuth",
								"label": "userAddress",
								"offset": 0,
								"slot": "1",
								"type": "t_address"
							},
							{
								"astId": 7,
								"contract": "contracts/UserAuth.sol:UserAuth",
								"label": "isRegistered",
								"offset": 20,
								"slot": "1",
								"type": "t_bool"
							}
						],
						"numberOfBytes": "64"
					}
				}
			},
			"userdoc": {
				"kind": "user",
				"methods": {},
				"version": 1
			}
		}
	}
}