{
	"single.sol": {
		"Parent": {
			"abi": [
				{
					"inputs": [
						{
							"internalType": "uint256",
							"name": "_a",
							"type": "uint256"
						},
						{
							"internalType": "uint256",
							"name": "_b",
							"type": "uint256"
						}
					],
					"name": "setValue",
					"outputs": [],
					"stateMutability": "nonpayable",
					"type": "function"
				}
			],
			"devdoc": {
				"kind": "dev",
				"methods": {},
				"version": 1
			},
			"evm": {
				"assembly": "    /* \"single.sol\":62:209  contract Parent {... */\n  mstore(0x40, 0x80)\n  callvalue\n  dup1\n  iszero\n  tag_1\n  jumpi\n  revert(0x00, 0x00)\ntag_1:\n  pop\n  dataSize(sub_0)\n  dup1\n  dataOffset(sub_0)\n  0x00\n  codecopy\n  0x00\n  return\nstop\n\nsub_0: assembly {\n        /* \"single.sol\":62:209  contract Parent {... */\n      mstore(0x40, 0x80)\n      callvalue\n      dup1\n      iszero\n      tag_1\n      jumpi\n      revert(0x00, 0x00)\n    tag_1:\n      pop\n      jumpi(tag_2, lt(calldatasize, 0x04))\n      shr(0xe0, calldataload(0x00))\n      dup1\n      0x7b8d56e3\n      eq\n      tag_3\n      jumpi\n    tag_2:\n      revert(0x00, 0x00)\n        /* \"single.sol\":105:204  function setValue(uint _a, uint _b) external {... */\n    tag_3:\n      tag_4\n      0x04\n      dup1\n      calldatasize\n      sub\n      dup2\n      add\n      swap1\n      tag_5\n      swap2\n      swap1\n      tag_6\n      jump\t// in\n    tag_5:\n      tag_7\n      jump\t// in\n    tag_4:\n      stop\n    tag_7:\n        /* \"single.sol\":155:161  uint a */\n      0x00\n        /* \"single.sol\":164:166  _a */\n      dup3\n        /* \"single.sol\":155:166  uint a = _a */\n      swap1\n      pop\n        /* \"single.sol\":171:177  uint b */\n      0x00\n        /* \"single.sol\":180:182  _b */\n      dup3\n        /* \"single.sol\":171:182  uint b = _b */\n      swap1\n      pop\n        /* \"single.sol\":197:198  b */\n      dup1\n        /* \"single.sol\":193:194  a */\n      dup3\n        /* \"single.sol\":193:198  a + b */\n      tag_9\n      swap2\n      swap1\n      tag_10\n      jump\t// in\n    tag_9:\n        /* \"single.sol\":187:190  sum */\n      0x00\n        /* \"single.sol\":187:198  sum = a + b */\n      dup2\n      swap1\n      sstore\n      pop\n        /* \"single.sol\":150:204  {... */\n      pop\n      pop\n        /* \"single.sol\":105:204  function setValue(uint _a, uint _b) external {... */\n      pop\n      pop\n      jump\t// out\n        /* \"#utility.yul\":88:205   */\n    tag_12:\n        /* \"#utility.yul\":197:198   */\n      0x00\n        /* \"#utility.yul\":194:195   */\n      0x00\n        /* \"#utility.yul\":187:199   */\n      revert\n        /* \"#utility.yul\":334:411   */\n    tag_14:\n        /* \"#utility.yul\":371:378   */\n      0x00\n        /* \"#utility.yul\":400:405   */\n      dup2\n        /* \"#utility.yul\":389:405   */\n      swap1\n      pop\n        /* \"#utility.yul\":334:411   */\n      swap2\n      swap1\n      pop\n      jump\t// out\n        /* \"#utility.yul\":417:539   */\n    tag_15:\n        /* \"#utility.yul\":490:514   */\n      tag_24\n        /* \"#utility.yul\":508:513   */\n      dup2\n        /* \"#utility.yul\":490:514   */\n      tag_14\n      jump\t// in\n    tag_24:\n        /* \"#utility.yul\":483:488   */\n      dup2\n        /* \"#utility.yul\":480:515   */\n      eq\n        /* \"#utility.yul\":470:533   */\n      tag_25\n      jumpi\n        /* \"#utility.yul\":529:530   */\n      0x00\n        /* \"#utility.yul\":526:527   */\n      0x00\n        /* \"#utility.yul\":519:531   */\n      revert\n        /* \"#utility.yul\":470:533   */\n    tag_25:\n        /* \"#utility.yul\":417:539   */\n      pop\n      jump\t// out\n        /* \"#utility.yul\":545:684   */\n    tag_16:\n        /* \"#utility.yul\":591:596   */\n      0x00\n        /* \"#utility.yul\":629:635   */\n      dup2\n        /* \"#utility.yul\":616:636   */\n      calldataload\n        /* \"#utility.yul\":607:636   */\n      swap1\n      pop\n        /* \"#utility.yul\":645:678   */\n      tag_27\n        /* \"#utility.yul\":672:677   */\n      dup2\n        /* \"#utility.yul\":645:678   */\n      tag_15\n      jump\t// in\n    tag_27:\n        /* \"#utility.yul\":545:684   */\n      swap3\n      swap2\n      pop\n      pop\n      jump\t// out\n        /* \"#utility.yul\":690:1164   */\n    tag_6:\n        /* \"#utility.yul\":758:764   */\n      0x00\n        /* \"#utility.yul\":766:772   */\n      0x00\n        /* \"#utility.yul\":815:817   */\n      0x40\n        /* \"#utility.yul\":803:812   */\n      dup4\n        /* \"#utility.yul\":794:801   */\n      dup6\n        /* \"#utility.yul\":790:813   */\n      sub\n        /* \"#utility.yul\":786:818   */\n      slt\n        /* \"#utility.yul\":783:902   */\n      iszero\n      tag_29\n      jumpi\n        /* \"#utility.yul\":821:900   */\n      tag_30\n      tag_12\n      jump\t// in\n    tag_30:\n        /* \"#utility.yul\":783:902   */\n    tag_29:\n        /* \"#utility.yul\":941:942   */\n      0x00\n        /* \"#utility.yul\":966:1019   */\n      tag_31\n        /* \"#utility.yul\":1011:1018   */\n      dup6\n        /* \"#utility.yul\":1002:1008   */\n      dup3\n        /* \"#utility.yul\":991:1000   */\n      dup7\n        /* \"#utility.yul\":987:1009   */\n      add\n        /* \"#utility.yul\":966:1019   */\n      tag_16\n      jump\t// in\n    tag_31:\n        /* \"#utility.yul\":956:1019   */\n      swap3\n      pop\n        /* \"#utility.yul\":912:1029   */\n      pop\n        /* \"#utility.yul\":1068:1070   */\n      0x20\n        /* \"#utility.yul\":1094:1147   */\n      tag_32\n        /* \"#utility.yul\":1139:1146   */\n      dup6\n        /* \"#utility.yul\":1130:1136   */\n      dup3\n        /* \"#utility.yul\":1119:1128   */\n      dup7\n        /* \"#utility.yul\":1115:1137   */\n      add\n        /* \"#utility.yul\":1094:1147   */\n      tag_16\n      jump\t// in\n    tag_32:\n        /* \"#utility.yul\":1084:1147   */\n      swap2\n      pop\n        /* \"#utility.yul\":1039:1157   */\n      pop\n        /* \"#utility.yul\":690:1164   */\n      swap3\n      pop\n      swap3\n      swap1\n      pop\n      jump\t// out\n        /* \"#utility.yul\":1170:1350   */\n    tag_17:\n        /* \"#utility.yul\":1218:1295   */\n      0x4e487b7100000000000000000000000000000000000000000000000000000000\n        /* \"#utility.yul\":1215:1216   */\n      0x00\n        /* \"#utility.yul\":1208:1296   */\n      mstore\n        /* \"#utility.yul\":1315:1319   */\n      0x11\n        /* \"#utility.yul\":1312:1313   */\n      0x04\n        /* \"#utility.yul\":1305:1320   */\n      mstore\n        /* \"#utility.yul\":1339:1343   */\n      0x24\n        /* \"#utility.yul\":1336:1337   */\n      0x00\n        /* \"#utility.yul\":1329:1344   */\n      revert\n        /* \"#utility.yul\":1356:1547   */\n    tag_10:\n        /* \"#utility.yul\":1396:1399   */\n      0x00\n        /* \"#utility.yul\":1415:1435   */\n      tag_35\n        /* \"#utility.yul\":1433:1434   */\n      dup3\n        /* \"#utility.yul\":1415:1435   */\n      tag_14\n      jump\t// in\n    tag_35:\n        /* \"#utility.yul\":1410:1435   */\n      swap2\n      pop\n        /* \"#utility.yul\":1449:1469   */\n      tag_36\n        /* \"#utility.yul\":1467:1468   */\n      dup4\n        /* \"#utility.yul\":1449:1469   */\n      tag_14\n      jump\t// in\n    tag_36:\n        /* \"#utility.yul\":1444:1469   */\n      swap3\n      pop\n        /* \"#utility.yul\":1492:1493   */\n      dup3\n        /* \"#utility.yul\":1489:1490   */\n      dup3\n        /* \"#utility.yul\":1485:1494   */\n      add\n        /* \"#utility.yul\":1478:1494   */\n      swap1\n      pop\n        /* \"#utility.yul\":1513:1516   */\n      dup1\n        /* \"#utility.yul\":1510:1511   */\n      dup3\n        /* \"#utility.yul\":1507:1517   */\n      gt\n        /* \"#utility.yul\":1504:1540   */\n      iszero\n      tag_37\n      jumpi\n        /* \"#utility.yul\":1520:1538   */\n      tag_38\n      tag_17\n      jump\t// in\n    tag_38:\n        /* \"#utility.yul\":1504:1540   */\n    tag_37:\n        /* \"#utility.yul\":1356:1547   */\n      swap3\n      swap2\n      pop\n      pop\n      jump\t// out\n\n    auxdata: 0xa2646970667358221220c0bcb70599c8143a3051b7a8789b5f78c0cd4345d980c69750956c57eb16fadb64736f6c634300081f0033\n}\n",
				"bytecode": {
					"linkReferences": {},
					"object": "6080604052348015600e575f5ffd5b506101738061001c5f395ff3fe608060405234801561000f575f5ffd5b5060043610610029575f3560e01c80637b8d56e31461002d575b5f5ffd5b6100476004803603810190610042919061009f565b610049565b005b5f8290505f829050808261005d919061010a565b5f8190555050505050565b5f5ffd5b5f819050919050565b61007e8161006c565b8114610088575f5ffd5b50565b5f8135905061009981610075565b92915050565b5f5f604083850312156100b5576100b4610068565b5b5f6100c28582860161008b565b92505060206100d38582860161008b565b9150509250929050565b7f4e487b71000000000000000000000000000000000000000000000000000000005f52601160045260245ffd5b5f6101148261006c565b915061011f8361006c565b9250828201905080821115610137576101366100dd565b5b9291505056fea2646970667358221220c0bcb70599c8143a3051b7a8789b5f78c0cd4345d980c69750956c57eb16fadb64736f6c634300081f0033",
					"opcodes": "PUSH1 0x80 PUSH1 0x40 MSTORE CALLVALUE DUP1 ISZERO PUSH1 0xE JUMPI PUSH0 PUSH0 REVERT JUMPDEST POP PUSH2 0x173 DUP1 PUSH2 0x1C PUSH0 CODECOPY PUSH0 RETURN INVALID PUSH1 0x80 PUSH1 0x40 MSTORE CALLVALUE DUP1 ISZERO PUSH2 0xF JUMPI PUSH0 PUSH0 REVERT JUMPDEST POP PUSH1 0x4 CALLDATASIZE LT PUSH2 0x29 JUMPI PUSH0 CALLDATALOAD PUSH1 0xE0 SHR DUP1 PUSH4 0x7B8D56E3 EQ PUSH2 0x2D JUMPI JUMPDEST PUSH0 PUSH0 REVERT JUMPDEST PUSH2 0x47 PUSH1 0x4 DUP1 CALLDATASIZE SUB DUP2 ADD SWAP1 PUSH2 0x42 SWAP2 SWAP1 PUSH2 0x9F JUMP JUMPDEST PUSH2 0x49 JUMP JUMPDEST STOP JUMPDEST PUSH0 DUP3 SWAP1 POP PUSH0 DUP3 SWAP1 POP DUP1 DUP3 PUSH2 0x5D SWAP2 SWAP1 PUSH2 0x10A JUMP JUMPDEST PUSH0 DUP2 SWAP1 SSTORE POP POP POP POP POP JUMP JUMPDEST PUSH0 PUSH0 REVERT JUMPDEST PUSH0 DUP2 SWAP1 POP SWAP2 SWAP1 POP JUMP JUMPDEST PUSH2 0x7E DUP2 PUSH2 0x6C JUMP JUMPDEST DUP2 EQ PUSH2 0x88 JUMPI PUSH0 PUSH0 REVERT JUMPDEST POP JUMP JUMPDEST PUSH0 DUP2 CALLDATALOAD SWAP1 POP PUSH2 0x99 DUP2 PUSH2 0x75 JUMP JUMPDEST SWAP3 SWAP2 POP POP JUMP JUMPDEST PUSH0 PUSH0 PUSH1 0x40 DUP4 DUP6 SUB SLT ISZERO PUSH2 0xB5 JUMPI PUSH2 0xB4 PUSH2 0x68 JUMP JUMPDEST JUMPDEST PUSH0 PUSH2 0xC2 DUP6 DUP3 DUP7 ADD PUSH2 0x8B JUMP JUMPDEST SWAP3 POP POP PUSH1 0x20 PUSH2 0xD3 DUP6 DUP3 DUP7 ADD PUSH2 0x8B JUMP JUMPDEST SWAP2 POP POP SWAP3 POP SWAP3 SWAP1 POP JUMP JUMPDEST PUSH32 0x4E487B7100000000000000000000000000000000000000000000000000000000 PUSH0 MSTORE PUSH1 0x11 PUSH1 0x4 MSTORE PUSH1 0x24 PUSH0 REVERT JUMPDEST PUSH0 PUSH2 0x114 DUP3 PUSH2 0x6C JUMP JUMPDEST SWAP2 POP PUSH2 0x11F DUP4 PUSH2 0x6C JUMP JUMPDEST SWAP3 POP DUP3 DUP3 ADD SWAP1 POP DUP1 DUP3 GT ISZERO PUSH2 0x137 JUMPI PUSH2 0x136 PUSH2 0xDD JUMP JUMPDEST JUMPDEST SWAP3 SWAP2 POP POP JUMP INVALID LOG2 PUSH5 0x6970667358 0x22 SLT KECCAK256 0xC0 0xBC 0xB7 SDIV SWAP10 0xC8 EQ GASPRICE ADDRESS MLOAD 0xB7 0xA8 PUSH25 0x9B5F78C0CD4345D980C69750956C57EB16FADB64736F6C6343 STOP ADDMOD 0x1F STOP CALLER "
				},
				"gasEstimates": {
					"creation": {
						"codeDepositCost": "74200",
						"executionCost": "121",
						"totalCost": "74321"
					},
					"external": {
						"setValue(uint256,uint256)": "infinite"
					}
				},
				"methodIdentifiers": {
					"setValue(uint256,uint256)": "7b8d56e3"
				}
			},
			"storageLayout": {
				"storage": [
					{
						"astId": 3,
						"contract": "single.sol:Parent",
						"label": "sum",
						"offset": 0,
						"slot": "0",
						"type": "t_uint256"
					}
				],
				"types": {
					"t_uint256": {
						"encoding": "inplace",
						"label": "uint256",
						"numberOfBytes": "32"
					}
				}
			},
			"userdoc": {
				"kind": "user",
				"methods": {},
				"version": 1
			}
		}
	}
}