{
	"contracts/UserAuth.sol": {
		"UserAuth": {
			"abi": [
				{
					"anonymous": false,
					"inputs": [
						{
							"indexed": true,
							"internalType": "address",
							"name": "userAddress",
							"type": "address"
						},
						{
							"indexed": false,
							"internalType": "string",
							"name": "username",
							"type": "string"
						}
					],
					"name": "UserRegistered",
					"type": "event"
				},
				{
					"inputs": [
						{
							"internalType": "address",
							"name": "_user",
							"type": "address"
						}
					],
					"name": "getUser",
					"outputs": [
						{
							"internalType": "string",
							"name": "",
							"type": "string"
						},
						{
							"internalType": "address",
							"name": "",
							"type": "address"
						},
						{
							"internalType": "bool",
							"name": "",
							"type": "bool"
						}
					],
					"stateMutability": "view",
					"type": "function"
				},
				{
					"inputs": [
						{
							"internalType": "address",
							"name": "_user",
							"type": "address"
						}
					],
					"name": "isUserRegistered",
					"outputs": [
						{
							"internalType": "bool",
							"name": "",
							"type": "bool"
						}
					],
					"stateMutability": "view",
					"type": "function"
				},
				{
					"inputs": [
						{
							"internalType": "string",
							"name": "_username",
							"type": "string"
						}
					],
					"name": "isUsernameRegistered",
					"outputs": [
						{
							"internalType": "bool",
							"name": "",
							"type": "bool"
						}
					],
					"stateMutability": "view",
					"type": "function"
				},
				{
					"inputs": [],
					"name": "login",
					"outputs": [
						{
							"internalType": "string",
							"name": "",
							"type": "string"
						}
					],
					"stateMutability": "view",
					"type": "function"
				},
				{
					"inputs": [
						{
							"internalType": "string",
							"name": "_username",
							"type": "string"
						}
					],
					"name": "register",
					"outputs": [],
					"stateMutability": "nonpayable",
					"type": "function"
				}
			],
			"devdoc": {
				"kind": "dev",
				"methods": {},
				"version": 1
			},
			"evm": {
				"assembly": "    /* \"contracts/UserAuth.sol\":60:1443  contract UserAuth {... */\n  mstore(0x40, 0x80)\n  callvalue\n  dup1\n  iszero\n  tag_1\n  jumpi\n  revert(0x00, 0x00)\ntag_1:\n  pop\n  dataSize(sub_0)\n  dup1\n  dataOffset(sub_0)\n  0x00\n  codecopy\n  0x00\n  return\nstop\n\nsub_0: assembly {\n        /* \"contracts/UserAuth.sol\":60:1443  contract UserAuth {... */\n      mstore(0x40, 0x80)\n      callvalue\n      dup1\n      iszero\n      tag_1\n      jumpi\n      revert(0x00, 0x00)\n    tag_1:\n      pop\n      jumpi(tag_2, lt(calldatasize, 0x04))\n      shr(0xe0, calldataload(0x00))\n      dup1\n      0x163f7522\n      eq\n      tag_3\n      jumpi\n      dup1\n      0x52ac2091\n      eq\n      tag_4\n      jumpi\n      dup1\n      0x6f77926b\n      eq\n      tag_5\n      jumpi\n      dup1\n      0xb34e97e8\n      eq\n      tag_6\n      jumpi\n      dup1\n      0xf2c298be\n      eq\n      tag_7\n      jumpi\n    tag_2:\n      revert(0x00, 0x00)\n        /* \"contracts/UserAuth.sol\":750:869  function isUserRegistered(address _user) public view returns (bool) {... */\n    tag_3:\n      tag_8\n      0x04\n      dup1\n      calldatasize\n      sub\n      dup2\n      add\n      swap1\n      tag_9\n      swap2\n      swap1\n      tag_10\n      jump\t// in\n    tag_9:\n      tag_11\n      jump\t// in\n    tag_8:\n      mload(0x40)\n      tag_12\n      swap2\n      swap1\n      tag_13\n      jump\t// in\n    tag_12:\n      mload(0x40)\n      dup1\n      swap2\n      sub\n      swap1\n      return\n        /* \"contracts/UserAuth.sol\":877:1027  function isUsernameRegistered(string memory _username) public view returns (bool) {... */\n    tag_4:\n      tag_14\n      0x04\n      dup1\n      calldatasize\n      sub\n      dup2\n      add\n      swap1\n      tag_15\n      swap2\n      swap1\n      tag_16\n      jump\t// in\n    tag_15:\n      tag_17\n      jump\t// in\n    tag_14:\n      mload(0x40)\n      tag_18\n      swap2\n      swap1\n      tag_13\n      jump\t// in\n    tag_18:\n      mload(0x40)\n      dup1\n      swap2\n      sub\n      swap1\n      return\n        /* \"contracts/UserAuth.sol\":1035:1226  function getUser(address _user) public view returns (string memory, address, bool) {... */\n    tag_5:\n      tag_19\n      0x04\n      dup1\n      calldatasize\n      sub\n      dup2\n      add\n      swap1\n      tag_20\n      swap2\n      swap1\n      tag_10\n      jump\t// in\n    tag_20:\n      tag_21\n      jump\t// in\n    tag_19:\n      mload(0x40)\n      tag_22\n      swap4\n      swap3\n      swap2\n      swap1\n      tag_23\n      jump\t// in\n    tag_22:\n      mload(0x40)\n      dup1\n      swap2\n      sub\n      swap1\n      return\n        /* \"contracts/UserAuth.sol\":1234:1440  function login() public view returns (string memory) {... */\n    tag_6:\n      tag_24\n      tag_25\n      jump\t// in\n    tag_24:\n      mload(0x40)\n      tag_26\n      swap2\n      swap1\n      tag_27\n      jump\t// in\n    tag_26:\n      mload(0x40)\n      dup1\n      swap2\n      sub\n      swap1\n      return\n        /* \"contracts/UserAuth.sol\":393:742  function register(string memory _username) public {... */\n    tag_7:\n      tag_28\n      0x04\n      dup1\n      calldatasize\n      sub\n      dup2\n      add\n      swap1\n      tag_29\n      swap2\n      swap1\n      tag_16\n      jump\t// in\n    tag_29:\n      tag_30\n      jump\t// in\n    tag_28:\n      stop\n        /* \"contracts/UserAuth.sol\":750:869  function isUserRegistered(address _user) public view returns (bool) {... */\n    tag_11:\n        /* \"contracts/UserAuth.sol\":812:816  bool */\n      0x00\n        /* \"contracts/UserAuth.sol\":836:841  users */\n      0x00\n        /* \"contracts/UserAuth.sol\":836:848  users[_user] */\n      0x00\n        /* \"contracts/UserAuth.sol\":842:847  _user */\n      dup4\n        /* \"contracts/UserAuth.sol\":836:848  users[_user] */\n      0xffffffffffffffffffffffffffffffffffffffff\n      and\n      0xffffffffffffffffffffffffffffffffffffffff\n      and\n      dup2\n      mstore\n      0x20\n      add\n      swap1\n      dup2\n      mstore\n      0x20\n      add\n      0x00\n      keccak256\n        /* \"contracts/UserAuth.sol\":836:861  users[_user].isRegistered */\n      0x01\n      add\n      0x14\n      swap1\n      sload\n      swap1\n      0x0100\n      exp\n      swap1\n      div\n      0xff\n      and\n        /* \"contracts/UserAuth.sol\":829:861  return users[_user].isRegistered */\n      swap1\n      pop\n        /* \"contracts/UserAuth.sol\":750:869  function isUserRegistered(address _user) public view returns (bool) {... */\n      swap2\n      swap1\n      pop\n      jump\t// out\n        /* \"contracts/UserAuth.sol\":877:1027  function isUsernameRegistered(string memory _username) public view returns (bool) {... */\n    tag_17:\n        /* \"contracts/UserAuth.sol\":953:957  bool */\n      0x00\n        /* \"contracts/UserAuth.sol\":1017:1018  0 */\n      0x00\n        /* \"contracts/UserAuth.sol\":977:1019  usernameToAddress[_username] != address(0) */\n      0xffffffffffffffffffffffffffffffffffffffff\n      and\n        /* \"contracts/UserAuth.sol\":977:994  usernameToAddress */\n      0x01\n        /* \"contracts/UserAuth.sol\":995:1004  _username */\n      dup4\n        /* \"contracts/UserAuth.sol\":977:1005  usernameToAddress[_username] */\n      mload(0x40)\n      tag_33\n      swap2\n      swap1\n      tag_34\n      jump\t// in\n    tag_33:\n      swap1\n      dup2\n      mstore\n      0x20\n      add\n      mload(0x40)\n      dup1\n      swap2\n      sub\n      swap1\n      keccak256\n      0x00\n      swap1\n      sload\n      swap1\n      0x0100\n      exp\n      swap1\n      div\n      0xffffffffffffffffffffffffffffffffffffffff\n      and\n        /* \"contracts/UserAuth.sol\":977:1019  usernameToAddress[_username] != address(0) */\n      0xffffffffffffffffffffffffffffffffffffffff\n      and\n      eq\n      iszero\n        /* \"contracts/UserAuth.sol\":970:1019  return usernameToAddress[_username] != address(0) */\n      swap1\n      pop\n        /* \"contracts/UserAuth.sol\":877:1027  function isUsernameRegistered(string memory _username) public view returns (bool) {... */\n      swap2\n      swap1\n      pop\n      jump\t// out\n        /* \"contracts/UserAuth.sol\":1035:1226  function getUser(address _user) public view returns (string memory, address, bool) {... */\n    tag_21:\n        /* \"contracts/UserAuth.sol\":1088:1101  string memory */\n      0x60\n        /* \"contracts/UserAuth.sol\":1103:1110  address */\n      0x00\n        /* \"contracts/UserAuth.sol\":1112:1116  bool */\n      0x00\n        /* \"contracts/UserAuth.sol\":1129:1142  User memory u */\n      0x00\n        /* \"contracts/UserAuth.sol\":1145:1150  users */\n      0x00\n        /* \"contracts/UserAuth.sol\":1145:1157  users[_user] */\n      0x00\n        /* \"contracts/UserAuth.sol\":1151:1156  _user */\n      dup7\n        /* \"contracts/UserAuth.sol\":1145:1157  users[_user] */\n      0xffffffffffffffffffffffffffffffffffffffff\n      and\n      0xffffffffffffffffffffffffffffffffffffffff\n      and\n      dup2\n      mstore\n      0x20\n      add\n      swap1\n      dup2\n      mstore\n      0x20\n      add\n      0x00\n      keccak256\n        /* \"contracts/UserAuth.sol\":1129:1157  User memory u = users[_user] */\n      mload(0x40)\n      dup1\n      0x60\n      add\n      0x40\n      mstore\n      swap1\n      dup2\n      0x00\n      dup3\n      add\n      dup1\n      sload\n      tag_36\n      swap1\n      tag_37\n      jump\t// in\n    tag_36:\n      dup1\n      0x1f\n      add\n      0x20\n      dup1\n      swap2\n      div\n      mul\n      0x20\n      add\n      mload(0x40)\n      swap1\n      dup2\n      add\n      0x40\n      mstore\n      dup1\n      swap3\n      swap2\n      swap1\n      dup2\n      dup2\n      mstore\n      0x20\n      add\n      dup3\n      dup1\n      sload\n      tag_38\n      swap1\n      tag_37\n      jump\t// in\n    tag_38:\n      dup1\n      iszero\n      tag_39\n      jumpi\n      dup1\n      0x1f\n      lt\n      tag_40\n      jumpi\n      0x0100\n      dup1\n      dup4\n      sload\n      div\n      mul\n      dup4\n      mstore\n      swap2\n      0x20\n      add\n      swap2\n      jump(tag_39)\n    tag_40:\n      dup3\n      add\n      swap2\n      swap1\n      0x00\n      mstore\n      keccak256(0x00, 0x20)\n      swap1\n    tag_41:\n      dup2\n      sload\n      dup2\n      mstore\n      swap1\n      0x01\n      add\n      swap1\n      0x20\n      add\n      dup1\n      dup4\n      gt\n      tag_41\n      jumpi\n      dup3\n      swap1\n      sub\n      0x1f\n      and\n      dup3\n      add\n      swap2\n    tag_39:\n      pop\n      pop\n      pop\n      pop\n      pop\n      dup2\n      mstore\n      0x20\n      add\n      0x01\n      dup3\n      add\n      0x00\n      swap1\n      sload\n      swap1\n      0x0100\n      exp\n      swap1\n      div\n      0xffffffffffffffffffffffffffffffffffffffff\n      and\n      0xffffffffffffffffffffffffffffffffffffffff\n      and\n      0xffffffffffffffffffffffffffffffffffffffff\n      and\n      dup2\n      mstore\n      0x20\n      add\n      0x01\n      dup3\n      add\n      0x14\n      swap1\n      sload\n      swap1\n      0x0100\n      exp\n      swap1\n      div\n      0xff\n      and\n      iszero\n      iszero\n      iszero\n      iszero\n      dup2\n      mstore\n      pop\n      pop\n      swap1\n      pop\n        /* \"contracts/UserAuth.sol\":1176:1177  u */\n      dup1\n        /* \"contracts/UserAuth.sol\":1176:1186  u.username */\n      0x00\n      add\n      mload\n        /* \"contracts/UserAuth.sol\":1188:1189  u */\n      dup2\n        /* \"contracts/UserAuth.sol\":1188:1201  u.userAddress */\n      0x20\n      add\n      mload\n        /* \"contracts/UserAuth.sol\":1203:1204  u */\n      dup3\n        /* \"contracts/UserAuth.sol\":1203:1217  u.isRegistered */\n      0x40\n      add\n      mload\n        /* \"contracts/UserAuth.sol\":1168:1218  return (u.username, u.userAddress, u.isRegistered) */\n      swap4\n      pop\n      swap4\n      pop\n      swap4\n      pop\n      pop\n        /* \"contracts/UserAuth.sol\":1035:1226  function getUser(address _user) public view returns (string memory, address, bool) {... */\n      swap2\n      swap4\n      swap1\n      swap3\n      pop\n      jump\t// out\n        /* \"contracts/UserAuth.sol\":1234:1440  function login() public view returns (string memory) {... */\n    tag_25:\n        /* \"contracts/UserAuth.sol\":1272:1285  string memory */\n      0x60\n        /* \"contracts/UserAuth.sol\":1306:1311  users */\n      0x00\n        /* \"contracts/UserAuth.sol\":1306:1323  users[msg.sender] */\n      0x00\n        /* \"contracts/UserAuth.sol\":1312:1322  msg.sender */\n      caller\n        /* \"contracts/UserAuth.sol\":1306:1323  users[msg.sender] */\n      0xffffffffffffffffffffffffffffffffffffffff\n      and\n      0xffffffffffffffffffffffffffffffffffffffff\n      and\n      dup2\n      mstore\n      0x20\n      add\n      swap1\n      dup2\n      mstore\n      0x20\n      add\n      0x00\n      keccak256\n        /* \"contracts/UserAuth.sol\":1306:1336  users[msg.sender].isRegistered */\n      0x01\n      add\n      0x14\n      swap1\n      sload\n      swap1\n      0x0100\n      exp\n      swap1\n      div\n      0xff\n      and\n        /* \"contracts/UserAuth.sol\":1298:1355  require(users[msg.sender].isRegistered, \"Not registered\") */\n      tag_43\n      jumpi\n      mload(0x40)\n      0x08c379a000000000000000000000000000000000000000000000000000000000\n      dup2\n      mstore\n      0x04\n      add\n      tag_44\n      swap1\n      tag_45\n      jump\t// in\n    tag_44:\n      mload(0x40)\n      dup1\n      swap2\n      sub\n      swap1\n      revert\n    tag_43:\n        /* \"contracts/UserAuth.sol\":1405:1410  users */\n      0x00\n        /* \"contracts/UserAuth.sol\":1405:1422  users[msg.sender] */\n      0x00\n        /* \"contracts/UserAuth.sol\":1411:1421  msg.sender */\n      caller\n        /* \"contracts/UserAuth.sol\":1405:1422  users[msg.sender] */\n      0xffffffffffffffffffffffffffffffffffffffff\n      and\n      0xffffffffffffffffffffffffffffffffffffffff\n      and\n      dup2\n      mstore\n      0x20\n      add\n      swap1\n      dup2\n      mstore\n      0x20\n      add\n      0x00\n      keccak256\n        /* \"contracts/UserAuth.sol\":1405:1431  users[msg.sender].username */\n      0x00\n      add\n        /* \"contracts/UserAuth.sol\":1373:1432  string.concat(\"Welcome back, \", users[msg.sender].username) */\n      add(0x20, mload(0x40))\n      tag_46\n      swap2\n      swap1\n      tag_47\n      jump\t// in\n    tag_46:\n      mload(0x40)\n      0x20\n      dup2\n      dup4\n      sub\n      sub\n      dup2\n      mstore\n      swap1\n      0x40\n      mstore\n        /* \"contracts/UserAuth.sol\":1366:1432  return string.concat(\"Welcome back, \", users[msg.sender].username) */\n      swap1\n      pop\n        /* \"contracts/UserAuth.sol\":1234:1440  function login() public view returns (string memory) {... */\n      swap1\n      jump\t// out\n        /* \"contracts/UserAuth.sol\":393:742  function register(string memory _username) public {... */\n    tag_30:\n        /* \"contracts/UserAuth.sol\":474:596  User({... */\n      mload(0x40)\n      dup1\n      0x60\n      add\n      0x40\n      mstore\n      dup1\n        /* \"contracts/UserAuth.sol\":504:513  _username */\n      dup3\n        /* \"contracts/UserAuth.sol\":474:596  User({... */\n      dup2\n      mstore\n      0x20\n      add\n        /* \"contracts/UserAuth.sol\":541:551  msg.sender */\n      caller\n        /* \"contracts/UserAuth.sol\":474:596  User({... */\n      0xffffffffffffffffffffffffffffffffffffffff\n      and\n      dup2\n      mstore\n      0x20\n      add\n        /* \"contracts/UserAuth.sol\":580:584  true */\n      0x01\n        /* \"contracts/UserAuth.sol\":474:596  User({... */\n      iszero\n      iszero\n      dup2\n      mstore\n      pop\n        /* \"contracts/UserAuth.sol\":454:459  users */\n      0x00\n        /* \"contracts/UserAuth.sol\":454:471  users[msg.sender] */\n      0x00\n        /* \"contracts/UserAuth.sol\":460:470  msg.sender */\n      caller\n        /* \"contracts/UserAuth.sol\":454:471  users[msg.sender] */\n      0xffffffffffffffffffffffffffffffffffffffff\n      and\n      0xffffffffffffffffffffffffffffffffffffffff\n      and\n      dup2\n      mstore\n      0x20\n      add\n      swap1\n      dup2\n      mstore\n      0x20\n      add\n      0x00\n      keccak256\n        /* \"contracts/UserAuth.sol\":454:596  users[msg.sender] = User({... */\n      0x00\n      dup3\n      add\n      mload\n      dup2\n      0x00\n      add\n      swap1\n      dup2\n      tag_49\n      swap2\n      swap1\n      tag_50\n      jump\t// in\n    tag_49:\n      pop\n      0x20\n      dup3\n      add\n      mload\n      dup2\n      0x01\n      add\n      exp(0x0100, 0x00)\n      dup2\n      sload\n      dup2\n      0xffffffffffffffffffffffffffffffffffffffff\n      mul\n      not\n      and\n      swap1\n      dup4\n      0xffffffffffffffffffffffffffffffffffffffff\n      and\n      mul\n      or\n      swap1\n      sstore\n      pop\n      0x40\n      dup3\n      add\n      mload\n      dup2\n      0x01\n      add\n      exp(0x0100, 0x14)\n      dup2\n      sload\n      dup2\n      0xff\n      mul\n      not\n      and\n      swap1\n      dup4\n      iszero\n      iszero\n      mul\n      or\n      swap1\n      sstore\n      pop\n      swap1\n      pop\n      pop\n        /* \"contracts/UserAuth.sol\":640:650  msg.sender */\n      caller\n        /* \"contracts/UserAuth.sol\":609:626  usernameToAddress */\n      0x01\n        /* \"contracts/UserAuth.sol\":627:636  _username */\n      dup3\n        /* \"contracts/UserAuth.sol\":609:637  usernameToAddress[_username] */\n      mload(0x40)\n      tag_51\n      swap2\n      swap1\n      tag_34\n      jump\t// in\n    tag_51:\n      swap1\n      dup2\n      mstore\n      0x20\n      add\n      mload(0x40)\n      dup1\n      swap2\n      sub\n      swap1\n      keccak256\n      0x00\n        /* \"contracts/UserAuth.sol\":609:650  usernameToAddress[_username] = msg.sender */\n      0x0100\n      exp\n      dup2\n      sload\n      dup2\n      0xffffffffffffffffffffffffffffffffffffffff\n      mul\n      not\n      and\n      swap1\n      dup4\n      0xffffffffffffffffffffffffffffffffffffffff\n      and\n      mul\n      or\n      swap1\n      sstore\n      pop\n        /* \"contracts/UserAuth.sol\":712:722  msg.sender */\n      caller\n        /* \"contracts/UserAuth.sol\":697:734  UserRegistered(msg.sender, _username) */\n      0xffffffffffffffffffffffffffffffffffffffff\n      and\n      0x48cac28ad4dc618e15f4c2dd5e97751182f166de97b25618318b2112aa951a2f\n        /* \"contracts/UserAuth.sol\":724:733  _username */\n      dup3\n        /* \"contracts/UserAuth.sol\":697:734  UserRegistered(msg.sender, _username) */\n      mload(0x40)\n      tag_52\n      swap2\n      swap1\n      tag_27\n      jump\t// in\n    tag_52:\n      mload(0x40)\n      dup1\n      swap2\n      sub\n      swap1\n      log2\n        /* \"contracts/UserAuth.sol\":393:742  function register(string memory _username) public {... */\n      pop\n      jump\t// out\n        /* \"#utility.yul\":7:82   */\n    tag_53:\n        /* \"#utility.yul\":40:46   */\n      0x00\n        /* \"#utility.yul\":73:75   */\n      0x40\n        /* \"#utility.yul\":67:76   */\n      mload\n        /* \"#utility.yul\":57:76   */\n      swap1\n      pop\n        /* \"#utility.yul\":7:82   */\n      swap1\n      jump\t// out\n        /* \"#utility.yul\":88:205   */\n    tag_54:\n        /* \"#utility.yul\":197:198   */\n      0x00\n        /* \"#utility.yul\":194:195   */\n      0x00\n        /* \"#utility.yul\":187:199   */\n      revert\n        /* \"#utility.yul\":211:328   */\n    tag_55:\n        /* \"#utility.yul\":320:321   */\n      0x00\n        /* \"#utility.yul\":317:318   */\n      0x00\n        /* \"#utility.yul\":310:322   */\n      revert\n        /* \"#utility.yul\":334:460   */\n    tag_56:\n        /* \"#utility.yul\":371:378   */\n      0x00\n        /* \"#utility.yul\":411:453   */\n      0xffffffffffffffffffffffffffffffffffffffff\n        /* \"#utility.yul\":404:409   */\n      dup3\n        /* \"#utility.yul\":400:454   */\n      and\n        /* \"#utility.yul\":389:454   */\n      swap1\n      pop\n        /* \"#utility.yul\":334:460   */\n      swap2\n      swap1\n      pop\n      jump\t// out\n        /* \"#utility.yul\":466:562   */\n    tag_57:\n        /* \"#utility.yul\":503:510   */\n      0x00\n        /* \"#utility.yul\":532:556   */\n      tag_106\n        /* \"#utility.yul\":550:555   */\n      dup3\n        /* \"#utility.yul\":532:556   */\n      tag_56\n      jump\t// in\n    tag_106:\n        /* \"#utility.yul\":521:556   */\n      swap1\n      pop\n        /* \"#utility.yul\":466:562   */\n      swap2\n      swap1\n      pop\n      jump\t// out\n        /* \"#utility.yul\":568:690   */\n    tag_58:\n        /* \"#utility.yul\":641:665   */\n      tag_108\n        /* \"#utility.yul\":659:664   */\n      dup2\n        /* \"#utility.yul\":641:665   */\n      tag_57\n      jump\t// in\n    tag_108:\n        /* \"#utility.yul\":634:639   */\n      dup2\n        /* \"#utility.yul\":631:666   */\n      eq\n        /* \"#utility.yul\":621:684   */\n      tag_109\n      jumpi\n        /* \"#utility.yul\":680:681   */\n      0x00\n        /* \"#utility.yul\":677:678   */\n      0x00\n        /* \"#utility.yul\":670:682   */\n      revert\n        /* \"#utility.yul\":621:684   */\n    tag_109:\n        /* \"#utility.yul\":568:690   */\n      pop\n      jump\t// out\n        /* \"#utility.yul\":696:835   */\n    tag_59:\n        /* \"#utility.yul\":742:747   */\n      0x00\n        /* \"#utility.yul\":780:786   */\n      dup2\n        /* \"#utility.yul\":767:787   */\n      calldataload\n        /* \"#utility.yul\":758:787   */\n      swap1\n      pop\n        /* \"#utility.yul\":796:829   */\n      tag_111\n        /* \"#utility.yul\":823:828   */\n      dup2\n        /* \"#utility.yul\":796:829   */\n      tag_58\n      jump\t// in\n    tag_111:\n        /* \"#utility.yul\":696:835   */\n      swap3\n      swap2\n      pop\n      pop\n      jump\t// out\n        /* \"#utility.yul\":841:1170   */\n    tag_10:\n        /* \"#utility.yul\":900:906   */\n      0x00\n        /* \"#utility.yul\":949:951   */\n      0x20\n        /* \"#utility.yul\":937:946   */\n      dup3\n        /* \"#utility.yul\":928:935   */\n      dup5\n        /* \"#utility.yul\":924:947   */\n      sub\n        /* \"#utility.yul\":920:952   */\n      slt\n        /* \"#utility.yul\":917:1036   */\n      iszero\n      tag_113\n      jumpi\n        /* \"#utility.yul\":955:1034   */\n      tag_114\n      tag_54\n      jump\t// in\n    tag_114:\n        /* \"#utility.yul\":917:1036   */\n    tag_113:\n        /* \"#utility.yul\":1075:1076   */\n      0x00\n        /* \"#utility.yul\":1100:1153   */\n      tag_115\n        /* \"#utility.yul\":1145:1152   */\n      dup5\n        /* \"#utility.yul\":1136:1142   */\n      dup3\n        /* \"#utility.yul\":1125:1134   */\n      dup6\n        /* \"#utility.yul\":1121:1143   */\n      add\n        /* \"#utility.yul\":1100:1153   */\n      tag_59\n      jump\t// in\n    tag_115:\n        /* \"#utility.yul\":1090:1153   */\n      swap2\n      pop\n        /* \"#utility.yul\":1046:1163   */\n      pop\n        /* \"#utility.yul\":841:1170   */\n      swap3\n      swap2\n      pop\n      pop\n      jump\t// out\n        /* \"#utility.yul\":1176:1266   */\n    tag_60:\n        /* \"#utility.yul\":1210:1217   */\n      0x00\n        /* \"#utility.yul\":1253:1258   */\n      dup2\n        /* \"#utility.yul\":1246:1259   */\n      iszero\n        /* \"#utility.yul\":1239:1260   */\n      iszero\n        /* \"#utility.yul\":1228:1260   */\n      swap1\n      pop\n        /* \"#utility.yul\":1176:1266   */\n      swap2\n      swap1\n      pop\n      jump\t// out\n        /* \"#utility.yul\":1272:1381   */\n    tag_61:\n        /* \"#utility.yul\":1353:1374   */\n      tag_118\n        /* \"#utility.yul\":1368:1373   */\n      dup2\n        /* \"#utility.yul\":1353:1374   */\n      tag_60\n      jump\t// in\n    tag_118:\n        /* \"#utility.yul\":1348:1351   */\n      dup3\n        /* \"#utility.yul\":1341:1375   */\n      mstore\n        /* \"#utility.yul\":1272:1381   */\n      pop\n      pop\n      jump\t// out\n        /* \"#utility.yul\":1387:1597   */\n    tag_13:\n        /* \"#utility.yul\":1474:1478   */\n      0x00\n        /* \"#utility.yul\":1512:1514   */\n      0x20\n        /* \"#utility.yul\":1501:1510   */\n      dup3\n        /* \"#utility.yul\":1497:1515   */\n      add\n        /* \"#utility.yul\":1489:1515   */\n      swap1\n      pop\n        /* \"#utility.yul\":1525:1590   */\n      tag_120\n        /* \"#utility.yul\":1587:1588   */\n      0x00\n        /* \"#utility.yul\":1576:1585   */\n      dup4\n        /* \"#utility.yul\":1572:1589   */\n      add\n        /* \"#utility.yul\":1563:1569   */\n      dup5\n        /* \"#utility.yul\":1525:1590   */\n      tag_61\n      jump\t// in\n    tag_120:\n        /* \"#utility.yul\":1387:1597   */\n      swap3\n      swap2\n      pop\n      pop\n      jump\t// out\n        /* \"#utility.yul\":1603:1720   */\n    tag_62:\n        /* \"#utility.yul\":1712:1713   */\n      0x00\n        /* \"#utility.yul\":1709:1710   */\n      0x00\n        /* \"#utility.yul\":1702:1714   */\n      revert\n        /* \"#utility.yul\":1726:1843   */\n    tag_63:\n        /* \"#utility.yul\":1835:1836   */\n      0x00\n        /* \"#utility.yul\":1832:1833   */\n      0x00\n        /* \"#utility.yul\":1825:1837   */\n      revert\n        /* \"#utility.yul\":1849:1951   */\n    tag_64:\n        /* \"#utility.yul\":1890:1896   */\n      0x00\n        /* \"#utility.yul\":1941:1943   */\n      0x1f\n        /* \"#utility.yul\":1937:1944   */\n      not\n        /* \"#utility.yul\":1932:1934   */\n      0x1f\n        /* \"#utility.yul\":1925:1930   */\n      dup4\n        /* \"#utility.yul\":1921:1935   */\n      add\n        /* \"#utility.yul\":1917:1945   */\n      and\n        /* \"#utility.yul\":1907:1945   */\n      swap1\n      pop\n        /* \"#utility.yul\":1849:1951   */\n      swap2\n      swap1\n      pop\n      jump\t// out\n        /* \"#utility.yul\":1957:2137   */\n    tag_65:\n        /* \"#utility.yul\":2005:2082   */\n      0x4e487b7100000000000000000000000000000000000000000000000000000000\n        /* \"#utility.yul\":2002:2003   */\n      0x00\n        /* \"#utility.yul\":1995:2083   */\n      mstore\n        /* \"#utility.yul\":2102:2106   */\n      0x41\n        /* \"#utility.yul\":2099:2100   */\n      0x04\n        /* \"#utility.yul\":2092:2107   */\n      mstore\n        /* \"#utility.yul\":2126:2130   */\n      0x24\n        /* \"#utility.yul\":2123:2124   */\n      0x00\n        /* \"#utility.yul\":2116:2131   */\n      revert\n        /* \"#utility.yul\":2143:2424   */\n    tag_66:\n        /* \"#utility.yul\":2226:2253   */\n      tag_126\n        /* \"#utility.yul\":2248:2252   */\n      dup3\n        /* \"#utility.yul\":2226:2253   */\n      tag_64\n      jump\t// in\n    tag_126:\n        /* \"#utility.yul\":2218:2224   */\n      dup2\n        /* \"#utility.yul\":2214:2254   */\n      add\n        /* \"#utility.yul\":2356:2362   */\n      dup2\n        /* \"#utility.yul\":2344:2354   */\n      dup2\n        /* \"#utility.yul\":2341:2363   */\n      lt\n        /* \"#utility.yul\":2320:2338   */\n      0xffffffffffffffff\n        /* \"#utility.yul\":2308:2318   */\n      dup3\n        /* \"#utility.yul\":2305:2339   */\n      gt\n        /* \"#utility.yul\":2302:2364   */\n      or\n        /* \"#utility.yul\":2299:2387   */\n      iszero\n      tag_127\n      jumpi\n        /* \"#utility.yul\":2367:2385   */\n      tag_128\n      tag_65\n      jump\t// in\n    tag_128:\n        /* \"#utility.yul\":2299:2387   */\n    tag_127:\n        /* \"#utility.yul\":2407:2417   */\n      dup1\n        /* \"#utility.yul\":2403:2405   */\n      0x40\n        /* \"#utility.yul\":2396:2418   */\n      mstore\n        /* \"#utility.yul\":2186:2424   */\n      pop\n        /* \"#utility.yul\":2143:2424   */\n      pop\n      pop\n      jump\t// out\n        /* \"#utility.yul\":2430:2559   */\n    tag_67:\n        /* \"#utility.yul\":2464:2470   */\n      0x00\n        /* \"#utility.yul\":2491:2511   */\n      tag_130\n      tag_53\n      jump\t// in\n    tag_130:\n        /* \"#utility.yul\":2481:2511   */\n      swap1\n      pop\n        /* \"#utility.yul\":2520:2553   */\n      tag_131\n        /* \"#utility.yul\":2548:2552   */\n      dup3\n        /* \"#utility.yul\":2540:2546   */\n      dup3\n        /* \"#utility.yul\":2520:2553   */\n      tag_66\n      jump\t// in\n    tag_131:\n        /* \"#utility.yul\":2430:2559   */\n      swap2\n      swap1\n      pop\n      jump\t// out\n        /* \"#utility.yul\":2565:2873   */\n    tag_68:\n        /* \"#utility.yul\":2627:2631   */\n      0x00\n        /* \"#utility.yul\":2717:2735   */\n      0xffffffffffffffff\n        /* \"#utility.yul\":2709:2715   */\n      dup3\n        /* \"#utility.yul\":2706:2736   */\n      gt\n        /* \"#utility.yul\":2703:2759   */\n      iszero\n      tag_133\n      jumpi\n        /* \"#utility.yul\":2739:2757   */\n      tag_134\n      tag_65\n      jump\t// in\n    tag_134:\n        /* \"#utility.yul\":2703:2759   */\n    tag_133:\n        /* \"#utility.yul\":2777:2806   */\n      tag_135\n        /* \"#utility.yul\":2799:2805   */\n      dup3\n        /* \"#utility.yul\":2777:2806   */\n      tag_64\n      jump\t// in\n    tag_135:\n        /* \"#utility.yul\":2769:2806   */\n      swap1\n      pop\n        /* \"#utility.yul\":2861:2865   */\n      0x20\n        /* \"#utility.yul\":2855:2859   */\n      dup2\n        /* \"#utility.yul\":2851:2866   */\n      add\n        /* \"#utility.yul\":2843:2866   */\n      swap1\n      pop\n        /* \"#utility.yul\":2565:2873   */\n      swap2\n      swap1\n      pop\n      jump\t// out\n        /* \"#utility.yul\":2879:3027   */\n    tag_69:\n        /* \"#utility.yul\":2977:2983   */\n      dup3\n        /* \"#utility.yul\":2972:2975   */\n      dup2\n        /* \"#utility.yul\":2967:2970   */\n      dup4\n        /* \"#utility.yul\":2954:2984   */\n      calldatacopy\n        /* \"#utility.yul\":3018:3019   */\n      0x00\n        /* \"#utility.yul\":3009:3015   */\n      dup4\n        /* \"#utility.yul\":3004:3007   */\n      dup4\n        /* \"#utility.yul\":3000:3016   */\n      add\n        /* \"#utility.yul\":2993:3020   */\n      mstore\n        /* \"#utility.yul\":2879:3027   */\n      pop\n      pop\n      pop\n      jump\t// out\n        /* \"#utility.yul\":3033:3458   */\n    tag_70:\n        /* \"#utility.yul\":3111:3116   */\n      0x00\n        /* \"#utility.yul\":3136:3202   */\n      tag_138\n        /* \"#utility.yul\":3152:3201   */\n      tag_139\n        /* \"#utility.yul\":3194:3200   */\n      dup5\n        /* \"#utility.yul\":3152:3201   */\n      tag_68\n      jump\t// in\n    tag_139:\n        /* \"#utility.yul\":3136:3202   */\n      tag_67\n      jump\t// in\n    tag_138:\n        /* \"#utility.yul\":3127:3202   */\n      swap1\n      pop\n        /* \"#utility.yul\":3225:3231   */\n      dup3\n        /* \"#utility.yul\":3218:3223   */\n      dup2\n        /* \"#utility.yul\":3211:3232   */\n      mstore\n        /* \"#utility.yul\":3263:3267   */\n      0x20\n        /* \"#utility.yul\":3256:3261   */\n      dup2\n        /* \"#utility.yul\":3252:3268   */\n      add\n        /* \"#utility.yul\":3301:3304   */\n      dup5\n        /* \"#utility.yul\":3292:3298   */\n      dup5\n        /* \"#utility.yul\":3287:3290   */\n      dup5\n        /* \"#utility.yul\":3283:3299   */\n      add\n        /* \"#utility.yul\":3280:3305   */\n      gt\n        /* \"#utility.yul\":3277:3389   */\n      iszero\n      tag_140\n      jumpi\n        /* \"#utility.yul\":3308:3387   */\n      tag_141\n      tag_63\n      jump\t// in\n    tag_141:\n        /* \"#utility.yul\":3277:3389   */\n    tag_140:\n        /* \"#utility.yul\":3398:3452   */\n      tag_142\n        /* \"#utility.yul\":3445:3451   */\n      dup5\n        /* \"#utility.yul\":3440:3443   */\n      dup3\n        /* \"#utility.yul\":3435:3438   */\n      dup6\n        /* \"#utility.yul\":3398:3452   */\n      tag_69\n      jump\t// in\n    tag_142:\n        /* \"#utility.yul\":3117:3458   */\n      pop\n        /* \"#utility.yul\":3033:3458   */\n      swap4\n      swap3\n      pop\n      pop\n      pop\n      jump\t// out\n        /* \"#utility.yul\":3478:3818   */\n    tag_71:\n        /* \"#utility.yul\":3534:3539   */\n      0x00\n        /* \"#utility.yul\":3583:3586   */\n      dup3\n        /* \"#utility.yul\":3576:3580   */\n      0x1f\n        /* \"#utility.yul\":3568:3574   */\n      dup4\n        /* \"#utility.yul\":3564:3581   */\n      add\n        /* \"#utility.yul\":3560:3587   */\n      slt\n        /* \"#utility.yul\":3550:3672   */\n      tag_144\n      jumpi\n        /* \"#utility.yul\":3591:3670   */\n      tag_145\n      tag_62\n      jump\t// in\n    tag_145:\n        /* \"#utility.yul\":3550:3672   */\n    tag_144:\n        /* \"#utility.yul\":3708:3714   */\n      dup2\n        /* \"#utility.yul\":3695:3715   */\n      calldataload\n        /* \"#utility.yul\":3733:3812   */\n      tag_146\n        /* \"#utility.yul\":3808:3811   */\n      dup5\n        /* \"#utility.yul\":3800:3806   */\n      dup3\n        /* \"#utility.yul\":3793:3797   */\n      0x20\n        /* \"#utility.yul\":3785:3791   */\n      dup7\n        /* \"#utility.yul\":3781:3798   */\n      add\n        /* \"#utility.yul\":3733:3812   */\n      tag_70\n      jump\t// in\n    tag_146:\n        /* \"#utility.yul\":3724:3812   */\n      swap2\n      pop\n        /* \"#utility.yul\":3540:3818   */\n      pop\n        /* \"#utility.yul\":3478:3818   */\n      swap3\n      swap2\n      pop\n      pop\n      jump\t// out\n        /* \"#utility.yul\":3824:4333   */\n    tag_16:\n        /* \"#utility.yul\":3893:3899   */\n      0x00\n        /* \"#utility.yul\":3942:3944   */\n      0x20\n        /* \"#utility.yul\":3930:3939   */\n      dup3\n        /* \"#utility.yul\":3921:3928   */\n      dup5\n        /* \"#utility.yul\":3917:3940   */\n      sub\n        /* \"#utility.yul\":3913:3945   */\n      slt\n        /* \"#utility.yul\":3910:4029   */\n      iszero\n      tag_148\n      jumpi\n        /* \"#utility.yul\":3948:4027   */\n      tag_149\n      tag_54\n      jump\t// in\n    tag_149:\n        /* \"#utility.yul\":3910:4029   */\n    tag_148:\n        /* \"#utility.yul\":4096:4097   */\n      0x00\n        /* \"#utility.yul\":4085:4094   */\n      dup3\n        /* \"#utility.yul\":4081:4098   */\n      add\n        /* \"#utility.yul\":4068:4099   */\n      calldataload\n        /* \"#utility.yul\":4126:4144   */\n      0xffffffffffffffff\n        /* \"#utility.yul\":4118:4124   */\n      dup2\n        /* \"#utility.yul\":4115:4145   */\n      gt\n        /* \"#utility.yul\":4112:4229   */\n      iszero\n      tag_150\n      jumpi\n        /* \"#utility.yul\":4148:4227   */\n      tag_151\n      tag_55\n      jump\t// in\n    tag_151:\n        /* \"#utility.yul\":4112:4229   */\n    tag_150:\n        /* \"#utility.yul\":4253:4316   */\n      tag_152\n        /* \"#utility.yul\":4308:4315   */\n      dup5\n        /* \"#utility.yul\":4299:4305   */\n      dup3\n        /* \"#utility.yul\":4288:4297   */\n      dup6\n        /* \"#utility.yul\":4284:4306   */\n      add\n        /* \"#utility.yul\":4253:4316   */\n      tag_71\n      jump\t// in\n    tag_152:\n        /* \"#utility.yul\":4243:4316   */\n      swap2\n      pop\n        /* \"#utility.yul\":4039:4326   */\n      pop\n        /* \"#utility.yul\":3824:4333   */\n      swap3\n      swap2\n      pop\n      pop\n      jump\t// out\n        /* \"#utility.yul\":4339:4438   */\n    tag_72:\n        /* \"#utility.yul\":4391:4397   */\n      0x00\n        /* \"#utility.yul\":4425:4430   */\n      dup2\n        /* \"#utility.yul\":4419:4431   */\n      mload\n        /* \"#utility.yul\":4409:4431   */\n      swap1\n      pop\n        /* \"#utility.yul\":4339:4438   */\n      swap2\n      swap1\n      pop\n      jump\t// out\n        /* \"#utility.yul\":4444:4613   */\n    tag_73:\n        /* \"#utility.yul\":4528:4539   */\n      0x00\n        /* \"#utility.yul\":4562:4568   */\n      dup3\n        /* \"#utility.yul\":4557:4560   */\n      dup3\n        /* \"#utility.yul\":4550:4569   */\n      mstore\n        /* \"#utility.yul\":4602:4606   */\n      0x20\n        /* \"#utility.yul\":4597:4600   */\n      dup3\n        /* \"#utility.yul\":4593:4607   */\n      add\n        /* \"#utility.yul\":4578:4607   */\n      swap1\n      pop\n        /* \"#utility.yul\":4444:4613   */\n      swap3\n      swap2\n      pop\n      pop\n      jump\t// out\n        /* \"#utility.yul\":4619:4758   */\n    tag_74:\n        /* \"#utility.yul\":4708:4714   */\n      dup3\n        /* \"#utility.yul\":4703:4706   */\n      dup2\n        /* \"#utility.yul\":4698:4701   */\n      dup4\n        /* \"#utility.yul\":4692:4715   */\n      mcopy\n        /* \"#utility.yul\":4749:4750   */\n      0x00\n        /* \"#utility.yul\":4740:4746   */\n      dup4\n        /* \"#utility.yul\":4735:4738   */\n      dup4\n        /* \"#utility.yul\":4731:4747   */\n      add\n        /* \"#utility.yul\":4724:4751   */\n      mstore\n        /* \"#utility.yul\":4619:4758   */\n      pop\n      pop\n      pop\n      jump\t// out\n        /* \"#utility.yul\":4764:5141   */\n    tag_75:\n        /* \"#utility.yul\":4852:4855   */\n      0x00\n        /* \"#utility.yul\":4880:4919   */\n      tag_157\n        /* \"#utility.yul\":4913:4918   */\n      dup3\n        /* \"#utility.yul\":4880:4919   */\n      tag_72\n      jump\t// in\n    tag_157:\n        /* \"#utility.yul\":4935:5006   */\n      tag_158\n        /* \"#utility.yul\":4999:5005   */\n      dup2\n        /* \"#utility.yul\":4994:4997   */\n      dup6\n        /* \"#utility.yul\":4935:5006   */\n      tag_73\n      jump\t// in\n    tag_158:\n        /* \"#utility.yul\":4928:5006   */\n      swap4\n      pop\n        /* \"#utility.yul\":5015:5080   */\n      tag_159\n        /* \"#utility.yul\":5073:5079   */\n      dup2\n        /* \"#utility.yul\":5068:5071   */\n      dup6\n        /* \"#utility.yul\":5061:5065   */\n      0x20\n        /* \"#utility.yul\":5054:5059   */\n      dup7\n        /* \"#utility.yul\":5050:5066   */\n      add\n        /* \"#utility.yul\":5015:5080   */\n      tag_74\n      jump\t// in\n    tag_159:\n        /* \"#utility.yul\":5105:5134   */\n      tag_160\n        /* \"#utility.yul\":5127:5133   */\n      dup2\n        /* \"#utility.yul\":5105:5134   */\n      tag_64\n      jump\t// in\n    tag_160:\n        /* \"#utility.yul\":5100:5103   */\n      dup5\n        /* \"#utility.yul\":5096:5135   */\n      add\n        /* \"#utility.yul\":5089:5135   */\n      swap2\n      pop\n        /* \"#utility.yul\":4856:5141   */\n      pop\n        /* \"#utility.yul\":4764:5141   */\n      swap3\n      swap2\n      pop\n      pop\n      jump\t// out\n        /* \"#utility.yul\":5147:5265   */\n    tag_76:\n        /* \"#utility.yul\":5234:5258   */\n      tag_162\n        /* \"#utility.yul\":5252:5257   */\n      dup2\n        /* \"#utility.yul\":5234:5258   */\n      tag_57\n      jump\t// in\n    tag_162:\n        /* \"#utility.yul\":5229:5232   */\n      dup3\n        /* \"#utility.yul\":5222:5259   */\n      mstore\n        /* \"#utility.yul\":5147:5265   */\n      pop\n      pop\n      jump\t// out\n        /* \"#utility.yul\":5271:5792   */\n    tag_23:\n        /* \"#utility.yul\":5434:5438   */\n      0x00\n        /* \"#utility.yul\":5472:5474   */\n      0x60\n        /* \"#utility.yul\":5461:5470   */\n      dup3\n        /* \"#utility.yul\":5457:5475   */\n      add\n        /* \"#utility.yul\":5449:5475   */\n      swap1\n      pop\n        /* \"#utility.yul\":5521:5530   */\n      dup2\n        /* \"#utility.yul\":5515:5519   */\n      dup2\n        /* \"#utility.yul\":5511:5531   */\n      sub\n        /* \"#utility.yul\":5507:5508   */\n      0x00\n        /* \"#utility.yul\":5496:5505   */\n      dup4\n        /* \"#utility.yul\":5492:5509   */\n      add\n        /* \"#utility.yul\":5485:5532   */\n      mstore\n        /* \"#utility.yul\":5549:5627   */\n      tag_164\n        /* \"#utility.yul\":5622:5626   */\n      dup2\n        /* \"#utility.yul\":5613:5619   */\n      dup7\n        /* \"#utility.yul\":5549:5627   */\n      tag_75\n      jump\t// in\n    tag_164:\n        /* \"#utility.yul\":5541:5627   */\n      swap1\n      pop\n        /* \"#utility.yul\":5637:5709   */\n      tag_165\n        /* \"#utility.yul\":5705:5707   */\n      0x20\n        /* \"#utility.yul\":5694:5703   */\n      dup4\n        /* \"#utility.yul\":5690:5708   */\n      add\n        /* \"#utility.yul\":5681:5687   */\n      dup6\n        /* \"#utility.yul\":5637:5709   */\n      tag_76\n      jump\t// in\n    tag_165:\n        /* \"#utility.yul\":5719:5785   */\n      tag_166\n        /* \"#utility.yul\":5781:5783   */\n      0x40\n        /* \"#utility.yul\":5770:5779   */\n      dup4\n        /* \"#utility.yul\":5766:5784   */\n      add\n        /* \"#utility.yul\":5757:5763   */\n      dup5\n        /* \"#utility.yul\":5719:5785   */\n      tag_61\n      jump\t// in\n    tag_166:\n        /* \"#utility.yul\":5271:5792   */\n      swap5\n      swap4\n      pop\n      pop\n      pop\n      pop\n      jump\t// out\n        /* \"#utility.yul\":5798:6111   */\n    tag_27:\n        /* \"#utility.yul\":5911:5915   */\n      0x00\n        /* \"#utility.yul\":5949:5951   */\n      0x20\n        /* \"#utility.yul\":5938:5947   */\n      dup3\n        /* \"#utility.yul\":5934:5952   */\n      add\n        /* \"#utility.yul\":5926:5952   */\n      swap1\n      pop\n        /* \"#utility.yul\":5998:6007   */\n      dup2\n        /* \"#utility.yul\":5992:5996   */\n      dup2\n        /* \"#utility.yul\":5988:6008   */\n      sub\n        /* \"#utility.yul\":5984:5985   */\n      0x00\n        /* \"#utility.yul\":5973:5982   */\n      dup4\n        /* \"#utility.yul\":5969:5986   */\n      add\n        /* \"#utility.yul\":5962:6009   */\n      mstore\n        /* \"#utility.yul\":6026:6104   */\n      tag_168\n        /* \"#utility.yul\":6099:6103   */\n      dup2\n        /* \"#utility.yul\":6090:6096   */\n      dup5\n        /* \"#utility.yul\":6026:6104   */\n      tag_75\n      jump\t// in\n    tag_168:\n        /* \"#utility.yul\":6018:6104   */\n      swap1\n      pop\n        /* \"#utility.yul\":5798:6111   */\n      swap3\n      swap2\n      pop\n      pop\n      jump\t// out\n        /* \"#utility.yul\":6117:6265   */\n    tag_77:\n        /* \"#utility.yul\":6219:6230   */\n      0x00\n        /* \"#utility.yul\":6256:6259   */\n      dup2\n        /* \"#utility.yul\":6241:6259   */\n      swap1\n      pop\n        /* \"#utility.yul\":6117:6265   */\n      swap3\n      swap2\n      pop\n      pop\n      jump\t// out\n        /* \"#utility.yul\":6271:6661   */\n    tag_78:\n        /* \"#utility.yul\":6377:6380   */\n      0x00\n        /* \"#utility.yul\":6405:6444   */\n      tag_171\n        /* \"#utility.yul\":6438:6443   */\n      dup3\n        /* \"#utility.yul\":6405:6444   */\n      tag_72\n      jump\t// in\n    tag_171:\n        /* \"#utility.yul\":6460:6549   */\n      tag_172\n        /* \"#utility.yul\":6542:6548   */\n      dup2\n        /* \"#utility.yul\":6537:6540   */\n      dup6\n        /* \"#utility.yul\":6460:6549   */\n      tag_77\n      jump\t// in\n    tag_172:\n        /* \"#utility.yul\":6453:6549   */\n      swap4\n      pop\n        /* \"#utility.yul\":6558:6623   */\n      tag_173\n        /* \"#utility.yul\":6616:6622   */\n      dup2\n        /* \"#utility.yul\":6611:6614   */\n      dup6\n        /* \"#utility.yul\":6604:6608   */\n      0x20\n        /* \"#utility.yul\":6597:6602   */\n      dup7\n        /* \"#utility.yul\":6593:6609   */\n      add\n        /* \"#utility.yul\":6558:6623   */\n      tag_74\n      jump\t// in\n    tag_173:\n        /* \"#utility.yul\":6648:6654   */\n      dup1\n        /* \"#utility.yul\":6643:6646   */\n      dup5\n        /* \"#utility.yul\":6639:6655   */\n      add\n        /* \"#utility.yul\":6632:6655   */\n      swap2\n      pop\n        /* \"#utility.yul\":6381:6661   */\n      pop\n        /* \"#utility.yul\":6271:6661   */\n      swap3\n      swap2\n      pop\n      pop\n      jump\t// out\n        /* \"#utility.yul\":6667:6942   */\n    tag_34:\n        /* \"#utility.yul\":6799:6802   */\n      0x00\n        /* \"#utility.yul\":6821:6916   */\n      tag_175\n        /* \"#utility.yul\":6912:6915   */\n      dup3\n        /* \"#utility.yul\":6903:6909   */\n      dup5\n        /* \"#utility.yul\":6821:6916   */\n      tag_78\n      jump\t// in\n    tag_175:\n        /* \"#utility.yul\":6814:6916   */\n      swap2\n      pop\n        /* \"#utility.yul\":6933:6936   */\n      dup2\n        /* \"#utility.yul\":6926:6936   */\n      swap1\n      pop\n        /* \"#utility.yul\":6667:6942   */\n      swap3\n      swap2\n      pop\n      pop\n      jump\t// out\n        /* \"#utility.yul\":6948:7128   */\n    tag_79:\n        /* \"#utility.yul\":6996:7073   */\n      0x4e487b7100000000000000000000000000000000000000000000000000000000\n        /* \"#utility.yul\":6993:6994   */\n      0x00\n        /* \"#utility.yul\":6986:7074   */\n      mstore\n        /* \"#utility.yul\":7093:7097   */\n      0x22\n        /* \"#utility.yul\":7090:7091   */\n      0x04\n        /* \"#utility.yul\":7083:7098   */\n      mstore\n        /* \"#utility.yul\":7117:7121   */\n      0x24\n        /* \"#utility.yul\":7114:7115   */\n      0x00\n        /* \"#utility.yul\":7107:7122   */\n      revert\n        /* \"#utility.yul\":7134:7454   */\n    tag_37:\n        /* \"#utility.yul\":7178:7184   */\n      0x00\n        /* \"#utility.yul\":7215:7216   */\n      0x02\n        /* \"#utility.yul\":7209:7213   */\n      dup3\n        /* \"#utility.yul\":7205:7217   */\n      div\n        /* \"#utility.yul\":7195:7217   */\n      swap1\n      pop\n        /* \"#utility.yul\":7262:7263   */\n      0x01\n        /* \"#utility.yul\":7256:7260   */\n      dup3\n        /* \"#utility.yul\":7252:7264   */\n      and\n        /* \"#utility.yul\":7283:7301   */\n      dup1\n        /* \"#utility.yul\":7273:7354   */\n      tag_178\n      jumpi\n        /* \"#utility.yul\":7339:7343   */\n      0x7f\n        /* \"#utility.yul\":7331:7337   */\n      dup3\n        /* \"#utility.yul\":7327:7344   */\n      and\n        /* \"#utility.yul\":7317:7344   */\n      swap2\n      pop\n        /* \"#utility.yul\":7273:7354   */\n    tag_178:\n        /* \"#utility.yul\":7401:7403   */\n      0x20\n        /* \"#utility.yul\":7393:7399   */\n      dup3\n        /* \"#utility.yul\":7390:7404   */\n      lt\n        /* \"#utility.yul\":7370:7388   */\n      dup2\n        /* \"#utility.yul\":7367:7405   */\n      sub\n        /* \"#utility.yul\":7364:7448   */\n      tag_179\n      jumpi\n        /* \"#utility.yul\":7420:7438   */\n      tag_180\n      tag_79\n      jump\t// in\n    tag_180:\n        /* \"#utility.yul\":7364:7448   */\n    tag_179:\n        /* \"#utility.yul\":7185:7454   */\n      pop\n        /* \"#utility.yul\":7134:7454   */\n      swap2\n      swap1\n      pop\n      jump\t// out\n        /* \"#utility.yul\":7460:7624   */\n    tag_80:\n        /* \"#utility.yul\":7600:7616   */\n      0x4e6f742072656769737465726564000000000000000000000000000000000000\n        /* \"#utility.yul\":7596:7597   */\n      0x00\n        /* \"#utility.yul\":7588:7594   */\n      dup3\n        /* \"#utility.yul\":7584:7598   */\n      add\n        /* \"#utility.yul\":7577:7617   */\n      mstore\n        /* \"#utility.yul\":7460:7624   */\n      pop\n      jump\t// out\n        /* \"#utility.yul\":7630:7996   */\n    tag_81:\n        /* \"#utility.yul\":7772:7775   */\n      0x00\n        /* \"#utility.yul\":7793:7860   */\n      tag_183\n        /* \"#utility.yul\":7857:7859   */\n      0x0e\n        /* \"#utility.yul\":7852:7855   */\n      dup4\n        /* \"#utility.yul\":7793:7860   */\n      tag_73\n      jump\t// in\n    tag_183:\n        /* \"#utility.yul\":7786:7860   */\n      swap2\n      pop\n        /* \"#utility.yul\":7869:7962   */\n      tag_184\n        /* \"#utility.yul\":7958:7961   */\n      dup3\n        /* \"#utility.yul\":7869:7962   */\n      tag_80\n      jump\t// in\n    tag_184:\n        /* \"#utility.yul\":7987:7989   */\n      0x20\n        /* \"#utility.yul\":7982:7985   */\n      dup3\n        /* \"#utility.yul\":7978:7990   */\n      add\n        /* \"#utility.yul\":7971:7990   */\n      swap1\n      pop\n        /* \"#utility.yul\":7630:7996   */\n      swap2\n      swap1\n      pop\n      jump\t// out\n        /* \"#utility.yul\":8002:8421   */\n    tag_45:\n        /* \"#utility.yul\":8168:8172   */\n      0x00\n        /* \"#utility.yul\":8206:8208   */\n      0x20\n        /* \"#utility.yul\":8195:8204   */\n      dup3\n        /* \"#utility.yul\":8191:8209   */\n      add\n        /* \"#utility.yul\":8183:8209   */\n      swap1\n      pop\n        /* \"#utility.yul\":8255:8264   */\n      dup2\n        /* \"#utility.yul\":8249:8253   */\n      dup2\n        /* \"#utility.yul\":8245:8265   */\n      sub\n        /* \"#utility.yul\":8241:8242   */\n      0x00\n        /* \"#utility.yul\":8230:8239   */\n      dup4\n        /* \"#utility.yul\":8226:8243   */\n      add\n        /* \"#utility.yul\":8219:8266   */\n      mstore\n        /* \"#utility.yul\":8283:8414   */\n      tag_186\n        /* \"#utility.yul\":8409:8413   */\n      dup2\n        /* \"#utility.yul\":8283:8414   */\n      tag_81\n      jump\t// in\n    tag_186:\n        /* \"#utility.yul\":8275:8414   */\n      swap1\n      pop\n        /* \"#utility.yul\":8002:8421   */\n      swap2\n      swap1\n      pop\n      jump\t// out\n        /* \"#utility.yul\":8427:8619   */\n    tag_82:\n        /* \"#utility.yul\":8596:8612   */\n      0x57656c636f6d65206261636b2c20000000000000000000000000000000000000\n        /* \"#utility.yul\":8591:8594   */\n      dup2\n        /* \"#utility.yul\":8584:8613   */\n      mstore\n        /* \"#utility.yul\":8427:8619   */\n      pop\n      jump\t// out\n        /* \"#utility.yul\":8625:8766   */\n    tag_83:\n        /* \"#utility.yul\":8674:8678   */\n      0x00\n        /* \"#utility.yul\":8697:8700   */\n      dup2\n        /* \"#utility.yul\":8689:8700   */\n      swap1\n      pop\n        /* \"#utility.yul\":8720:8723   */\n      dup2\n        /* \"#utility.yul\":8717:8718   */\n      0x00\n        /* \"#utility.yul\":8710:8724   */\n      mstore\n        /* \"#utility.yul\":8754:8758   */\n      0x20\n        /* \"#utility.yul\":8751:8752   */\n      0x00\n        /* \"#utility.yul\":8741:8759   */\n      keccak256\n        /* \"#utility.yul\":8733:8759   */\n      swap1\n      pop\n        /* \"#utility.yul\":8625:8766   */\n      swap2\n      swap1\n      pop\n      jump\t// out\n        /* \"#utility.yul\":8796:9670   */\n    tag_84:\n        /* \"#utility.yul\":8899:8902   */\n      0x00\n        /* \"#utility.yul\":8936:8941   */\n      dup2\n        /* \"#utility.yul\":8930:8942   */\n      sload\n        /* \"#utility.yul\":8965:9001   */\n      tag_190\n        /* \"#utility.yul\":8991:9000   */\n      dup2\n        /* \"#utility.yul\":8965:9001   */\n      tag_37\n      jump\t// in\n    tag_190:\n        /* \"#utility.yul\":9017:9106   */\n      tag_191\n        /* \"#utility.yul\":9099:9105   */\n      dup2\n        /* \"#utility.yul\":9094:9097   */\n      dup7\n        /* \"#utility.yul\":9017:9106   */\n      tag_77\n      jump\t// in\n    tag_191:\n        /* \"#utility.yul\":9010:9106   */\n      swap5\n      pop\n        /* \"#utility.yul\":9137:9138   */\n      0x01\n        /* \"#utility.yul\":9126:9135   */\n      dup3\n        /* \"#utility.yul\":9122:9139   */\n      and\n        /* \"#utility.yul\":9153:9154   */\n      0x00\n        /* \"#utility.yul\":9148:9314   */\n      dup2\n      eq\n      tag_193\n      jumpi\n        /* \"#utility.yul\":9328:9329   */\n      0x01\n        /* \"#utility.yul\":9323:9664   */\n      dup2\n      eq\n      tag_194\n      jumpi\n        /* \"#utility.yul\":9115:9664   */\n      jump(tag_192)\n        /* \"#utility.yul\":9148:9314   */\n    tag_193:\n        /* \"#utility.yul\":9232:9236   */\n      0xff\n        /* \"#utility.yul\":9228:9237   */\n      not\n        /* \"#utility.yul\":9217:9226   */\n      dup4\n        /* \"#utility.yul\":9213:9238   */\n      and\n        /* \"#utility.yul\":9208:9211   */\n      dup7\n        /* \"#utility.yul\":9201:9239   */\n      mstore\n        /* \"#utility.yul\":9294:9300   */\n      dup2\n        /* \"#utility.yul\":9287:9301   */\n      iszero\n        /* \"#utility.yul\":9280:9302   */\n      iszero\n        /* \"#utility.yul\":9272:9278   */\n      dup3\n        /* \"#utility.yul\":9268:9303   */\n      mul\n        /* \"#utility.yul\":9263:9266   */\n      dup7\n        /* \"#utility.yul\":9259:9304   */\n      add\n        /* \"#utility.yul\":9252:9304   */\n      swap4\n      pop\n        /* \"#utility.yul\":9148:9314   */\n      jump(tag_192)\n        /* \"#utility.yul\":9323:9664   */\n    tag_194:\n        /* \"#utility.yul\":9390:9428   */\n      tag_195\n        /* \"#utility.yul\":9422:9427   */\n      dup6\n        /* \"#utility.yul\":9390:9428   */\n      tag_83\n      jump\t// in\n    tag_195:\n        /* \"#utility.yul\":9450:9451   */\n      0x00\n        /* \"#utility.yul\":9464:9618   */\n    tag_196:\n        /* \"#utility.yul\":9478:9484   */\n      dup4\n        /* \"#utility.yul\":9475:9476   */\n      dup2\n        /* \"#utility.yul\":9472:9485   */\n      lt\n        /* \"#utility.yul\":9464:9618   */\n      iszero\n      tag_198\n      jumpi\n        /* \"#utility.yul\":9552:9559   */\n      dup2\n        /* \"#utility.yul\":9546:9560   */\n      sload\n        /* \"#utility.yul\":9542:9543   */\n      dup2\n        /* \"#utility.yul\":9537:9540   */\n      dup10\n        /* \"#utility.yul\":9533:9544   */\n      add\n        /* \"#utility.yul\":9526:9561   */\n      mstore\n        /* \"#utility.yul\":9602:9603   */\n      0x01\n        /* \"#utility.yul\":9593:9600   */\n      dup3\n        /* \"#utility.yul\":9589:9604   */\n      add\n        /* \"#utility.yul\":9578:9604   */\n      swap2\n      pop\n        /* \"#utility.yul\":9500:9504   */\n      0x20\n        /* \"#utility.yul\":9497:9498   */\n      dup2\n        /* \"#utility.yul\":9493:9505   */\n      add\n        /* \"#utility.yul\":9488:9505   */\n      swap1\n      pop\n        /* \"#utility.yul\":9464:9618   */\n      jump(tag_196)\n    tag_198:\n        /* \"#utility.yul\":9647:9653   */\n      dup4\n        /* \"#utility.yul\":9642:9645   */\n      dup9\n        /* \"#utility.yul\":9638:9654   */\n      add\n        /* \"#utility.yul\":9631:9654   */\n      swap6\n      pop\n        /* \"#utility.yul\":9330:9664   */\n      pop\n      pop\n        /* \"#utility.yul\":9115:9664   */\n    tag_192:\n      pop\n        /* \"#utility.yul\":8903:9670   */\n      pop\n      pop\n        /* \"#utility.yul\":8796:9670   */\n      swap3\n      swap2\n      pop\n      pop\n      jump\t// out\n        /* \"#utility.yul\":9676:10212   */\n    tag_47:\n        /* \"#utility.yul\":9896:9899   */\n      0x00\n        /* \"#utility.yul\":9911:10049   */\n      tag_200\n        /* \"#utility.yul\":10045:10048   */\n      dup3\n        /* \"#utility.yul\":9911:10049   */\n      tag_82\n      jump\t// in\n    tag_200:\n        /* \"#utility.yul\":10074:10076   */\n      0x0e\n        /* \"#utility.yul\":10069:10072   */\n      dup3\n        /* \"#utility.yul\":10065:10077   */\n      add\n        /* \"#utility.yul\":10058:10077   */\n      swap2\n      pop\n        /* \"#utility.yul\":10094:10186   */\n      tag_201\n        /* \"#utility.yul\":10182:10185   */\n      dup3\n        /* \"#utility.yul\":10173:10179   */\n      dup5\n        /* \"#utility.yul\":10094:10186   */\n      tag_84\n      jump\t// in\n    tag_201:\n        /* \"#utility.yul\":10087:10186   */\n      swap2\n      pop\n        /* \"#utility.yul\":10203:10206   */\n      dup2\n        /* \"#utility.yul\":10196:10206   */\n      swap1\n      pop\n        /* \"#utility.yul\":9676:10212   */\n      swap3\n      swap2\n      pop\n      pop\n      jump\t// out\n        /* \"#utility.yul\":10218:10311   */\n    tag_85:\n        /* \"#utility.yul\":10255:10261   */\n      0x00\n        /* \"#utility.yul\":10302:10304   */\n      0x20\n        /* \"#utility.yul\":10297:10299   */\n      0x1f\n        /* \"#utility.yul\":10290:10295   */\n      dup4\n        /* \"#utility.yul\":10286:10300   */\n      add\n        /* \"#utility.yul\":10282:10305   */\n      div\n        /* \"#utility.yul\":10272:10305   */\n      swap1\n      pop\n        /* \"#utility.yul\":10218:10311   */\n      swap2\n      swap1\n      pop\n      jump\t// out\n        /* \"#utility.yul\":10317:10424   */\n    tag_86:\n        /* \"#utility.yul\":10361:10369   */\n      0x00\n        /* \"#utility.yul\":10411:10416   */\n      dup3\n        /* \"#utility.yul\":10405:10409   */\n      dup3\n        /* \"#utility.yul\":10401:10417   */\n      shl\n        /* \"#utility.yul\":10380:10417   */\n      swap1\n      pop\n        /* \"#utility.yul\":10317:10424   */\n      swap3\n      swap2\n      pop\n      pop\n      jump\t// out\n        /* \"#utility.yul\":10430:10823   */\n    tag_87:\n        /* \"#utility.yul\":10499:10505   */\n      0x00\n        /* \"#utility.yul\":10549:10550   */\n      0x08\n        /* \"#utility.yul\":10537:10547   */\n      dup4\n        /* \"#utility.yul\":10533:10551   */\n      mul\n        /* \"#utility.yul\":10572:10669   */\n      tag_205\n        /* \"#utility.yul\":10602:10668   */\n      0xffffffffffffffffffffffffffffffffffffffffffffffffffffffffffffffff\n        /* \"#utility.yul\":10591:10600   */\n      dup3\n        /* \"#utility.yul\":10572:10669   */\n      tag_86\n      jump\t// in\n    tag_205:\n        /* \"#utility.yul\":10690:10729   */\n      tag_206\n        /* \"#utility.yul\":10720:10728   */\n      dup7\n        /* \"#utility.yul\":10709:10718   */\n      dup4\n        /* \"#utility.yul\":10690:10729   */\n      tag_86\n      jump\t// in\n    tag_206:\n        /* \"#utility.yul\":10678:10729   */\n      swap6\n      pop\n        /* \"#utility.yul\":10762:10766   */\n      dup1\n        /* \"#utility.yul\":10758:10767   */\n      not\n        /* \"#utility.yul\":10751:10756   */\n      dup5\n        /* \"#utility.yul\":10747:10768   */\n      and\n        /* \"#utility.yul\":10738:10768   */\n      swap4\n      pop\n        /* \"#utility.yul\":10811:10815   */\n      dup1\n        /* \"#utility.yul\":10801:10809   */\n      dup7\n        /* \"#utility.yul\":10797:10816   */\n      and\n        /* \"#utility.yul\":10790:10795   */\n      dup5\n        /* \"#utility.yul\":10787:10817   */\n      or\n        /* \"#utility.yul\":10777:10817   */\n      swap3\n      pop\n        /* \"#utility.yul\":10506:10823   */\n      pop\n      pop\n        /* \"#utility.yul\":10430:10823   */\n      swap4\n      swap3\n      pop\n      pop\n      pop\n      jump\t// out\n        /* \"#utility.yul\":10829:10906   */\n    tag_88:\n        /* \"#utility.yul\":10866:10873   */\n      0x00\n        /* \"#utility.yul\":10895:10900   */\n      dup2\n        /* \"#utility.yul\":10884:10900   */\n      swap1\n      pop\n        /* \"#utility.yul\":10829:10906   */\n      swap2\n      swap1\n      pop\n      jump\t// out\n        /* \"#utility.yul\":10912:10972   */\n    tag_89:\n        /* \"#utility.yul\":10940:10943   */\n      0x00\n        /* \"#utility.yul\":10961:10966   */\n      dup2\n        /* \"#utility.yul\":10954:10966   */\n      swap1\n      pop\n        /* \"#utility.yul\":10912:10972   */\n      swap2\n      swap1\n      pop\n      jump\t// out\n        /* \"#utility.yul\":10978:11120   */\n    tag_90:\n        /* \"#utility.yul\":11028:11037   */\n      0x00\n        /* \"#utility.yul\":11061:11114   */\n      tag_210\n        /* \"#utility.yul\":11079:11113   */\n      tag_211\n        /* \"#utility.yul\":11088:11112   */\n      tag_212\n        /* \"#utility.yul\":11106:11111   */\n      dup5\n        /* \"#utility.yul\":11088:11112   */\n      tag_88\n      jump\t// in\n    tag_212:\n        /* \"#utility.yul\":11079:11113   */\n      tag_89\n      jump\t// in\n    tag_211:\n        /* \"#utility.yul\":11061:11114   */\n      tag_88\n      jump\t// in\n    tag_210:\n        /* \"#utility.yul\":11048:11114   */\n      swap1\n      pop\n        /* \"#utility.yul\":10978:11120   */\n      swap2\n      swap1\n      pop\n      jump\t// out\n        /* \"#utility.yul\":11126:11201   */\n    tag_91:\n        /* \"#utility.yul\":11169:11172   */\n      0x00\n        /* \"#utility.yul\":11190:11195   */\n      dup2\n        /* \"#utility.yul\":11183:11195   */\n      swap1\n      pop\n        /* \"#utility.yul\":11126:11201   */\n      swap2\n      swap1\n      pop\n      jump\t// out\n        /* \"#utility.yul\":11207:11476   */\n    tag_92:\n        /* \"#utility.yul\":11317:11356   */\n      tag_215\n        /* \"#utility.yul\":11348:11355   */\n      dup4\n        /* \"#utility.yul\":11317:11356   */\n      tag_90\n      jump\t// in\n    tag_215:\n        /* \"#utility.yul\":11378:11469   */\n      tag_216\n        /* \"#utility.yul\":11427:11468   */\n      tag_217\n        /* \"#utility.yul\":11451:11467   */\n      dup3\n        /* \"#utility.yul\":11427:11468   */\n      tag_91\n      jump\t// in\n    tag_217:\n        /* \"#utility.yul\":11419:11425   */\n      dup5\n        /* \"#utility.yul\":11412:11416   */\n      dup5\n        /* \"#utility.yul\":11406:11417   */\n      sload\n        /* \"#utility.yul\":11378:11469   */\n      tag_87\n      jump\t// in\n    tag_216:\n        /* \"#utility.yul\":11372:11376   */\n      dup3\n        /* \"#utility.yul\":11365:11470   */\n      sstore\n        /* \"#utility.yul\":11283:11476   */\n      pop\n        /* \"#utility.yul\":11207:11476   */\n      pop\n      pop\n      pop\n      jump\t// out\n        /* \"#utility.yul\":11482:11555   */\n    tag_93:\n        /* \"#utility.yul\":11527:11530   */\n      0x00\n        /* \"#utility.yul\":11548:11549   */\n      0x00\n        /* \"#utility.yul\":11541:11549   */\n      swap1\n      pop\n        /* \"#utility.yul\":11482:11555   */\n      swap1\n      jump\t// out\n        /* \"#utility.yul\":11561:11750   */\n    tag_94:\n        /* \"#utility.yul\":11638:11670   */\n      tag_220\n      tag_93\n      jump\t// in\n    tag_220:\n        /* \"#utility.yul\":11679:11744   */\n      tag_221\n        /* \"#utility.yul\":11737:11743   */\n      dup2\n        /* \"#utility.yul\":11729:11735   */\n      dup5\n        /* \"#utility.yul\":11723:11727   */\n      dup5\n        /* \"#utility.yul\":11679:11744   */\n      tag_92\n      jump\t// in\n    tag_221:\n        /* \"#utility.yul\":11614:11750   */\n      pop\n        /* \"#utility.yul\":11561:11750   */\n      pop\n      pop\n      jump\t// out\n        /* \"#utility.yul\":11756:11970   */\n    tag_95:\n        /* \"#utility.yul\":11841:11842   */\n      0x00\n        /* \"#utility.yul\":11826:11964   */\n    tag_223:\n        /* \"#utility.yul\":11851:11860   */\n      dup3\n        /* \"#utility.yul\":11848:11849   */\n      dup2\n        /* \"#utility.yul\":11845:11861   */\n      lt\n        /* \"#utility.yul\":11826:11964   */\n      iszero\n      tag_225\n      jumpi\n        /* \"#utility.yul\":11903:11954   */\n      tag_226\n        /* \"#utility.yul\":11952:11953   */\n      0x00\n        /* \"#utility.yul\":11948:11949   */\n      dup3\n        /* \"#utility.yul\":11937:11946   */\n      dup5\n        /* \"#utility.yul\":11933:11950   */\n      add\n        /* \"#utility.yul\":11903:11954   */\n      tag_94\n      jump\t// in\n    tag_226:\n        /* \"#utility.yul\":11876:11877   */\n      0x01\n        /* \"#utility.yul\":11873:11874   */\n      dup2\n        /* \"#utility.yul\":11869:11878   */\n      add\n        /* \"#utility.yul\":11864:11878   */\n      swap1\n      pop\n        /* \"#utility.yul\":11826:11964   */\n      jump(tag_223)\n    tag_225:\n        /* \"#utility.yul\":11830:11844   */\n      pop\n        /* \"#utility.yul\":11756:11970   */\n      pop\n      pop\n      jump\t// out\n        /* \"#utility.yul\":11976:12722   */\n    tag_96:\n        /* \"#utility.yul\":12077:12079   */\n      0x1f\n        /* \"#utility.yul\":12072:12075   */\n      dup3\n        /* \"#utility.yul\":12069:12080   */\n      gt\n        /* \"#utility.yul\":12066:12715   */\n      iszero\n      tag_228\n      jumpi\n        /* \"#utility.yul\":12106:12116   */\n      dup3\n        /* \"#utility.yul\":12101:12104   */\n      dup3\n        /* \"#utility.yul\":12098:12117   */\n      gt\n        /* \"#utility.yul\":12095:12705   */\n      iszero\n      tag_229\n      jumpi\n        /* \"#utility.yul\":12152:12190   */\n      tag_230\n        /* \"#utility.yul\":12184:12189   */\n      dup2\n        /* \"#utility.yul\":12152:12190   */\n      tag_83\n      jump\t// in\n    tag_230:\n        /* \"#utility.yul\":12227:12249   */\n      tag_231\n        /* \"#utility.yul\":12245:12248   */\n      dup4\n        /* \"#utility.yul\":12227:12249   */\n      tag_85\n      jump\t// in\n    tag_231:\n        /* \"#utility.yul\":12286:12315   */\n      tag_232\n        /* \"#utility.yul\":12304:12314   */\n      dup6\n        /* \"#utility.yul\":12286:12315   */\n      tag_85\n      jump\t// in\n    tag_232:\n        /* \"#utility.yul\":12476:12478   */\n      0x20\n        /* \"#utility.yul\":12464:12474   */\n      dup7\n        /* \"#utility.yul\":12461:12479   */\n      lt\n        /* \"#utility.yul\":12458:12537   */\n      iszero\n      tag_233\n      jumpi\n        /* \"#utility.yul\":12518:12519   */\n      0x00\n        /* \"#utility.yul\":12502:12519   */\n      swap1\n      pop\n        /* \"#utility.yul\":12458:12537   */\n    tag_233:\n        /* \"#utility.yul\":12587:12599   */\n      dup1\n        /* \"#utility.yul\":12577:12585   */\n      dup4\n        /* \"#utility.yul\":12573:12600   */\n      add\n        /* \"#utility.yul\":12617:12691   */\n      tag_234\n        /* \"#utility.yul\":12677:12689   */\n      dup3\n        /* \"#utility.yul\":12663:12675   */\n      dup5\n        /* \"#utility.yul\":12659:12690   */\n      sub\n        /* \"#utility.yul\":12646:12657   */\n      dup3\n        /* \"#utility.yul\":12617:12691   */\n      tag_95\n      jump\t// in\n    tag_234:\n        /* \"#utility.yul\":12118:12705   */\n      pop\n      pop\n      pop\n      pop\n        /* \"#utility.yul\":12095:12705   */\n    tag_229:\n        /* \"#utility.yul\":12066:12715   */\n    tag_228:\n        /* \"#utility.yul\":11976:12722   */\n      pop\n      pop\n      pop\n      jump\t// out\n        /* \"#utility.yul\":12728:12845   */\n    tag_97:\n        /* \"#utility.yul\":12782:12790   */\n      0x00\n        /* \"#utility.yul\":12832:12837   */\n      dup3\n        /* \"#utility.yul\":12826:12830   */\n      dup3\n        /* \"#utility.yul\":12822:12838   */\n      shr\n        /* \"#utility.yul\":12801:12838   */\n      swap1\n      pop\n        /* \"#utility.yul\":12728:12845   */\n      swap3\n      swap2\n      pop\n      pop\n      jump\t// out\n        /* \"#utility.yul\":12851:13020   */\n    tag_98:\n        /* \"#utility.yul\":12895:12901   */\n      0x00\n        /* \"#utility.yul\":12928:12979   */\n      tag_237\n        /* \"#utility.yul\":12976:12977   */\n      0x00\n        /* \"#utility.yul\":12972:12978   */\n      not\n        /* \"#utility.yul\":12964:12969   */\n      dup5\n        /* \"#utility.yul\":12961:12962   */\n      0x08\n        /* \"#utility.yul\":12957:12970   */\n      mul\n        /* \"#utility.yul\":12928:12979   */\n      tag_97\n      jump\t// in\n    tag_237:\n        /* \"#utility.yul\":12924:12980   */\n      not\n        /* \"#utility.yul\":13009:13013   */\n      dup1\n        /* \"#utility.yul\":13003:13007   */\n      dup4\n        /* \"#utility.yul\":12999:13014   */\n      and\n        /* \"#utility.yul\":12989:13014   */\n      swap2\n      pop\n        /* \"#utility.yul\":12902:13020   */\n      pop\n        /* \"#utility.yul\":12851:13020   */\n      swap3\n      swap2\n      pop\n      pop\n      jump\t// out\n        /* \"#utility.yul\":13025:13320   */\n    tag_99:\n        /* \"#utility.yul\":13101:13105   */\n      0x00\n        /* \"#utility.yul\":13247:13276   */\n      tag_239\n        /* \"#utility.yul\":13272:13275   */\n      dup4\n        /* \"#utility.yul\":13266:13270   */\n      dup4\n        /* \"#utility.yul\":13247:13276   */\n      tag_98\n      jump\t// in\n    tag_239:\n        /* \"#utility.yul\":13239:13276   */\n      swap2\n      pop\n        /* \"#utility.yul\":13309:13312   */\n      dup3\n        /* \"#utility.yul\":13306:13307   */\n      0x02\n        /* \"#utility.yul\":13302:13313   */\n      mul\n        /* \"#utility.yul\":13296:13300   */\n      dup3\n        /* \"#utility.yul\":13293:13314   */\n      or\n        /* \"#utility.yul\":13285:13314   */\n      swap1\n      pop\n        /* \"#utility.yul\":13025:13320   */\n      swap3\n      swap2\n      pop\n      pop\n      jump\t// out\n        /* \"#utility.yul\":13325:14720   */\n    tag_50:\n        /* \"#utility.yul\":13442:13479   */\n      tag_241\n        /* \"#utility.yul\":13475:13478   */\n      dup3\n        /* \"#utility.yul\":13442:13479   */\n      tag_72\n      jump\t// in\n    tag_241:\n        /* \"#utility.yul\":13544:13562   */\n      0xffffffffffffffff\n        /* \"#utility.yul\":13536:13542   */\n      dup2\n        /* \"#utility.yul\":13533:13563   */\n      gt\n        /* \"#utility.yul\":13530:13586   */\n      iszero\n      tag_242\n      jumpi\n        /* \"#utility.yul\":13566:13584   */\n      tag_243\n      tag_65\n      jump\t// in\n    tag_243:\n        /* \"#utility.yul\":13530:13586   */\n    tag_242:\n        /* \"#utility.yul\":13610:13648   */\n      tag_244\n        /* \"#utility.yul\":13642:13646   */\n      dup3\n        /* \"#utility.yul\":13636:13647   */\n      sload\n        /* \"#utility.yul\":13610:13648   */\n      tag_37\n      jump\t// in\n    tag_244:\n        /* \"#utility.yul\":13695:13762   */\n      tag_245\n        /* \"#utility.yul\":13755:13761   */\n      dup3\n        /* \"#utility.yul\":13747:13753   */\n      dup3\n        /* \"#utility.yul\":13741:13745   */\n      dup6\n        /* \"#utility.yul\":13695:13762   */\n      tag_96\n      jump\t// in\n    tag_245:\n        /* \"#utility.yul\":13789:13790   */\n      0x00\n        /* \"#utility.yul\":13813:13817   */\n      0x20\n        /* \"#utility.yul\":13800:13817   */\n      swap1\n      pop\n        /* \"#utility.yul\":13845:13847   */\n      0x1f\n        /* \"#utility.yul\":13837:13843   */\n      dup4\n        /* \"#utility.yul\":13834:13848   */\n      gt\n        /* \"#utility.yul\":13862:13863   */\n      0x01\n        /* \"#utility.yul\":13857:14475   */\n      dup2\n      eq\n      tag_247\n      jumpi\n        /* \"#utility.yul\":14519:14520   */\n      0x00\n        /* \"#utility.yul\":14536:14542   */\n      dup5\n        /* \"#utility.yul\":14533:14610   */\n      iszero\n      tag_248\n      jumpi\n        /* \"#utility.yul\":14585:14594   */\n      dup3\n        /* \"#utility.yul\":14580:14583   */\n      dup8\n        /* \"#utility.yul\":14576:14595   */\n      add\n        /* \"#utility.yul\":14570:14596   */\n      mload\n        /* \"#utility.yul\":14561:14596   */\n      swap1\n      pop\n        /* \"#utility.yul\":14533:14610   */\n    tag_248:\n        /* \"#utility.yul\":14636:14703   */\n      tag_249\n        /* \"#utility.yul\":14696:14702   */\n      dup6\n        /* \"#utility.yul\":14689:14694   */\n      dup3\n        /* \"#utility.yul\":14636:14703   */\n      tag_99\n      jump\t// in\n    tag_249:\n        /* \"#utility.yul\":14630:14634   */\n      dup7\n        /* \"#utility.yul\":14623:14704   */\n      sstore\n        /* \"#utility.yul\":14492:14714   */\n      pop\n        /* \"#utility.yul\":13827:14714   */\n      jump(tag_246)\n        /* \"#utility.yul\":13857:14475   */\n    tag_247:\n        /* \"#utility.yul\":13909:13913   */\n      0x1f\n        /* \"#utility.yul\":13905:13914   */\n      not\n        /* \"#utility.yul\":13897:13903   */\n      dup5\n        /* \"#utility.yul\":13893:13915   */\n      and\n        /* \"#utility.yul\":13943:13980   */\n      tag_250\n        /* \"#utility.yul\":13975:13979   */\n      dup7\n        /* \"#utility.yul\":13943:13980   */\n      tag_83\n      jump\t// in\n    tag_250:\n        /* \"#utility.yul\":14002:14003   */\n      0x00\n        /* \"#utility.yul\":14016:14224   */\n    tag_251:\n        /* \"#utility.yul\":14030:14037   */\n      dup3\n        /* \"#utility.yul\":14027:14028   */\n      dup2\n        /* \"#utility.yul\":14024:14038   */\n      lt\n        /* \"#utility.yul\":14016:14224   */\n      iszero\n      tag_253\n      jumpi\n        /* \"#utility.yul\":14109:14118   */\n      dup5\n        /* \"#utility.yul\":14104:14107   */\n      dup10\n        /* \"#utility.yul\":14100:14119   */\n      add\n        /* \"#utility.yul\":14094:14120   */\n      mload\n        /* \"#utility.yul\":14086:14092   */\n      dup3\n        /* \"#utility.yul\":14079:14121   */\n      sstore\n        /* \"#utility.yul\":14160:14161   */\n      0x01\n        /* \"#utility.yul\":14152:14158   */\n      dup3\n        /* \"#utility.yul\":14148:14162   */\n      add\n        /* \"#utility.yul\":14138:14162   */\n      swap2\n      pop\n        /* \"#utility.yul\":14207:14209   */\n      0x20\n        /* \"#utility.yul\":14196:14205   */\n      dup6\n        /* \"#utility.yul\":14192:14210   */\n      add\n        /* \"#utility.yul\":14179:14210   */\n      swap5\n      pop\n        /* \"#utility.yul\":14053:14057   */\n      0x20\n        /* \"#utility.yul\":14050:14051   */\n      dup2\n        /* \"#utility.yul\":14046:14058   */\n      add\n        /* \"#utility.yul\":14041:14058   */\n      swap1\n      pop\n        /* \"#utility.yul\":14016:14224   */\n      jump(tag_251)\n    tag_253:\n        /* \"#utility.yul\":14252:14258   */\n      dup7\n        /* \"#utility.yul\":14243:14250   */\n      dup4\n        /* \"#utility.yul\":14240:14259   */\n      lt\n        /* \"#utility.yul\":14237:14416   */\n      iszero\n      tag_254\n      jumpi\n        /* \"#utility.yul\":14310:14319   */\n      dup5\n        /* \"#utility.yul\":14305:14308   */\n      dup10\n        /* \"#utility.yul\":14301:14320   */\n      add\n        /* \"#utility.yul\":14295:14321   */\n      mload\n        /* \"#utility.yul\":14353:14401   */\n      tag_255\n        /* \"#utility.yul\":14395:14399   */\n      0x1f\n        /* \"#utility.yul\":14387:14393   */\n      dup10\n        /* \"#utility.yul\":14383:14400   */\n      and\n        /* \"#utility.yul\":14372:14381   */\n      dup3\n        /* \"#utility.yul\":14353:14401   */\n      tag_98\n      jump\t// in\n    tag_255:\n        /* \"#utility.yul\":14345:14351   */\n      dup4\n        /* \"#utility.yul\":14338:14402   */\n      sstore\n        /* \"#utility.yul\":14260:14416   */\n      pop\n        /* \"#utility.yul\":14237:14416   */\n    tag_254:\n        /* \"#utility.yul\":14462:14463   */\n      0x01\n        /* \"#utility.yul\":14458:14459   */\n      0x02\n        /* \"#utility.yul\":14450:14456   */\n      dup9\n        /* \"#utility.yul\":14446:14460   */\n      mul\n        /* \"#utility.yul\":14442:14464   */\n      add\n        /* \"#utility.yul\":14436:14440   */\n      dup9\n        /* \"#utility.yul\":14429:14465   */\n      sstore\n        /* \"#utility.yul\":13864:14475   */\n      pop\n      pop\n      pop\n        /* \"#utility.yul\":13827:14714   */\n    tag_246:\n      pop\n        /* \"#utility.yul\":13417:14720   */\n      pop\n      pop\n      pop\n        /* \"#utility.yul\":13325:14720   */\n      pop\n      pop\n      jump\t// out\n\n    auxdata: 0xa2646970667358221220b14b9aa010faeee26fa0be2e08d4c036c3f092b77881c899c853fef40519edfd64736f6c63430008220033\n}\n",
				"bytecode": {
					"linkReferences": {},
					"object": "6080604052348015600e575f5ffd5b50610d988061001c5f395ff3fe608060405234801561000f575f5ffd5b5060043610610055575f3560e01c8063163f75221461005957806352ac2091146100895780636f77926b146100b9578063b34e97e8146100eb578063f2c298be14610109575b5f5ffd5b610073600480360381019061006e919061064d565b610125565b6040516100809190610692565b60405180910390f35b6100a3600480360381019061009e91906107e7565b61017a565b6040516100b09190610692565b60405180910390f35b6100d360048036038101906100ce919061064d565b6101ef565b6040516100e29392919061089d565b60405180910390f35b6100f3610358565b60405161010091906108d9565b60405180910390f35b610123600480360381019061011e91906107e7565b610448565b005b5f5f5f8373ffffffffffffffffffffffffffffffffffffffff1673ffffffffffffffffffffffffffffffffffffffff1681526020019081526020015f2060010160149054906101000a900460ff169050919050565b5f5f73ffffffffffffffffffffffffffffffffffffffff166001836040516101a29190610933565b90815260200160405180910390205f9054906101000a900473ffffffffffffffffffffffffffffffffffffffff1673ffffffffffffffffffffffffffffffffffffffff1614159050919050565b60605f5f5f5f5f8673ffffffffffffffffffffffffffffffffffffffff1673ffffffffffffffffffffffffffffffffffffffff1681526020019081526020015f206040518060600160405290815f8201805461024a90610976565b80601f016020809104026020016040519081016040528092919081815260200182805461027690610976565b80156102c15780601f10610298576101008083540402835291602001916102c1565b820191905f5260205f20905b8154815290600101906020018083116102a457829003601f168201915b50505050508152602001600182015f9054906101000a900473ffffffffffffffffffffffffffffffffffffffff1673ffffffffffffffffffffffffffffffffffffffff1673ffffffffffffffffffffffffffffffffffffffff1681526020016001820160149054906101000a900460ff1615151515815250509050805f015181602001518260400151935093509350509193909250565b60605f5f3373ffffffffffffffffffffffffffffffffffffffff1673ffffffffffffffffffffffffffffffffffffffff1681526020019081526020015f2060010160149054906101000a900460ff166103e6576040517f08c379a00000000000000000000000000000000000000000000000000000000081526004016103dd906109f0565b60405180910390fd5b5f5f3373ffffffffffffffffffffffffffffffffffffffff1673ffffffffffffffffffffffffffffffffffffffff1681526020019081526020015f205f016040516020016104349190610ac6565b604051602081830303815290604052905090565b60405180606001604052808281526020013373ffffffffffffffffffffffffffffffffffffffff168152602001600115158152505f5f3373ffffffffffffffffffffffffffffffffffffffff1673ffffffffffffffffffffffffffffffffffffffff1681526020019081526020015f205f820151815f0190816104cb9190610c93565b506020820151816001015f6101000a81548173ffffffffffffffffffffffffffffffffffffffff021916908373ffffffffffffffffffffffffffffffffffffffff16021790555060408201518160010160146101000a81548160ff021916908315150217905550905050336001826040516105469190610933565b90815260200160405180910390205f6101000a81548173ffffffffffffffffffffffffffffffffffffffff021916908373ffffffffffffffffffffffffffffffffffffffff1602179055503373ffffffffffffffffffffffffffffffffffffffff167f48cac28ad4dc618e15f4c2dd5e97751182f166de97b25618318b2112aa951a2f826040516105d791906108d9565b60405180910390a250565b5f604051905090565b5f5ffd5b5f5ffd5b5f73ffffffffffffffffffffffffffffffffffffffff82169050919050565b5f61061c826105f3565b9050919050565b61062c81610612565b8114610636575f5ffd5b50565b5f8135905061064781610623565b92915050565b5f60208284031215610662576106616105eb565b5b5f61066f84828501610639565b91505092915050565b5f8115159050919050565b61068c81610678565b82525050565b5f6020820190506106a55f830184610683565b92915050565b5f5ffd5b5f5ffd5b5f601f19601f8301169050919050565b7f4e487b71000000000000000000000000000000000000000000000000000000005f52604160045260245ffd5b6106f9826106b3565b810181811067ffffffffffffffff82111715610718576107176106c3565b5b80604052505050565b5f61072a6105e2565b905061073682826106f0565b919050565b5f67ffffffffffffffff821115610755576107546106c3565b5b61075e826106b3565b9050602081019050919050565b828183375f83830152505050565b5f61078b6107868461073b565b610721565b9050828152602081018484840111156107a7576107a66106af565b5b6107b284828561076b565b509392505050565b5f82601f8301126107ce576107cd6106ab565b5b81356107de848260208601610779565b91505092915050565b5f602082840312156107fc576107fb6105eb565b5b5f82013567ffffffffffffffff811115610819576108186105ef565b5b610825848285016107ba565b91505092915050565b5f81519050919050565b5f82825260208201905092915050565b8281835e5f83830152505050565b5f6108608261082e565b61086a8185610838565b935061087a818560208601610848565b610883816106b3565b840191505092915050565b61089781610612565b82525050565b5f6060820190508181035f8301526108b58186610856565b90506108c4602083018561088e565b6108d16040830184610683565b949350505050565b5f6020820190508181035f8301526108f18184610856565b905092915050565b5f81905092915050565b5f61090d8261082e565b61091781856108f9565b9350610927818560208601610848565b80840191505092915050565b5f61093e8284610903565b915081905092915050565b7f4e487b71000000000000000000000000000000000000000000000000000000005f52602260045260245ffd5b5f600282049050600182168061098d57607f821691505b6020821081036109a05761099f610949565b5b50919050565b7f4e6f7420726567697374657265640000000000000000000000000000000000005f82015250565b5f6109da600e83610838565b91506109e5826109a6565b602082019050919050565b5f6020820190508181035f830152610a07816109ce565b9050919050565b7f57656c636f6d65206261636b2c20000000000000000000000000000000000000815250565b5f819050815f5260205f209050919050565b5f8154610a5281610976565b610a5c81866108f9565b9450600182165f8114610a765760018114610a8b57610abd565b60ff1983168652811515820286019350610abd565b610a9485610a34565b5f5b83811015610ab557815481890152600182019150602081019050610a96565b838801955050505b50505092915050565b5f610ad082610a0e565b600e82019150610ae08284610a46565b915081905092915050565b5f6020601f8301049050919050565b5f82821b905092915050565b5f60088302610b357fffffffffffffffffffffffffffffffffffffffffffffffffffffffffffffffff82610afa565b610b3f8683610afa565b95508019841693508086168417925050509392505050565b5f819050919050565b5f819050919050565b5f610b83610b7e610b7984610b57565b610b60565b610b57565b9050919050565b5f819050919050565b610b9c83610b69565b610bb0610ba882610b8a565b848454610b06565b825550505050565b5f5f905090565b610bc7610bb8565b610bd2818484610b93565b505050565b5f5b82811015610bf857610bed5f828401610bbf565b600181019050610bd9565b505050565b601f821115610c4b5782821115610c4a57610c1781610a34565b610c2083610aeb565b610c2985610aeb565b6020861015610c36575f90505b808301610c4582840382610bd7565b505050505b5b505050565b5f82821c905092915050565b5f610c6b5f1984600802610c50565b1980831691505092915050565b5f610c838383610c5c565b9150826002028217905092915050565b610c9c8261082e565b67ffffffffffffffff811115610cb557610cb46106c3565b5b610cbf8254610976565b610cca828285610bfd565b5f60209050601f831160018114610cfb575f8415610ce9578287015190505b610cf38582610c78565b865550610d5a565b601f198416610d0986610a34565b5f5b82811015610d3057848901518255600182019150602085019450602081019050610d0b565b86831015610d4d5784890151610d49601f891682610c5c565b8355505b6001600288020188555050505b50505050505056fea2646970667358221220b14b9aa010faeee26fa0be2e08d4c036c3f092b77881c899c853fef40519edfd64736f6c63430008220033",
					"opcodes": "PUSH1 0x80 PUSH1 0x40 MSTORE CALLVALUE DUP1 ISZERO PUSH1 0xE JUMPI PUSH0 PUSH0 REVERT JUMPDEST POP PUSH2 0xD98 DUP1 PUSH2 0x1C PUSH0 CODECOPY PUSH0 RETURN INVALID PUSH1 0x80 PUSH1 0x40 MSTORE CALLVALUE DUP1 ISZERO PUSH2 0xF JUMPI PUSH0 PUSH0 REVERT JUMPDEST POP PUSH1 0x4 CALLDATASIZE LT PUSH2 0x55 JUMPI PUSH0 CALLDATALOAD PUSH1 0xE0 SHR DUP1 PUSH4 0x163F7522 EQ PUSH2 0x59 JUMPI DUP1 PUSH4 0x52AC2091 EQ PUSH2 0x89 JUMPI DUP1 PUSH4 0x6F77926B EQ PUSH2 0xB9 JUMPI DUP1 PUSH4 0xB34E97E8 EQ PUSH2 0xEB JUMPI DUP1 PUSH4 0xF2C298BE EQ PUSH2 0x109 JUMPI JUMPDEST PUSH0 PUSH0 REVERT JUMPDEST PUSH2 0x73 PUSH1 0x4 DUP1 CALLDATASIZE SUB DUP2 ADD SWAP1 PUSH2 0x6E SWAP2 SWAP1 PUSH2 0x64D JUMP JUMPDEST PUSH2 0x125 JUMP JUMPDEST PUSH1 0x40 MLOAD PUSH2 0x80 SWAP2 SWAP1 PUSH2 0x692 JUMP JUMPDEST PUSH1 0x40 MLOAD DUP1 SWAP2 SUB SWAP1 RETURN JUMPDEST PUSH2 0xA3 PUSH1 0x4 DUP1 CALLDATASIZE SUB DUP2 ADD SWAP1 PUSH2 0x9E SWAP2 SWAP1 PUSH2 0x7E7 JUMP JUMPDEST PUSH2 0x17A JUMP JUMPDEST PUSH1 0x40 MLOAD PUSH2 0xB0 SWAP2 SWAP1 PUSH2 0x692 JUMP JUMPDEST PUSH1 0x40 MLOAD DUP1 SWAP2 SUB SWAP1 RETURN JUMPDEST PUSH2 0xD3 PUSH1 0x4 DUP1 CALLDATASIZE SUB DUP2 ADD SWAP1 PUSH2 0xCE SWAP2 SWAP1 PUSH2 0x64D JUMP JUMPDEST PUSH2 0x1EF JUMP JUMPDEST PUSH1 0x40 MLOAD PUSH2 0xE2 SWAP4 SWAP3 SWAP2 SWAP1 PUSH2 0x89D JUMP JUMPDEST PUSH1 0x40 MLOAD DUP1 SWAP2 SUB SWAP1 RETURN JUMPDEST PUSH2 0xF3 PUSH2 0x358 JUMP JUMPDEST PUSH1 0x40 MLOAD PUSH2 0x100 SWAP2 SWAP1 PUSH2 0x8D9 JUMP JUMPDEST PUSH1 0x40 MLOAD DUP1 SWAP2 SUB SWAP1 RETURN JUMPDEST PUSH2 0x123 PUSH1 0x4 DUP1 CALLDATASIZE SUB DUP2 ADD SWAP1 PUSH2 0x11E SWAP2 SWAP1 PUSH2 0x7E7 JUMP JUMPDEST PUSH2 0x448 JUMP JUMPDEST STOP JUMPDEST PUSH0 PUSH0 PUSH0 DUP4 PUSH20 0xFFFFFFFFFFFFFFFFFFFFFFFFFFFFFFFFFFFFFFFF AND PUSH20 0xFFFFFFFFFFFFFFFFFFFFFFFFFFFFFFFFFFFFFFFF AND DUP2 MSTORE PUSH1 0x20 ADD SWAP1 DUP2 MSTORE PUSH1 0x20 ADD PUSH0 KECCAK256 PUSH1 0x1 ADD PUSH1 0x14 SWAP1 SLOAD SWAP1 PUSH2 0x100 EXP SWAP1 DIV PUSH1 0xFF AND SWAP1 POP SWAP2 SWAP1 POP JUMP JUMPDEST PUSH0 PUSH0 PUSH20 0xFFFFFFFFFFFFFFFFFFFFFFFFFFFFFFFFFFFFFFFF AND PUSH1 0x1 DUP4 PUSH1 0x40 MLOAD PUSH2 0x1A2 SWAP2 SWAP1 PUSH2 0x933 JUMP JUMPDEST SWAP1 DUP2 MSTORE PUSH1 0x20 ADD PUSH1 0x40 MLOAD DUP1 SWAP2 SUB SWAP1 KECCAK256 PUSH0 SWAP1 SLOAD SWAP1 PUSH2 0x100 EXP SWAP1 DIV PUSH20 0xFFFFFFFFFFFFFFFFFFFFFFFFFFFFFFFFFFFFFFFF AND PUSH20 0xFFFFFFFFFFFFFFFFFFFFFFFFFFFFFFFFFFFFFFFF AND EQ ISZERO SWAP1 POP SWAP2 SWAP1 POP JUMP JUMPDEST PUSH1 0x60 PUSH0 PUSH0 PUSH0 PUSH0 PUSH0 DUP7 PUSH20 0xFFFFFFFFFFFFFFFFFFFFFFFFFFFFFFFFFFFFFFFF AND PUSH20 0xFFFFFFFFFFFFFFFFFFFFFFFFFFFFFFFFFFFFFFFF AND DUP2 MSTORE PUSH1 0x20 ADD SWAP1 DUP2 MSTORE PUSH1 0x20 ADD PUSH0 KECCAK256 PUSH1 0x40 MLOAD DUP1 PUSH1 0x60 ADD PUSH1 0x40 MSTORE SWAP1 DUP2 PUSH0 DUP3 ADD DUP1 SLOAD PUSH2 0x24A SWAP1 PUSH2 0x976 JUMP JUMPDEST DUP1 PUSH1 0x1F ADD PUSH1 0x20 DUP1 SWAP2 DIV MUL PUSH1 0x20 ADD PUSH1 0x40 MLOAD SWAP1 DUP2 ADD PUSH1 0x40 MSTORE DUP1 SWAP3 SWAP2 SWAP1 DUP2 DUP2 MSTORE PUSH1 0x20 ADD DUP3 DUP1 SLOAD PUSH2 0x276 SWAP1 PUSH2 0x976 JUMP JUMPDEST DUP1 ISZERO PUSH2 0x2C1 JUMPI DUP1 PUSH1 0x1F LT PUSH2 0x298 JUMPI PUSH2 0x100 DUP1 DUP4 SLOAD DIV MUL DUP4 MSTORE SWAP2 PUSH1 0x20 ADD SWAP2 PUSH2 0x2C1 JUMP JUMPDEST DUP3 ADD SWAP2 SWAP1 PUSH0 MSTORE PUSH1 0x20 PUSH0 KECCAK256 SWAP1 JUMPDEST DUP2 SLOAD DUP2 MSTORE SWAP1 PUSH1 0x1 ADD SWAP1 PUSH1 0x20 ADD DUP1 DUP4 GT PUSH2 0x2A4 JUMPI DUP3 SWAP1 SUB PUSH1 0x1F AND DUP3 ADD SWAP2 JUMPDEST POP POP POP POP POP DUP2 MSTORE PUSH1 0x20 ADD PUSH1 0x1 DUP3 ADD PUSH0 SWAP1 SLOAD SWAP1 PUSH2 0x100 EXP SWAP1 DIV PUSH20 0xFFFFFFFFFFFFFFFFFFFFFFFFFFFFFFFFFFFFFFFF AND PUSH20 0xFFFFFFFFFFFFFFFFFFFFFFFFFFFFFFFFFFFFFFFF AND PUSH20 0xFFFFFFFFFFFFFFFFFFFFFFFFFFFFFFFFFFFFFFFF AND DUP2 MSTORE PUSH1 0x20 ADD PUSH1 0x1 DUP3 ADD PUSH1 0x14 SWAP1 SLOAD SWAP1 PUSH2 0x100 EXP SWAP1 DIV PUSH1 0xFF AND ISZERO ISZERO ISZERO ISZERO DUP2 MSTORE POP POP SWAP1 POP DUP1 PUSH0 ADD MLOAD DUP2 PUSH1 0x20 ADD MLOAD DUP3 PUSH1 0x40 ADD MLOAD SWAP4 POP SWAP4 POP SWAP4 POP POP SWAP2 SWAP4 SWAP1 SWAP3 POP JUMP JUMPDEST PUSH1 0x60 PUSH0 PUSH0 CALLER PUSH20 0xFFFFFFFFFFFFFFFFFFFFFFFFFFFFFFFFFFFFFFFF AND PUSH20 0xFFFFFFFFFFFFFFFFFFFFFFFFFFFFFFFFFFFFFFFF AND DUP2 MSTORE PUSH1 0x20 ADD SWAP1 DUP2 MSTORE PUSH1 0x20 ADD PUSH0 KECCAK256 PUSH1 0x1 ADD PUSH1 0x14 SWAP1 SLOAD SWAP1 PUSH2 0x100 EXP SWAP1 DIV PUSH1 0xFF AND PUSH2 0x3E6 JUMPI PUSH1 0x40 MLOAD PUSH32 0x8C379A000000000000000000000000000000000000000000000000000000000 DUP2 MSTORE PUSH1 0x4 ADD PUSH2 0x3DD SWAP1 PUSH2 0x9F0 JUMP JUMPDEST PUSH1 0x40 MLOAD DUP1 SWAP2 SUB SWAP1 REVERT JUMPDEST PUSH0 PUSH0 CALLER PUSH20 0xFFFFFFFFFFFFFFFFFFFFFFFFFFFFFFFFFFFFFFFF AND PUSH20 0xFFFFFFFFFFFFFFFFFFFFFFFFFFFFFFFFFFFFFFFF AND DUP2 MSTORE PUSH1 0x20 ADD SWAP1 DUP2 MSTORE PUSH1 0x20 ADD PUSH0 KECCAK256 PUSH0 ADD PUSH1 0x40 MLOAD PUSH1 0x20 ADD PUSH2 0x434 SWAP2 SWAP1 PUSH2 0xAC6 JUMP JUMPDEST PUSH1 0x40 MLOAD PUSH1 0x20 DUP2 DUP4 SUB SUB DUP2 MSTORE SWAP1 PUSH1 0x40 MSTORE SWAP1 POP SWAP1 JUMP JUMPDEST PUSH1 0x40 MLOAD DUP1 PUSH1 0x60 ADD PUSH1 0x40 MSTORE DUP1 DUP3 DUP2 MSTORE PUSH1 0x20 ADD CALLER PUSH20 0xFFFFFFFFFFFFFFFFFFFFFFFFFFFFFFFFFFFFFFFF AND DUP2 MSTORE PUSH1 0x20 ADD PUSH1 0x1 ISZERO ISZERO DUP2 MSTORE POP PUSH0 PUSH0 CALLER PUSH20 0xFFFFFFFFFFFFFFFFFFFFFFFFFFFFFFFFFFFFFFFF AND PUSH20 0xFFFFFFFFFFFFFFFFFFFFFFFFFFFFFFFFFFFFFFFF AND DUP2 MSTORE PUSH1 0x20 ADD SWAP1 DUP2 MSTORE PUSH1 0x20 ADD PUSH0 KECCAK256 PUSH0 DUP3 ADD MLOAD DUP2 PUSH0 ADD SWAP1 DUP2 PUSH2 0x4CB SWAP2 SWAP1 PUSH2 0xC93 JUMP JUMPDEST POP PUSH1 0x20 DUP3 ADD MLOAD DUP2 PUSH1 0x1 ADD PUSH0 PUSH2 0x100 EXP DUP2 SLOAD DUP2 PUSH20 0xFFFFFFFFFFFFFFFFFFFFFFFFFFFFFFFFFFFFFFFF MUL NOT AND SWAP1 DUP4 PUSH20 0xFFFFFFFFFFFFFFFFFFFFFFFFFFFFFFFFFFFFFFFF AND MUL OR SWAP1 SSTORE POP PUSH1 0x40 DUP3 ADD MLOAD DUP2 PUSH1 0x1 ADD PUSH1 0x14 PUSH2 0x100 EXP DUP2 SLOAD DUP2 PUSH1 0xFF MUL NOT AND SWAP1 DUP4 ISZERO ISZERO MUL OR SWAP1 SSTORE POP SWAP1 POP POP CALLER PUSH1 0x1 DUP3 PUSH1 0x40 MLOAD PUSH2 0x546 SWAP2 SWAP1 PUSH2 0x933 JUMP JUMPDEST SWAP1 DUP2 MSTORE PUSH1 0x20 ADD PUSH1 0x40 MLOAD DUP1 SWAP2 SUB SWAP1 KECCAK256 PUSH0 PUSH2 0x100 EXP DUP2 SLOAD DUP2 PUSH20 0xFFFFFFFFFFFFFFFFFFFFFFFFFFFFFFFFFFFFFFFF MUL NOT AND SWAP1 DUP4 PUSH20 0xFFFFFFFFFFFFFFFFFFFFFFFFFFFFFFFFFFFFFFFF AND MUL OR SWAP1 SSTORE POP CALLER PUSH20 0xFFFFFFFFFFFFFFFFFFFFFFFFFFFFFFFFFFFFFFFF AND PUSH32 0x48CAC28AD4DC618E15F4C2DD5E97751182F166DE97B25618318B2112AA951A2F DUP3 PUSH1 0x40 MLOAD PUSH2 0x5D7 SWAP2 SWAP1 PUSH2 0x8D9 JUMP JUMPDEST PUSH1 0x40 MLOAD DUP1 SWAP2 SUB SWAP1 LOG2 POP JUMP JUMPDEST PUSH0 PUSH1 0x40 MLOAD SWAP1 POP SWAP1 JUMP JUMPDEST PUSH0 PUSH0 REVERT JUMPDEST PUSH0 PUSH0 REVERT JUMPDEST PUSH0 PUSH20 0xFFFFFFFFFFFFFFFFFFFFFFFFFFFFFFFFFFFFFFFF DUP3 AND SWAP1 POP SWAP2 SWAP1 POP JUMP JUMPDEST PUSH0 PUSH2 0x61C DUP3 PUSH2 0x5F3 JUMP JUMPDEST SWAP1 POP SWAP2 SWAP1 POP JUMP JUMPDEST PUSH2 0x62C DUP2 PUSH2 0x612 JUMP JUMPDEST DUP2 EQ PUSH2 0x636 JUMPI PUSH0 PUSH0 REVERT JUMPDEST POP JUMP JUMPDEST PUSH0 DUP2 CALLDATALOAD SWAP1 POP PUSH2 0x647 DUP2 PUSH2 0x623 JUMP JUMPDEST SWAP3 SWAP2 POP POP JUMP JUMPDEST PUSH0 PUSH1 0x20 DUP3 DUP5 SUB SLT ISZERO PUSH2 0x662 JUMPI PUSH2 0x661 PUSH2 0x5EB JUMP JUMPDEST JUMPDEST PUSH0 PUSH2 0x66F DUP5 DUP3 DUP6 ADD PUSH2 0x639 JUMP JUMPDEST SWAP2 POP POP SWAP3 SWAP2 POP POP JUMP JUMPDEST PUSH0 DUP2 ISZERO ISZERO SWAP1 POP SWAP2 SWAP1 POP JUMP JUMPDEST PUSH2 0x68C DUP2 PUSH2 0x678 JUMP JUMPDEST DUP3 MSTORE POP POP JUMP JUMPDEST PUSH0 PUSH1 0x20 DUP3 ADD SWAP1 POP PUSH2 0x6A5 PUSH0 DUP4 ADD DUP5 PUSH2 0x683 JUMP JUMPDEST SWAP3 SWAP2 POP POP JUMP JUMPDEST PUSH0 PUSH0 REVERT JUMPDEST PUSH0 PUSH0 REVERT JUMPDEST PUSH0 PUSH1 0x1F NOT PUSH1 0x1F DUP4 ADD AND SWAP1 POP SWAP2 SWAP1 POP JUMP JUMPDEST PUSH32 0x4E487B7100000000000000000000000000000000000000000000000000000000 PUSH0 MSTORE PUSH1 0x41 PUSH1 0x4 MSTORE PUSH1 0x24 PUSH0 REVERT JUMPDEST PUSH2 0x6F9 DUP3 PUSH2 0x6B3 JUMP JUMPDEST DUP2 ADD DUP2 DUP2 LT PUSH8 0xFFFFFFFFFFFFFFFF DUP3 GT OR ISZERO PUSH2 0x718 JUMPI PUSH2 0x717 PUSH2 0x6C3 JUMP JUMPDEST JUMPDEST DUP1 PUSH1 0x40 MSTORE POP POP POP JUMP JUMPDEST PUSH0 PUSH2 0x72A PUSH2 0x5E2 JUMP JUMPDEST SWAP1 POP PUSH2 0x736 DUP3 DUP3 PUSH2 0x6F0 JUMP JUMPDEST SWAP2 SWAP1 POP JUMP JUMPDEST PUSH0 PUSH8 0xFFFFFFFFFFFFFFFF DUP3 GT ISZERO PUSH2 0x755 JUMPI PUSH2 0x754 PUSH2 0x6C3 JUMP JUMPDEST JUMPDEST PUSH2 0x75E DUP3 PUSH2 0x6B3 JUMP JUMPDEST SWAP1 POP PUSH1 0x20 DUP2 ADD SWAP1 POP SWAP2 SWAP1 POP JUMP JUMPDEST DUP3 DUP2 DUP4 CALLDATACOPY PUSH0 DUP4 DUP4 ADD MSTORE POP POP POP JUMP JUMPDEST PUSH0 PUSH2 0x78B PUSH2 0x786 DUP5 PUSH2 0x73B JUMP JUMPDEST PUSH2 0x721 JUMP JUMPDEST SWAP1 POP DUP3 DUP2 MSTORE PUSH1 0x20 DUP2 ADD DUP5 DUP5 DUP5 ADD GT ISZERO PUSH2 0x7A7 JUMPI PUSH2 0x7A6 PUSH2 0x6AF JUMP JUMPDEST JUMPDEST PUSH2 0x7B2 DUP5 DUP3 DUP6 PUSH2 0x76B JUMP JUMPDEST POP SWAP4 SWAP3 POP POP POP JUMP JUMPDEST PUSH0 DUP3 PUSH1 0x1F DUP4 ADD SLT PUSH2 0x7CE JUMPI PUSH2 0x7CD PUSH2 0x6AB JUMP JUMPDEST JUMPDEST DUP2 CALLDATALOAD PUSH2 0x7DE DUP5 DUP3 PUSH1 0x20 DUP7 ADD PUSH2 0x779 JUMP JUMPDEST SWAP2 POP POP SWAP3 SWAP2 POP POP JUMP JUMPDEST PUSH0 PUSH1 0x20 DUP3 DUP5 SUB SLT ISZERO PUSH2 0x7FC JUMPI PUSH2 0x7FB PUSH2 0x5EB JUMP JUMPDEST JUMPDEST PUSH0 DUP3 ADD CALLDATALOAD PUSH8 0xFFFFFFFFFFFFFFFF DUP2 GT ISZERO PUSH2 0x819 JUMPI PUSH2 0x818 PUSH2 0x5EF JUMP JUMPDEST JUMPDEST PUSH2 0x825 DUP5 DUP3 DUP6 ADD PUSH2 0x7BA JUMP JUMPDEST SWAP2 POP POP SWAP3 SWAP2 POP POP JUMP JUMPDEST PUSH0 DUP2 MLOAD SWAP1 POP SWAP2 SWAP1 POP JUMP JUMPDEST PUSH0 DUP3 DUP3 MSTORE PUSH1 0x20 DUP3 ADD SWAP1 POP SWAP3 SWAP2 POP POP JUMP JUMPDEST DUP3 DUP2 DUP4 MCOPY PUSH0 DUP4 DUP4 ADD MSTORE POP POP POP JUMP JUMPDEST PUSH0 PUSH2 0x860 DUP3 PUSH2 0x82E JUMP JUMPDEST PUSH2 0x86A DUP2 DUP6 PUSH2 0x838 JUMP JUMPDEST SWAP4 POP PUSH2 0x87A DUP2 DUP6 PUSH1 0x20 DUP7 ADD PUSH2 0x848 JUMP JUMPDEST PUSH2 0x883 DUP2 PUSH2 0x6B3 JUMP JUMPDEST DUP5 ADD SWAP2 POP POP SWAP3 SWAP2 POP POP JUMP JUMPDEST PUSH2 0x897 DUP2 PUSH2 0x612 JUMP JUMPDEST DUP3 MSTORE POP POP JUMP JUMPDEST PUSH0 PUSH1 0x60 DUP3 ADD SWAP1 POP DUP2 DUP2 SUB PUSH0 DUP4 ADD MSTORE PUSH2 0x8B5 DUP2 DUP7 PUSH2 0x856 JUMP JUMPDEST SWAP1 POP PUSH2 0x8C4 PUSH1 0x20 DUP4 ADD DUP6 PUSH2 0x88E JUMP JUMPDEST PUSH2 0x8D1 PUSH1 0x40 DUP4 ADD DUP5 PUSH2 0x683 JUMP JUMPDEST SWAP5 SWAP4 POP POP POP POP JUMP JUMPDEST PUSH0 PUSH1 0x20 DUP3 ADD SWAP1 POP DUP2 DUP2 SUB PUSH0 DUP4 ADD MSTORE PUSH2 0x8F1 DUP2 DUP5 PUSH2 0x856 JUMP JUMPDEST SWAP1 POP SWAP3 SWAP2 POP POP JUMP JUMPDEST PUSH0 DUP2 SWAP1 POP SWAP3 SWAP2 POP POP JUMP JUMPDEST PUSH0 PUSH2 0x90D DUP3 PUSH2 0x82E JUMP JUMPDEST PUSH2 0x917 DUP2 DUP6 PUSH2 0x8F9 JUMP JUMPDEST SWAP4 POP PUSH2 0x927 DUP2 DUP6 PUSH1 0x20 DUP7 ADD PUSH2 0x848 JUMP JUMPDEST DUP1 DUP5 ADD SWAP2 POP POP SWAP3 SWAP2 POP POP JUMP JUMPDEST PUSH0 PUSH2 0x93E DUP3 DUP5 PUSH2 0x903 JUMP JUMPDEST SWAP2 POP DUP2 SWAP1 POP SWAP3 SWAP2 POP POP JUMP JUMPDEST PUSH32 0x4E487B7100000000000000000000000000000000000000000000000000000000 PUSH0 MSTORE PUSH1 0x22 PUSH1 0x4 MSTORE PUSH1 0x24 PUSH0 REVERT JUMPDEST PUSH0 PUSH1 0x2 DUP3 DIV SWAP1 POP PUSH1 0x1 DUP3 AND DUP1 PUSH2 0x98D JUMPI PUSH1 0x7F DUP3 AND SWAP2 POP JUMPDEST PUSH1 0x20 DUP3 LT DUP2 SUB PUSH2 0x9A0 JUMPI PUSH2 0x99F PUSH2 0x949 JUMP JUMPDEST JUMPDEST POP SWAP2 SWAP1 POP JUMP JUMPDEST PUSH32 0x4E6F742072656769737465726564000000000000000000000000000000000000 PUSH0 DUP3 ADD MSTORE POP JUMP JUMPDEST PUSH0 PUSH2 0x9DA PUSH1 0xE DUP4 PUSH2 0x838 JUMP JUMPDEST SWAP2 POP PUSH2 0x9E5 DUP3 PUSH2 0x9A6 JUMP JUMPDEST PUSH1 0x20 DUP3 ADD SWAP1 POP SWAP2 SWAP1 POP JUMP JUMPDEST PUSH0 PUSH1 0x20 DUP3 ADD SWAP1 POP DUP2 DUP2 SUB PUSH0 DUP4 ADD MSTORE PUSH2 0xA07 DUP2 PUSH2 0x9CE JUMP JUMPDEST SWAP1 POP SWAP2 SWAP1 POP JUMP JUMPDEST PUSH32 0x57656C636F6D65206261636B2C20000000000000000000000000000000000000 DUP2 MSTORE POP JUMP JUMPDEST PUSH0 DUP2 SWAP1 POP DUP2 PUSH0 MSTORE PUSH1 0x20 PUSH0 KECCAK256 SWAP1 POP SWAP2 SWAP1 POP JUMP JUMPDEST PUSH0 DUP2 SLOAD PUSH2 0xA52 DUP2 PUSH2 0x976 JUMP JUMPDEST PUSH2 0xA5C DUP2 DUP7 PUSH2 0x8F9 JUMP JUMPDEST SWAP5 POP PUSH1 0x1 DUP3 AND PUSH0 DUP2 EQ PUSH2 0xA76 JUMPI PUSH1 0x1 DUP2 EQ PUSH2 0xA8B JUMPI PUSH2 0xABD JUMP JUMPDEST PUSH1 0xFF NOT DUP4 AND DUP7 MSTORE DUP2 ISZERO ISZERO DUP3 MUL DUP7 ADD SWAP4 POP PUSH2 0xABD JUMP JUMPDEST PUSH2 0xA94 DUP6 PUSH2 0xA34 JUMP JUMPDEST PUSH0 JUMPDEST DUP4 DUP2 LT ISZERO PUSH2 0xAB5 JUMPI DUP2 SLOAD DUP2 DUP10 ADD MSTORE PUSH1 0x1 DUP3 ADD SWAP2 POP PUSH1 0x20 DUP2 ADD SWAP1 POP PUSH2 0xA96 JUMP JUMPDEST DUP4 DUP9 ADD SWAP6 POP POP POP JUMPDEST POP POP POP SWAP3 SWAP2 POP POP JUMP JUMPDEST PUSH0 PUSH2 0xAD0 DUP3 PUSH2 0xA0E JUMP JUMPDEST PUSH1 0xE DUP3 ADD SWAP2 POP PUSH2 0xAE0 DUP3 DUP5 PUSH2 0xA46 JUMP JUMPDEST SWAP2 POP DUP2 SWAP1 POP SWAP3 SWAP2 POP POP JUMP JUMPDEST PUSH0 PUSH1 0x20 PUSH1 0x1F DUP4 ADD DIV SWAP1 POP SWAP2 SWAP1 POP JUMP JUMPDEST PUSH0 DUP3 DUP3 SHL SWAP1 POP SWAP3 SWAP2 POP POP JUMP JUMPDEST PUSH0 PUSH1 0x8 DUP4 MUL PUSH2 0xB35 PUSH32 0xFFFFFFFFFFFFFFFFFFFFFFFFFFFFFFFFFFFFFFFFFFFFFFFFFFFFFFFFFFFFFFFF DUP3 PUSH2 0xAFA JUMP JUMPDEST PUSH2 0xB3F DUP7 DUP4 PUSH2 0xAFA JUMP JUMPDEST SWAP6 POP DUP1 NOT DUP5 AND SWAP4 POP DUP1 DUP7 AND DUP5 OR SWAP3 POP POP POP SWAP4 SWAP3 POP POP POP JUMP JUMPDEST PUSH0 DUP2 SWAP1 POP SWAP2 SWAP1 POP JUMP JUMPDEST PUSH0 DUP2 SWAP1 POP SWAP2 SWAP1 POP JUMP JUMPDEST PUSH0 PUSH2 0xB83 PUSH2 0xB7E PUSH2 0xB79 DUP5 PUSH2 0xB57 JUMP JUMPDEST PUSH2 0xB60 JUMP JUMPDEST PUSH2 0xB57 JUMP JUMPDEST SWAP1 POP SWAP2 SWAP1 POP JUMP JUMPDEST PUSH0 DUP2 SWAP1 POP SWAP2 SWAP1 POP JUMP JUMPDEST PUSH2 0xB9C DUP4 PUSH2 0xB69 JUMP JUMPDEST PUSH2 0xBB0 PUSH2 0xBA8 DUP3 PUSH2 0xB8A JUMP JUMPDEST DUP5 DUP5 SLOAD PUSH2 0xB06 JUMP JUMPDEST DUP3 SSTORE POP POP POP POP JUMP JUMPDEST PUSH0 PUSH0 SWAP1 POP SWAP1 JUMP JUMPDEST PUSH2 0xBC7 PUSH2 0xBB8 JUMP JUMPDEST PUSH2 0xBD2 DUP2 DUP5 DUP5 PUSH2 0xB93 JUMP JUMPDEST POP POP POP JUMP JUMPDEST PUSH0 JUMPDEST DUP3 DUP2 LT ISZERO PUSH2 0xBF8 JUMPI PUSH2 0xBED PUSH0 DUP3 DUP5 ADD PUSH2 0xBBF JUMP JUMPDEST PUSH1 0x1 DUP2 ADD SWAP1 POP PUSH2 0xBD9 JUMP JUMPDEST POP POP POP JUMP JUMPDEST PUSH1 0x1F DUP3 GT ISZERO PUSH2 0xC4B JUMPI DUP3 DUP3 GT ISZERO PUSH2 0xC4A JUMPI PUSH2 0xC17 DUP2 PUSH2 0xA34 JUMP JUMPDEST PUSH2 0xC20 DUP4 PUSH2 0xAEB JUMP JUMPDEST PUSH2 0xC29 DUP6 PUSH2 0xAEB JUMP JUMPDEST PUSH1 0x20 DUP7 LT ISZERO PUSH2 0xC36 JUMPI PUSH0 SWAP1 POP JUMPDEST DUP1 DUP4 ADD PUSH2 0xC45 DUP3 DUP5 SUB DUP3 PUSH2 0xBD7 JUMP JUMPDEST POP POP POP POP JUMPDEST JUMPDEST POP POP POP JUMP JUMPDEST PUSH0 DUP3 DUP3 SHR SWAP1 POP SWAP3 SWAP2 POP POP JUMP JUMPDEST PUSH0 PUSH2 0xC6B PUSH0 NOT DUP5 PUSH1 0x8 MUL PUSH2 0xC50 JUMP JUMPDEST NOT DUP1 DUP4 AND SWAP2 POP POP SWAP3 SWAP2 POP POP JUMP JUMPDEST PUSH0 PUSH2 0xC83 DUP4 DUP4 PUSH2 0xC5C JUMP JUMPDEST SWAP2 POP DUP3 PUSH1 0x2 MUL DUP3 OR SWAP1 POP SWAP3 SWAP2 POP POP JUMP JUMPDEST PUSH2 0xC9C DUP3 PUSH2 0x82E JUMP JUMPDEST PUSH8 0xFFFFFFFFFFFFFFFF DUP2 GT ISZERO PUSH2 0xCB5 JUMPI PUSH2 0xCB4 PUSH2 0x6C3 JUMP JUMPDEST JUMPDEST PUSH2 0xCBF DUP3 SLOAD PUSH2 0x976 JUMP JUMPDEST PUSH2 0xCCA DUP3 DUP3 DUP6 PUSH2 0xBFD JUMP JUMPDEST PUSH0 PUSH1 0x20 SWAP1 POP PUSH1 0x1F DUP4 GT PUSH1 0x1 DUP2 EQ PUSH2 0xCFB JUMPI PUSH0 DUP5 ISZERO PUSH2 0xCE9 JUMPI DUP3 DUP8 ADD MLOAD SWAP1 POP JUMPDEST PUSH2 0xCF3 DUP6 DUP3 PUSH2 0xC78 JUMP JUMPDEST DUP7 SSTORE POP PUSH2 0xD5A JUMP JUMPDEST PUSH1 0x1F NOT DUP5 AND PUSH2 0xD09 DUP7 PUSH2 0xA34 JUMP JUMPDEST PUSH0 JUMPDEST DUP3 DUP2 LT ISZERO PUSH2 0xD30 JUMPI DUP5 DUP10 ADD MLOAD DUP3 SSTORE PUSH1 0x1 DUP3 ADD SWAP2 POP PUSH1 0x20 DUP6 ADD SWAP5 POP PUSH1 0x20 DUP2 ADD SWAP1 POP PUSH2 0xD0B JUMP JUMPDEST DUP7 DUP4 LT ISZERO PUSH2 0xD4D JUMPI DUP5 DUP10 ADD MLOAD PUSH2 0xD49 PUSH1 0x1F DUP10 AND DUP3 PUSH2 0xC5C JUMP JUMPDEST DUP4 SSTORE POP JUMPDEST PUSH1 0x1 PUSH1 0x2 DUP9 MUL ADD DUP9 SSTORE POP POP POP JUMPDEST POP POP POP POP POP POP JUMP INVALID LOG2 PUSH5 0x6970667358 0x22 SLT KECCAK256 0xB1 0x4B SWAP11 LOG0 LT STATICCALL RETURNCONTRACT 0xE2 PUSH16 0xA0BE2E08D4C036C3F092B77881C899C8 MSTORE8 INVALID DELEGATECALL SDIV NOT 0xED REVERT PUSH5 0x736F6C6343 STOP ADDMOD 0x22 STOP CALLER "
				},
				"gasEstimates": {
					"creation": {
						"codeDepositCost": "696000",
						"executionCost": "726",
						"totalCost": "696726"
					},
					"external": {
						"getUser(address)": "infinite",
						"isUserRegistered(address)": "2904",
						"isUsernameRegistered(string)": "infinite",
						"login()": "infinite",
						"register(string)": "infinite"
					}
				},
				"methodIdentifiers": {
					"getUser(address)": "6f77926b",
					"isUserRegistered(address)": "163f7522",
					"isUsernameRegistered(string)": "52ac2091",
					"login()": "b34e97e8",
					"register(string)": "f2c298be"
				}
			},
			"storageLayout": {
				"storage": [
					{
						"astId": 13,
						"contract": "contracts/UserAuth.sol:UserAuth",
						"label": "users",
						"offset": 0,
						"slot": "0",
						"type": "t_mapping(t_address,t_struct(User)8_storage)"
					},
					{
						"astId": 17,
						"contract": "contracts/UserAuth.sol:UserAuth",
						"label": "usernameToAddress",
						"offset": 0,
						"slot": "1",
						"type": "t_mapping(t_string_memory_ptr,t_address)"
					}
				],
				"types": {
					"t_address": {
						"encoding": "inplace",
						"label": "address",
						"numberOfBytes": "20"
					},
					"t_bool": {
						"encoding": "inplace",
						"label": "bool",
						"numberOfBytes": "1"
					},
					"t_mapping(t_address,t_struct(User)8_storage)": {
						"encoding": "mapping",
						"key": "t_address",
						"label": "mapping(address => struct UserAuth.User)",
						"numberOfBytes": "32",
						"value": "t_struct(User)8_storage"
					},
					"t_mapping(t_string_memory_ptr,t_address)": {
						"encoding": "mapping",
						"key": "t_string_memory_ptr",
						"label": "mapping(string => address)",
						"numberOfBytes": "32",
						"value": "t_address"
					},
					"t_string_memory_ptr": {
						"encoding": "bytes",
						"label": "string",
						"numberOfBytes": "32"
					},
					"t_string_storage": {
						"encoding": "bytes",
						"label": "string",
						"numberOfBytes": "32"
					},
					"t_struct(User)8_storage": {
						"encoding": "inplace",
						"label": "struct UserAuth.User",
						"members": [
							{
								"astId": 3,
								"contract": "contracts/UserAuth.sol:UserAuth",
								"label": "username",
								"offset": 0,
								"slot": "0",
								"type": "t_string_storage"
							},
							{
								"astId": 5,
								"contract": "contracts/UserAuth.sol:UserAuth",
								"label": "userAddress",
								"offset": 0,
								"slot": "1",
								"type": "t_address"
							},
							{
								"astId": 7,
								"contract": "contracts/UserAuth.sol:UserAuth",
								"label": "isRegistered",
								"offset": 20,
								"slot": "1",
								"type": "t_bool"
							}
						],
						"numberOfBytes": "64"
					}
				}
			},
			"userdoc": {
				"kind": "user",
				"methods": {},
				"version": 1
			}
		}
	}
}