{
	"enum.sol": {
		"Ballot": {
			"abi": [
				{
					"inputs": [],
					"stateMutability": "nonpayable",
					"type": "constructor"
				},
				{
					"inputs": [],
					"name": "VoterCount",
					"outputs": [
						{
							"internalType": "uint256",
							"name": "",
							"type": "uint256"
						}
					],
					"stateMutability": "view",
					"type": "function"
				},
				{
					"inputs": [
						{
							"internalType": "uint256",
							"name": "_id",
							"type": "uint256"
						},
						{
							"internalType": "string",
							"name": "_subjectProposal",
							"type": "string"
						}
					],
					"name": "addProposalDetail",
					"outputs": [],
					"stateMutability": "nonpayable",
					"type": "function"
				},
				{
					"inputs": [],
					"name": "chairperson",
					"outputs": [
						{
							"internalType": "address",
							"name": "",
							"type": "address"
						}
					],
					"stateMutability": "view",
					"type": "function"
				},
				{
					"inputs": [],
					"name": "proposalCount",
					"outputs": [
						{
							"internalType": "uint256",
							"name": "",
							"type": "uint256"
						}
					],
					"stateMutability": "view",
					"type": "function"
				},
				{
					"inputs": [
						{
							"internalType": "uint256",
							"name": "",
							"type": "uint256"
						}
					],
					"name": "proposals",
					"outputs": [
						{
							"internalType": "uint256",
							"name": "proposalID",
							"type": "uint256"
						},
						{
							"internalType": "string",
							"name": "topic",
							"type": "string"
						},
						{
							"internalType": "uint256",
							"name": "voteCount",
							"type": "uint256"
						}
					],
					"stateMutability": "view",
					"type": "function"
				},
				{
					"inputs": [
						{
							"internalType": "address",
							"name": "toVoter",
							"type": "address"
						}
					],
					"name": "register",
					"outputs": [],
					"stateMutability": "nonpayable",
					"type": "function"
				},
				{
					"inputs": [
						{
							"internalType": "uint8",
							"name": "toProposal",
							"type": "uint8"
						}
					],
					"name": "vote",
					"outputs": [],
					"stateMutability": "nonpayable",
					"type": "function"
				},
				{
					"inputs": [],
					"name": "winningProposal",
					"outputs": [
						{
							"internalType": "uint8",
							"name": "_winningProposal",
							"type": "uint8"
						}
					],
					"stateMutability": "view",
					"type": "function"
				}
			],
			"devdoc": {
				"kind": "dev",
				"methods": {},
				"version": 1
			},
			"evm": {
				"assembly": "    /* \"enum.sol\":61:1741  contract Ballot {... */\n  mstore(0x40, 0x80)\n    /* \"enum.sol\":259:260  0 */\n  0x00\n    /* \"enum.sol\":233:260  uint public proposalCount=0 */\n  0x00\n  sstore\n    /* \"enum.sol\":288:289  0 */\n  0x00\n    /* \"enum.sol\":265:289  uint public VoterCount=0 */\n  0x01\n  sstore\n    /* \"enum.sol\":452:536  constructor (){... */\n  callvalue\n  dup1\n  iszero\n  tag_1\n  jumpi\n  revert(0x00, 0x00)\ntag_1:\n  pop\n    /* \"enum.sol\":485:495  msg.sender */\n  caller\n    /* \"enum.sol\":471:482  chairperson */\n  0x02\n  0x00\n    /* \"enum.sol\":471:495  chairperson = msg.sender */\n  0x0100\n  exp\n  dup2\n  sload\n  dup2\n  0xffffffffffffffffffffffffffffffffffffffff\n  mul\n  not\n  and\n  swap1\n  dup4\n  0xffffffffffffffffffffffffffffffffffffffff\n  and\n  mul\n  or\n  swap1\n  sstore\n  pop\n    /* \"enum.sol\":529:530  2 */\n  0x02\n    /* \"enum.sol\":500:506  voters */\n  0x03\n    /* \"enum.sol\":500:519  voters[chairperson] */\n  0x00\n    /* \"enum.sol\":507:518  chairperson */\n  0x02\n  0x00\n  swap1\n  sload\n  swap1\n  0x0100\n  exp\n  swap1\n  div\n  0xffffffffffffffffffffffffffffffffffffffff\n  and\n    /* \"enum.sol\":500:519  voters[chairperson] */\n  0xffffffffffffffffffffffffffffffffffffffff\n  and\n  0xffffffffffffffffffffffffffffffffffffffff\n  and\n  dup2\n  mstore\n  0x20\n  add\n  swap1\n  dup2\n  mstore\n  0x20\n  add\n  0x00\n  keccak256\n    /* \"enum.sol\":500:526  voters[chairperson].weight */\n  0x00\n  add\n    /* \"enum.sol\":500:530  voters[chairperson].weight = 2 */\n  dup2\n  swap1\n  sstore\n  pop\n    /* \"enum.sol\":61:1741  contract Ballot {... */\n  dataSize(sub_0)\n  dup1\n  dataOffset(sub_0)\n  0x00\n  codecopy\n  0x00\n  return\nstop\n\nsub_0: assembly {\n        /* \"enum.sol\":61:1741  contract Ballot {... */\n      mstore(0x40, 0x80)\n      callvalue\n      dup1\n      iszero\n      tag_1\n      jumpi\n      revert(0x00, 0x00)\n    tag_1:\n      pop\n      jumpi(tag_2, lt(calldatasize, 0x04))\n      shr(0xe0, calldataload(0x00))\n      dup1\n      0x585cc4c4\n      gt\n      tag_11\n      jumpi\n      dup1\n      0x585cc4c4\n      eq\n      tag_7\n      jumpi\n      dup1\n      0x609ff1bd\n      eq\n      tag_8\n      jumpi\n      dup1\n      0xb3f98adc\n      eq\n      tag_9\n      jumpi\n      dup1\n      0xda35c664\n      eq\n      tag_10\n      jumpi\n      jump(tag_2)\n    tag_11:\n      dup1\n      0x013cf08b\n      eq\n      tag_3\n      jumpi\n      dup1\n      0x2e4176cf\n      eq\n      tag_4\n      jumpi\n      dup1\n      0x2e46fb9a\n      eq\n      tag_5\n      jumpi\n      dup1\n      0x4420e486\n      eq\n      tag_6\n      jumpi\n    tag_2:\n      revert(0x00, 0x00)\n        /* \"enum.sol\":420:447  Proposal[] public proposals */\n    tag_3:\n      tag_12\n      0x04\n      dup1\n      calldatasize\n      sub\n      dup2\n      add\n      swap1\n      tag_13\n      swap2\n      swap1\n      tag_14\n      jump\t// in\n    tag_13:\n      tag_15\n      jump\t// in\n    tag_12:\n      mload(0x40)\n      tag_16\n      swap4\n      swap3\n      swap2\n      swap1\n      tag_17\n      jump\t// in\n    tag_16:\n      mload(0x40)\n      dup1\n      swap2\n      sub\n      swap1\n      return\n        /* \"enum.sol\":294:320  address public chairperson */\n    tag_4:\n      tag_18\n      tag_19\n      jump\t// in\n    tag_18:\n      mload(0x40)\n      tag_20\n      swap2\n      swap1\n      tag_21\n      jump\t// in\n    tag_20:\n      mload(0x40)\n      dup1\n      swap2\n      sub\n      swap1\n      return\n        /* \"enum.sol\":265:289  uint public VoterCount=0 */\n    tag_5:\n      tag_22\n      tag_23\n      jump\t// in\n    tag_22:\n      mload(0x40)\n      tag_24\n      swap2\n      swap1\n      tag_25\n      jump\t// in\n    tag_24:\n      mload(0x40)\n      dup1\n      swap2\n      sub\n      swap1\n      return\n        /* \"enum.sol\":912:1110  function register(address toVoter) public {... */\n    tag_6:\n      tag_26\n      0x04\n      dup1\n      calldatasize\n      sub\n      dup2\n      add\n      swap1\n      tag_27\n      swap2\n      swap1\n      tag_28\n      jump\t// in\n    tag_27:\n      tag_29\n      jump\t// in\n    tag_26:\n      stop\n        /* \"enum.sol\":538:721  function addProposalDetail(uint _id, string memory _subjectProposal) public {... */\n    tag_7:\n      tag_30\n      0x04\n      dup1\n      calldatasize\n      sub\n      dup2\n      add\n      swap1\n      tag_31\n      swap2\n      swap1\n      tag_32\n      jump\t// in\n    tag_31:\n      tag_33\n      jump\t// in\n    tag_30:\n      stop\n        /* \"enum.sol\":1431:1736  function winningProposal() public view returns (uint8 _winningProposal) {... */\n    tag_8:\n      tag_34\n      tag_35\n      jump\t// in\n    tag_34:\n      mload(0x40)\n      tag_36\n      swap2\n      swap1\n      tag_37\n      jump\t// in\n    tag_36:\n      mload(0x40)\n      dup1\n      swap2\n      sub\n      swap1\n      return\n        /* \"enum.sol\":1167:1427  function vote(uint8 toProposal) public {... */\n    tag_9:\n      tag_38\n      0x04\n      dup1\n      calldatasize\n      sub\n      dup2\n      add\n      swap1\n      tag_39\n      swap2\n      swap1\n      tag_40\n      jump\t// in\n    tag_39:\n      tag_41\n      jump\t// in\n    tag_38:\n      stop\n        /* \"enum.sol\":233:260  uint public proposalCount=0 */\n    tag_10:\n      tag_42\n      tag_43\n      jump\t// in\n    tag_42:\n      mload(0x40)\n      tag_44\n      swap2\n      swap1\n      tag_25\n      jump\t// in\n    tag_44:\n      mload(0x40)\n      dup1\n      swap2\n      sub\n      swap1\n      return\n        /* \"enum.sol\":420:447  Proposal[] public proposals */\n    tag_15:\n      0x04\n      dup2\n      dup2\n      sload\n      dup2\n      lt\n      tag_45\n      jumpi\n      0x00\n      dup1\n      revert\n    tag_45:\n      swap1\n      0x00\n      mstore\n      keccak256(0x00, 0x20)\n      swap1\n      0x03\n      mul\n      add\n      0x00\n      swap2\n      pop\n      swap1\n      pop\n      dup1\n      0x00\n      add\n      sload\n      swap1\n      dup1\n      0x01\n      add\n      dup1\n      sload\n      tag_47\n      swap1\n      tag_48\n      jump\t// in\n    tag_47:\n      dup1\n      0x1f\n      add\n      0x20\n      dup1\n      swap2\n      div\n      mul\n      0x20\n      add\n      mload(0x40)\n      swap1\n      dup2\n      add\n      0x40\n      mstore\n      dup1\n      swap3\n      swap2\n      swap1\n      dup2\n      dup2\n      mstore\n      0x20\n      add\n      dup3\n      dup1\n      sload\n      tag_49\n      swap1\n      tag_48\n      jump\t// in\n    tag_49:\n      dup1\n      iszero\n      tag_50\n      jumpi\n      dup1\n      0x1f\n      lt\n      tag_51\n      jumpi\n      0x0100\n      dup1\n      dup4\n      sload\n      div\n      mul\n      dup4\n      mstore\n      swap2\n      0x20\n      add\n      swap2\n      jump(tag_50)\n    tag_51:\n      dup3\n      add\n      swap2\n      swap1\n      0x00\n      mstore\n      keccak256(0x00, 0x20)\n      swap1\n    tag_52:\n      dup2\n      sload\n      dup2\n      mstore\n      swap1\n      0x01\n      add\n      swap1\n      0x20\n      add\n      dup1\n      dup4\n      gt\n      tag_52\n      jumpi\n      dup3\n      swap1\n      sub\n      0x1f\n      and\n      dup3\n      add\n      swap2\n    tag_50:\n      pop\n      pop\n      pop\n      pop\n      pop\n      swap1\n      dup1\n      0x02\n      add\n      sload\n      swap1\n      pop\n      dup4\n      jump\t// out\n        /* \"enum.sol\":294:320  address public chairperson */\n    tag_19:\n      0x02\n      0x00\n      swap1\n      sload\n      swap1\n      0x0100\n      exp\n      swap1\n      div\n      0xffffffffffffffffffffffffffffffffffffffff\n      and\n      dup2\n      jump\t// out\n        /* \"enum.sol\":265:289  uint public VoterCount=0 */\n    tag_23:\n      sload(0x01)\n      dup2\n      jump\t// out\n        /* \"enum.sol\":912:1110  function register(address toVoter) public {... */\n    tag_29:\n        /* \"enum.sol\":977:988  chairperson */\n      0x02\n      0x00\n      swap1\n      sload\n      swap1\n      0x0100\n      exp\n      swap1\n      div\n      0xffffffffffffffffffffffffffffffffffffffff\n      and\n        /* \"enum.sol\":963:988  msg.sender != chairperson */\n      0xffffffffffffffffffffffffffffffffffffffff\n      and\n        /* \"enum.sol\":963:973  msg.sender */\n      caller\n        /* \"enum.sol\":963:988  msg.sender != chairperson */\n      0xffffffffffffffffffffffffffffffffffffffff\n      and\n      eq\n      iszero\n        /* \"enum.sol\":963:1013  msg.sender != chairperson || voters[toVoter].voted */\n      dup1\n      tag_54\n      jumpi\n      pop\n        /* \"enum.sol\":992:998  voters */\n      0x03\n        /* \"enum.sol\":992:1007  voters[toVoter] */\n      0x00\n        /* \"enum.sol\":999:1006  toVoter */\n      dup3\n        /* \"enum.sol\":992:1007  voters[toVoter] */\n      0xffffffffffffffffffffffffffffffffffffffff\n      and\n      0xffffffffffffffffffffffffffffffffffffffff\n      and\n      dup2\n      mstore\n      0x20\n      add\n      swap1\n      dup2\n      mstore\n      0x20\n      add\n      0x00\n      keccak256\n        /* \"enum.sol\":992:1013  voters[toVoter].voted */\n      0x01\n      add\n      0x00\n      swap1\n      sload\n      swap1\n      0x0100\n      exp\n      swap1\n      div\n      0xff\n      and\n        /* \"enum.sol\":963:1013  msg.sender != chairperson || voters[toVoter].voted */\n    tag_54:\n        /* \"enum.sol\":1015:1022  return; */\n      tag_53\n        /* \"enum.sol\":959:1022  if (msg.sender != chairperson || voters[toVoter].voted) return; */\n      jumpi\n        /* \"enum.sol\":1051:1052  1 */\n      0x01\n        /* \"enum.sol\":1026:1032  voters */\n      0x03\n        /* \"enum.sol\":1026:1041  voters[toVoter] */\n      0x00\n        /* \"enum.sol\":1033:1040  toVoter */\n      dup4\n        /* \"enum.sol\":1026:1041  voters[toVoter] */\n      0xffffffffffffffffffffffffffffffffffffffff\n      and\n      0xffffffffffffffffffffffffffffffffffffffff\n      and\n      dup2\n      mstore\n      0x20\n      add\n      swap1\n      dup2\n      mstore\n      0x20\n      add\n      0x00\n      keccak256\n        /* \"enum.sol\":1026:1048  voters[toVoter].weight */\n      0x00\n      add\n        /* \"enum.sol\":1026:1052  voters[toVoter].weight = 1 */\n      dup2\n      swap1\n      sstore\n      pop\n        /* \"enum.sol\":1081:1086  false */\n      0x00\n        /* \"enum.sol\":1057:1063  voters */\n      0x03\n        /* \"enum.sol\":1057:1072  voters[toVoter] */\n      0x00\n        /* \"enum.sol\":1064:1071  toVoter */\n      dup4\n        /* \"enum.sol\":1057:1072  voters[toVoter] */\n      0xffffffffffffffffffffffffffffffffffffffff\n      and\n      0xffffffffffffffffffffffffffffffffffffffff\n      and\n      dup2\n      mstore\n      0x20\n      add\n      swap1\n      dup2\n      mstore\n      0x20\n      add\n      0x00\n      keccak256\n        /* \"enum.sol\":1057:1078  voters[toVoter].voted */\n      0x01\n      add\n      0x00\n        /* \"enum.sol\":1057:1086  voters[toVoter].voted = false */\n      0x0100\n      exp\n      dup2\n      sload\n      dup2\n      0xff\n      mul\n      not\n      and\n      swap1\n      dup4\n      iszero\n      iszero\n      mul\n      or\n      swap1\n      sstore\n      pop\n        /* \"enum.sol\":1091:1101  VoterCount */\n      0x01\n      0x00\n        /* \"enum.sol\":1091:1104  VoterCount ++ */\n      dup2\n      sload\n      dup1\n      swap3\n      swap2\n      swap1\n      tag_56\n      swap1\n      tag_57\n      jump\t// in\n    tag_56:\n      swap2\n      swap1\n      pop\n      sstore\n      pop\n        /* \"enum.sol\":912:1110  function register(address toVoter) public {... */\n    tag_53:\n      pop\n      jump\t// out\n        /* \"enum.sol\":538:721  function addProposalDetail(uint _id, string memory _subjectProposal) public {... */\n    tag_33:\n        /* \"enum.sol\":619:636  Proposal memory b */\n      0x00\n        /* \"enum.sol\":639:673  Proposal(_id, _subjectProposal, 0) */\n      mload(0x40)\n      dup1\n      0x60\n      add\n      0x40\n      mstore\n      dup1\n        /* \"enum.sol\":648:651  _id */\n      dup5\n        /* \"enum.sol\":639:673  Proposal(_id, _subjectProposal, 0) */\n      dup2\n      mstore\n      0x20\n      add\n        /* \"enum.sol\":653:669  _subjectProposal */\n      dup4\n        /* \"enum.sol\":639:673  Proposal(_id, _subjectProposal, 0) */\n      dup2\n      mstore\n      0x20\n      add\n        /* \"enum.sol\":671:672  0 */\n      0x00\n        /* \"enum.sol\":639:673  Proposal(_id, _subjectProposal, 0) */\n      dup2\n      mstore\n      pop\n        /* \"enum.sol\":619:673  Proposal memory b = Proposal(_id, _subjectProposal, 0) */\n      swap1\n      pop\n        /* \"enum.sol\":678:687  proposals */\n      0x04\n        /* \"enum.sol\":693:694  b */\n      dup2\n        /* \"enum.sol\":678:695  proposals.push(b) */\n      swap1\n      dup1\n      0x01\n      dup2\n      sload\n      add\n      dup1\n      dup3\n      sstore\n      dup1\n      swap2\n      pop\n      pop\n      0x01\n      swap1\n      sub\n      swap1\n      0x00\n      mstore\n      keccak256(0x00, 0x20)\n      swap1\n      0x03\n      mul\n      add\n      0x00\n      swap1\n      swap2\n      swap1\n      swap2\n      swap1\n      swap2\n      pop\n      0x00\n      dup3\n      add\n      mload\n      dup2\n      0x00\n      add\n      sstore\n      0x20\n      dup3\n      add\n      mload\n      dup2\n      0x01\n      add\n      swap1\n      dup2\n      tag_60\n      swap2\n      swap1\n      tag_61\n      jump\t// in\n    tag_60:\n      pop\n      0x40\n      dup3\n      add\n      mload\n      dup2\n      0x02\n      add\n      sstore\n      pop\n      pop\n        /* \"enum.sol\":700:713  proposalCount */\n      0x00\n      0x00\n        /* \"enum.sol\":700:715  proposalCount++ */\n      dup2\n      sload\n      dup1\n      swap3\n      swap2\n      swap1\n      tag_62\n      swap1\n      tag_57\n      jump\t// in\n    tag_62:\n      swap2\n      swap1\n      pop\n      sstore\n      pop\n        /* \"enum.sol\":614:721  {... */\n      pop\n        /* \"enum.sol\":538:721  function addProposalDetail(uint _id, string memory _subjectProposal) public {... */\n      pop\n      pop\n      jump\t// out\n        /* \"enum.sol\":1431:1736  function winningProposal() public view returns (uint8 _winningProposal) {... */\n    tag_35:\n        /* \"enum.sol\":1479:1501  uint8 _winningProposal */\n      0x00\n        /* \"enum.sol\":1508:1532  uint256 winningVoteCount */\n      0x00\n        /* \"enum.sol\":1535:1536  0 */\n      0x00\n        /* \"enum.sol\":1508:1536  uint256 winningVoteCount = 0 */\n      swap1\n      pop\n        /* \"enum.sol\":1546:1556  uint8 prop */\n      0x00\n        /* \"enum.sol\":1559:1560  0 */\n      0x00\n        /* \"enum.sol\":1546:1560  uint8 prop = 0 */\n      swap1\n      pop\n        /* \"enum.sol\":1541:1731  for (uint8 prop = 0; prop < proposals.length; prop++)... */\n    tag_64:\n        /* \"enum.sol\":1569:1578  proposals */\n      0x04\n        /* \"enum.sol\":1569:1585  proposals.length */\n      dup1\n      sload\n      swap1\n      pop\n        /* \"enum.sol\":1562:1566  prop */\n      dup2\n        /* \"enum.sol\":1562:1585  prop < proposals.length */\n      0xff\n      and\n      lt\n        /* \"enum.sol\":1541:1731  for (uint8 prop = 0; prop < proposals.length; prop++)... */\n      iszero\n      tag_65\n      jumpi\n        /* \"enum.sol\":1630:1646  winningVoteCount */\n      dup2\n        /* \"enum.sol\":1602:1611  proposals */\n      0x04\n        /* \"enum.sol\":1612:1616  prop */\n      dup3\n        /* \"enum.sol\":1602:1617  proposals[prop] */\n      0xff\n      and\n      dup2\n      sload\n      dup2\n      lt\n      tag_67\n      jumpi\n      tag_68\n      tag_69\n      jump\t// in\n    tag_68:\n    tag_67:\n      swap1\n      0x00\n      mstore\n      keccak256(0x00, 0x20)\n      swap1\n      0x03\n      mul\n      add\n        /* \"enum.sol\":1602:1627  proposals[prop].voteCount */\n      0x02\n      add\n      sload\n        /* \"enum.sol\":1602:1646  proposals[prop].voteCount > winningVoteCount */\n      gt\n        /* \"enum.sol\":1598:1731  if (proposals[prop].voteCount > winningVoteCount) {... */\n      iszero\n      tag_71\n      jumpi\n        /* \"enum.sol\":1672:1681  proposals */\n      0x04\n        /* \"enum.sol\":1682:1686  prop */\n      dup2\n        /* \"enum.sol\":1672:1687  proposals[prop] */\n      0xff\n      and\n      dup2\n      sload\n      dup2\n      lt\n      tag_72\n      jumpi\n      tag_73\n      tag_69\n      jump\t// in\n    tag_73:\n    tag_72:\n      swap1\n      0x00\n      mstore\n      keccak256(0x00, 0x20)\n      swap1\n      0x03\n      mul\n      add\n        /* \"enum.sol\":1672:1697  proposals[prop].voteCount */\n      0x02\n      add\n      sload\n        /* \"enum.sol\":1653:1697  winningVoteCount = proposals[prop].voteCount */\n      swap2\n      pop\n        /* \"enum.sol\":1721:1725  prop */\n      dup1\n        /* \"enum.sol\":1702:1725  _winningProposal = prop */\n      swap3\n      pop\n        /* \"enum.sol\":1598:1731  if (proposals[prop].voteCount > winningVoteCount) {... */\n    tag_71:\n        /* \"enum.sol\":1587:1593  prop++ */\n      dup1\n      dup1\n      tag_75\n      swap1\n      tag_76\n      jump\t// in\n    tag_75:\n      swap2\n      pop\n      pop\n        /* \"enum.sol\":1541:1731  for (uint8 prop = 0; prop < proposals.length; prop++)... */\n      jump(tag_64)\n    tag_65:\n      pop\n        /* \"enum.sol\":1503:1736  {... */\n      pop\n        /* \"enum.sol\":1431:1736  function winningProposal() public view returns (uint8 _winningProposal) {... */\n      swap1\n      jump\t// out\n        /* \"enum.sol\":1167:1427  function vote(uint8 toProposal) public {... */\n    tag_41:\n        /* \"enum.sol\":1211:1231  Voter storage sender */\n      0x00\n        /* \"enum.sol\":1234:1240  voters */\n      0x03\n        /* \"enum.sol\":1234:1252  voters[msg.sender] */\n      0x00\n        /* \"enum.sol\":1241:1251  msg.sender */\n      caller\n        /* \"enum.sol\":1234:1252  voters[msg.sender] */\n      0xffffffffffffffffffffffffffffffffffffffff\n      and\n      0xffffffffffffffffffffffffffffffffffffffff\n      and\n      dup2\n      mstore\n      0x20\n      add\n      swap1\n      dup2\n      mstore\n      0x20\n      add\n      0x00\n      keccak256\n        /* \"enum.sol\":1211:1252  Voter storage sender = voters[msg.sender] */\n      swap1\n      pop\n        /* \"enum.sol\":1261:1267  sender */\n      dup1\n        /* \"enum.sol\":1261:1273  sender.voted */\n      0x01\n      add\n      0x00\n      swap1\n      sload\n      swap1\n      0x0100\n      exp\n      swap1\n      div\n      0xff\n      and\n        /* \"enum.sol\":1261:1307  sender.voted || toProposal >= proposals.length */\n      dup1\n      tag_78\n      jumpi\n      pop\n        /* \"enum.sol\":1291:1300  proposals */\n      0x04\n        /* \"enum.sol\":1291:1307  proposals.length */\n      dup1\n      sload\n      swap1\n      pop\n        /* \"enum.sol\":1277:1287  toProposal */\n      dup3\n        /* \"enum.sol\":1277:1307  toProposal >= proposals.length */\n      0xff\n      and\n      lt\n      iszero\n        /* \"enum.sol\":1261:1307  sender.voted || toProposal >= proposals.length */\n    tag_78:\n        /* \"enum.sol\":1257:1316  if (sender.voted || toProposal >= proposals.length) return; */\n      iszero\n      tag_79\n      jumpi\n        /* \"enum.sol\":1309:1316  return; */\n      pop\n      jump(tag_77)\n        /* \"enum.sol\":1257:1316  if (sender.voted || toProposal >= proposals.length) return; */\n    tag_79:\n        /* \"enum.sol\":1335:1339  true */\n      0x01\n        /* \"enum.sol\":1320:1326  sender */\n      dup2\n        /* \"enum.sol\":1320:1332  sender.voted */\n      0x01\n      add\n      0x00\n        /* \"enum.sol\":1320:1339  sender.voted = true */\n      0x0100\n      exp\n      dup2\n      sload\n      dup2\n      0xff\n      mul\n      not\n      and\n      swap1\n      dup4\n      iszero\n      iszero\n      mul\n      or\n      swap1\n      sstore\n      pop\n        /* \"enum.sol\":1358:1368  toProposal */\n      dup2\n        /* \"enum.sol\":1344:1350  sender */\n      dup2\n        /* \"enum.sol\":1344:1355  sender.vote */\n      0x01\n      add\n      0x01\n        /* \"enum.sol\":1344:1368  sender.vote = toProposal */\n      0x0100\n      exp\n      dup2\n      sload\n      dup2\n      0xff\n      mul\n      not\n      and\n      swap1\n      dup4\n      0xff\n      and\n      mul\n      or\n      swap1\n      sstore\n      pop\n        /* \"enum.sol\":1408:1414  sender */\n      dup1\n        /* \"enum.sol\":1408:1421  sender.weight */\n      0x00\n      add\n      sload\n        /* \"enum.sol\":1373:1382  proposals */\n      0x04\n        /* \"enum.sol\":1383:1393  toProposal */\n      dup4\n        /* \"enum.sol\":1373:1394  proposals[toProposal] */\n      0xff\n      and\n      dup2\n      sload\n      dup2\n      lt\n      tag_80\n      jumpi\n      tag_81\n      tag_69\n      jump\t// in\n    tag_81:\n    tag_80:\n      swap1\n      0x00\n      mstore\n      keccak256(0x00, 0x20)\n      swap1\n      0x03\n      mul\n      add\n        /* \"enum.sol\":1373:1404  proposals[toProposal].voteCount */\n      0x02\n      add\n      0x00\n        /* \"enum.sol\":1373:1421  proposals[toProposal].voteCount += sender.weight */\n      dup3\n      dup3\n      sload\n      tag_83\n      swap2\n      swap1\n      tag_84\n      jump\t// in\n    tag_83:\n      swap3\n      pop\n      pop\n      dup2\n      swap1\n      sstore\n      pop\n        /* \"enum.sol\":1206:1427  {... */\n      pop\n        /* \"enum.sol\":1167:1427  function vote(uint8 toProposal) public {... */\n    tag_77:\n      pop\n      jump\t// out\n        /* \"enum.sol\":233:260  uint public proposalCount=0 */\n    tag_43:\n      sload(0x00)\n      dup2\n      jump\t// out\n        /* \"#utility.yul\":7:82   */\n    tag_85:\n        /* \"#utility.yul\":40:46   */\n      0x00\n        /* \"#utility.yul\":73:75   */\n      0x40\n        /* \"#utility.yul\":67:76   */\n      mload\n        /* \"#utility.yul\":57:76   */\n      swap1\n      pop\n        /* \"#utility.yul\":7:82   */\n      swap1\n      jump\t// out\n        /* \"#utility.yul\":88:205   */\n    tag_86:\n        /* \"#utility.yul\":197:198   */\n      0x00\n        /* \"#utility.yul\":194:195   */\n      0x00\n        /* \"#utility.yul\":187:199   */\n      revert\n        /* \"#utility.yul\":211:328   */\n    tag_87:\n        /* \"#utility.yul\":320:321   */\n      0x00\n        /* \"#utility.yul\":317:318   */\n      0x00\n        /* \"#utility.yul\":310:322   */\n      revert\n        /* \"#utility.yul\":334:411   */\n    tag_88:\n        /* \"#utility.yul\":371:378   */\n      0x00\n        /* \"#utility.yul\":400:405   */\n      dup2\n        /* \"#utility.yul\":389:405   */\n      swap1\n      pop\n        /* \"#utility.yul\":334:411   */\n      swap2\n      swap1\n      pop\n      jump\t// out\n        /* \"#utility.yul\":417:539   */\n    tag_89:\n        /* \"#utility.yul\":490:514   */\n      tag_138\n        /* \"#utility.yul\":508:513   */\n      dup2\n        /* \"#utility.yul\":490:514   */\n      tag_88\n      jump\t// in\n    tag_138:\n        /* \"#utility.yul\":483:488   */\n      dup2\n        /* \"#utility.yul\":480:515   */\n      eq\n        /* \"#utility.yul\":470:533   */\n      tag_139\n      jumpi\n        /* \"#utility.yul\":529:530   */\n      0x00\n        /* \"#utility.yul\":526:527   */\n      0x00\n        /* \"#utility.yul\":519:531   */\n      revert\n        /* \"#utility.yul\":470:533   */\n    tag_139:\n        /* \"#utility.yul\":417:539   */\n      pop\n      jump\t// out\n        /* \"#utility.yul\":545:684   */\n    tag_90:\n        /* \"#utility.yul\":591:596   */\n      0x00\n        /* \"#utility.yul\":629:635   */\n      dup2\n        /* \"#utility.yul\":616:636   */\n      calldataload\n        /* \"#utility.yul\":607:636   */\n      swap1\n      pop\n        /* \"#utility.yul\":645:678   */\n      tag_141\n        /* \"#utility.yul\":672:677   */\n      dup2\n        /* \"#utility.yul\":645:678   */\n      tag_89\n      jump\t// in\n    tag_141:\n        /* \"#utility.yul\":545:684   */\n      swap3\n      swap2\n      pop\n      pop\n      jump\t// out\n        /* \"#utility.yul\":690:1019   */\n    tag_14:\n        /* \"#utility.yul\":749:755   */\n      0x00\n        /* \"#utility.yul\":798:800   */\n      0x20\n        /* \"#utility.yul\":786:795   */\n      dup3\n        /* \"#utility.yul\":777:784   */\n      dup5\n        /* \"#utility.yul\":773:796   */\n      sub\n        /* \"#utility.yul\":769:801   */\n      slt\n        /* \"#utility.yul\":766:885   */\n      iszero\n      tag_143\n      jumpi\n        /* \"#utility.yul\":804:883   */\n      tag_144\n      tag_86\n      jump\t// in\n    tag_144:\n        /* \"#utility.yul\":766:885   */\n    tag_143:\n        /* \"#utility.yul\":924:925   */\n      0x00\n        /* \"#utility.yul\":949:1002   */\n      tag_145\n        /* \"#utility.yul\":994:1001   */\n      dup5\n        /* \"#utility.yul\":985:991   */\n      dup3\n        /* \"#utility.yul\":974:983   */\n      dup6\n        /* \"#utility.yul\":970:992   */\n      add\n        /* \"#utility.yul\":949:1002   */\n      tag_90\n      jump\t// in\n    tag_145:\n        /* \"#utility.yul\":939:1002   */\n      swap2\n      pop\n        /* \"#utility.yul\":895:1012   */\n      pop\n        /* \"#utility.yul\":690:1019   */\n      swap3\n      swap2\n      pop\n      pop\n      jump\t// out\n        /* \"#utility.yul\":1025:1143   */\n    tag_91:\n        /* \"#utility.yul\":1112:1136   */\n      tag_147\n        /* \"#utility.yul\":1130:1135   */\n      dup2\n        /* \"#utility.yul\":1112:1136   */\n      tag_88\n      jump\t// in\n    tag_147:\n        /* \"#utility.yul\":1107:1110   */\n      dup3\n        /* \"#utility.yul\":1100:1137   */\n      mstore\n        /* \"#utility.yul\":1025:1143   */\n      pop\n      pop\n      jump\t// out\n        /* \"#utility.yul\":1149:1248   */\n    tag_92:\n        /* \"#utility.yul\":1201:1207   */\n      0x00\n        /* \"#utility.yul\":1235:1240   */\n      dup2\n        /* \"#utility.yul\":1229:1241   */\n      mload\n        /* \"#utility.yul\":1219:1241   */\n      swap1\n      pop\n        /* \"#utility.yul\":1149:1248   */\n      swap2\n      swap1\n      pop\n      jump\t// out\n        /* \"#utility.yul\":1254:1423   */\n    tag_93:\n        /* \"#utility.yul\":1338:1349   */\n      0x00\n        /* \"#utility.yul\":1372:1378   */\n      dup3\n        /* \"#utility.yul\":1367:1370   */\n      dup3\n        /* \"#utility.yul\":1360:1379   */\n      mstore\n        /* \"#utility.yul\":1412:1416   */\n      0x20\n        /* \"#utility.yul\":1407:1410   */\n      dup3\n        /* \"#utility.yul\":1403:1417   */\n      add\n        /* \"#utility.yul\":1388:1417   */\n      swap1\n      pop\n        /* \"#utility.yul\":1254:1423   */\n      swap3\n      swap2\n      pop\n      pop\n      jump\t// out\n        /* \"#utility.yul\":1429:1568   */\n    tag_94:\n        /* \"#utility.yul\":1518:1524   */\n      dup3\n        /* \"#utility.yul\":1513:1516   */\n      dup2\n        /* \"#utility.yul\":1508:1511   */\n      dup4\n        /* \"#utility.yul\":1502:1525   */\n      mcopy\n        /* \"#utility.yul\":1559:1560   */\n      0x00\n        /* \"#utility.yul\":1550:1556   */\n      dup4\n        /* \"#utility.yul\":1545:1548   */\n      dup4\n        /* \"#utility.yul\":1541:1557   */\n      add\n        /* \"#utility.yul\":1534:1561   */\n      mstore\n        /* \"#utility.yul\":1429:1568   */\n      pop\n      pop\n      pop\n      jump\t// out\n        /* \"#utility.yul\":1574:1676   */\n    tag_95:\n        /* \"#utility.yul\":1615:1621   */\n      0x00\n        /* \"#utility.yul\":1666:1668   */\n      0x1f\n        /* \"#utility.yul\":1662:1669   */\n      not\n        /* \"#utility.yul\":1657:1659   */\n      0x1f\n        /* \"#utility.yul\":1650:1655   */\n      dup4\n        /* \"#utility.yul\":1646:1660   */\n      add\n        /* \"#utility.yul\":1642:1670   */\n      and\n        /* \"#utility.yul\":1632:1670   */\n      swap1\n      pop\n        /* \"#utility.yul\":1574:1676   */\n      swap2\n      swap1\n      pop\n      jump\t// out\n        /* \"#utility.yul\":1682:2059   */\n    tag_96:\n        /* \"#utility.yul\":1770:1773   */\n      0x00\n        /* \"#utility.yul\":1798:1837   */\n      tag_153\n        /* \"#utility.yul\":1831:1836   */\n      dup3\n        /* \"#utility.yul\":1798:1837   */\n      tag_92\n      jump\t// in\n    tag_153:\n        /* \"#utility.yul\":1853:1924   */\n      tag_154\n        /* \"#utility.yul\":1917:1923   */\n      dup2\n        /* \"#utility.yul\":1912:1915   */\n      dup6\n        /* \"#utility.yul\":1853:1924   */\n      tag_93\n      jump\t// in\n    tag_154:\n        /* \"#utility.yul\":1846:1924   */\n      swap4\n      pop\n        /* \"#utility.yul\":1933:1998   */\n      tag_155\n        /* \"#utility.yul\":1991:1997   */\n      dup2\n        /* \"#utility.yul\":1986:1989   */\n      dup6\n        /* \"#utility.yul\":1979:1983   */\n      0x20\n        /* \"#utility.yul\":1972:1977   */\n      dup7\n        /* \"#utility.yul\":1968:1984   */\n      add\n        /* \"#utility.yul\":1933:1998   */\n      tag_94\n      jump\t// in\n    tag_155:\n        /* \"#utility.yul\":2023:2052   */\n      tag_156\n        /* \"#utility.yul\":2045:2051   */\n      dup2\n        /* \"#utility.yul\":2023:2052   */\n      tag_95\n      jump\t// in\n    tag_156:\n        /* \"#utility.yul\":2018:2021   */\n      dup5\n        /* \"#utility.yul\":2014:2053   */\n      add\n        /* \"#utility.yul\":2007:2053   */\n      swap2\n      pop\n        /* \"#utility.yul\":1774:2059   */\n      pop\n        /* \"#utility.yul\":1682:2059   */\n      swap3\n      swap2\n      pop\n      pop\n      jump\t// out\n        /* \"#utility.yul\":2065:2598   */\n    tag_17:\n        /* \"#utility.yul\":2234:2238   */\n      0x00\n        /* \"#utility.yul\":2272:2274   */\n      0x60\n        /* \"#utility.yul\":2261:2270   */\n      dup3\n        /* \"#utility.yul\":2257:2275   */\n      add\n        /* \"#utility.yul\":2249:2275   */\n      swap1\n      pop\n        /* \"#utility.yul\":2285:2356   */\n      tag_158\n        /* \"#utility.yul\":2353:2354   */\n      0x00\n        /* \"#utility.yul\":2342:2351   */\n      dup4\n        /* \"#utility.yul\":2338:2355   */\n      add\n        /* \"#utility.yul\":2329:2335   */\n      dup7\n        /* \"#utility.yul\":2285:2356   */\n      tag_91\n      jump\t// in\n    tag_158:\n        /* \"#utility.yul\":2403:2412   */\n      dup2\n        /* \"#utility.yul\":2397:2401   */\n      dup2\n        /* \"#utility.yul\":2393:2413   */\n      sub\n        /* \"#utility.yul\":2388:2390   */\n      0x20\n        /* \"#utility.yul\":2377:2386   */\n      dup4\n        /* \"#utility.yul\":2373:2391   */\n      add\n        /* \"#utility.yul\":2366:2414   */\n      mstore\n        /* \"#utility.yul\":2431:2509   */\n      tag_159\n        /* \"#utility.yul\":2504:2508   */\n      dup2\n        /* \"#utility.yul\":2495:2501   */\n      dup6\n        /* \"#utility.yul\":2431:2509   */\n      tag_96\n      jump\t// in\n    tag_159:\n        /* \"#utility.yul\":2423:2509   */\n      swap1\n      pop\n        /* \"#utility.yul\":2519:2591   */\n      tag_160\n        /* \"#utility.yul\":2587:2589   */\n      0x40\n        /* \"#utility.yul\":2576:2585   */\n      dup4\n        /* \"#utility.yul\":2572:2590   */\n      add\n        /* \"#utility.yul\":2563:2569   */\n      dup5\n        /* \"#utility.yul\":2519:2591   */\n      tag_91\n      jump\t// in\n    tag_160:\n        /* \"#utility.yul\":2065:2598   */\n      swap5\n      swap4\n      pop\n      pop\n      pop\n      pop\n      jump\t// out\n        /* \"#utility.yul\":2604:2730   */\n    tag_97:\n        /* \"#utility.yul\":2641:2648   */\n      0x00\n        /* \"#utility.yul\":2681:2723   */\n      0xffffffffffffffffffffffffffffffffffffffff\n        /* \"#utility.yul\":2674:2679   */\n      dup3\n        /* \"#utility.yul\":2670:2724   */\n      and\n        /* \"#utility.yul\":2659:2724   */\n      swap1\n      pop\n        /* \"#utility.yul\":2604:2730   */\n      swap2\n      swap1\n      pop\n      jump\t// out\n        /* \"#utility.yul\":2736:2832   */\n    tag_98:\n        /* \"#utility.yul\":2773:2780   */\n      0x00\n        /* \"#utility.yul\":2802:2826   */\n      tag_163\n        /* \"#utility.yul\":2820:2825   */\n      dup3\n        /* \"#utility.yul\":2802:2826   */\n      tag_97\n      jump\t// in\n    tag_163:\n        /* \"#utility.yul\":2791:2826   */\n      swap1\n      pop\n        /* \"#utility.yul\":2736:2832   */\n      swap2\n      swap1\n      pop\n      jump\t// out\n        /* \"#utility.yul\":2838:2956   */\n    tag_99:\n        /* \"#utility.yul\":2925:2949   */\n      tag_165\n        /* \"#utility.yul\":2943:2948   */\n      dup2\n        /* \"#utility.yul\":2925:2949   */\n      tag_98\n      jump\t// in\n    tag_165:\n        /* \"#utility.yul\":2920:2923   */\n      dup3\n        /* \"#utility.yul\":2913:2950   */\n      mstore\n        /* \"#utility.yul\":2838:2956   */\n      pop\n      pop\n      jump\t// out\n        /* \"#utility.yul\":2962:3184   */\n    tag_21:\n        /* \"#utility.yul\":3055:3059   */\n      0x00\n        /* \"#utility.yul\":3093:3095   */\n      0x20\n        /* \"#utility.yul\":3082:3091   */\n      dup3\n        /* \"#utility.yul\":3078:3096   */\n      add\n        /* \"#utility.yul\":3070:3096   */\n      swap1\n      pop\n        /* \"#utility.yul\":3106:3177   */\n      tag_167\n        /* \"#utility.yul\":3174:3175   */\n      0x00\n        /* \"#utility.yul\":3163:3172   */\n      dup4\n        /* \"#utility.yul\":3159:3176   */\n      add\n        /* \"#utility.yul\":3150:3156   */\n      dup5\n        /* \"#utility.yul\":3106:3177   */\n      tag_99\n      jump\t// in\n    tag_167:\n        /* \"#utility.yul\":2962:3184   */\n      swap3\n      swap2\n      pop\n      pop\n      jump\t// out\n        /* \"#utility.yul\":3190:3412   */\n    tag_25:\n        /* \"#utility.yul\":3283:3287   */\n      0x00\n        /* \"#utility.yul\":3321:3323   */\n      0x20\n        /* \"#utility.yul\":3310:3319   */\n      dup3\n        /* \"#utility.yul\":3306:3324   */\n      add\n        /* \"#utility.yul\":3298:3324   */\n      swap1\n      pop\n        /* \"#utility.yul\":3334:3405   */\n      tag_169\n        /* \"#utility.yul\":3402:3403   */\n      0x00\n        /* \"#utility.yul\":3391:3400   */\n      dup4\n        /* \"#utility.yul\":3387:3404   */\n      add\n        /* \"#utility.yul\":3378:3384   */\n      dup5\n        /* \"#utility.yul\":3334:3405   */\n      tag_91\n      jump\t// in\n    tag_169:\n        /* \"#utility.yul\":3190:3412   */\n      swap3\n      swap2\n      pop\n      pop\n      jump\t// out\n        /* \"#utility.yul\":3418:3540   */\n    tag_100:\n        /* \"#utility.yul\":3491:3515   */\n      tag_171\n        /* \"#utility.yul\":3509:3514   */\n      dup2\n        /* \"#utility.yul\":3491:3515   */\n      tag_98\n      jump\t// in\n    tag_171:\n        /* \"#utility.yul\":3484:3489   */\n      dup2\n        /* \"#utility.yul\":3481:3516   */\n      eq\n        /* \"#utility.yul\":3471:3534   */\n      tag_172\n      jumpi\n        /* \"#utility.yul\":3530:3531   */\n      0x00\n        /* \"#utility.yul\":3527:3528   */\n      0x00\n        /* \"#utility.yul\":3520:3532   */\n      revert\n        /* \"#utility.yul\":3471:3534   */\n    tag_172:\n        /* \"#utility.yul\":3418:3540   */\n      pop\n      jump\t// out\n        /* \"#utility.yul\":3546:3685   */\n    tag_101:\n        /* \"#utility.yul\":3592:3597   */\n      0x00\n        /* \"#utility.yul\":3630:3636   */\n      dup2\n        /* \"#utility.yul\":3617:3637   */\n      calldataload\n        /* \"#utility.yul\":3608:3637   */\n      swap1\n      pop\n        /* \"#utility.yul\":3646:3679   */\n      tag_174\n        /* \"#utility.yul\":3673:3678   */\n      dup2\n        /* \"#utility.yul\":3646:3679   */\n      tag_100\n      jump\t// in\n    tag_174:\n        /* \"#utility.yul\":3546:3685   */\n      swap3\n      swap2\n      pop\n      pop\n      jump\t// out\n        /* \"#utility.yul\":3691:4020   */\n    tag_28:\n        /* \"#utility.yul\":3750:3756   */\n      0x00\n        /* \"#utility.yul\":3799:3801   */\n      0x20\n        /* \"#utility.yul\":3787:3796   */\n      dup3\n        /* \"#utility.yul\":3778:3785   */\n      dup5\n        /* \"#utility.yul\":3774:3797   */\n      sub\n        /* \"#utility.yul\":3770:3802   */\n      slt\n        /* \"#utility.yul\":3767:3886   */\n      iszero\n      tag_176\n      jumpi\n        /* \"#utility.yul\":3805:3884   */\n      tag_177\n      tag_86\n      jump\t// in\n    tag_177:\n        /* \"#utility.yul\":3767:3886   */\n    tag_176:\n        /* \"#utility.yul\":3925:3926   */\n      0x00\n        /* \"#utility.yul\":3950:4003   */\n      tag_178\n        /* \"#utility.yul\":3995:4002   */\n      dup5\n        /* \"#utility.yul\":3986:3992   */\n      dup3\n        /* \"#utility.yul\":3975:3984   */\n      dup6\n        /* \"#utility.yul\":3971:3993   */\n      add\n        /* \"#utility.yul\":3950:4003   */\n      tag_101\n      jump\t// in\n    tag_178:\n        /* \"#utility.yul\":3940:4003   */\n      swap2\n      pop\n        /* \"#utility.yul\":3896:4013   */\n      pop\n        /* \"#utility.yul\":3691:4020   */\n      swap3\n      swap2\n      pop\n      pop\n      jump\t// out\n        /* \"#utility.yul\":4026:4143   */\n    tag_102:\n        /* \"#utility.yul\":4135:4136   */\n      0x00\n        /* \"#utility.yul\":4132:4133   */\n      0x00\n        /* \"#utility.yul\":4125:4137   */\n      revert\n        /* \"#utility.yul\":4149:4266   */\n    tag_103:\n        /* \"#utility.yul\":4258:4259   */\n      0x00\n        /* \"#utility.yul\":4255:4256   */\n      0x00\n        /* \"#utility.yul\":4248:4260   */\n      revert\n        /* \"#utility.yul\":4272:4452   */\n    tag_104:\n        /* \"#utility.yul\":4320:4397   */\n      0x4e487b7100000000000000000000000000000000000000000000000000000000\n        /* \"#utility.yul\":4317:4318   */\n      0x00\n        /* \"#utility.yul\":4310:4398   */\n      mstore\n        /* \"#utility.yul\":4417:4421   */\n      0x41\n        /* \"#utility.yul\":4414:4415   */\n      0x04\n        /* \"#utility.yul\":4407:4422   */\n      mstore\n        /* \"#utility.yul\":4441:4445   */\n      0x24\n        /* \"#utility.yul\":4438:4439   */\n      0x00\n        /* \"#utility.yul\":4431:4446   */\n      revert\n        /* \"#utility.yul\":4458:4739   */\n    tag_105:\n        /* \"#utility.yul\":4541:4568   */\n      tag_183\n        /* \"#utility.yul\":4563:4567   */\n      dup3\n        /* \"#utility.yul\":4541:4568   */\n      tag_95\n      jump\t// in\n    tag_183:\n        /* \"#utility.yul\":4533:4539   */\n      dup2\n        /* \"#utility.yul\":4529:4569   */\n      add\n        /* \"#utility.yul\":4671:4677   */\n      dup2\n        /* \"#utility.yul\":4659:4669   */\n      dup2\n        /* \"#utility.yul\":4656:4678   */\n      lt\n        /* \"#utility.yul\":4635:4653   */\n      0xffffffffffffffff\n        /* \"#utility.yul\":4623:4633   */\n      dup3\n        /* \"#utility.yul\":4620:4654   */\n      gt\n        /* \"#utility.yul\":4617:4679   */\n      or\n        /* \"#utility.yul\":4614:4702   */\n      iszero\n      tag_184\n      jumpi\n        /* \"#utility.yul\":4682:4700   */\n      tag_185\n      tag_104\n      jump\t// in\n    tag_185:\n        /* \"#utility.yul\":4614:4702   */\n    tag_184:\n        /* \"#utility.yul\":4722:4732   */\n      dup1\n        /* \"#utility.yul\":4718:4720   */\n      0x40\n        /* \"#utility.yul\":4711:4733   */\n      mstore\n        /* \"#utility.yul\":4501:4739   */\n      pop\n        /* \"#utility.yul\":4458:4739   */\n      pop\n      pop\n      jump\t// out\n        /* \"#utility.yul\":4745:4874   */\n    tag_106:\n        /* \"#utility.yul\":4779:4785   */\n      0x00\n        /* \"#utility.yul\":4806:4826   */\n      tag_187\n      tag_85\n      jump\t// in\n    tag_187:\n        /* \"#utility.yul\":4796:4826   */\n      swap1\n      pop\n        /* \"#utility.yul\":4835:4868   */\n      tag_188\n        /* \"#utility.yul\":4863:4867   */\n      dup3\n        /* \"#utility.yul\":4855:4861   */\n      dup3\n        /* \"#utility.yul\":4835:4868   */\n      tag_105\n      jump\t// in\n    tag_188:\n        /* \"#utility.yul\":4745:4874   */\n      swap2\n      swap1\n      pop\n      jump\t// out\n        /* \"#utility.yul\":4880:5188   */\n    tag_107:\n        /* \"#utility.yul\":4942:4946   */\n      0x00\n        /* \"#utility.yul\":5032:5050   */\n      0xffffffffffffffff\n        /* \"#utility.yul\":5024:5030   */\n      dup3\n        /* \"#utility.yul\":5021:5051   */\n      gt\n        /* \"#utility.yul\":5018:5074   */\n      iszero\n      tag_190\n      jumpi\n        /* \"#utility.yul\":5054:5072   */\n      tag_191\n      tag_104\n      jump\t// in\n    tag_191:\n        /* \"#utility.yul\":5018:5074   */\n    tag_190:\n        /* \"#utility.yul\":5092:5121   */\n      tag_192\n        /* \"#utility.yul\":5114:5120   */\n      dup3\n        /* \"#utility.yul\":5092:5121   */\n      tag_95\n      jump\t// in\n    tag_192:\n        /* \"#utility.yul\":5084:5121   */\n      swap1\n      pop\n        /* \"#utility.yul\":5176:5180   */\n      0x20\n        /* \"#utility.yul\":5170:5174   */\n      dup2\n        /* \"#utility.yul\":5166:5181   */\n      add\n        /* \"#utility.yul\":5158:5181   */\n      swap1\n      pop\n        /* \"#utility.yul\":4880:5188   */\n      swap2\n      swap1\n      pop\n      jump\t// out\n        /* \"#utility.yul\":5194:5342   */\n    tag_108:\n        /* \"#utility.yul\":5292:5298   */\n      dup3\n        /* \"#utility.yul\":5287:5290   */\n      dup2\n        /* \"#utility.yul\":5282:5285   */\n      dup4\n        /* \"#utility.yul\":5269:5299   */\n      calldatacopy\n        /* \"#utility.yul\":5333:5334   */\n      0x00\n        /* \"#utility.yul\":5324:5330   */\n      dup4\n        /* \"#utility.yul\":5319:5322   */\n      dup4\n        /* \"#utility.yul\":5315:5331   */\n      add\n        /* \"#utility.yul\":5308:5335   */\n      mstore\n        /* \"#utility.yul\":5194:5342   */\n      pop\n      pop\n      pop\n      jump\t// out\n        /* \"#utility.yul\":5348:5773   */\n    tag_109:\n        /* \"#utility.yul\":5426:5431   */\n      0x00\n        /* \"#utility.yul\":5451:5517   */\n      tag_195\n        /* \"#utility.yul\":5467:5516   */\n      tag_196\n        /* \"#utility.yul\":5509:5515   */\n      dup5\n        /* \"#utility.yul\":5467:5516   */\n      tag_107\n      jump\t// in\n    tag_196:\n        /* \"#utility.yul\":5451:5517   */\n      tag_106\n      jump\t// in\n    tag_195:\n        /* \"#utility.yul\":5442:5517   */\n      swap1\n      pop\n        /* \"#utility.yul\":5540:5546   */\n      dup3\n        /* \"#utility.yul\":5533:5538   */\n      dup2\n        /* \"#utility.yul\":5526:5547   */\n      mstore\n        /* \"#utility.yul\":5578:5582   */\n      0x20\n        /* \"#utility.yul\":5571:5576   */\n      dup2\n        /* \"#utility.yul\":5567:5583   */\n      add\n        /* \"#utility.yul\":5616:5619   */\n      dup5\n        /* \"#utility.yul\":5607:5613   */\n      dup5\n        /* \"#utility.yul\":5602:5605   */\n      dup5\n        /* \"#utility.yul\":5598:5614   */\n      add\n        /* \"#utility.yul\":5595:5620   */\n      gt\n        /* \"#utility.yul\":5592:5704   */\n      iszero\n      tag_197\n      jumpi\n        /* \"#utility.yul\":5623:5702   */\n      tag_198\n      tag_103\n      jump\t// in\n    tag_198:\n        /* \"#utility.yul\":5592:5704   */\n    tag_197:\n        /* \"#utility.yul\":5713:5767   */\n      tag_199\n        /* \"#utility.yul\":5760:5766   */\n      dup5\n        /* \"#utility.yul\":5755:5758   */\n      dup3\n        /* \"#utility.yul\":5750:5753   */\n      dup6\n        /* \"#utility.yul\":5713:5767   */\n      tag_108\n      jump\t// in\n    tag_199:\n        /* \"#utility.yul\":5432:5773   */\n      pop\n        /* \"#utility.yul\":5348:5773   */\n      swap4\n      swap3\n      pop\n      pop\n      pop\n      jump\t// out\n        /* \"#utility.yul\":5793:6133   */\n    tag_110:\n        /* \"#utility.yul\":5849:5854   */\n      0x00\n        /* \"#utility.yul\":5898:5901   */\n      dup3\n        /* \"#utility.yul\":5891:5895   */\n      0x1f\n        /* \"#utility.yul\":5883:5889   */\n      dup4\n        /* \"#utility.yul\":5879:5896   */\n      add\n        /* \"#utility.yul\":5875:5902   */\n      slt\n        /* \"#utility.yul\":5865:5987   */\n      tag_201\n      jumpi\n        /* \"#utility.yul\":5906:5985   */\n      tag_202\n      tag_102\n      jump\t// in\n    tag_202:\n        /* \"#utility.yul\":5865:5987   */\n    tag_201:\n        /* \"#utility.yul\":6023:6029   */\n      dup2\n        /* \"#utility.yul\":6010:6030   */\n      calldataload\n        /* \"#utility.yul\":6048:6127   */\n      tag_203\n        /* \"#utility.yul\":6123:6126   */\n      dup5\n        /* \"#utility.yul\":6115:6121   */\n      dup3\n        /* \"#utility.yul\":6108:6112   */\n      0x20\n        /* \"#utility.yul\":6100:6106   */\n      dup7\n        /* \"#utility.yul\":6096:6113   */\n      add\n        /* \"#utility.yul\":6048:6127   */\n      tag_109\n      jump\t// in\n    tag_203:\n        /* \"#utility.yul\":6039:6127   */\n      swap2\n      pop\n        /* \"#utility.yul\":5855:6133   */\n      pop\n        /* \"#utility.yul\":5793:6133   */\n      swap3\n      swap2\n      pop\n      pop\n      jump\t// out\n        /* \"#utility.yul\":6139:6793   */\n    tag_32:\n        /* \"#utility.yul\":6217:6223   */\n      0x00\n        /* \"#utility.yul\":6225:6231   */\n      0x00\n        /* \"#utility.yul\":6274:6276   */\n      0x40\n        /* \"#utility.yul\":6262:6271   */\n      dup4\n        /* \"#utility.yul\":6253:6260   */\n      dup6\n        /* \"#utility.yul\":6249:6272   */\n      sub\n        /* \"#utility.yul\":6245:6277   */\n      slt\n        /* \"#utility.yul\":6242:6361   */\n      iszero\n      tag_205\n      jumpi\n        /* \"#utility.yul\":6280:6359   */\n      tag_206\n      tag_86\n      jump\t// in\n    tag_206:\n        /* \"#utility.yul\":6242:6361   */\n    tag_205:\n        /* \"#utility.yul\":6400:6401   */\n      0x00\n        /* \"#utility.yul\":6425:6478   */\n      tag_207\n        /* \"#utility.yul\":6470:6477   */\n      dup6\n        /* \"#utility.yul\":6461:6467   */\n      dup3\n        /* \"#utility.yul\":6450:6459   */\n      dup7\n        /* \"#utility.yul\":6446:6468   */\n      add\n        /* \"#utility.yul\":6425:6478   */\n      tag_90\n      jump\t// in\n    tag_207:\n        /* \"#utility.yul\":6415:6478   */\n      swap3\n      pop\n        /* \"#utility.yul\":6371:6488   */\n      pop\n        /* \"#utility.yul\":6555:6557   */\n      0x20\n        /* \"#utility.yul\":6544:6553   */\n      dup4\n        /* \"#utility.yul\":6540:6558   */\n      add\n        /* \"#utility.yul\":6527:6559   */\n      calldataload\n        /* \"#utility.yul\":6586:6604   */\n      0xffffffffffffffff\n        /* \"#utility.yul\":6578:6584   */\n      dup2\n        /* \"#utility.yul\":6575:6605   */\n      gt\n        /* \"#utility.yul\":6572:6689   */\n      iszero\n      tag_208\n      jumpi\n        /* \"#utility.yul\":6608:6687   */\n      tag_209\n      tag_87\n      jump\t// in\n    tag_209:\n        /* \"#utility.yul\":6572:6689   */\n    tag_208:\n        /* \"#utility.yul\":6713:6776   */\n      tag_210\n        /* \"#utility.yul\":6768:6775   */\n      dup6\n        /* \"#utility.yul\":6759:6765   */\n      dup3\n        /* \"#utility.yul\":6748:6757   */\n      dup7\n        /* \"#utility.yul\":6744:6766   */\n      add\n        /* \"#utility.yul\":6713:6776   */\n      tag_110\n      jump\t// in\n    tag_210:\n        /* \"#utility.yul\":6703:6776   */\n      swap2\n      pop\n        /* \"#utility.yul\":6498:6786   */\n      pop\n        /* \"#utility.yul\":6139:6793   */\n      swap3\n      pop\n      swap3\n      swap1\n      pop\n      jump\t// out\n        /* \"#utility.yul\":6799:6885   */\n    tag_111:\n        /* \"#utility.yul\":6834:6841   */\n      0x00\n        /* \"#utility.yul\":6874:6878   */\n      0xff\n        /* \"#utility.yul\":6867:6872   */\n      dup3\n        /* \"#utility.yul\":6863:6879   */\n      and\n        /* \"#utility.yul\":6852:6879   */\n      swap1\n      pop\n        /* \"#utility.yul\":6799:6885   */\n      swap2\n      swap1\n      pop\n      jump\t// out\n        /* \"#utility.yul\":6891:7003   */\n    tag_112:\n        /* \"#utility.yul\":6974:6996   */\n      tag_213\n        /* \"#utility.yul\":6990:6995   */\n      dup2\n        /* \"#utility.yul\":6974:6996   */\n      tag_111\n      jump\t// in\n    tag_213:\n        /* \"#utility.yul\":6969:6972   */\n      dup3\n        /* \"#utility.yul\":6962:6997   */\n      mstore\n        /* \"#utility.yul\":6891:7003   */\n      pop\n      pop\n      jump\t// out\n        /* \"#utility.yul\":7009:7223   */\n    tag_37:\n        /* \"#utility.yul\":7098:7102   */\n      0x00\n        /* \"#utility.yul\":7136:7138   */\n      0x20\n        /* \"#utility.yul\":7125:7134   */\n      dup3\n        /* \"#utility.yul\":7121:7139   */\n      add\n        /* \"#utility.yul\":7113:7139   */\n      swap1\n      pop\n        /* \"#utility.yul\":7149:7216   */\n      tag_215\n        /* \"#utility.yul\":7213:7214   */\n      0x00\n        /* \"#utility.yul\":7202:7211   */\n      dup4\n        /* \"#utility.yul\":7198:7215   */\n      add\n        /* \"#utility.yul\":7189:7195   */\n      dup5\n        /* \"#utility.yul\":7149:7216   */\n      tag_112\n      jump\t// in\n    tag_215:\n        /* \"#utility.yul\":7009:7223   */\n      swap3\n      swap2\n      pop\n      pop\n      jump\t// out\n        /* \"#utility.yul\":7229:7347   */\n    tag_113:\n        /* \"#utility.yul\":7300:7322   */\n      tag_217\n        /* \"#utility.yul\":7316:7321   */\n      dup2\n        /* \"#utility.yul\":7300:7322   */\n      tag_111\n      jump\t// in\n    tag_217:\n        /* \"#utility.yul\":7293:7298   */\n      dup2\n        /* \"#utility.yul\":7290:7323   */\n      eq\n        /* \"#utility.yul\":7280:7341   */\n      tag_218\n      jumpi\n        /* \"#utility.yul\":7337:7338   */\n      0x00\n        /* \"#utility.yul\":7334:7335   */\n      0x00\n        /* \"#utility.yul\":7327:7339   */\n      revert\n        /* \"#utility.yul\":7280:7341   */\n    tag_218:\n        /* \"#utility.yul\":7229:7347   */\n      pop\n      jump\t// out\n        /* \"#utility.yul\":7353:7488   */\n    tag_114:\n        /* \"#utility.yul\":7397:7402   */\n      0x00\n        /* \"#utility.yul\":7435:7441   */\n      dup2\n        /* \"#utility.yul\":7422:7442   */\n      calldataload\n        /* \"#utility.yul\":7413:7442   */\n      swap1\n      pop\n        /* \"#utility.yul\":7451:7482   */\n      tag_220\n        /* \"#utility.yul\":7476:7481   */\n      dup2\n        /* \"#utility.yul\":7451:7482   */\n      tag_113\n      jump\t// in\n    tag_220:\n        /* \"#utility.yul\":7353:7488   */\n      swap3\n      swap2\n      pop\n      pop\n      jump\t// out\n        /* \"#utility.yul\":7494:7819   */\n    tag_40:\n        /* \"#utility.yul\":7551:7557   */\n      0x00\n        /* \"#utility.yul\":7600:7602   */\n      0x20\n        /* \"#utility.yul\":7588:7597   */\n      dup3\n        /* \"#utility.yul\":7579:7586   */\n      dup5\n        /* \"#utility.yul\":7575:7598   */\n      sub\n        /* \"#utility.yul\":7571:7603   */\n      slt\n        /* \"#utility.yul\":7568:7687   */\n      iszero\n      tag_222\n      jumpi\n        /* \"#utility.yul\":7606:7685   */\n      tag_223\n      tag_86\n      jump\t// in\n    tag_223:\n        /* \"#utility.yul\":7568:7687   */\n    tag_222:\n        /* \"#utility.yul\":7726:7727   */\n      0x00\n        /* \"#utility.yul\":7751:7802   */\n      tag_224\n        /* \"#utility.yul\":7794:7801   */\n      dup5\n        /* \"#utility.yul\":7785:7791   */\n      dup3\n        /* \"#utility.yul\":7774:7783   */\n      dup6\n        /* \"#utility.yul\":7770:7792   */\n      add\n        /* \"#utility.yul\":7751:7802   */\n      tag_114\n      jump\t// in\n    tag_224:\n        /* \"#utility.yul\":7741:7802   */\n      swap2\n      pop\n        /* \"#utility.yul\":7697:7812   */\n      pop\n        /* \"#utility.yul\":7494:7819   */\n      swap3\n      swap2\n      pop\n      pop\n      jump\t// out\n        /* \"#utility.yul\":7825:8005   */\n    tag_115:\n        /* \"#utility.yul\":7873:7950   */\n      0x4e487b7100000000000000000000000000000000000000000000000000000000\n        /* \"#utility.yul\":7870:7871   */\n      0x00\n        /* \"#utility.yul\":7863:7951   */\n      mstore\n        /* \"#utility.yul\":7970:7974   */\n      0x22\n        /* \"#utility.yul\":7967:7968   */\n      0x04\n        /* \"#utility.yul\":7960:7975   */\n      mstore\n        /* \"#utility.yul\":7994:7998   */\n      0x24\n        /* \"#utility.yul\":7991:7992   */\n      0x00\n        /* \"#utility.yul\":7984:7999   */\n      revert\n        /* \"#utility.yul\":8011:8331   */\n    tag_48:\n        /* \"#utility.yul\":8055:8061   */\n      0x00\n        /* \"#utility.yul\":8092:8093   */\n      0x02\n        /* \"#utility.yul\":8086:8090   */\n      dup3\n        /* \"#utility.yul\":8082:8094   */\n      div\n        /* \"#utility.yul\":8072:8094   */\n      swap1\n      pop\n        /* \"#utility.yul\":8139:8140   */\n      0x01\n        /* \"#utility.yul\":8133:8137   */\n      dup3\n        /* \"#utility.yul\":8129:8141   */\n      and\n        /* \"#utility.yul\":8160:8178   */\n      dup1\n        /* \"#utility.yul\":8150:8231   */\n      tag_227\n      jumpi\n        /* \"#utility.yul\":8216:8220   */\n      0x7f\n        /* \"#utility.yul\":8208:8214   */\n      dup3\n        /* \"#utility.yul\":8204:8221   */\n      and\n        /* \"#utility.yul\":8194:8221   */\n      swap2\n      pop\n        /* \"#utility.yul\":8150:8231   */\n    tag_227:\n        /* \"#utility.yul\":8278:8280   */\n      0x20\n        /* \"#utility.yul\":8270:8276   */\n      dup3\n        /* \"#utility.yul\":8267:8281   */\n      lt\n        /* \"#utility.yul\":8247:8265   */\n      dup2\n        /* \"#utility.yul\":8244:8282   */\n      sub\n        /* \"#utility.yul\":8241:8325   */\n      tag_228\n      jumpi\n        /* \"#utility.yul\":8297:8315   */\n      tag_229\n      tag_115\n      jump\t// in\n    tag_229:\n        /* \"#utility.yul\":8241:8325   */\n    tag_228:\n        /* \"#utility.yul\":8062:8331   */\n      pop\n        /* \"#utility.yul\":8011:8331   */\n      swap2\n      swap1\n      pop\n      jump\t// out\n        /* \"#utility.yul\":8337:8517   */\n    tag_116:\n        /* \"#utility.yul\":8385:8462   */\n      0x4e487b7100000000000000000000000000000000000000000000000000000000\n        /* \"#utility.yul\":8382:8383   */\n      0x00\n        /* \"#utility.yul\":8375:8463   */\n      mstore\n        /* \"#utility.yul\":8482:8486   */\n      0x11\n        /* \"#utility.yul\":8479:8480   */\n      0x04\n        /* \"#utility.yul\":8472:8487   */\n      mstore\n        /* \"#utility.yul\":8506:8510   */\n      0x24\n        /* \"#utility.yul\":8503:8504   */\n      0x00\n        /* \"#utility.yul\":8496:8511   */\n      revert\n        /* \"#utility.yul\":8523:8756   */\n    tag_57:\n        /* \"#utility.yul\":8562:8565   */\n      0x00\n        /* \"#utility.yul\":8585:8609   */\n      tag_232\n        /* \"#utility.yul\":8603:8608   */\n      dup3\n        /* \"#utility.yul\":8585:8609   */\n      tag_88\n      jump\t// in\n    tag_232:\n        /* \"#utility.yul\":8576:8609   */\n      swap2\n      pop\n        /* \"#utility.yul\":8631:8697   */\n      0xffffffffffffffffffffffffffffffffffffffffffffffffffffffffffffffff\n        /* \"#utility.yul\":8624:8629   */\n      dup3\n        /* \"#utility.yul\":8621:8698   */\n      sub\n        /* \"#utility.yul\":8618:8721   */\n      tag_233\n      jumpi\n        /* \"#utility.yul\":8701:8719   */\n      tag_234\n      tag_116\n      jump\t// in\n    tag_234:\n        /* \"#utility.yul\":8618:8721   */\n    tag_233:\n        /* \"#utility.yul\":8748:8749   */\n      0x01\n        /* \"#utility.yul\":8741:8746   */\n      dup3\n        /* \"#utility.yul\":8737:8750   */\n      add\n        /* \"#utility.yul\":8730:8750   */\n      swap1\n      pop\n        /* \"#utility.yul\":8523:8756   */\n      swap2\n      swap1\n      pop\n      jump\t// out\n        /* \"#utility.yul\":8762:8903   */\n    tag_117:\n        /* \"#utility.yul\":8811:8815   */\n      0x00\n        /* \"#utility.yul\":8834:8837   */\n      dup2\n        /* \"#utility.yul\":8826:8837   */\n      swap1\n      pop\n        /* \"#utility.yul\":8857:8860   */\n      dup2\n        /* \"#utility.yul\":8854:8855   */\n      0x00\n        /* \"#utility.yul\":8847:8861   */\n      mstore\n        /* \"#utility.yul\":8891:8895   */\n      0x20\n        /* \"#utility.yul\":8888:8889   */\n      0x00\n        /* \"#utility.yul\":8878:8896   */\n      keccak256\n        /* \"#utility.yul\":8870:8896   */\n      swap1\n      pop\n        /* \"#utility.yul\":8762:8903   */\n      swap2\n      swap1\n      pop\n      jump\t// out\n        /* \"#utility.yul\":8909:9002   */\n    tag_118:\n        /* \"#utility.yul\":8946:8952   */\n      0x00\n        /* \"#utility.yul\":8993:8995   */\n      0x20\n        /* \"#utility.yul\":8988:8990   */\n      0x1f\n        /* \"#utility.yul\":8981:8986   */\n      dup4\n        /* \"#utility.yul\":8977:8991   */\n      add\n        /* \"#utility.yul\":8973:8996   */\n      div\n        /* \"#utility.yul\":8963:8996   */\n      swap1\n      pop\n        /* \"#utility.yul\":8909:9002   */\n      swap2\n      swap1\n      pop\n      jump\t// out\n        /* \"#utility.yul\":9008:9115   */\n    tag_119:\n        /* \"#utility.yul\":9052:9060   */\n      0x00\n        /* \"#utility.yul\":9102:9107   */\n      dup3\n        /* \"#utility.yul\":9096:9100   */\n      dup3\n        /* \"#utility.yul\":9092:9108   */\n      shl\n        /* \"#utility.yul\":9071:9108   */\n      swap1\n      pop\n        /* \"#utility.yul\":9008:9115   */\n      swap3\n      swap2\n      pop\n      pop\n      jump\t// out\n        /* \"#utility.yul\":9121:9514   */\n    tag_120:\n        /* \"#utility.yul\":9190:9196   */\n      0x00\n        /* \"#utility.yul\":9240:9241   */\n      0x08\n        /* \"#utility.yul\":9228:9238   */\n      dup4\n        /* \"#utility.yul\":9224:9242   */\n      mul\n        /* \"#utility.yul\":9263:9360   */\n      tag_239\n        /* \"#utility.yul\":9293:9359   */\n      0xffffffffffffffffffffffffffffffffffffffffffffffffffffffffffffffff\n        /* \"#utility.yul\":9282:9291   */\n      dup3\n        /* \"#utility.yul\":9263:9360   */\n      tag_119\n      jump\t// in\n    tag_239:\n        /* \"#utility.yul\":9381:9420   */\n      tag_240\n        /* \"#utility.yul\":9411:9419   */\n      dup7\n        /* \"#utility.yul\":9400:9409   */\n      dup4\n        /* \"#utility.yul\":9381:9420   */\n      tag_119\n      jump\t// in\n    tag_240:\n        /* \"#utility.yul\":9369:9420   */\n      swap6\n      pop\n        /* \"#utility.yul\":9453:9457   */\n      dup1\n        /* \"#utility.yul\":9449:9458   */\n      not\n        /* \"#utility.yul\":9442:9447   */\n      dup5\n        /* \"#utility.yul\":9438:9459   */\n      and\n        /* \"#utility.yul\":9429:9459   */\n      swap4\n      pop\n        /* \"#utility.yul\":9502:9506   */\n      dup1\n        /* \"#utility.yul\":9492:9500   */\n      dup7\n        /* \"#utility.yul\":9488:9507   */\n      and\n        /* \"#utility.yul\":9481:9486   */\n      dup5\n        /* \"#utility.yul\":9478:9508   */\n      or\n        /* \"#utility.yul\":9468:9508   */\n      swap3\n      pop\n        /* \"#utility.yul\":9197:9514   */\n      pop\n      pop\n        /* \"#utility.yul\":9121:9514   */\n      swap4\n      swap3\n      pop\n      pop\n      pop\n      jump\t// out\n        /* \"#utility.yul\":9520:9580   */\n    tag_121:\n        /* \"#utility.yul\":9548:9551   */\n      0x00\n        /* \"#utility.yul\":9569:9574   */\n      dup2\n        /* \"#utility.yul\":9562:9574   */\n      swap1\n      pop\n        /* \"#utility.yul\":9520:9580   */\n      swap2\n      swap1\n      pop\n      jump\t// out\n        /* \"#utility.yul\":9586:9728   */\n    tag_122:\n        /* \"#utility.yul\":9636:9645   */\n      0x00\n        /* \"#utility.yul\":9669:9722   */\n      tag_243\n        /* \"#utility.yul\":9687:9721   */\n      tag_244\n        /* \"#utility.yul\":9696:9720   */\n      tag_245\n        /* \"#utility.yul\":9714:9719   */\n      dup5\n        /* \"#utility.yul\":9696:9720   */\n      tag_88\n      jump\t// in\n    tag_245:\n        /* \"#utility.yul\":9687:9721   */\n      tag_121\n      jump\t// in\n    tag_244:\n        /* \"#utility.yul\":9669:9722   */\n      tag_88\n      jump\t// in\n    tag_243:\n        /* \"#utility.yul\":9656:9722   */\n      swap1\n      pop\n        /* \"#utility.yul\":9586:9728   */\n      swap2\n      swap1\n      pop\n      jump\t// out\n        /* \"#utility.yul\":9734:9809   */\n    tag_123:\n        /* \"#utility.yul\":9777:9780   */\n      0x00\n        /* \"#utility.yul\":9798:9803   */\n      dup2\n        /* \"#utility.yul\":9791:9803   */\n      swap1\n      pop\n        /* \"#utility.yul\":9734:9809   */\n      swap2\n      swap1\n      pop\n      jump\t// out\n        /* \"#utility.yul\":9815:10084   */\n    tag_124:\n        /* \"#utility.yul\":9925:9964   */\n      tag_248\n        /* \"#utility.yul\":9956:9963   */\n      dup4\n        /* \"#utility.yul\":9925:9964   */\n      tag_122\n      jump\t// in\n    tag_248:\n        /* \"#utility.yul\":9986:10077   */\n      tag_249\n        /* \"#utility.yul\":10035:10076   */\n      tag_250\n        /* \"#utility.yul\":10059:10075   */\n      dup3\n        /* \"#utility.yul\":10035:10076   */\n      tag_123\n      jump\t// in\n    tag_250:\n        /* \"#utility.yul\":10027:10033   */\n      dup5\n        /* \"#utility.yul\":10020:10024   */\n      dup5\n        /* \"#utility.yul\":10014:10025   */\n      sload\n        /* \"#utility.yul\":9986:10077   */\n      tag_120\n      jump\t// in\n    tag_249:\n        /* \"#utility.yul\":9980:9984   */\n      dup3\n        /* \"#utility.yul\":9973:10078   */\n      sstore\n        /* \"#utility.yul\":9891:10084   */\n      pop\n        /* \"#utility.yul\":9815:10084   */\n      pop\n      pop\n      pop\n      jump\t// out\n        /* \"#utility.yul\":10090:10163   */\n    tag_125:\n        /* \"#utility.yul\":10135:10138   */\n      0x00\n        /* \"#utility.yul\":10156:10157   */\n      0x00\n        /* \"#utility.yul\":10149:10157   */\n      swap1\n      pop\n        /* \"#utility.yul\":10090:10163   */\n      swap1\n      jump\t// out\n        /* \"#utility.yul\":10169:10358   */\n    tag_126:\n        /* \"#utility.yul\":10246:10278   */\n      tag_253\n      tag_125\n      jump\t// in\n    tag_253:\n        /* \"#utility.yul\":10287:10352   */\n      tag_254\n        /* \"#utility.yul\":10345:10351   */\n      dup2\n        /* \"#utility.yul\":10337:10343   */\n      dup5\n        /* \"#utility.yul\":10331:10335   */\n      dup5\n        /* \"#utility.yul\":10287:10352   */\n      tag_124\n      jump\t// in\n    tag_254:\n        /* \"#utility.yul\":10222:10358   */\n      pop\n        /* \"#utility.yul\":10169:10358   */\n      pop\n      pop\n      jump\t// out\n        /* \"#utility.yul\":10364:10550   */\n    tag_127:\n        /* \"#utility.yul\":10424:10544   */\n    tag_256:\n        /* \"#utility.yul\":10441:10444   */\n      dup2\n        /* \"#utility.yul\":10434:10439   */\n      dup2\n        /* \"#utility.yul\":10431:10445   */\n      lt\n        /* \"#utility.yul\":10424:10544   */\n      iszero\n      tag_258\n      jumpi\n        /* \"#utility.yul\":10495:10534   */\n      tag_259\n        /* \"#utility.yul\":10532:10533   */\n      0x00\n        /* \"#utility.yul\":10525:10530   */\n      dup3\n        /* \"#utility.yul\":10495:10534   */\n      tag_126\n      jump\t// in\n    tag_259:\n        /* \"#utility.yul\":10468:10469   */\n      0x01\n        /* \"#utility.yul\":10461:10466   */\n      dup2\n        /* \"#utility.yul\":10457:10470   */\n      add\n        /* \"#utility.yul\":10448:10470   */\n      swap1\n      pop\n        /* \"#utility.yul\":10424:10544   */\n      jump(tag_256)\n    tag_258:\n        /* \"#utility.yul\":10364:10550   */\n      pop\n      pop\n      jump\t// out\n        /* \"#utility.yul\":10556:11099   */\n    tag_128:\n        /* \"#utility.yul\":10657:10659   */\n      0x1f\n        /* \"#utility.yul\":10652:10655   */\n      dup3\n        /* \"#utility.yul\":10649:10660   */\n      gt\n        /* \"#utility.yul\":10646:11092   */\n      iszero\n      tag_261\n      jumpi\n        /* \"#utility.yul\":10691:10729   */\n      tag_262\n        /* \"#utility.yul\":10723:10728   */\n      dup2\n        /* \"#utility.yul\":10691:10729   */\n      tag_117\n      jump\t// in\n    tag_262:\n        /* \"#utility.yul\":10775:10804   */\n      tag_263\n        /* \"#utility.yul\":10793:10803   */\n      dup5\n        /* \"#utility.yul\":10775:10804   */\n      tag_118\n      jump\t// in\n    tag_263:\n        /* \"#utility.yul\":10765:10773   */\n      dup2\n        /* \"#utility.yul\":10761:10805   */\n      add\n        /* \"#utility.yul\":10958:10960   */\n      0x20\n        /* \"#utility.yul\":10946:10956   */\n      dup6\n        /* \"#utility.yul\":10943:10961   */\n      lt\n        /* \"#utility.yul\":10940:10989   */\n      iszero\n      tag_264\n      jumpi\n        /* \"#utility.yul\":10979:10987   */\n      dup2\n        /* \"#utility.yul\":10964:10987   */\n      swap1\n      pop\n        /* \"#utility.yul\":10940:10989   */\n    tag_264:\n        /* \"#utility.yul\":11002:11082   */\n      tag_265\n        /* \"#utility.yul\":11058:11080   */\n      tag_266\n        /* \"#utility.yul\":11076:11079   */\n      dup6\n        /* \"#utility.yul\":11058:11080   */\n      tag_118\n      jump\t// in\n    tag_266:\n        /* \"#utility.yul\":11048:11056   */\n      dup4\n        /* \"#utility.yul\":11044:11081   */\n      add\n        /* \"#utility.yul\":11031:11042   */\n      dup3\n        /* \"#utility.yul\":11002:11082   */\n      tag_127\n      jump\t// in\n    tag_265:\n        /* \"#utility.yul\":10661:11092   */\n      pop\n      pop\n        /* \"#utility.yul\":10646:11092   */\n    tag_261:\n        /* \"#utility.yul\":10556:11099   */\n      pop\n      pop\n      pop\n      jump\t// out\n        /* \"#utility.yul\":11105:11222   */\n    tag_129:\n        /* \"#utility.yul\":11159:11167   */\n      0x00\n        /* \"#utility.yul\":11209:11214   */\n      dup3\n        /* \"#utility.yul\":11203:11207   */\n      dup3\n        /* \"#utility.yul\":11199:11215   */\n      shr\n        /* \"#utility.yul\":11178:11215   */\n      swap1\n      pop\n        /* \"#utility.yul\":11105:11222   */\n      swap3\n      swap2\n      pop\n      pop\n      jump\t// out\n        /* \"#utility.yul\":11228:11397   */\n    tag_130:\n        /* \"#utility.yul\":11272:11278   */\n      0x00\n        /* \"#utility.yul\":11305:11356   */\n      tag_269\n        /* \"#utility.yul\":11353:11354   */\n      0x00\n        /* \"#utility.yul\":11349:11355   */\n      not\n        /* \"#utility.yul\":11341:11346   */\n      dup5\n        /* \"#utility.yul\":11338:11339   */\n      0x08\n        /* \"#utility.yul\":11334:11347   */\n      mul\n        /* \"#utility.yul\":11305:11356   */\n      tag_129\n      jump\t// in\n    tag_269:\n        /* \"#utility.yul\":11301:11357   */\n      not\n        /* \"#utility.yul\":11386:11390   */\n      dup1\n        /* \"#utility.yul\":11380:11384   */\n      dup4\n        /* \"#utility.yul\":11376:11391   */\n      and\n        /* \"#utility.yul\":11366:11391   */\n      swap2\n      pop\n        /* \"#utility.yul\":11279:11397   */\n      pop\n        /* \"#utility.yul\":11228:11397   */\n      swap3\n      swap2\n      pop\n      pop\n      jump\t// out\n        /* \"#utility.yul\":11402:11697   */\n    tag_131:\n        /* \"#utility.yul\":11478:11482   */\n      0x00\n        /* \"#utility.yul\":11624:11653   */\n      tag_271\n        /* \"#utility.yul\":11649:11652   */\n      dup4\n        /* \"#utility.yul\":11643:11647   */\n      dup4\n        /* \"#utility.yul\":11624:11653   */\n      tag_130\n      jump\t// in\n    tag_271:\n        /* \"#utility.yul\":11616:11653   */\n      swap2\n      pop\n        /* \"#utility.yul\":11686:11689   */\n      dup3\n        /* \"#utility.yul\":11683:11684   */\n      0x02\n        /* \"#utility.yul\":11679:11690   */\n      mul\n        /* \"#utility.yul\":11673:11677   */\n      dup3\n        /* \"#utility.yul\":11670:11691   */\n      or\n        /* \"#utility.yul\":11662:11691   */\n      swap1\n      pop\n        /* \"#utility.yul\":11402:11697   */\n      swap3\n      swap2\n      pop\n      pop\n      jump\t// out\n        /* \"#utility.yul\":11702:13097   */\n    tag_61:\n        /* \"#utility.yul\":11819:11856   */\n      tag_273\n        /* \"#utility.yul\":11852:11855   */\n      dup3\n        /* \"#utility.yul\":11819:11856   */\n      tag_92\n      jump\t// in\n    tag_273:\n        /* \"#utility.yul\":11921:11939   */\n      0xffffffffffffffff\n        /* \"#utility.yul\":11913:11919   */\n      dup2\n        /* \"#utility.yul\":11910:11940   */\n      gt\n        /* \"#utility.yul\":11907:11963   */\n      iszero\n      tag_274\n      jumpi\n        /* \"#utility.yul\":11943:11961   */\n      tag_275\n      tag_104\n      jump\t// in\n    tag_275:\n        /* \"#utility.yul\":11907:11963   */\n    tag_274:\n        /* \"#utility.yul\":11987:12025   */\n      tag_276\n        /* \"#utility.yul\":12019:12023   */\n      dup3\n        /* \"#utility.yul\":12013:12024   */\n      sload\n        /* \"#utility.yul\":11987:12025   */\n      tag_48\n      jump\t// in\n    tag_276:\n        /* \"#utility.yul\":12072:12139   */\n      tag_277\n        /* \"#utility.yul\":12132:12138   */\n      dup3\n        /* \"#utility.yul\":12124:12130   */\n      dup3\n        /* \"#utility.yul\":12118:12122   */\n      dup6\n        /* \"#utility.yul\":12072:12139   */\n      tag_128\n      jump\t// in\n    tag_277:\n        /* \"#utility.yul\":12166:12167   */\n      0x00\n        /* \"#utility.yul\":12190:12194   */\n      0x20\n        /* \"#utility.yul\":12177:12194   */\n      swap1\n      pop\n        /* \"#utility.yul\":12222:12224   */\n      0x1f\n        /* \"#utility.yul\":12214:12220   */\n      dup4\n        /* \"#utility.yul\":12211:12225   */\n      gt\n        /* \"#utility.yul\":12239:12240   */\n      0x01\n        /* \"#utility.yul\":12234:12852   */\n      dup2\n      eq\n      tag_279\n      jumpi\n        /* \"#utility.yul\":12896:12897   */\n      0x00\n        /* \"#utility.yul\":12913:12919   */\n      dup5\n        /* \"#utility.yul\":12910:12987   */\n      iszero\n      tag_280\n      jumpi\n        /* \"#utility.yul\":12962:12971   */\n      dup3\n        /* \"#utility.yul\":12957:12960   */\n      dup8\n        /* \"#utility.yul\":12953:12972   */\n      add\n        /* \"#utility.yul\":12947:12973   */\n      mload\n        /* \"#utility.yul\":12938:12973   */\n      swap1\n      pop\n        /* \"#utility.yul\":12910:12987   */\n    tag_280:\n        /* \"#utility.yul\":13013:13080   */\n      tag_281\n        /* \"#utility.yul\":13073:13079   */\n      dup6\n        /* \"#utility.yul\":13066:13071   */\n      dup3\n        /* \"#utility.yul\":13013:13080   */\n      tag_131\n      jump\t// in\n    tag_281:\n        /* \"#utility.yul\":13007:13011   */\n      dup7\n        /* \"#utility.yul\":13000:13081   */\n      sstore\n        /* \"#utility.yul\":12869:13091   */\n      pop\n        /* \"#utility.yul\":12204:13091   */\n      jump(tag_278)\n        /* \"#utility.yul\":12234:12852   */\n    tag_279:\n        /* \"#utility.yul\":12286:12290   */\n      0x1f\n        /* \"#utility.yul\":12282:12291   */\n      not\n        /* \"#utility.yul\":12274:12280   */\n      dup5\n        /* \"#utility.yul\":12270:12292   */\n      and\n        /* \"#utility.yul\":12320:12357   */\n      tag_282\n        /* \"#utility.yul\":12352:12356   */\n      dup7\n        /* \"#utility.yul\":12320:12357   */\n      tag_117\n      jump\t// in\n    tag_282:\n        /* \"#utility.yul\":12379:12380   */\n      0x00\n        /* \"#utility.yul\":12393:12601   */\n    tag_283:\n        /* \"#utility.yul\":12407:12414   */\n      dup3\n        /* \"#utility.yul\":12404:12405   */\n      dup2\n        /* \"#utility.yul\":12401:12415   */\n      lt\n        /* \"#utility.yul\":12393:12601   */\n      iszero\n      tag_285\n      jumpi\n        /* \"#utility.yul\":12486:12495   */\n      dup5\n        /* \"#utility.yul\":12481:12484   */\n      dup10\n        /* \"#utility.yul\":12477:12496   */\n      add\n        /* \"#utility.yul\":12471:12497   */\n      mload\n        /* \"#utility.yul\":12463:12469   */\n      dup3\n        /* \"#utility.yul\":12456:12498   */\n      sstore\n        /* \"#utility.yul\":12537:12538   */\n      0x01\n        /* \"#utility.yul\":12529:12535   */\n      dup3\n        /* \"#utility.yul\":12525:12539   */\n      add\n        /* \"#utility.yul\":12515:12539   */\n      swap2\n      pop\n        /* \"#utility.yul\":12584:12586   */\n      0x20\n        /* \"#utility.yul\":12573:12582   */\n      dup6\n        /* \"#utility.yul\":12569:12587   */\n      add\n        /* \"#utility.yul\":12556:12587   */\n      swap5\n      pop\n        /* \"#utility.yul\":12430:12434   */\n      0x20\n        /* \"#utility.yul\":12427:12428   */\n      dup2\n        /* \"#utility.yul\":12423:12435   */\n      add\n        /* \"#utility.yul\":12418:12435   */\n      swap1\n      pop\n        /* \"#utility.yul\":12393:12601   */\n      jump(tag_283)\n    tag_285:\n        /* \"#utility.yul\":12629:12635   */\n      dup7\n        /* \"#utility.yul\":12620:12627   */\n      dup4\n        /* \"#utility.yul\":12617:12636   */\n      lt\n        /* \"#utility.yul\":12614:12793   */\n      iszero\n      tag_286\n      jumpi\n        /* \"#utility.yul\":12687:12696   */\n      dup5\n        /* \"#utility.yul\":12682:12685   */\n      dup10\n        /* \"#utility.yul\":12678:12697   */\n      add\n        /* \"#utility.yul\":12672:12698   */\n      mload\n        /* \"#utility.yul\":12730:12778   */\n      tag_287\n        /* \"#utility.yul\":12772:12776   */\n      0x1f\n        /* \"#utility.yul\":12764:12770   */\n      dup10\n        /* \"#utility.yul\":12760:12777   */\n      and\n        /* \"#utility.yul\":12749:12758   */\n      dup3\n        /* \"#utility.yul\":12730:12778   */\n      tag_130\n      jump\t// in\n    tag_287:\n        /* \"#utility.yul\":12722:12728   */\n      dup4\n        /* \"#utility.yul\":12715:12779   */\n      sstore\n        /* \"#utility.yul\":12637:12793   */\n      pop\n        /* \"#utility.yul\":12614:12793   */\n    tag_286:\n        /* \"#utility.yul\":12839:12840   */\n      0x01\n        /* \"#utility.yul\":12835:12836   */\n      0x02\n        /* \"#utility.yul\":12827:12833   */\n      dup9\n        /* \"#utility.yul\":12823:12837   */\n      mul\n        /* \"#utility.yul\":12819:12841   */\n      add\n        /* \"#utility.yul\":12813:12817   */\n      dup9\n        /* \"#utility.yul\":12806:12842   */\n      sstore\n        /* \"#utility.yul\":12241:12852   */\n      pop\n      pop\n      pop\n        /* \"#utility.yul\":12204:13091   */\n    tag_278:\n      pop\n        /* \"#utility.yul\":11794:13097   */\n      pop\n      pop\n      pop\n        /* \"#utility.yul\":11702:13097   */\n      pop\n      pop\n      jump\t// out\n        /* \"#utility.yul\":13103:13283   */\n    tag_69:\n        /* \"#utility.yul\":13151:13228   */\n      0x4e487b7100000000000000000000000000000000000000000000000000000000\n        /* \"#utility.yul\":13148:13149   */\n      0x00\n        /* \"#utility.yul\":13141:13229   */\n      mstore\n        /* \"#utility.yul\":13248:13252   */\n      0x32\n        /* \"#utility.yul\":13245:13246   */\n      0x04\n        /* \"#utility.yul\":13238:13253   */\n      mstore\n        /* \"#utility.yul\":13272:13276   */\n      0x24\n        /* \"#utility.yul\":13269:13270   */\n      0x00\n        /* \"#utility.yul\":13262:13277   */\n      revert\n        /* \"#utility.yul\":13289:13456   */\n    tag_76:\n        /* \"#utility.yul\":13326:13329   */\n      0x00\n        /* \"#utility.yul\":13349:13371   */\n      tag_290\n        /* \"#utility.yul\":13365:13370   */\n      dup3\n        /* \"#utility.yul\":13349:13371   */\n      tag_111\n      jump\t// in\n    tag_290:\n        /* \"#utility.yul\":13340:13371   */\n      swap2\n      pop\n        /* \"#utility.yul\":13393:13397   */\n      0xff\n        /* \"#utility.yul\":13386:13391   */\n      dup3\n        /* \"#utility.yul\":13383:13398   */\n      sub\n        /* \"#utility.yul\":13380:13421   */\n      tag_291\n      jumpi\n        /* \"#utility.yul\":13401:13419   */\n      tag_292\n      tag_116\n      jump\t// in\n    tag_292:\n        /* \"#utility.yul\":13380:13421   */\n    tag_291:\n        /* \"#utility.yul\":13448:13449   */\n      0x01\n        /* \"#utility.yul\":13441:13446   */\n      dup3\n        /* \"#utility.yul\":13437:13450   */\n      add\n        /* \"#utility.yul\":13430:13450   */\n      swap1\n      pop\n        /* \"#utility.yul\":13289:13456   */\n      swap2\n      swap1\n      pop\n      jump\t// out\n        /* \"#utility.yul\":13462:13653   */\n    tag_84:\n        /* \"#utility.yul\":13502:13505   */\n      0x00\n        /* \"#utility.yul\":13521:13541   */\n      tag_294\n        /* \"#utility.yul\":13539:13540   */\n      dup3\n        /* \"#utility.yul\":13521:13541   */\n      tag_88\n      jump\t// in\n    tag_294:\n        /* \"#utility.yul\":13516:13541   */\n      swap2\n      pop\n        /* \"#utility.yul\":13555:13575   */\n      tag_295\n        /* \"#utility.yul\":13573:13574   */\n      dup4\n        /* \"#utility.yul\":13555:13575   */\n      tag_88\n      jump\t// in\n    tag_295:\n        /* \"#utility.yul\":13550:13575   */\n      swap3\n      pop\n        /* \"#utility.yul\":13598:13599   */\n      dup3\n        /* \"#utility.yul\":13595:13596   */\n      dup3\n        /* \"#utility.yul\":13591:13600   */\n      add\n        /* \"#utility.yul\":13584:13600   */\n      swap1\n      pop\n        /* \"#utility.yul\":13619:13622   */\n      dup1\n        /* \"#utility.yul\":13616:13617   */\n      dup3\n        /* \"#utility.yul\":13613:13623   */\n      gt\n        /* \"#utility.yul\":13610:13646   */\n      iszero\n      tag_296\n      jumpi\n        /* \"#utility.yul\":13626:13644   */\n      tag_297\n      tag_116\n      jump\t// in\n    tag_297:\n        /* \"#utility.yul\":13610:13646   */\n    tag_296:\n        /* \"#utility.yul\":13462:13653   */\n      swap3\n      swap2\n      pop\n      pop\n      jump\t// out\n\n    auxdata: 0xa26469706673582212201b98061a8f940f6b0ee3c032c1ba535ec52335dd4c986a92d6bac3f6291d099e64736f6c634300081f0033\n}\n",
				"bytecode": {
					"linkReferences": {},
					"object": "60806040525f5f555f6001553480156015575f5ffd5b503360025f6101000a81548173ffffffffffffffffffffffffffffffffffffffff021916908373ffffffffffffffffffffffffffffffffffffffff160217905550600260035f60025f9054906101000a900473ffffffffffffffffffffffffffffffffffffffff1673ffffffffffffffffffffffffffffffffffffffff1673ffffffffffffffffffffffffffffffffffffffff1681526020019081526020015f205f0181905550610dd5806100c95f395ff3fe608060405234801561000f575f5ffd5b5060043610610086575f3560e01c8063585cc4c411610059578063585cc4c414610114578063609ff1bd14610130578063b3f98adc1461014e578063da35c6641461016a57610086565b8063013cf08b1461008a5780632e4176cf146100bc5780632e46fb9a146100da5780634420e486146100f8575b5f5ffd5b6100a4600480360381019061009f919061061c565b610188565b6040516100b3939291906106c6565b60405180910390f35b6100c4610243565b6040516100d19190610741565b60405180910390f35b6100e2610268565b6040516100ef919061075a565b60405180910390f35b610112600480360381019061010d919061079d565b61026e565b005b61012e600480360381019061012991906108f4565b6103ce565b005b61013861045a565b6040516101459190610969565b60405180910390f35b610168600480360381019061016391906109ac565b6104e7565b005b6101726105d3565b60405161017f919061075a565b60405180910390f35b60048181548110610197575f80fd5b905f5260205f2090600302015f91509050805f0154908060010180546101bc90610a04565b80601f01602080910402602001604051908101604052809291908181526020018280546101e890610a04565b80156102335780601f1061020a57610100808354040283529160200191610233565b820191905f5260205f20905b81548152906001019060200180831161021657829003601f168201915b5050505050908060020154905083565b60025f9054906101000a900473ffffffffffffffffffffffffffffffffffffffff1681565b60015481565b60025f9054906101000a900473ffffffffffffffffffffffffffffffffffffffff1673ffffffffffffffffffffffffffffffffffffffff163373ffffffffffffffffffffffffffffffffffffffff16141580610313575060035f8273ffffffffffffffffffffffffffffffffffffffff1673ffffffffffffffffffffffffffffffffffffffff1681526020019081526020015f206001015f9054906101000a900460ff165b6103cb57600160035f8373ffffffffffffffffffffffffffffffffffffffff1673ffffffffffffffffffffffffffffffffffffffff1681526020019081526020015f205f01819055505f60035f8373ffffffffffffffffffffffffffffffffffffffff1673ffffffffffffffffffffffffffffffffffffffff1681526020019081526020015f206001015f6101000a81548160ff02191690831515021790555060015f8154809291906103c590610a61565b91905055505b50565b5f60405180606001604052808481526020018381526020015f8152509050600481908060018154018082558091505060019003905f5260205f2090600302015f909190919091505f820151815f015560208201518160010190816104329190610c48565b506040820151816002015550505f5f81548092919061045090610a61565b9190505550505050565b5f5f5f90505f5f90505b6004805490508160ff1610156104e2578160048260ff168154811061048c5761048b610d17565b5b905f5260205f2090600302016002015411156104cf5760048160ff16815481106104b9576104b8610d17565b5b905f5260205f2090600302016002015491508092505b80806104da90610d44565b915050610464565b505090565b5f60035f3373ffffffffffffffffffffffffffffffffffffffff1673ffffffffffffffffffffffffffffffffffffffff1681526020019081526020015f209050806001015f9054906101000a900460ff168061054b57506004805490508260ff1610155b1561055657506105d0565b6001816001015f6101000a81548160ff021916908315150217905550818160010160016101000a81548160ff021916908360ff160217905550805f015460048360ff16815481106105aa576105a9610d17565b5b905f5260205f2090600302016002015f8282546105c79190610d6c565b92505081905550505b50565b5f5481565b5f604051905090565b5f5ffd5b5f5ffd5b5f819050919050565b6105fb816105e9565b8114610605575f5ffd5b50565b5f81359050610616816105f2565b92915050565b5f60208284031215610631576106306105e1565b5b5f61063e84828501610608565b91505092915050565b610650816105e9565b82525050565b5f81519050919050565b5f82825260208201905092915050565b8281835e5f83830152505050565b5f601f19601f8301169050919050565b5f61069882610656565b6106a28185610660565b93506106b2818560208601610670565b6106bb8161067e565b840191505092915050565b5f6060820190506106d95f830186610647565b81810360208301526106eb818561068e565b90506106fa6040830184610647565b949350505050565b5f73ffffffffffffffffffffffffffffffffffffffff82169050919050565b5f61072b82610702565b9050919050565b61073b81610721565b82525050565b5f6020820190506107545f830184610732565b92915050565b5f60208201905061076d5f830184610647565b92915050565b61077c81610721565b8114610786575f5ffd5b50565b5f8135905061079781610773565b92915050565b5f602082840312156107b2576107b16105e1565b5b5f6107bf84828501610789565b91505092915050565b5f5ffd5b5f5ffd5b7f4e487b71000000000000000000000000000000000000000000000000000000005f52604160045260245ffd5b6108068261067e565b810181811067ffffffffffffffff82111715610825576108246107d0565b5b80604052505050565b5f6108376105d8565b905061084382826107fd565b919050565b5f67ffffffffffffffff821115610862576108616107d0565b5b61086b8261067e565b9050602081019050919050565b828183375f83830152505050565b5f61089861089384610848565b61082e565b9050828152602081018484840111156108b4576108b36107cc565b5b6108bf848285610878565b509392505050565b5f82601f8301126108db576108da6107c8565b5b81356108eb848260208601610886565b91505092915050565b5f5f6040838503121561090a576109096105e1565b5b5f61091785828601610608565b925050602083013567ffffffffffffffff811115610938576109376105e5565b5b610944858286016108c7565b9150509250929050565b5f60ff82169050919050565b6109638161094e565b82525050565b5f60208201905061097c5f83018461095a565b92915050565b61098b8161094e565b8114610995575f5ffd5b50565b5f813590506109a681610982565b92915050565b5f602082840312156109c1576109c06105e1565b5b5f6109ce84828501610998565b91505092915050565b7f4e487b71000000000000000000000000000000000000000000000000000000005f52602260045260245ffd5b5f6002820490506001821680610a1b57607f821691505b602082108103610a2e57610a2d6109d7565b5b50919050565b7f4e487b71000000000000000000000000000000000000000000000000000000005f52601160045260245ffd5b5f610a6b826105e9565b91507fffffffffffffffffffffffffffffffffffffffffffffffffffffffffffffffff8203610a9d57610a9c610a34565b5b600182019050919050565b5f819050815f5260205f209050919050565b5f6020601f8301049050919050565b5f82821b905092915050565b5f60088302610b047fffffffffffffffffffffffffffffffffffffffffffffffffffffffffffffffff82610ac9565b610b0e8683610ac9565b95508019841693508086168417925050509392505050565b5f819050919050565b5f610b49610b44610b3f846105e9565b610b26565b6105e9565b9050919050565b5f819050919050565b610b6283610b2f565b610b76610b6e82610b50565b848454610ad5565b825550505050565b5f5f905090565b610b8d610b7e565b610b98818484610b59565b505050565b5b81811015610bbb57610bb05f82610b85565b600181019050610b9e565b5050565b601f821115610c0057610bd181610aa8565b610bda84610aba565b81016020851015610be9578190505b610bfd610bf585610aba565b830182610b9d565b50505b505050565b5f82821c905092915050565b5f610c205f1984600802610c05565b1980831691505092915050565b5f610c388383610c11565b9150826002028217905092915050565b610c5182610656565b67ffffffffffffffff811115610c6a57610c696107d0565b5b610c748254610a04565b610c7f828285610bbf565b5f60209050601f831160018114610cb0575f8415610c9e578287015190505b610ca88582610c2d565b865550610d0f565b601f198416610cbe86610aa8565b5f5b82811015610ce557848901518255600182019150602085019450602081019050610cc0565b86831015610d025784890151610cfe601f891682610c11565b8355505b6001600288020188555050505b505050505050565b7f4e487b71000000000000000000000000000000000000000000000000000000005f52603260045260245ffd5b5f610d4e8261094e565b915060ff8203610d6157610d60610a34565b5b600182019050919050565b5f610d76826105e9565b9150610d81836105e9565b9250828201905080821115610d9957610d98610a34565b5b9291505056fea26469706673582212201b98061a8f940f6b0ee3c032c1ba535ec52335dd4c986a92d6bac3f6291d099e64736f6c634300081f0033",
					"opcodes": "PUSH1 0x80 PUSH1 0x40 MSTORE PUSH0 PUSH0 SSTORE PUSH0 PUSH1 0x1 SSTORE CALLVALUE DUP1 ISZERO PUSH1 0x15 JUMPI PUSH0 PUSH0 REVERT JUMPDEST POP CALLER PUSH1 0x2 PUSH0 PUSH2 0x100 EXP DUP2 SLOAD DUP2 PUSH20 0xFFFFFFFFFFFFFFFFFFFFFFFFFFFFFFFFFFFFFFFF MUL NOT AND SWAP1 DUP4 PUSH20 0xFFFFFFFFFFFFFFFFFFFFFFFFFFFFFFFFFFFFFFFF AND MUL OR SWAP1 SSTORE POP PUSH1 0x2 PUSH1 0x3 PUSH0 PUSH1 0x2 PUSH0 SWAP1 SLOAD SWAP1 PUSH2 0x100 EXP SWAP1 DIV PUSH20 0xFFFFFFFFFFFFFFFFFFFFFFFFFFFFFFFFFFFFFFFF AND PUSH20 0xFFFFFFFFFFFFFFFFFFFFFFFFFFFFFFFFFFFFFFFF AND PUSH20 0xFFFFFFFFFFFFFFFFFFFFFFFFFFFFFFFFFFFFFFFF AND DUP2 MSTORE PUSH1 0x20 ADD SWAP1 DUP2 MSTORE PUSH1 0x20 ADD PUSH0 KECCAK256 PUSH0 ADD DUP2 SWAP1 SSTORE POP PUSH2 0xDD5 DUP1 PUSH2 0xC9 PUSH0 CODECOPY PUSH0 RETURN INVALID PUSH1 0x80 PUSH1 0x40 MSTORE CALLVALUE DUP1 ISZERO PUSH2 0xF JUMPI PUSH0 PUSH0 REVERT JUMPDEST POP PUSH1 0x4 CALLDATASIZE LT PUSH2 0x86 JUMPI PUSH0 CALLDATALOAD PUSH1 0xE0 SHR DUP1 PUSH4 0x585CC4C4 GT PUSH2 0x59 JUMPI DUP1 PUSH4 0x585CC4C4 EQ PUSH2 0x114 JUMPI DUP1 PUSH4 0x609FF1BD EQ PUSH2 0x130 JUMPI DUP1 PUSH4 0xB3F98ADC EQ PUSH2 0x14E JUMPI DUP1 PUSH4 0xDA35C664 EQ PUSH2 0x16A JUMPI PUSH2 0x86 JUMP JUMPDEST DUP1 PUSH4 0x13CF08B EQ PUSH2 0x8A JUMPI DUP1 PUSH4 0x2E4176CF EQ PUSH2 0xBC JUMPI DUP1 PUSH4 0x2E46FB9A EQ PUSH2 0xDA JUMPI DUP1 PUSH4 0x4420E486 EQ PUSH2 0xF8 JUMPI JUMPDEST PUSH0 PUSH0 REVERT JUMPDEST PUSH2 0xA4 PUSH1 0x4 DUP1 CALLDATASIZE SUB DUP2 ADD SWAP1 PUSH2 0x9F SWAP2 SWAP1 PUSH2 0x61C JUMP JUMPDEST PUSH2 0x188 JUMP JUMPDEST PUSH1 0x40 MLOAD PUSH2 0xB3 SWAP4 SWAP3 SWAP2 SWAP1 PUSH2 0x6C6 JUMP JUMPDEST PUSH1 0x40 MLOAD DUP1 SWAP2 SUB SWAP1 RETURN JUMPDEST PUSH2 0xC4 PUSH2 0x243 JUMP JUMPDEST PUSH1 0x40 MLOAD PUSH2 0xD1 SWAP2 SWAP1 PUSH2 0x741 JUMP JUMPDEST PUSH1 0x40 MLOAD DUP1 SWAP2 SUB SWAP1 RETURN JUMPDEST PUSH2 0xE2 PUSH2 0x268 JUMP JUMPDEST PUSH1 0x40 MLOAD PUSH2 0xEF SWAP2 SWAP1 PUSH2 0x75A JUMP JUMPDEST PUSH1 0x40 MLOAD DUP1 SWAP2 SUB SWAP1 RETURN JUMPDEST PUSH2 0x112 PUSH1 0x4 DUP1 CALLDATASIZE SUB DUP2 ADD SWAP1 PUSH2 0x10D SWAP2 SWAP1 PUSH2 0x79D JUMP JUMPDEST PUSH2 0x26E JUMP JUMPDEST STOP JUMPDEST PUSH2 0x12E PUSH1 0x4 DUP1 CALLDATASIZE SUB DUP2 ADD SWAP1 PUSH2 0x129 SWAP2 SWAP1 PUSH2 0x8F4 JUMP JUMPDEST PUSH2 0x3CE JUMP JUMPDEST STOP JUMPDEST PUSH2 0x138 PUSH2 0x45A JUMP JUMPDEST PUSH1 0x40 MLOAD PUSH2 0x145 SWAP2 SWAP1 PUSH2 0x969 JUMP JUMPDEST PUSH1 0x40 MLOAD DUP1 SWAP2 SUB SWAP1 RETURN JUMPDEST PUSH2 0x168 PUSH1 0x4 DUP1 CALLDATASIZE SUB DUP2 ADD SWAP1 PUSH2 0x163 SWAP2 SWAP1 PUSH2 0x9AC JUMP JUMPDEST PUSH2 0x4E7 JUMP JUMPDEST STOP JUMPDEST PUSH2 0x172 PUSH2 0x5D3 JUMP JUMPDEST PUSH1 0x40 MLOAD PUSH2 0x17F SWAP2 SWAP1 PUSH2 0x75A JUMP JUMPDEST PUSH1 0x40 MLOAD DUP1 SWAP2 SUB SWAP1 RETURN JUMPDEST PUSH1 0x4 DUP2 DUP2 SLOAD DUP2 LT PUSH2 0x197 JUMPI PUSH0 DUP1 REVERT JUMPDEST SWAP1 PUSH0 MSTORE PUSH1 0x20 PUSH0 KECCAK256 SWAP1 PUSH1 0x3 MUL ADD PUSH0 SWAP2 POP SWAP1 POP DUP1 PUSH0 ADD SLOAD SWAP1 DUP1 PUSH1 0x1 ADD DUP1 SLOAD PUSH2 0x1BC SWAP1 PUSH2 0xA04 JUMP JUMPDEST DUP1 PUSH1 0x1F ADD PUSH1 0x20 DUP1 SWAP2 DIV MUL PUSH1 0x20 ADD PUSH1 0x40 MLOAD SWAP1 DUP2 ADD PUSH1 0x40 MSTORE DUP1 SWAP3 SWAP2 SWAP1 DUP2 DUP2 MSTORE PUSH1 0x20 ADD DUP3 DUP1 SLOAD PUSH2 0x1E8 SWAP1 PUSH2 0xA04 JUMP JUMPDEST DUP1 ISZERO PUSH2 0x233 JUMPI DUP1 PUSH1 0x1F LT PUSH2 0x20A JUMPI PUSH2 0x100 DUP1 DUP4 SLOAD DIV MUL DUP4 MSTORE SWAP2 PUSH1 0x20 ADD SWAP2 PUSH2 0x233 JUMP JUMPDEST DUP3 ADD SWAP2 SWAP1 PUSH0 MSTORE PUSH1 0x20 PUSH0 KECCAK256 SWAP1 JUMPDEST DUP2 SLOAD DUP2 MSTORE SWAP1 PUSH1 0x1 ADD SWAP1 PUSH1 0x20 ADD DUP1 DUP4 GT PUSH2 0x216 JUMPI DUP3 SWAP1 SUB PUSH1 0x1F AND DUP3 ADD SWAP2 JUMPDEST POP POP POP POP POP SWAP1 DUP1 PUSH1 0x2 ADD SLOAD SWAP1 POP DUP4 JUMP JUMPDEST PUSH1 0x2 PUSH0 SWAP1 SLOAD SWAP1 PUSH2 0x100 EXP SWAP1 DIV PUSH20 0xFFFFFFFFFFFFFFFFFFFFFFFFFFFFFFFFFFFFFFFF AND DUP2 JUMP JUMPDEST PUSH1 0x1 SLOAD DUP2 JUMP JUMPDEST PUSH1 0x2 PUSH0 SWAP1 SLOAD SWAP1 PUSH2 0x100 EXP SWAP1 DIV PUSH20 0xFFFFFFFFFFFFFFFFFFFFFFFFFFFFFFFFFFFFFFFF AND PUSH20 0xFFFFFFFFFFFFFFFFFFFFFFFFFFFFFFFFFFFFFFFF AND CALLER PUSH20 0xFFFFFFFFFFFFFFFFFFFFFFFFFFFFFFFFFFFFFFFF AND EQ ISZERO DUP1 PUSH2 0x313 JUMPI POP PUSH1 0x3 PUSH0 DUP3 PUSH20 0xFFFFFFFFFFFFFFFFFFFFFFFFFFFFFFFFFFFFFFFF AND PUSH20 0xFFFFFFFFFFFFFFFFFFFFFFFFFFFFFFFFFFFFFFFF AND DUP2 MSTORE PUSH1 0x20 ADD SWAP1 DUP2 MSTORE PUSH1 0x20 ADD PUSH0 KECCAK256 PUSH1 0x1 ADD PUSH0 SWAP1 SLOAD SWAP1 PUSH2 0x100 EXP SWAP1 DIV PUSH1 0xFF AND JUMPDEST PUSH2 0x3CB JUMPI PUSH1 0x1 PUSH1 0x3 PUSH0 DUP4 PUSH20 0xFFFFFFFFFFFFFFFFFFFFFFFFFFFFFFFFFFFFFFFF AND PUSH20 0xFFFFFFFFFFFFFFFFFFFFFFFFFFFFFFFFFFFFFFFF AND DUP2 MSTORE PUSH1 0x20 ADD SWAP1 DUP2 MSTORE PUSH1 0x20 ADD PUSH0 KECCAK256 PUSH0 ADD DUP2 SWAP1 SSTORE POP PUSH0 PUSH1 0x3 PUSH0 DUP4 PUSH20 0xFFFFFFFFFFFFFFFFFFFFFFFFFFFFFFFFFFFFFFFF AND PUSH20 0xFFFFFFFFFFFFFFFFFFFFFFFFFFFFFFFFFFFFFFFF AND DUP2 MSTORE PUSH1 0x20 ADD SWAP1 DUP2 MSTORE PUSH1 0x20 ADD PUSH0 KECCAK256 PUSH1 0x1 ADD PUSH0 PUSH2 0x100 EXP DUP2 SLOAD DUP2 PUSH1 0xFF MUL NOT AND SWAP1 DUP4 ISZERO ISZERO MUL OR SWAP1 SSTORE POP PUSH1 0x1 PUSH0 DUP2 SLOAD DUP1 SWAP3 SWAP2 SWAP1 PUSH2 0x3C5 SWAP1 PUSH2 0xA61 JUMP JUMPDEST SWAP2 SWAP1 POP SSTORE POP JUMPDEST POP JUMP JUMPDEST PUSH0 PUSH1 0x40 MLOAD DUP1 PUSH1 0x60 ADD PUSH1 0x40 MSTORE DUP1 DUP5 DUP2 MSTORE PUSH1 0x20 ADD DUP4 DUP2 MSTORE PUSH1 0x20 ADD PUSH0 DUP2 MSTORE POP SWAP1 POP PUSH1 0x4 DUP2 SWAP1 DUP1 PUSH1 0x1 DUP2 SLOAD ADD DUP1 DUP3 SSTORE DUP1 SWAP2 POP POP PUSH1 0x1 SWAP1 SUB SWAP1 PUSH0 MSTORE PUSH1 0x20 PUSH0 KECCAK256 SWAP1 PUSH1 0x3 MUL ADD PUSH0 SWAP1 SWAP2 SWAP1 SWAP2 SWAP1 SWAP2 POP PUSH0 DUP3 ADD MLOAD DUP2 PUSH0 ADD SSTORE PUSH1 0x20 DUP3 ADD MLOAD DUP2 PUSH1 0x1 ADD SWAP1 DUP2 PUSH2 0x432 SWAP2 SWAP1 PUSH2 0xC48 JUMP JUMPDEST POP PUSH1 0x40 DUP3 ADD MLOAD DUP2 PUSH1 0x2 ADD SSTORE POP POP PUSH0 PUSH0 DUP2 SLOAD DUP1 SWAP3 SWAP2 SWAP1 PUSH2 0x450 SWAP1 PUSH2 0xA61 JUMP JUMPDEST SWAP2 SWAP1 POP SSTORE POP POP POP POP JUMP JUMPDEST PUSH0 PUSH0 PUSH0 SWAP1 POP PUSH0 PUSH0 SWAP1 POP JUMPDEST PUSH1 0x4 DUP1 SLOAD SWAP1 POP DUP2 PUSH1 0xFF AND LT ISZERO PUSH2 0x4E2 JUMPI DUP2 PUSH1 0x4 DUP3 PUSH1 0xFF AND DUP2 SLOAD DUP2 LT PUSH2 0x48C JUMPI PUSH2 0x48B PUSH2 0xD17 JUMP JUMPDEST JUMPDEST SWAP1 PUSH0 MSTORE PUSH1 0x20 PUSH0 KECCAK256 SWAP1 PUSH1 0x3 MUL ADD PUSH1 0x2 ADD SLOAD GT ISZERO PUSH2 0x4CF JUMPI PUSH1 0x4 DUP2 PUSH1 0xFF AND DUP2 SLOAD DUP2 LT PUSH2 0x4B9 JUMPI PUSH2 0x4B8 PUSH2 0xD17 JUMP JUMPDEST JUMPDEST SWAP1 PUSH0 MSTORE PUSH1 0x20 PUSH0 KECCAK256 SWAP1 PUSH1 0x3 MUL ADD PUSH1 0x2 ADD SLOAD SWAP2 POP DUP1 SWAP3 POP JUMPDEST DUP1 DUP1 PUSH2 0x4DA SWAP1 PUSH2 0xD44 JUMP JUMPDEST SWAP2 POP POP PUSH2 0x464 JUMP JUMPDEST POP POP SWAP1 JUMP JUMPDEST PUSH0 PUSH1 0x3 PUSH0 CALLER PUSH20 0xFFFFFFFFFFFFFFFFFFFFFFFFFFFFFFFFFFFFFFFF AND PUSH20 0xFFFFFFFFFFFFFFFFFFFFFFFFFFFFFFFFFFFFFFFF AND DUP2 MSTORE PUSH1 0x20 ADD SWAP1 DUP2 MSTORE PUSH1 0x20 ADD PUSH0 KECCAK256 SWAP1 POP DUP1 PUSH1 0x1 ADD PUSH0 SWAP1 SLOAD SWAP1 PUSH2 0x100 EXP SWAP1 DIV PUSH1 0xFF AND DUP1 PUSH2 0x54B JUMPI POP PUSH1 0x4 DUP1 SLOAD SWAP1 POP DUP3 PUSH1 0xFF AND LT ISZERO JUMPDEST ISZERO PUSH2 0x556 JUMPI POP PUSH2 0x5D0 JUMP JUMPDEST PUSH1 0x1 DUP2 PUSH1 0x1 ADD PUSH0 PUSH2 0x100 EXP DUP2 SLOAD DUP2 PUSH1 0xFF MUL NOT AND SWAP1 DUP4 ISZERO ISZERO MUL OR SWAP1 SSTORE POP DUP2 DUP2 PUSH1 0x1 ADD PUSH1 0x1 PUSH2 0x100 EXP DUP2 SLOAD DUP2 PUSH1 0xFF MUL NOT AND SWAP1 DUP4 PUSH1 0xFF AND MUL OR SWAP1 SSTORE POP DUP1 PUSH0 ADD SLOAD PUSH1 0x4 DUP4 PUSH1 0xFF AND DUP2 SLOAD DUP2 LT PUSH2 0x5AA JUMPI PUSH2 0x5A9 PUSH2 0xD17 JUMP JUMPDEST JUMPDEST SWAP1 PUSH0 MSTORE PUSH1 0x20 PUSH0 KECCAK256 SWAP1 PUSH1 0x3 MUL ADD PUSH1 0x2 ADD PUSH0 DUP3 DUP3 SLOAD PUSH2 0x5C7 SWAP2 SWAP1 PUSH2 0xD6C JUMP JUMPDEST SWAP3 POP POP DUP2 SWAP1 SSTORE POP POP JUMPDEST POP JUMP JUMPDEST PUSH0 SLOAD DUP2 JUMP JUMPDEST PUSH0 PUSH1 0x40 MLOAD SWAP1 POP SWAP1 JUMP JUMPDEST PUSH0 PUSH0 REVERT JUMPDEST PUSH0 PUSH0 REVERT JUMPDEST PUSH0 DUP2 SWAP1 POP SWAP2 SWAP1 POP JUMP JUMPDEST PUSH2 0x5FB DUP2 PUSH2 0x5E9 JUMP JUMPDEST DUP2 EQ PUSH2 0x605 JUMPI PUSH0 PUSH0 REVERT JUMPDEST POP JUMP JUMPDEST PUSH0 DUP2 CALLDATALOAD SWAP1 POP PUSH2 0x616 DUP2 PUSH2 0x5F2 JUMP JUMPDEST SWAP3 SWAP2 POP POP JUMP JUMPDEST PUSH0 PUSH1 0x20 DUP3 DUP5 SUB SLT ISZERO PUSH2 0x631 JUMPI PUSH2 0x630 PUSH2 0x5E1 JUMP JUMPDEST JUMPDEST PUSH0 PUSH2 0x63E DUP5 DUP3 DUP6 ADD PUSH2 0x608 JUMP JUMPDEST SWAP2 POP POP SWAP3 SWAP2 POP POP JUMP JUMPDEST PUSH2 0x650 DUP2 PUSH2 0x5E9 JUMP JUMPDEST DUP3 MSTORE POP POP JUMP JUMPDEST PUSH0 DUP2 MLOAD SWAP1 POP SWAP2 SWAP1 POP JUMP JUMPDEST PUSH0 DUP3 DUP3 MSTORE PUSH1 0x20 DUP3 ADD SWAP1 POP SWAP3 SWAP2 POP POP JUMP JUMPDEST DUP3 DUP2 DUP4 MCOPY PUSH0 DUP4 DUP4 ADD MSTORE POP POP POP JUMP JUMPDEST PUSH0 PUSH1 0x1F NOT PUSH1 0x1F DUP4 ADD AND SWAP1 POP SWAP2 SWAP1 POP JUMP JUMPDEST PUSH0 PUSH2 0x698 DUP3 PUSH2 0x656 JUMP JUMPDEST PUSH2 0x6A2 DUP2 DUP6 PUSH2 0x660 JUMP JUMPDEST SWAP4 POP PUSH2 0x6B2 DUP2 DUP6 PUSH1 0x20 DUP7 ADD PUSH2 0x670 JUMP JUMPDEST PUSH2 0x6BB DUP2 PUSH2 0x67E JUMP JUMPDEST DUP5 ADD SWAP2 POP POP SWAP3 SWAP2 POP POP JUMP JUMPDEST PUSH0 PUSH1 0x60 DUP3 ADD SWAP1 POP PUSH2 0x6D9 PUSH0 DUP4 ADD DUP7 PUSH2 0x647 JUMP JUMPDEST DUP2 DUP2 SUB PUSH1 0x20 DUP4 ADD MSTORE PUSH2 0x6EB DUP2 DUP6 PUSH2 0x68E JUMP JUMPDEST SWAP1 POP PUSH2 0x6FA PUSH1 0x40 DUP4 ADD DUP5 PUSH2 0x647 JUMP JUMPDEST SWAP5 SWAP4 POP POP POP POP JUMP JUMPDEST PUSH0 PUSH20 0xFFFFFFFFFFFFFFFFFFFFFFFFFFFFFFFFFFFFFFFF DUP3 AND SWAP1 POP SWAP2 SWAP1 POP JUMP JUMPDEST PUSH0 PUSH2 0x72B DUP3 PUSH2 0x702 JUMP JUMPDEST SWAP1 POP SWAP2 SWAP1 POP JUMP JUMPDEST PUSH2 0x73B DUP2 PUSH2 0x721 JUMP JUMPDEST DUP3 MSTORE POP POP JUMP JUMPDEST PUSH0 PUSH1 0x20 DUP3 ADD SWAP1 POP PUSH2 0x754 PUSH0 DUP4 ADD DUP5 PUSH2 0x732 JUMP JUMPDEST SWAP3 SWAP2 POP POP JUMP JUMPDEST PUSH0 PUSH1 0x20 DUP3 ADD SWAP1 POP PUSH2 0x76D PUSH0 DUP4 ADD DUP5 PUSH2 0x647 JUMP JUMPDEST SWAP3 SWAP2 POP POP JUMP JUMPDEST PUSH2 0x77C DUP2 PUSH2 0x721 JUMP JUMPDEST DUP2 EQ PUSH2 0x786 JUMPI PUSH0 PUSH0 REVERT JUMPDEST POP JUMP JUMPDEST PUSH0 DUP2 CALLDATALOAD SWAP1 POP PUSH2 0x797 DUP2 PUSH2 0x773 JUMP JUMPDEST SWAP3 SWAP2 POP POP JUMP JUMPDEST PUSH0 PUSH1 0x20 DUP3 DUP5 SUB SLT ISZERO PUSH2 0x7B2 JUMPI PUSH2 0x7B1 PUSH2 0x5E1 JUMP JUMPDEST JUMPDEST PUSH0 PUSH2 0x7BF DUP5 DUP3 DUP6 ADD PUSH2 0x789 JUMP JUMPDEST SWAP2 POP POP SWAP3 SWAP2 POP POP JUMP JUMPDEST PUSH0 PUSH0 REVERT JUMPDEST PUSH0 PUSH0 REVERT JUMPDEST PUSH32 0x4E487B7100000000000000000000000000000000000000000000000000000000 PUSH0 MSTORE PUSH1 0x41 PUSH1 0x4 MSTORE PUSH1 0x24 PUSH0 REVERT JUMPDEST PUSH2 0x806 DUP3 PUSH2 0x67E JUMP JUMPDEST DUP2 ADD DUP2 DUP2 LT PUSH8 0xFFFFFFFFFFFFFFFF DUP3 GT OR ISZERO PUSH2 0x825 JUMPI PUSH2 0x824 PUSH2 0x7D0 JUMP JUMPDEST JUMPDEST DUP1 PUSH1 0x40 MSTORE POP POP POP JUMP JUMPDEST PUSH0 PUSH2 0x837 PUSH2 0x5D8 JUMP JUMPDEST SWAP1 POP PUSH2 0x843 DUP3 DUP3 PUSH2 0x7FD JUMP JUMPDEST SWAP2 SWAP1 POP JUMP JUMPDEST PUSH0 PUSH8 0xFFFFFFFFFFFFFFFF DUP3 GT ISZERO PUSH2 0x862 JUMPI PUSH2 0x861 PUSH2 0x7D0 JUMP JUMPDEST JUMPDEST PUSH2 0x86B DUP3 PUSH2 0x67E JUMP JUMPDEST SWAP1 POP PUSH1 0x20 DUP2 ADD SWAP1 POP SWAP2 SWAP1 POP JUMP JUMPDEST DUP3 DUP2 DUP4 CALLDATACOPY PUSH0 DUP4 DUP4 ADD MSTORE POP POP POP JUMP JUMPDEST PUSH0 PUSH2 0x898 PUSH2 0x893 DUP5 PUSH2 0x848 JUMP JUMPDEST PUSH2 0x82E JUMP JUMPDEST SWAP1 POP DUP3 DUP2 MSTORE PUSH1 0x20 DUP2 ADD DUP5 DUP5 DUP5 ADD GT ISZERO PUSH2 0x8B4 JUMPI PUSH2 0x8B3 PUSH2 0x7CC JUMP JUMPDEST JUMPDEST PUSH2 0x8BF DUP5 DUP3 DUP6 PUSH2 0x878 JUMP JUMPDEST POP SWAP4 SWAP3 POP POP POP JUMP JUMPDEST PUSH0 DUP3 PUSH1 0x1F DUP4 ADD SLT PUSH2 0x8DB JUMPI PUSH2 0x8DA PUSH2 0x7C8 JUMP JUMPDEST JUMPDEST DUP2 CALLDATALOAD PUSH2 0x8EB DUP5 DUP3 PUSH1 0x20 DUP7 ADD PUSH2 0x886 JUMP JUMPDEST SWAP2 POP POP SWAP3 SWAP2 POP POP JUMP JUMPDEST PUSH0 PUSH0 PUSH1 0x40 DUP4 DUP6 SUB SLT ISZERO PUSH2 0x90A JUMPI PUSH2 0x909 PUSH2 0x5E1 JUMP JUMPDEST JUMPDEST PUSH0 PUSH2 0x917 DUP6 DUP3 DUP7 ADD PUSH2 0x608 JUMP JUMPDEST SWAP3 POP POP PUSH1 0x20 DUP4 ADD CALLDATALOAD PUSH8 0xFFFFFFFFFFFFFFFF DUP2 GT ISZERO PUSH2 0x938 JUMPI PUSH2 0x937 PUSH2 0x5E5 JUMP JUMPDEST JUMPDEST PUSH2 0x944 DUP6 DUP3 DUP7 ADD PUSH2 0x8C7 JUMP JUMPDEST SWAP2 POP POP SWAP3 POP SWAP3 SWAP1 POP JUMP JUMPDEST PUSH0 PUSH1 0xFF DUP3 AND SWAP1 POP SWAP2 SWAP1 POP JUMP JUMPDEST PUSH2 0x963 DUP2 PUSH2 0x94E JUMP JUMPDEST DUP3 MSTORE POP POP JUMP JUMPDEST PUSH0 PUSH1 0x20 DUP3 ADD SWAP1 POP PUSH2 0x97C PUSH0 DUP4 ADD DUP5 PUSH2 0x95A JUMP JUMPDEST SWAP3 SWAP2 POP POP JUMP JUMPDEST PUSH2 0x98B DUP2 PUSH2 0x94E JUMP JUMPDEST DUP2 EQ PUSH2 0x995 JUMPI PUSH0 PUSH0 REVERT JUMPDEST POP JUMP JUMPDEST PUSH0 DUP2 CALLDATALOAD SWAP1 POP PUSH2 0x9A6 DUP2 PUSH2 0x982 JUMP JUMPDEST SWAP3 SWAP2 POP POP JUMP JUMPDEST PUSH0 PUSH1 0x20 DUP3 DUP5 SUB SLT ISZERO PUSH2 0x9C1 JUMPI PUSH2 0x9C0 PUSH2 0x5E1 JUMP JUMPDEST JUMPDEST PUSH0 PUSH2 0x9CE DUP5 DUP3 DUP6 ADD PUSH2 0x998 JUMP JUMPDEST SWAP2 POP POP SWAP3 SWAP2 POP POP JUMP JUMPDEST PUSH32 0x4E487B7100000000000000000000000000000000000000000000000000000000 PUSH0 MSTORE PUSH1 0x22 PUSH1 0x4 MSTORE PUSH1 0x24 PUSH0 REVERT JUMPDEST PUSH0 PUSH1 0x2 DUP3 DIV SWAP1 POP PUSH1 0x1 DUP3 AND DUP1 PUSH2 0xA1B JUMPI PUSH1 0x7F DUP3 AND SWAP2 POP JUMPDEST PUSH1 0x20 DUP3 LT DUP2 SUB PUSH2 0xA2E JUMPI PUSH2 0xA2D PUSH2 0x9D7 JUMP JUMPDEST JUMPDEST POP SWAP2 SWAP1 POP JUMP JUMPDEST PUSH32 0x4E487B7100000000000000000000000000000000000000000000000000000000 PUSH0 MSTORE PUSH1 0x11 PUSH1 0x4 MSTORE PUSH1 0x24 PUSH0 REVERT JUMPDEST PUSH0 PUSH2 0xA6B DUP3 PUSH2 0x5E9 JUMP JUMPDEST SWAP2 POP PUSH32 0xFFFFFFFFFFFFFFFFFFFFFFFFFFFFFFFFFFFFFFFFFFFFFFFFFFFFFFFFFFFFFFFF DUP3 SUB PUSH2 0xA9D JUMPI PUSH2 0xA9C PUSH2 0xA34 JUMP JUMPDEST JUMPDEST PUSH1 0x1 DUP3 ADD SWAP1 POP SWAP2 SWAP1 POP JUMP JUMPDEST PUSH0 DUP2 SWAP1 POP DUP2 PUSH0 MSTORE PUSH1 0x20 PUSH0 KECCAK256 SWAP1 POP SWAP2 SWAP1 POP JUMP JUMPDEST PUSH0 PUSH1 0x20 PUSH1 0x1F DUP4 ADD DIV SWAP1 POP SWAP2 SWAP1 POP JUMP JUMPDEST PUSH0 DUP3 DUP3 SHL SWAP1 POP SWAP3 SWAP2 POP POP JUMP JUMPDEST PUSH0 PUSH1 0x8 DUP4 MUL PUSH2 0xB04 PUSH32 0xFFFFFFFFFFFFFFFFFFFFFFFFFFFFFFFFFFFFFFFFFFFFFFFFFFFFFFFFFFFFFFFF DUP3 PUSH2 0xAC9 JUMP JUMPDEST PUSH2 0xB0E DUP7 DUP4 PUSH2 0xAC9 JUMP JUMPDEST SWAP6 POP DUP1 NOT DUP5 AND SWAP4 POP DUP1 DUP7 AND DUP5 OR SWAP3 POP POP POP SWAP4 SWAP3 POP POP POP JUMP JUMPDEST PUSH0 DUP2 SWAP1 POP SWAP2 SWAP1 POP JUMP JUMPDEST PUSH0 PUSH2 0xB49 PUSH2 0xB44 PUSH2 0xB3F DUP5 PUSH2 0x5E9 JUMP JUMPDEST PUSH2 0xB26 JUMP JUMPDEST PUSH2 0x5E9 JUMP JUMPDEST SWAP1 POP SWAP2 SWAP1 POP JUMP JUMPDEST PUSH0 DUP2 SWAP1 POP SWAP2 SWAP1 POP JUMP JUMPDEST PUSH2 0xB62 DUP4 PUSH2 0xB2F JUMP JUMPDEST PUSH2 0xB76 PUSH2 0xB6E DUP3 PUSH2 0xB50 JUMP JUMPDEST DUP5 DUP5 SLOAD PUSH2 0xAD5 JUMP JUMPDEST DUP3 SSTORE POP POP POP POP JUMP JUMPDEST PUSH0 PUSH0 SWAP1 POP SWAP1 JUMP JUMPDEST PUSH2 0xB8D PUSH2 0xB7E JUMP JUMPDEST PUSH2 0xB98 DUP2 DUP5 DUP5 PUSH2 0xB59 JUMP JUMPDEST POP POP POP JUMP JUMPDEST JUMPDEST DUP2 DUP2 LT ISZERO PUSH2 0xBBB JUMPI PUSH2 0xBB0 PUSH0 DUP3 PUSH2 0xB85 JUMP JUMPDEST PUSH1 0x1 DUP2 ADD SWAP1 POP PUSH2 0xB9E JUMP JUMPDEST POP POP JUMP JUMPDEST PUSH1 0x1F DUP3 GT ISZERO PUSH2 0xC00 JUMPI PUSH2 0xBD1 DUP2 PUSH2 0xAA8 JUMP JUMPDEST PUSH2 0xBDA DUP5 PUSH2 0xABA JUMP JUMPDEST DUP2 ADD PUSH1 0x20 DUP6 LT ISZERO PUSH2 0xBE9 JUMPI DUP2 SWAP1 POP JUMPDEST PUSH2 0xBFD PUSH2 0xBF5 DUP6 PUSH2 0xABA JUMP JUMPDEST DUP4 ADD DUP3 PUSH2 0xB9D JUMP JUMPDEST POP POP JUMPDEST POP POP POP JUMP JUMPDEST PUSH0 DUP3 DUP3 SHR SWAP1 POP SWAP3 SWAP2 POP POP JUMP JUMPDEST PUSH0 PUSH2 0xC20 PUSH0 NOT DUP5 PUSH1 0x8 MUL PUSH2 0xC05 JUMP JUMPDEST NOT DUP1 DUP4 AND SWAP2 POP POP SWAP3 SWAP2 POP POP JUMP JUMPDEST PUSH0 PUSH2 0xC38 DUP4 DUP4 PUSH2 0xC11 JUMP JUMPDEST SWAP2 POP DUP3 PUSH1 0x2 MUL DUP3 OR SWAP1 POP SWAP3 SWAP2 POP POP JUMP JUMPDEST PUSH2 0xC51 DUP3 PUSH2 0x656 JUMP JUMPDEST PUSH8 0xFFFFFFFFFFFFFFFF DUP2 GT ISZERO PUSH2 0xC6A JUMPI PUSH2 0xC69 PUSH2 0x7D0 JUMP JUMPDEST JUMPDEST PUSH2 0xC74 DUP3 SLOAD PUSH2 0xA04 JUMP JUMPDEST PUSH2 0xC7F DUP3 DUP3 DUP6 PUSH2 0xBBF JUMP JUMPDEST PUSH0 PUSH1 0x20 SWAP1 POP PUSH1 0x1F DUP4 GT PUSH1 0x1 DUP2 EQ PUSH2 0xCB0 JUMPI PUSH0 DUP5 ISZERO PUSH2 0xC9E JUMPI DUP3 DUP8 ADD MLOAD SWAP1 POP JUMPDEST PUSH2 0xCA8 DUP6 DUP3 PUSH2 0xC2D JUMP JUMPDEST DUP7 SSTORE POP PUSH2 0xD0F JUMP JUMPDEST PUSH1 0x1F NOT DUP5 AND PUSH2 0xCBE DUP7 PUSH2 0xAA8 JUMP JUMPDEST PUSH0 JUMPDEST DUP3 DUP2 LT ISZERO PUSH2 0xCE5 JUMPI DUP5 DUP10 ADD MLOAD DUP3 SSTORE PUSH1 0x1 DUP3 ADD SWAP2 POP PUSH1 0x20 DUP6 ADD SWAP5 POP PUSH1 0x20 DUP2 ADD SWAP1 POP PUSH2 0xCC0 JUMP JUMPDEST DUP7 DUP4 LT ISZERO PUSH2 0xD02 JUMPI DUP5 DUP10 ADD MLOAD PUSH2 0xCFE PUSH1 0x1F DUP10 AND DUP3 PUSH2 0xC11 JUMP JUMPDEST DUP4 SSTORE POP JUMPDEST PUSH1 0x1 PUSH1 0x2 DUP9 MUL ADD DUP9 SSTORE POP POP POP JUMPDEST POP POP POP POP POP POP JUMP JUMPDEST PUSH32 0x4E487B7100000000000000000000000000000000000000000000000000000000 PUSH0 MSTORE PUSH1 0x32 PUSH1 0x4 MSTORE PUSH1 0x24 PUSH0 REVERT JUMPDEST PUSH0 PUSH2 0xD4E DUP3 PUSH2 0x94E JUMP JUMPDEST SWAP2 POP PUSH1 0xFF DUP3 SUB PUSH2 0xD61 JUMPI PUSH2 0xD60 PUSH2 0xA34 JUMP JUMPDEST JUMPDEST PUSH1 0x1 DUP3 ADD SWAP1 POP SWAP2 SWAP1 POP JUMP JUMPDEST PUSH0 PUSH2 0xD76 DUP3 PUSH2 0x5E9 JUMP JUMPDEST SWAP2 POP PUSH2 0xD81 DUP4 PUSH2 0x5E9 JUMP JUMPDEST SWAP3 POP DUP3 DUP3 ADD SWAP1 POP DUP1 DUP3 GT ISZERO PUSH2 0xD99 JUMPI PUSH2 0xD98 PUSH2 0xA34 JUMP JUMPDEST JUMPDEST SWAP3 SWAP2 POP POP JUMP INVALID LOG2 PUSH5 0x6970667358 0x22 SLT KECCAK256 SHL SWAP9 MOD BYTE DUP16 SWAP5 0xF PUSH12 0xEE3C032C1BA535EC52335DD 0x4C SWAP9 PUSH11 0x92D6BAC3F6291D099E6473 PUSH16 0x6C634300081F00330000000000000000 "
				},
				"gasEstimates": {
					"creation": {
						"codeDepositCost": "708200",
						"executionCost": "59355",
						"totalCost": "767555"
					},
					"external": {
						"VoterCount()": "2470",
						"addProposalDetail(uint256,string)": "infinite",
						"chairperson()": "2531",
						"proposalCount()": "2490",
						"proposals(uint256)": "infinite",
						"register(address)": "75859",
						"vote(uint8)": "infinite",
						"winningProposal()": "infinite"
					}
				},
				"methodIdentifiers": {
					"VoterCount()": "2e46fb9a",
					"addProposalDetail(uint256,string)": "585cc4c4",
					"chairperson()": "2e4176cf",
					"proposalCount()": "da35c664",
					"proposals(uint256)": "013cf08b",
					"register(address)": "4420e486",
					"vote(uint8)": "b3f98adc",
					"winningProposal()": "609ff1bd"
				}
			},
			"storageLayout": {
				"storage": [
					{
						"astId": 18,
						"contract": "enum.sol:Ballot",
						"label": "proposalCount",
						"offset": 0,
						"slot": "0",
						"type": "t_uint256"
					},
					{
						"astId": 21,
						"contract": "enum.sol:Ballot",
						"label": "VoterCount",
						"offset": 0,
						"slot": "1",
						"type": "t_uint256"
					},
					{
						"astId": 23,
						"contract": "enum.sol:Ballot",
						"label": "chairperson",
						"offset": 0,
						"slot": "2",
						"type": "t_address"
					},
					{
						"astId": 28,
						"contract": "enum.sol:Ballot",
						"label": "voters",
						"offset": 0,
						"slot": "3",
						"type": "t_mapping(t_address,t_struct(Voter)8_storage)"
					},
					{
						"astId": 32,
						"contract": "enum.sol:Ballot",
						"label": "proposals",
						"offset": 0,
						"slot": "4",
						"type": "t_array(t_struct(Proposal)15_storage)dyn_storage"
					}
				],
				"types": {
					"t_address": {
						"encoding": "inplace",
						"label": "address",
						"numberOfBytes": "20"
					},
					"t_array(t_struct(Proposal)15_storage)dyn_storage": {
						"base": "t_struct(Proposal)15_storage",
						"encoding": "dynamic_array",
						"label": "struct Ballot.Proposal[]",
						"numberOfBytes": "32"
					},
					"t_bool": {
						"encoding": "inplace",
						"label": "bool",
						"numberOfBytes": "1"
					},
					"t_mapping(t_address,t_struct(Voter)8_storage)": {
						"encoding": "mapping",
						"key": "t_address",
						"label": "mapping(address => struct Ballot.Voter)",
						"numberOfBytes": "32",
						"value": "t_struct(Voter)8_storage"
					},
					"t_string_storage": {
						"encoding": "bytes",
						"label": "string",
						"numberOfBytes": "32"
					},
					"t_struct(Proposal)15_storage": {
						"encoding": "inplace",
						"label": "struct Ballot.Proposal",
						"members": [
							{
								"astId": 10,
								"contract": "enum.sol:Ballot",
								"label": "proposalID",
								"offset": 0,
								"slot": "0",
								"type": "t_uint256"
							},
							{
								"astId": 12,
								"contract": "enum.sol:Ballot",
								"label": "topic",
								"offset": 0,
								"slot": "1",
								"type": "t_string_storage"
							},
							{
								"astId": 14,
								"contract": "enum.sol:Ballot",
								"label": "voteCount",
								"offset": 0,
								"slot": "2",
								"type": "t_uint256"
							}
						],
						"numberOfBytes": "96"
					},
					"t_struct(Voter)8_storage": {
						"encoding": "inplace",
						"label": "struct Ballot.Voter",
						"members": [
							{
								"astId": 3,
								"contract": "enum.sol:Ballot",
								"label": "weight",
								"offset": 0,
								"slot": "0",
								"type": "t_uint256"
							},
							{
								"astId": 5,
								"contract": "enum.sol:Ballot",
								"label": "voted",
								"offset": 0,
								"slot": "1",
								"type": "t_bool"
							},
							{
								"astId": 7,
								"contract": "enum.sol:Ballot",
								"label": "vote",
								"offset": 1,
								"slot": "1",
								"type": "t_uint8"
							}
						],
						"numberOfBytes": "64"
					},
					"t_uint256": {
						"encoding": "inplace",
						"label": "uint256",
						"numberOfBytes": "32"
					},
					"t_uint8": {
						"encoding": "inplace",
						"label": "uint8",
						"numberOfBytes": "1"
					}
				}
			},
			"userdoc": {
				"kind": "user",
				"methods": {
					"vote(uint8)": {
						"notice": "Give a single vote to proposal $(toProposal)."
					}
				},
				"version": 1
			}
		}
	}
}