{
	"contracts/Register.sol": {
		"Register": {
			"abi": [
				{
					"anonymous": false,
					"inputs": [
						{
							"indexed": true,
							"internalType": "address",
							"name": "userAddress",
							"type": "address"
						},
						{
							"indexed": false,
							"internalType": "string",
							"name": "username",
							"type": "string"
						}
					],
					"name": "UserRegistered",
					"type": "event"
				},
				{
					"inputs": [
						{
							"internalType": "address",
							"name": "_user",
							"type": "address"
						}
					],
					"name": "getUser",
					"outputs": [
						{
							"internalType": "string",
							"name": "",
							"type": "string"
						},
						{
							"internalType": "address",
							"name": "",
							"type": "address"
						},
						{
							"internalType": "bool",
							"name": "",
							"type": "bool"
						}
					],
					"stateMutability": "view",
					"type": "function"
				},
				{
					"inputs": [
						{
							"internalType": "address",
							"name": "_user",
							"type": "address"
						}
					],
					"name": "isUserRegistered",
					"outputs": [
						{
							"internalType": "bool",
							"name": "",
							"type": "bool"
						}
					],
					"stateMutability": "view",
					"type": "function"
				},
				{
					"inputs": [],
					"name": "login",
					"outputs": [
						{
							"internalType": "string",
							"name": "",
							"type": "string"
						}
					],
					"stateMutability": "view",
					"type": "function"
				},
				{
					"inputs": [
						{
							"internalType": "string",
							"name": "_username",
							"type": "string"
						}
					],
					"name": "register",
					"outputs": [],
					"stateMutability": "nonpayable",
					"type": "function"
				}
			],
			"devdoc": {
				"kind": "dev",
				"methods": {},
				"version": 1
			},
			"evm": {
				"assembly": "    /* \"contracts/Register.sol\":60:1285  contract Register {... */\n  mstore(0x40, 0x80)\n  callvalue\n  dup1\n  iszero\n  tag_1\n  jumpi\n  0x00\n  dup1\n  revert\ntag_1:\n  pop\n  dataSize(sub_0)\n  dup1\n  dataOffset(sub_0)\n  0x00\n  codecopy\n  0x00\n  return\nstop\n\nsub_0: assembly {\n        /* \"contracts/Register.sol\":60:1285  contract Register {... */\n      mstore(0x40, 0x80)\n      callvalue\n      dup1\n      iszero\n      tag_1\n      jumpi\n      0x00\n      dup1\n      revert\n    tag_1:\n      pop\n      jumpi(tag_2, lt(calldatasize, 0x04))\n      shr(0xe0, calldataload(0x00))\n      dup1\n      0x163f7522\n      eq\n      tag_3\n      jumpi\n      dup1\n      0x6f77926b\n      eq\n      tag_4\n      jumpi\n      dup1\n      0xb34e97e8\n      eq\n      tag_5\n      jumpi\n      dup1\n      0xf2c298be\n      eq\n      tag_6\n      jumpi\n    tag_2:\n      0x00\n      dup1\n      revert\n        /* \"contracts/Register.sol\":750:869  function isUserRegistered(address _user) public view returns (bool) {... */\n    tag_3:\n      tag_7\n      0x04\n      dup1\n      calldatasize\n      sub\n      dup2\n      add\n      swap1\n      tag_8\n      swap2\n      swap1\n      tag_9\n      jump\t// in\n    tag_8:\n      tag_10\n      jump\t// in\n    tag_7:\n      mload(0x40)\n      tag_11\n      swap2\n      swap1\n      tag_12\n      jump\t// in\n    tag_11:\n      mload(0x40)\n      dup1\n      swap2\n      sub\n      swap1\n      return\n        /* \"contracts/Register.sol\":877:1068  function getUser(address _user) public view returns (string memory, address, bool) {... */\n    tag_4:\n      tag_13\n      0x04\n      dup1\n      calldatasize\n      sub\n      dup2\n      add\n      swap1\n      tag_14\n      swap2\n      swap1\n      tag_9\n      jump\t// in\n    tag_14:\n      tag_15\n      jump\t// in\n    tag_13:\n      mload(0x40)\n      tag_16\n      swap4\n      swap3\n      swap2\n      swap1\n      tag_17\n      jump\t// in\n    tag_16:\n      mload(0x40)\n      dup1\n      swap2\n      sub\n      swap1\n      return\n        /* \"contracts/Register.sol\":1076:1282  function login() public view returns (string memory) {... */\n    tag_5:\n      tag_18\n      tag_19\n      jump\t// in\n    tag_18:\n      mload(0x40)\n      tag_20\n      swap2\n      swap1\n      tag_21\n      jump\t// in\n    tag_20:\n      mload(0x40)\n      dup1\n      swap2\n      sub\n      swap1\n      return\n        /* \"contracts/Register.sol\":393:742  function register(string memory _username) public {... */\n    tag_6:\n      tag_22\n      0x04\n      dup1\n      calldatasize\n      sub\n      dup2\n      add\n      swap1\n      tag_23\n      swap2\n      swap1\n      tag_24\n      jump\t// in\n    tag_23:\n      tag_25\n      jump\t// in\n    tag_22:\n      stop\n        /* \"contracts/Register.sol\":750:869  function isUserRegistered(address _user) public view returns (bool) {... */\n    tag_10:\n        /* \"contracts/Register.sol\":812:816  bool */\n      0x00\n        /* \"contracts/Register.sol\":836:841  users */\n      dup1\n        /* \"contracts/Register.sol\":836:848  users[_user] */\n      0x00\n        /* \"contracts/Register.sol\":842:847  _user */\n      dup4\n        /* \"contracts/Register.sol\":836:848  users[_user] */\n      0xffffffffffffffffffffffffffffffffffffffff\n      and\n      0xffffffffffffffffffffffffffffffffffffffff\n      and\n      dup2\n      mstore\n      0x20\n      add\n      swap1\n      dup2\n      mstore\n      0x20\n      add\n      0x00\n      keccak256\n        /* \"contracts/Register.sol\":836:861  users[_user].isRegistered */\n      0x01\n      add\n      0x14\n      swap1\n      sload\n      swap1\n      0x0100\n      exp\n      swap1\n      div\n      0xff\n      and\n        /* \"contracts/Register.sol\":829:861  return users[_user].isRegistered */\n      swap1\n      pop\n        /* \"contracts/Register.sol\":750:869  function isUserRegistered(address _user) public view returns (bool) {... */\n      swap2\n      swap1\n      pop\n      jump\t// out\n        /* \"contracts/Register.sol\":877:1068  function getUser(address _user) public view returns (string memory, address, bool) {... */\n    tag_15:\n        /* \"contracts/Register.sol\":930:943  string memory */\n      0x60\n        /* \"contracts/Register.sol\":945:952  address */\n      0x00\n        /* \"contracts/Register.sol\":954:958  bool */\n      dup1\n        /* \"contracts/Register.sol\":971:984  User memory u */\n      0x00\n        /* \"contracts/Register.sol\":987:992  users */\n      dup1\n        /* \"contracts/Register.sol\":987:999  users[_user] */\n      0x00\n        /* \"contracts/Register.sol\":993:998  _user */\n      dup7\n        /* \"contracts/Register.sol\":987:999  users[_user] */\n      0xffffffffffffffffffffffffffffffffffffffff\n      and\n      0xffffffffffffffffffffffffffffffffffffffff\n      and\n      dup2\n      mstore\n      0x20\n      add\n      swap1\n      dup2\n      mstore\n      0x20\n      add\n      0x00\n      keccak256\n        /* \"contracts/Register.sol\":971:999  User memory u = users[_user] */\n      mload(0x40)\n      dup1\n      0x60\n      add\n      0x40\n      mstore\n      swap1\n      dup2\n      0x00\n      dup3\n      add\n      dup1\n      sload\n      tag_28\n      swap1\n      tag_29\n      jump\t// in\n    tag_28:\n      dup1\n      0x1f\n      add\n      0x20\n      dup1\n      swap2\n      div\n      mul\n      0x20\n      add\n      mload(0x40)\n      swap1\n      dup2\n      add\n      0x40\n      mstore\n      dup1\n      swap3\n      swap2\n      swap1\n      dup2\n      dup2\n      mstore\n      0x20\n      add\n      dup3\n      dup1\n      sload\n      tag_30\n      swap1\n      tag_29\n      jump\t// in\n    tag_30:\n      dup1\n      iszero\n      tag_31\n      jumpi\n      dup1\n      0x1f\n      lt\n      tag_32\n      jumpi\n      0x0100\n      dup1\n      dup4\n      sload\n      div\n      mul\n      dup4\n      mstore\n      swap2\n      0x20\n      add\n      swap2\n      jump(tag_31)\n    tag_32:\n      dup3\n      add\n      swap2\n      swap1\n      0x00\n      mstore\n      keccak256(0x00, 0x20)\n      swap1\n    tag_33:\n      dup2\n      sload\n      dup2\n      mstore\n      swap1\n      0x01\n      add\n      swap1\n      0x20\n      add\n      dup1\n      dup4\n      gt\n      tag_33\n      jumpi\n      dup3\n      swap1\n      sub\n      0x1f\n      and\n      dup3\n      add\n      swap2\n    tag_31:\n      pop\n      pop\n      pop\n      pop\n      pop\n      dup2\n      mstore\n      0x20\n      add\n      0x01\n      dup3\n      add\n      0x00\n      swap1\n      sload\n      swap1\n      0x0100\n      exp\n      swap1\n      div\n      0xffffffffffffffffffffffffffffffffffffffff\n      and\n      0xffffffffffffffffffffffffffffffffffffffff\n      and\n      0xffffffffffffffffffffffffffffffffffffffff\n      and\n      dup2\n      mstore\n      0x20\n      add\n      0x01\n      dup3\n      add\n      0x14\n      swap1\n      sload\n      swap1\n      0x0100\n      exp\n      swap1\n      div\n      0xff\n      and\n      iszero\n      iszero\n      iszero\n      iszero\n      dup2\n      mstore\n      pop\n      pop\n      swap1\n      pop\n        /* \"contracts/Register.sol\":1018:1019  u */\n      dup1\n        /* \"contracts/Register.sol\":1018:1028  u.username */\n      0x00\n      add\n      mload\n        /* \"contracts/Register.sol\":1030:1031  u */\n      dup2\n        /* \"contracts/Register.sol\":1030:1043  u.userAddress */\n      0x20\n      add\n      mload\n        /* \"contracts/Register.sol\":1045:1046  u */\n      dup3\n        /* \"contracts/Register.sol\":1045:1059  u.isRegistered */\n      0x40\n      add\n      mload\n        /* \"contracts/Register.sol\":1010:1060  return (u.username, u.userAddress, u.isRegistered) */\n      swap4\n      pop\n      swap4\n      pop\n      swap4\n      pop\n      pop\n        /* \"contracts/Register.sol\":877:1068  function getUser(address _user) public view returns (string memory, address, bool) {... */\n      swap2\n      swap4\n      swap1\n      swap3\n      pop\n      jump\t// out\n        /* \"contracts/Register.sol\":1076:1282  function login() public view returns (string memory) {... */\n    tag_19:\n        /* \"contracts/Register.sol\":1114:1127  string memory */\n      0x60\n        /* \"contracts/Register.sol\":1148:1153  users */\n      0x00\n        /* \"contracts/Register.sol\":1148:1165  users[msg.sender] */\n      dup1\n        /* \"contracts/Register.sol\":1154:1164  msg.sender */\n      caller\n        /* \"contracts/Register.sol\":1148:1165  users[msg.sender] */\n      0xffffffffffffffffffffffffffffffffffffffff\n      and\n      0xffffffffffffffffffffffffffffffffffffffff\n      and\n      dup2\n      mstore\n      0x20\n      add\n      swap1\n      dup2\n      mstore\n      0x20\n      add\n      0x00\n      keccak256\n        /* \"contracts/Register.sol\":1148:1178  users[msg.sender].isRegistered */\n      0x01\n      add\n      0x14\n      swap1\n      sload\n      swap1\n      0x0100\n      exp\n      swap1\n      div\n      0xff\n      and\n        /* \"contracts/Register.sol\":1140:1197  require(users[msg.sender].isRegistered, \"Not registered\") */\n      tag_35\n      jumpi\n      mload(0x40)\n      0x08c379a000000000000000000000000000000000000000000000000000000000\n      dup2\n      mstore\n      0x04\n      add\n      tag_36\n      swap1\n      tag_37\n      jump\t// in\n    tag_36:\n      mload(0x40)\n      dup1\n      swap2\n      sub\n      swap1\n      revert\n    tag_35:\n        /* \"contracts/Register.sol\":1247:1252  users */\n      0x00\n        /* \"contracts/Register.sol\":1247:1264  users[msg.sender] */\n      dup1\n        /* \"contracts/Register.sol\":1253:1263  msg.sender */\n      caller\n        /* \"contracts/Register.sol\":1247:1264  users[msg.sender] */\n      0xffffffffffffffffffffffffffffffffffffffff\n      and\n      0xffffffffffffffffffffffffffffffffffffffff\n      and\n      dup2\n      mstore\n      0x20\n      add\n      swap1\n      dup2\n      mstore\n      0x20\n      add\n      0x00\n      keccak256\n        /* \"contracts/Register.sol\":1247:1273  users[msg.sender].username */\n      0x00\n      add\n        /* \"contracts/Register.sol\":1215:1274  string.concat(\"Welcome back, \", users[msg.sender].username) */\n      add(0x20, mload(0x40))\n      tag_38\n      swap2\n      swap1\n      tag_39\n      jump\t// in\n    tag_38:\n      mload(0x40)\n      0x20\n      dup2\n      dup4\n      sub\n      sub\n      dup2\n      mstore\n      swap1\n      0x40\n      mstore\n        /* \"contracts/Register.sol\":1208:1274  return string.concat(\"Welcome back, \", users[msg.sender].username) */\n      swap1\n      pop\n        /* \"contracts/Register.sol\":1076:1282  function login() public view returns (string memory) {... */\n      swap1\n      jump\t// out\n        /* \"contracts/Register.sol\":393:742  function register(string memory _username) public {... */\n    tag_25:\n        /* \"contracts/Register.sol\":474:596  User({... */\n      mload(0x40)\n      dup1\n      0x60\n      add\n      0x40\n      mstore\n      dup1\n        /* \"contracts/Register.sol\":504:513  _username */\n      dup3\n        /* \"contracts/Register.sol\":474:596  User({... */\n      dup2\n      mstore\n      0x20\n      add\n        /* \"contracts/Register.sol\":541:551  msg.sender */\n      caller\n        /* \"contracts/Register.sol\":474:596  User({... */\n      0xffffffffffffffffffffffffffffffffffffffff\n      and\n      dup2\n      mstore\n      0x20\n      add\n        /* \"contracts/Register.sol\":580:584  true */\n      0x01\n        /* \"contracts/Register.sol\":474:596  User({... */\n      iszero\n      iszero\n      dup2\n      mstore\n      pop\n        /* \"contracts/Register.sol\":454:459  users */\n      0x00\n        /* \"contracts/Register.sol\":454:471  users[msg.sender] */\n      dup1\n        /* \"contracts/Register.sol\":460:470  msg.sender */\n      caller\n        /* \"contracts/Register.sol\":454:471  users[msg.sender] */\n      0xffffffffffffffffffffffffffffffffffffffff\n      and\n      0xffffffffffffffffffffffffffffffffffffffff\n      and\n      dup2\n      mstore\n      0x20\n      add\n      swap1\n      dup2\n      mstore\n      0x20\n      add\n      0x00\n      keccak256\n        /* \"contracts/Register.sol\":454:596  users[msg.sender] = User({... */\n      0x00\n      dup3\n      add\n      mload\n      dup2\n      0x00\n      add\n      swap1\n      dup2\n      tag_41\n      swap2\n      swap1\n      tag_42\n      jump\t// in\n    tag_41:\n      pop\n      0x20\n      dup3\n      add\n      mload\n      dup2\n      0x01\n      add\n      exp(0x0100, 0x00)\n      dup2\n      sload\n      dup2\n      0xffffffffffffffffffffffffffffffffffffffff\n      mul\n      not\n      and\n      swap1\n      dup4\n      0xffffffffffffffffffffffffffffffffffffffff\n      and\n      mul\n      or\n      swap1\n      sstore\n      pop\n      0x40\n      dup3\n      add\n      mload\n      dup2\n      0x01\n      add\n      exp(0x0100, 0x14)\n      dup2\n      sload\n      dup2\n      0xff\n      mul\n      not\n      and\n      swap1\n      dup4\n      iszero\n      iszero\n      mul\n      or\n      swap1\n      sstore\n      pop\n      swap1\n      pop\n      pop\n        /* \"contracts/Register.sol\":640:650  msg.sender */\n      caller\n        /* \"contracts/Register.sol\":609:626  usernameToAddress */\n      0x01\n        /* \"contracts/Register.sol\":627:636  _username */\n      dup3\n        /* \"contracts/Register.sol\":609:637  usernameToAddress[_username] */\n      mload(0x40)\n      tag_43\n      swap2\n      swap1\n      tag_44\n      jump\t// in\n    tag_43:\n      swap1\n      dup2\n      mstore\n      0x20\n      add\n      mload(0x40)\n      dup1\n      swap2\n      sub\n      swap1\n      keccak256\n      0x00\n        /* \"contracts/Register.sol\":609:650  usernameToAddress[_username] = msg.sender */\n      0x0100\n      exp\n      dup2\n      sload\n      dup2\n      0xffffffffffffffffffffffffffffffffffffffff\n      mul\n      not\n      and\n      swap1\n      dup4\n      0xffffffffffffffffffffffffffffffffffffffff\n      and\n      mul\n      or\n      swap1\n      sstore\n      pop\n        /* \"contracts/Register.sol\":712:722  msg.sender */\n      caller\n        /* \"contracts/Register.sol\":697:734  UserRegistered(msg.sender, _username) */\n      0xffffffffffffffffffffffffffffffffffffffff\n      and\n      0x48cac28ad4dc618e15f4c2dd5e97751182f166de97b25618318b2112aa951a2f\n        /* \"contracts/Register.sol\":724:733  _username */\n      dup3\n        /* \"contracts/Register.sol\":697:734  UserRegistered(msg.sender, _username) */\n      mload(0x40)\n      tag_45\n      swap2\n      swap1\n      tag_21\n      jump\t// in\n    tag_45:\n      mload(0x40)\n      dup1\n      swap2\n      sub\n      swap1\n      log2\n        /* \"contracts/Register.sol\":393:742  function register(string memory _username) public {... */\n      pop\n      jump\t// out\n        /* \"#utility.yul\":7:82   */\n    tag_46:\n        /* \"#utility.yul\":40:46   */\n      0x00\n        /* \"#utility.yul\":73:75   */\n      0x40\n        /* \"#utility.yul\":67:76   */\n      mload\n        /* \"#utility.yul\":57:76   */\n      swap1\n      pop\n        /* \"#utility.yul\":7:82   */\n      swap1\n      jump\t// out\n        /* \"#utility.yul\":88:205   */\n    tag_47:\n        /* \"#utility.yul\":197:198   */\n      0x00\n        /* \"#utility.yul\":194:195   */\n      dup1\n        /* \"#utility.yul\":187:199   */\n      revert\n        /* \"#utility.yul\":211:328   */\n    tag_48:\n        /* \"#utility.yul\":320:321   */\n      0x00\n        /* \"#utility.yul\":317:318   */\n      dup1\n        /* \"#utility.yul\":310:322   */\n      revert\n        /* \"#utility.yul\":334:460   */\n    tag_49:\n        /* \"#utility.yul\":371:378   */\n      0x00\n        /* \"#utility.yul\":411:453   */\n      0xffffffffffffffffffffffffffffffffffffffff\n        /* \"#utility.yul\":404:409   */\n      dup3\n        /* \"#utility.yul\":400:454   */\n      and\n        /* \"#utility.yul\":389:454   */\n      swap1\n      pop\n        /* \"#utility.yul\":334:460   */\n      swap2\n      swap1\n      pop\n      jump\t// out\n        /* \"#utility.yul\":466:562   */\n    tag_50:\n        /* \"#utility.yul\":503:510   */\n      0x00\n        /* \"#utility.yul\":532:556   */\n      tag_99\n        /* \"#utility.yul\":550:555   */\n      dup3\n        /* \"#utility.yul\":532:556   */\n      tag_49\n      jump\t// in\n    tag_99:\n        /* \"#utility.yul\":521:556   */\n      swap1\n      pop\n        /* \"#utility.yul\":466:562   */\n      swap2\n      swap1\n      pop\n      jump\t// out\n        /* \"#utility.yul\":568:690   */\n    tag_51:\n        /* \"#utility.yul\":641:665   */\n      tag_101\n        /* \"#utility.yul\":659:664   */\n      dup2\n        /* \"#utility.yul\":641:665   */\n      tag_50\n      jump\t// in\n    tag_101:\n        /* \"#utility.yul\":634:639   */\n      dup2\n        /* \"#utility.yul\":631:666   */\n      eq\n        /* \"#utility.yul\":621:684   */\n      tag_102\n      jumpi\n        /* \"#utility.yul\":680:681   */\n      0x00\n        /* \"#utility.yul\":677:678   */\n      dup1\n        /* \"#utility.yul\":670:682   */\n      revert\n        /* \"#utility.yul\":621:684   */\n    tag_102:\n        /* \"#utility.yul\":568:690   */\n      pop\n      jump\t// out\n        /* \"#utility.yul\":696:835   */\n    tag_52:\n        /* \"#utility.yul\":742:747   */\n      0x00\n        /* \"#utility.yul\":780:786   */\n      dup2\n        /* \"#utility.yul\":767:787   */\n      calldataload\n        /* \"#utility.yul\":758:787   */\n      swap1\n      pop\n        /* \"#utility.yul\":796:829   */\n      tag_104\n        /* \"#utility.yul\":823:828   */\n      dup2\n        /* \"#utility.yul\":796:829   */\n      tag_51\n      jump\t// in\n    tag_104:\n        /* \"#utility.yul\":696:835   */\n      swap3\n      swap2\n      pop\n      pop\n      jump\t// out\n        /* \"#utility.yul\":841:1170   */\n    tag_9:\n        /* \"#utility.yul\":900:906   */\n      0x00\n        /* \"#utility.yul\":949:951   */\n      0x20\n        /* \"#utility.yul\":937:946   */\n      dup3\n        /* \"#utility.yul\":928:935   */\n      dup5\n        /* \"#utility.yul\":924:947   */\n      sub\n        /* \"#utility.yul\":920:952   */\n      slt\n        /* \"#utility.yul\":917:1036   */\n      iszero\n      tag_106\n      jumpi\n        /* \"#utility.yul\":955:1034   */\n      tag_107\n      tag_47\n      jump\t// in\n    tag_107:\n        /* \"#utility.yul\":917:1036   */\n    tag_106:\n        /* \"#utility.yul\":1075:1076   */\n      0x00\n        /* \"#utility.yul\":1100:1153   */\n      tag_108\n        /* \"#utility.yul\":1145:1152   */\n      dup5\n        /* \"#utility.yul\":1136:1142   */\n      dup3\n        /* \"#utility.yul\":1125:1134   */\n      dup6\n        /* \"#utility.yul\":1121:1143   */\n      add\n        /* \"#utility.yul\":1100:1153   */\n      tag_52\n      jump\t// in\n    tag_108:\n        /* \"#utility.yul\":1090:1153   */\n      swap2\n      pop\n        /* \"#utility.yul\":1046:1163   */\n      pop\n        /* \"#utility.yul\":841:1170   */\n      swap3\n      swap2\n      pop\n      pop\n      jump\t// out\n        /* \"#utility.yul\":1176:1266   */\n    tag_53:\n        /* \"#utility.yul\":1210:1217   */\n      0x00\n        /* \"#utility.yul\":1253:1258   */\n      dup2\n        /* \"#utility.yul\":1246:1259   */\n      iszero\n        /* \"#utility.yul\":1239:1260   */\n      iszero\n        /* \"#utility.yul\":1228:1260   */\n      swap1\n      pop\n        /* \"#utility.yul\":1176:1266   */\n      swap2\n      swap1\n      pop\n      jump\t// out\n        /* \"#utility.yul\":1272:1381   */\n    tag_54:\n        /* \"#utility.yul\":1353:1374   */\n      tag_111\n        /* \"#utility.yul\":1368:1373   */\n      dup2\n        /* \"#utility.yul\":1353:1374   */\n      tag_53\n      jump\t// in\n    tag_111:\n        /* \"#utility.yul\":1348:1351   */\n      dup3\n        /* \"#utility.yul\":1341:1375   */\n      mstore\n        /* \"#utility.yul\":1272:1381   */\n      pop\n      pop\n      jump\t// out\n        /* \"#utility.yul\":1387:1597   */\n    tag_12:\n        /* \"#utility.yul\":1474:1478   */\n      0x00\n        /* \"#utility.yul\":1512:1514   */\n      0x20\n        /* \"#utility.yul\":1501:1510   */\n      dup3\n        /* \"#utility.yul\":1497:1515   */\n      add\n        /* \"#utility.yul\":1489:1515   */\n      swap1\n      pop\n        /* \"#utility.yul\":1525:1590   */\n      tag_113\n        /* \"#utility.yul\":1587:1588   */\n      0x00\n        /* \"#utility.yul\":1576:1585   */\n      dup4\n        /* \"#utility.yul\":1572:1589   */\n      add\n        /* \"#utility.yul\":1563:1569   */\n      dup5\n        /* \"#utility.yul\":1525:1590   */\n      tag_54\n      jump\t// in\n    tag_113:\n        /* \"#utility.yul\":1387:1597   */\n      swap3\n      swap2\n      pop\n      pop\n      jump\t// out\n        /* \"#utility.yul\":1603:1702   */\n    tag_55:\n        /* \"#utility.yul\":1655:1661   */\n      0x00\n        /* \"#utility.yul\":1689:1694   */\n      dup2\n        /* \"#utility.yul\":1683:1695   */\n      mload\n        /* \"#utility.yul\":1673:1695   */\n      swap1\n      pop\n        /* \"#utility.yul\":1603:1702   */\n      swap2\n      swap1\n      pop\n      jump\t// out\n        /* \"#utility.yul\":1708:1877   */\n    tag_56:\n        /* \"#utility.yul\":1792:1803   */\n      0x00\n        /* \"#utility.yul\":1826:1832   */\n      dup3\n        /* \"#utility.yul\":1821:1824   */\n      dup3\n        /* \"#utility.yul\":1814:1833   */\n      mstore\n        /* \"#utility.yul\":1866:1870   */\n      0x20\n        /* \"#utility.yul\":1861:1864   */\n      dup3\n        /* \"#utility.yul\":1857:1871   */\n      add\n        /* \"#utility.yul\":1842:1871   */\n      swap1\n      pop\n        /* \"#utility.yul\":1708:1877   */\n      swap3\n      swap2\n      pop\n      pop\n      jump\t// out\n        /* \"#utility.yul\":1883:2131   */\n    tag_57:\n        /* \"#utility.yul\":1965:1966   */\n      0x00\n        /* \"#utility.yul\":1975:2088   */\n    tag_117:\n        /* \"#utility.yul\":1989:1995   */\n      dup4\n        /* \"#utility.yul\":1986:1987   */\n      dup2\n        /* \"#utility.yul\":1983:1996   */\n      lt\n        /* \"#utility.yul\":1975:2088   */\n      iszero\n      tag_119\n      jumpi\n        /* \"#utility.yul\":2074:2075   */\n      dup1\n        /* \"#utility.yul\":2069:2072   */\n      dup3\n        /* \"#utility.yul\":2065:2076   */\n      add\n        /* \"#utility.yul\":2059:2077   */\n      mload\n        /* \"#utility.yul\":2055:2056   */\n      dup2\n        /* \"#utility.yul\":2050:2053   */\n      dup5\n        /* \"#utility.yul\":2046:2057   */\n      add\n        /* \"#utility.yul\":2039:2078   */\n      mstore\n        /* \"#utility.yul\":2011:2013   */\n      0x20\n        /* \"#utility.yul\":2008:2009   */\n      dup2\n        /* \"#utility.yul\":2004:2014   */\n      add\n        /* \"#utility.yul\":1999:2014   */\n      swap1\n      pop\n        /* \"#utility.yul\":1975:2088   */\n      jump(tag_117)\n    tag_119:\n        /* \"#utility.yul\":2122:2123   */\n      0x00\n        /* \"#utility.yul\":2113:2119   */\n      dup5\n        /* \"#utility.yul\":2108:2111   */\n      dup5\n        /* \"#utility.yul\":2104:2120   */\n      add\n        /* \"#utility.yul\":2097:2124   */\n      mstore\n        /* \"#utility.yul\":1945:2131   */\n      pop\n        /* \"#utility.yul\":1883:2131   */\n      pop\n      pop\n      pop\n      jump\t// out\n        /* \"#utility.yul\":2137:2239   */\n    tag_58:\n        /* \"#utility.yul\":2178:2184   */\n      0x00\n        /* \"#utility.yul\":2229:2231   */\n      0x1f\n        /* \"#utility.yul\":2225:2232   */\n      not\n        /* \"#utility.yul\":2220:2222   */\n      0x1f\n        /* \"#utility.yul\":2213:2218   */\n      dup4\n        /* \"#utility.yul\":2209:2223   */\n      add\n        /* \"#utility.yul\":2205:2233   */\n      and\n        /* \"#utility.yul\":2195:2233   */\n      swap1\n      pop\n        /* \"#utility.yul\":2137:2239   */\n      swap2\n      swap1\n      pop\n      jump\t// out\n        /* \"#utility.yul\":2245:2622   */\n    tag_59:\n        /* \"#utility.yul\":2333:2336   */\n      0x00\n        /* \"#utility.yul\":2361:2400   */\n      tag_122\n        /* \"#utility.yul\":2394:2399   */\n      dup3\n        /* \"#utility.yul\":2361:2400   */\n      tag_55\n      jump\t// in\n    tag_122:\n        /* \"#utility.yul\":2416:2487   */\n      tag_123\n        /* \"#utility.yul\":2480:2486   */\n      dup2\n        /* \"#utility.yul\":2475:2478   */\n      dup6\n        /* \"#utility.yul\":2416:2487   */\n      tag_56\n      jump\t// in\n    tag_123:\n        /* \"#utility.yul\":2409:2487   */\n      swap4\n      pop\n        /* \"#utility.yul\":2496:2561   */\n      tag_124\n        /* \"#utility.yul\":2554:2560   */\n      dup2\n        /* \"#utility.yul\":2549:2552   */\n      dup6\n        /* \"#utility.yul\":2542:2546   */\n      0x20\n        /* \"#utility.yul\":2535:2540   */\n      dup7\n        /* \"#utility.yul\":2531:2547   */\n      add\n        /* \"#utility.yul\":2496:2561   */\n      tag_57\n      jump\t// in\n    tag_124:\n        /* \"#utility.yul\":2586:2615   */\n      tag_125\n        /* \"#utility.yul\":2608:2614   */\n      dup2\n        /* \"#utility.yul\":2586:2615   */\n      tag_58\n      jump\t// in\n    tag_125:\n        /* \"#utility.yul\":2581:2584   */\n      dup5\n        /* \"#utility.yul\":2577:2616   */\n      add\n        /* \"#utility.yul\":2570:2616   */\n      swap2\n      pop\n        /* \"#utility.yul\":2337:2622   */\n      pop\n        /* \"#utility.yul\":2245:2622   */\n      swap3\n      swap2\n      pop\n      pop\n      jump\t// out\n        /* \"#utility.yul\":2628:2746   */\n    tag_60:\n        /* \"#utility.yul\":2715:2739   */\n      tag_127\n        /* \"#utility.yul\":2733:2738   */\n      dup2\n        /* \"#utility.yul\":2715:2739   */\n      tag_50\n      jump\t// in\n    tag_127:\n        /* \"#utility.yul\":2710:2713   */\n      dup3\n        /* \"#utility.yul\":2703:2740   */\n      mstore\n        /* \"#utility.yul\":2628:2746   */\n      pop\n      pop\n      jump\t// out\n        /* \"#utility.yul\":2752:3273   */\n    tag_17:\n        /* \"#utility.yul\":2915:2919   */\n      0x00\n        /* \"#utility.yul\":2953:2955   */\n      0x60\n        /* \"#utility.yul\":2942:2951   */\n      dup3\n        /* \"#utility.yul\":2938:2956   */\n      add\n        /* \"#utility.yul\":2930:2956   */\n      swap1\n      pop\n        /* \"#utility.yul\":3002:3011   */\n      dup2\n        /* \"#utility.yul\":2996:3000   */\n      dup2\n        /* \"#utility.yul\":2992:3012   */\n      sub\n        /* \"#utility.yul\":2988:2989   */\n      0x00\n        /* \"#utility.yul\":2977:2986   */\n      dup4\n        /* \"#utility.yul\":2973:2990   */\n      add\n        /* \"#utility.yul\":2966:3013   */\n      mstore\n        /* \"#utility.yul\":3030:3108   */\n      tag_129\n        /* \"#utility.yul\":3103:3107   */\n      dup2\n        /* \"#utility.yul\":3094:3100   */\n      dup7\n        /* \"#utility.yul\":3030:3108   */\n      tag_59\n      jump\t// in\n    tag_129:\n        /* \"#utility.yul\":3022:3108   */\n      swap1\n      pop\n        /* \"#utility.yul\":3118:3190   */\n      tag_130\n        /* \"#utility.yul\":3186:3188   */\n      0x20\n        /* \"#utility.yul\":3175:3184   */\n      dup4\n        /* \"#utility.yul\":3171:3189   */\n      add\n        /* \"#utility.yul\":3162:3168   */\n      dup6\n        /* \"#utility.yul\":3118:3190   */\n      tag_60\n      jump\t// in\n    tag_130:\n        /* \"#utility.yul\":3200:3266   */\n      tag_131\n        /* \"#utility.yul\":3262:3264   */\n      0x40\n        /* \"#utility.yul\":3251:3260   */\n      dup4\n        /* \"#utility.yul\":3247:3265   */\n      add\n        /* \"#utility.yul\":3238:3244   */\n      dup5\n        /* \"#utility.yul\":3200:3266   */\n      tag_54\n      jump\t// in\n    tag_131:\n        /* \"#utility.yul\":2752:3273   */\n      swap5\n      swap4\n      pop\n      pop\n      pop\n      pop\n      jump\t// out\n        /* \"#utility.yul\":3279:3592   */\n    tag_21:\n        /* \"#utility.yul\":3392:3396   */\n      0x00\n        /* \"#utility.yul\":3430:3432   */\n      0x20\n        /* \"#utility.yul\":3419:3428   */\n      dup3\n        /* \"#utility.yul\":3415:3433   */\n      add\n        /* \"#utility.yul\":3407:3433   */\n      swap1\n      pop\n        /* \"#utility.yul\":3479:3488   */\n      dup2\n        /* \"#utility.yul\":3473:3477   */\n      dup2\n        /* \"#utility.yul\":3469:3489   */\n      sub\n        /* \"#utility.yul\":3465:3466   */\n      0x00\n        /* \"#utility.yul\":3454:3463   */\n      dup4\n        /* \"#utility.yul\":3450:3467   */\n      add\n        /* \"#utility.yul\":3443:3490   */\n      mstore\n        /* \"#utility.yul\":3507:3585   */\n      tag_133\n        /* \"#utility.yul\":3580:3584   */\n      dup2\n        /* \"#utility.yul\":3571:3577   */\n      dup5\n        /* \"#utility.yul\":3507:3585   */\n      tag_59\n      jump\t// in\n    tag_133:\n        /* \"#utility.yul\":3499:3585   */\n      swap1\n      pop\n        /* \"#utility.yul\":3279:3592   */\n      swap3\n      swap2\n      pop\n      pop\n      jump\t// out\n        /* \"#utility.yul\":3598:3715   */\n    tag_61:\n        /* \"#utility.yul\":3707:3708   */\n      0x00\n        /* \"#utility.yul\":3704:3705   */\n      dup1\n        /* \"#utility.yul\":3697:3709   */\n      revert\n        /* \"#utility.yul\":3721:3838   */\n    tag_62:\n        /* \"#utility.yul\":3830:3831   */\n      0x00\n        /* \"#utility.yul\":3827:3828   */\n      dup1\n        /* \"#utility.yul\":3820:3832   */\n      revert\n        /* \"#utility.yul\":3844:4024   */\n    tag_63:\n        /* \"#utility.yul\":3892:3969   */\n      0x4e487b7100000000000000000000000000000000000000000000000000000000\n        /* \"#utility.yul\":3889:3890   */\n      0x00\n        /* \"#utility.yul\":3882:3970   */\n      mstore\n        /* \"#utility.yul\":3989:3993   */\n      0x41\n        /* \"#utility.yul\":3986:3987   */\n      0x04\n        /* \"#utility.yul\":3979:3994   */\n      mstore\n        /* \"#utility.yul\":4013:4017   */\n      0x24\n        /* \"#utility.yul\":4010:4011   */\n      0x00\n        /* \"#utility.yul\":4003:4018   */\n      revert\n        /* \"#utility.yul\":4030:4311   */\n    tag_64:\n        /* \"#utility.yul\":4113:4140   */\n      tag_138\n        /* \"#utility.yul\":4135:4139   */\n      dup3\n        /* \"#utility.yul\":4113:4140   */\n      tag_58\n      jump\t// in\n    tag_138:\n        /* \"#utility.yul\":4105:4111   */\n      dup2\n        /* \"#utility.yul\":4101:4141   */\n      add\n        /* \"#utility.yul\":4243:4249   */\n      dup2\n        /* \"#utility.yul\":4231:4241   */\n      dup2\n        /* \"#utility.yul\":4228:4250   */\n      lt\n        /* \"#utility.yul\":4207:4225   */\n      0xffffffffffffffff\n        /* \"#utility.yul\":4195:4205   */\n      dup3\n        /* \"#utility.yul\":4192:4226   */\n      gt\n        /* \"#utility.yul\":4189:4251   */\n      or\n        /* \"#utility.yul\":4186:4274   */\n      iszero\n      tag_139\n      jumpi\n        /* \"#utility.yul\":4254:4272   */\n      tag_140\n      tag_63\n      jump\t// in\n    tag_140:\n        /* \"#utility.yul\":4186:4274   */\n    tag_139:\n        /* \"#utility.yul\":4294:4304   */\n      dup1\n        /* \"#utility.yul\":4290:4292   */\n      0x40\n        /* \"#utility.yul\":4283:4305   */\n      mstore\n        /* \"#utility.yul\":4073:4311   */\n      pop\n        /* \"#utility.yul\":4030:4311   */\n      pop\n      pop\n      jump\t// out\n        /* \"#utility.yul\":4317:4446   */\n    tag_65:\n        /* \"#utility.yul\":4351:4357   */\n      0x00\n        /* \"#utility.yul\":4378:4398   */\n      tag_142\n      tag_46\n      jump\t// in\n    tag_142:\n        /* \"#utility.yul\":4368:4398   */\n      swap1\n      pop\n        /* \"#utility.yul\":4407:4440   */\n      tag_143\n        /* \"#utility.yul\":4435:4439   */\n      dup3\n        /* \"#utility.yul\":4427:4433   */\n      dup3\n        /* \"#utility.yul\":4407:4440   */\n      tag_64\n      jump\t// in\n    tag_143:\n        /* \"#utility.yul\":4317:4446   */\n      swap2\n      swap1\n      pop\n      jump\t// out\n        /* \"#utility.yul\":4452:4760   */\n    tag_66:\n        /* \"#utility.yul\":4514:4518   */\n      0x00\n        /* \"#utility.yul\":4604:4622   */\n      0xffffffffffffffff\n        /* \"#utility.yul\":4596:4602   */\n      dup3\n        /* \"#utility.yul\":4593:4623   */\n      gt\n        /* \"#utility.yul\":4590:4646   */\n      iszero\n      tag_145\n      jumpi\n        /* \"#utility.yul\":4626:4644   */\n      tag_146\n      tag_63\n      jump\t// in\n    tag_146:\n        /* \"#utility.yul\":4590:4646   */\n    tag_145:\n        /* \"#utility.yul\":4664:4693   */\n      tag_147\n        /* \"#utility.yul\":4686:4692   */\n      dup3\n        /* \"#utility.yul\":4664:4693   */\n      tag_58\n      jump\t// in\n    tag_147:\n        /* \"#utility.yul\":4656:4693   */\n      swap1\n      pop\n        /* \"#utility.yul\":4748:4752   */\n      0x20\n        /* \"#utility.yul\":4742:4746   */\n      dup2\n        /* \"#utility.yul\":4738:4753   */\n      add\n        /* \"#utility.yul\":4730:4753   */\n      swap1\n      pop\n        /* \"#utility.yul\":4452:4760   */\n      swap2\n      swap1\n      pop\n      jump\t// out\n        /* \"#utility.yul\":4766:4914   */\n    tag_67:\n        /* \"#utility.yul\":4864:4870   */\n      dup3\n        /* \"#utility.yul\":4859:4862   */\n      dup2\n        /* \"#utility.yul\":4854:4857   */\n      dup4\n        /* \"#utility.yul\":4841:4871   */\n      calldatacopy\n        /* \"#utility.yul\":4905:4906   */\n      0x00\n        /* \"#utility.yul\":4896:4902   */\n      dup4\n        /* \"#utility.yul\":4891:4894   */\n      dup4\n        /* \"#utility.yul\":4887:4903   */\n      add\n        /* \"#utility.yul\":4880:4907   */\n      mstore\n        /* \"#utility.yul\":4766:4914   */\n      pop\n      pop\n      pop\n      jump\t// out\n        /* \"#utility.yul\":4920:5345   */\n    tag_68:\n        /* \"#utility.yul\":4998:5003   */\n      0x00\n        /* \"#utility.yul\":5023:5089   */\n      tag_150\n        /* \"#utility.yul\":5039:5088   */\n      tag_151\n        /* \"#utility.yul\":5081:5087   */\n      dup5\n        /* \"#utility.yul\":5039:5088   */\n      tag_66\n      jump\t// in\n    tag_151:\n        /* \"#utility.yul\":5023:5089   */\n      tag_65\n      jump\t// in\n    tag_150:\n        /* \"#utility.yul\":5014:5089   */\n      swap1\n      pop\n        /* \"#utility.yul\":5112:5118   */\n      dup3\n        /* \"#utility.yul\":5105:5110   */\n      dup2\n        /* \"#utility.yul\":5098:5119   */\n      mstore\n        /* \"#utility.yul\":5150:5154   */\n      0x20\n        /* \"#utility.yul\":5143:5148   */\n      dup2\n        /* \"#utility.yul\":5139:5155   */\n      add\n        /* \"#utility.yul\":5188:5191   */\n      dup5\n        /* \"#utility.yul\":5179:5185   */\n      dup5\n        /* \"#utility.yul\":5174:5177   */\n      dup5\n        /* \"#utility.yul\":5170:5186   */\n      add\n        /* \"#utility.yul\":5167:5192   */\n      gt\n        /* \"#utility.yul\":5164:5276   */\n      iszero\n      tag_152\n      jumpi\n        /* \"#utility.yul\":5195:5274   */\n      tag_153\n      tag_62\n      jump\t// in\n    tag_153:\n        /* \"#utility.yul\":5164:5276   */\n    tag_152:\n        /* \"#utility.yul\":5285:5339   */\n      tag_154\n        /* \"#utility.yul\":5332:5338   */\n      dup5\n        /* \"#utility.yul\":5327:5330   */\n      dup3\n        /* \"#utility.yul\":5322:5325   */\n      dup6\n        /* \"#utility.yul\":5285:5339   */\n      tag_67\n      jump\t// in\n    tag_154:\n        /* \"#utility.yul\":5004:5345   */\n      pop\n        /* \"#utility.yul\":4920:5345   */\n      swap4\n      swap3\n      pop\n      pop\n      pop\n      jump\t// out\n        /* \"#utility.yul\":5365:5705   */\n    tag_69:\n        /* \"#utility.yul\":5421:5426   */\n      0x00\n        /* \"#utility.yul\":5470:5473   */\n      dup3\n        /* \"#utility.yul\":5463:5467   */\n      0x1f\n        /* \"#utility.yul\":5455:5461   */\n      dup4\n        /* \"#utility.yul\":5451:5468   */\n      add\n        /* \"#utility.yul\":5447:5474   */\n      slt\n        /* \"#utility.yul\":5437:5559   */\n      tag_156\n      jumpi\n        /* \"#utility.yul\":5478:5557   */\n      tag_157\n      tag_61\n      jump\t// in\n    tag_157:\n        /* \"#utility.yul\":5437:5559   */\n    tag_156:\n        /* \"#utility.yul\":5595:5601   */\n      dup2\n        /* \"#utility.yul\":5582:5602   */\n      calldataload\n        /* \"#utility.yul\":5620:5699   */\n      tag_158\n        /* \"#utility.yul\":5695:5698   */\n      dup5\n        /* \"#utility.yul\":5687:5693   */\n      dup3\n        /* \"#utility.yul\":5680:5684   */\n      0x20\n        /* \"#utility.yul\":5672:5678   */\n      dup7\n        /* \"#utility.yul\":5668:5685   */\n      add\n        /* \"#utility.yul\":5620:5699   */\n      tag_68\n      jump\t// in\n    tag_158:\n        /* \"#utility.yul\":5611:5699   */\n      swap2\n      pop\n        /* \"#utility.yul\":5427:5705   */\n      pop\n        /* \"#utility.yul\":5365:5705   */\n      swap3\n      swap2\n      pop\n      pop\n      jump\t// out\n        /* \"#utility.yul\":5711:6220   */\n    tag_24:\n        /* \"#utility.yul\":5780:5786   */\n      0x00\n        /* \"#utility.yul\":5829:5831   */\n      0x20\n        /* \"#utility.yul\":5817:5826   */\n      dup3\n        /* \"#utility.yul\":5808:5815   */\n      dup5\n        /* \"#utility.yul\":5804:5827   */\n      sub\n        /* \"#utility.yul\":5800:5832   */\n      slt\n        /* \"#utility.yul\":5797:5916   */\n      iszero\n      tag_160\n      jumpi\n        /* \"#utility.yul\":5835:5914   */\n      tag_161\n      tag_47\n      jump\t// in\n    tag_161:\n        /* \"#utility.yul\":5797:5916   */\n    tag_160:\n        /* \"#utility.yul\":5983:5984   */\n      0x00\n        /* \"#utility.yul\":5972:5981   */\n      dup3\n        /* \"#utility.yul\":5968:5985   */\n      add\n        /* \"#utility.yul\":5955:5986   */\n      calldataload\n        /* \"#utility.yul\":6013:6031   */\n      0xffffffffffffffff\n        /* \"#utility.yul\":6005:6011   */\n      dup2\n        /* \"#utility.yul\":6002:6032   */\n      gt\n        /* \"#utility.yul\":5999:6116   */\n      iszero\n      tag_162\n      jumpi\n        /* \"#utility.yul\":6035:6114   */\n      tag_163\n      tag_48\n      jump\t// in\n    tag_163:\n        /* \"#utility.yul\":5999:6116   */\n    tag_162:\n        /* \"#utility.yul\":6140:6203   */\n      tag_164\n        /* \"#utility.yul\":6195:6202   */\n      dup5\n        /* \"#utility.yul\":6186:6192   */\n      dup3\n        /* \"#utility.yul\":6175:6184   */\n      dup6\n        /* \"#utility.yul\":6171:6193   */\n      add\n        /* \"#utility.yul\":6140:6203   */\n      tag_69\n      jump\t// in\n    tag_164:\n        /* \"#utility.yul\":6130:6203   */\n      swap2\n      pop\n        /* \"#utility.yul\":5926:6213   */\n      pop\n        /* \"#utility.yul\":5711:6220   */\n      swap3\n      swap2\n      pop\n      pop\n      jump\t// out\n        /* \"#utility.yul\":6226:6406   */\n    tag_70:\n        /* \"#utility.yul\":6274:6351   */\n      0x4e487b7100000000000000000000000000000000000000000000000000000000\n        /* \"#utility.yul\":6271:6272   */\n      0x00\n        /* \"#utility.yul\":6264:6352   */\n      mstore\n        /* \"#utility.yul\":6371:6375   */\n      0x22\n        /* \"#utility.yul\":6368:6369   */\n      0x04\n        /* \"#utility.yul\":6361:6376   */\n      mstore\n        /* \"#utility.yul\":6395:6399   */\n      0x24\n        /* \"#utility.yul\":6392:6393   */\n      0x00\n        /* \"#utility.yul\":6385:6400   */\n      revert\n        /* \"#utility.yul\":6412:6732   */\n    tag_29:\n        /* \"#utility.yul\":6456:6462   */\n      0x00\n        /* \"#utility.yul\":6493:6494   */\n      0x02\n        /* \"#utility.yul\":6487:6491   */\n      dup3\n        /* \"#utility.yul\":6483:6495   */\n      div\n        /* \"#utility.yul\":6473:6495   */\n      swap1\n      pop\n        /* \"#utility.yul\":6540:6541   */\n      0x01\n        /* \"#utility.yul\":6534:6538   */\n      dup3\n        /* \"#utility.yul\":6530:6542   */\n      and\n        /* \"#utility.yul\":6561:6579   */\n      dup1\n        /* \"#utility.yul\":6551:6632   */\n      tag_167\n      jumpi\n        /* \"#utility.yul\":6617:6621   */\n      0x7f\n        /* \"#utility.yul\":6609:6615   */\n      dup3\n        /* \"#utility.yul\":6605:6622   */\n      and\n        /* \"#utility.yul\":6595:6622   */\n      swap2\n      pop\n        /* \"#utility.yul\":6551:6632   */\n    tag_167:\n        /* \"#utility.yul\":6679:6681   */\n      0x20\n        /* \"#utility.yul\":6671:6677   */\n      dup3\n        /* \"#utility.yul\":6668:6682   */\n      lt\n        /* \"#utility.yul\":6648:6666   */\n      dup2\n        /* \"#utility.yul\":6645:6683   */\n      sub\n        /* \"#utility.yul\":6642:6726   */\n      tag_168\n      jumpi\n        /* \"#utility.yul\":6698:6716   */\n      tag_169\n      tag_70\n      jump\t// in\n    tag_169:\n        /* \"#utility.yul\":6642:6726   */\n    tag_168:\n        /* \"#utility.yul\":6463:6732   */\n      pop\n        /* \"#utility.yul\":6412:6732   */\n      swap2\n      swap1\n      pop\n      jump\t// out\n        /* \"#utility.yul\":6738:6902   */\n    tag_71:\n        /* \"#utility.yul\":6878:6894   */\n      0x4e6f742072656769737465726564000000000000000000000000000000000000\n        /* \"#utility.yul\":6874:6875   */\n      0x00\n        /* \"#utility.yul\":6866:6872   */\n      dup3\n        /* \"#utility.yul\":6862:6876   */\n      add\n        /* \"#utility.yul\":6855:6895   */\n      mstore\n        /* \"#utility.yul\":6738:6902   */\n      pop\n      jump\t// out\n        /* \"#utility.yul\":6908:7274   */\n    tag_72:\n        /* \"#utility.yul\":7050:7053   */\n      0x00\n        /* \"#utility.yul\":7071:7138   */\n      tag_172\n        /* \"#utility.yul\":7135:7137   */\n      0x0e\n        /* \"#utility.yul\":7130:7133   */\n      dup4\n        /* \"#utility.yul\":7071:7138   */\n      tag_56\n      jump\t// in\n    tag_172:\n        /* \"#utility.yul\":7064:7138   */\n      swap2\n      pop\n        /* \"#utility.yul\":7147:7240   */\n      tag_173\n        /* \"#utility.yul\":7236:7239   */\n      dup3\n        /* \"#utility.yul\":7147:7240   */\n      tag_71\n      jump\t// in\n    tag_173:\n        /* \"#utility.yul\":7265:7267   */\n      0x20\n        /* \"#utility.yul\":7260:7263   */\n      dup3\n        /* \"#utility.yul\":7256:7268   */\n      add\n        /* \"#utility.yul\":7249:7268   */\n      swap1\n      pop\n        /* \"#utility.yul\":6908:7274   */\n      swap2\n      swap1\n      pop\n      jump\t// out\n        /* \"#utility.yul\":7280:7699   */\n    tag_37:\n        /* \"#utility.yul\":7446:7450   */\n      0x00\n        /* \"#utility.yul\":7484:7486   */\n      0x20\n        /* \"#utility.yul\":7473:7482   */\n      dup3\n        /* \"#utility.yul\":7469:7487   */\n      add\n        /* \"#utility.yul\":7461:7487   */\n      swap1\n      pop\n        /* \"#utility.yul\":7533:7542   */\n      dup2\n        /* \"#utility.yul\":7527:7531   */\n      dup2\n        /* \"#utility.yul\":7523:7543   */\n      sub\n        /* \"#utility.yul\":7519:7520   */\n      0x00\n        /* \"#utility.yul\":7508:7517   */\n      dup4\n        /* \"#utility.yul\":7504:7521   */\n      add\n        /* \"#utility.yul\":7497:7544   */\n      mstore\n        /* \"#utility.yul\":7561:7692   */\n      tag_175\n        /* \"#utility.yul\":7687:7691   */\n      dup2\n        /* \"#utility.yul\":7561:7692   */\n      tag_72\n      jump\t// in\n    tag_175:\n        /* \"#utility.yul\":7553:7692   */\n      swap1\n      pop\n        /* \"#utility.yul\":7280:7699   */\n      swap2\n      swap1\n      pop\n      jump\t// out\n        /* \"#utility.yul\":7705:7897   */\n    tag_73:\n        /* \"#utility.yul\":7874:7890   */\n      0x57656c636f6d65206261636b2c20000000000000000000000000000000000000\n        /* \"#utility.yul\":7869:7872   */\n      dup2\n        /* \"#utility.yul\":7862:7891   */\n      mstore\n        /* \"#utility.yul\":7705:7897   */\n      pop\n      jump\t// out\n        /* \"#utility.yul\":7903:8051   */\n    tag_74:\n        /* \"#utility.yul\":8005:8016   */\n      0x00\n        /* \"#utility.yul\":8042:8045   */\n      dup2\n        /* \"#utility.yul\":8027:8045   */\n      swap1\n      pop\n        /* \"#utility.yul\":7903:8051   */\n      swap3\n      swap2\n      pop\n      pop\n      jump\t// out\n        /* \"#utility.yul\":8057:8198   */\n    tag_75:\n        /* \"#utility.yul\":8106:8110   */\n      0x00\n        /* \"#utility.yul\":8129:8132   */\n      dup2\n        /* \"#utility.yul\":8121:8132   */\n      swap1\n      pop\n        /* \"#utility.yul\":8152:8155   */\n      dup2\n        /* \"#utility.yul\":8149:8150   */\n      0x00\n        /* \"#utility.yul\":8142:8156   */\n      mstore\n        /* \"#utility.yul\":8186:8190   */\n      0x20\n        /* \"#utility.yul\":8183:8184   */\n      0x00\n        /* \"#utility.yul\":8173:8191   */\n      keccak256\n        /* \"#utility.yul\":8165:8191   */\n      swap1\n      pop\n        /* \"#utility.yul\":8057:8198   */\n      swap2\n      swap1\n      pop\n      jump\t// out\n        /* \"#utility.yul\":8228:9102   */\n    tag_76:\n        /* \"#utility.yul\":8331:8334   */\n      0x00\n        /* \"#utility.yul\":8368:8373   */\n      dup2\n        /* \"#utility.yul\":8362:8374   */\n      sload\n        /* \"#utility.yul\":8397:8433   */\n      tag_180\n        /* \"#utility.yul\":8423:8432   */\n      dup2\n        /* \"#utility.yul\":8397:8433   */\n      tag_29\n      jump\t// in\n    tag_180:\n        /* \"#utility.yul\":8449:8538   */\n      tag_181\n        /* \"#utility.yul\":8531:8537   */\n      dup2\n        /* \"#utility.yul\":8526:8529   */\n      dup7\n        /* \"#utility.yul\":8449:8538   */\n      tag_74\n      jump\t// in\n    tag_181:\n        /* \"#utility.yul\":8442:8538   */\n      swap5\n      pop\n        /* \"#utility.yul\":8569:8570   */\n      0x01\n        /* \"#utility.yul\":8558:8567   */\n      dup3\n        /* \"#utility.yul\":8554:8571   */\n      and\n        /* \"#utility.yul\":8585:8586   */\n      0x00\n        /* \"#utility.yul\":8580:8746   */\n      dup2\n      eq\n      tag_183\n      jumpi\n        /* \"#utility.yul\":8760:8761   */\n      0x01\n        /* \"#utility.yul\":8755:9096   */\n      dup2\n      eq\n      tag_184\n      jumpi\n        /* \"#utility.yul\":8547:9096   */\n      jump(tag_182)\n        /* \"#utility.yul\":8580:8746   */\n    tag_183:\n        /* \"#utility.yul\":8664:8668   */\n      0xff\n        /* \"#utility.yul\":8660:8669   */\n      not\n        /* \"#utility.yul\":8649:8658   */\n      dup4\n        /* \"#utility.yul\":8645:8670   */\n      and\n        /* \"#utility.yul\":8640:8643   */\n      dup7\n        /* \"#utility.yul\":8633:8671   */\n      mstore\n        /* \"#utility.yul\":8726:8732   */\n      dup2\n        /* \"#utility.yul\":8719:8733   */\n      iszero\n        /* \"#utility.yul\":8712:8734   */\n      iszero\n        /* \"#utility.yul\":8704:8710   */\n      dup3\n        /* \"#utility.yul\":8700:8735   */\n      mul\n        /* \"#utility.yul\":8695:8698   */\n      dup7\n        /* \"#utility.yul\":8691:8736   */\n      add\n        /* \"#utility.yul\":8684:8736   */\n      swap4\n      pop\n        /* \"#utility.yul\":8580:8746   */\n      jump(tag_182)\n        /* \"#utility.yul\":8755:9096   */\n    tag_184:\n        /* \"#utility.yul\":8822:8860   */\n      tag_185\n        /* \"#utility.yul\":8854:8859   */\n      dup6\n        /* \"#utility.yul\":8822:8860   */\n      tag_75\n      jump\t// in\n    tag_185:\n        /* \"#utility.yul\":8882:8883   */\n      0x00\n        /* \"#utility.yul\":8896:9050   */\n    tag_186:\n        /* \"#utility.yul\":8910:8916   */\n      dup4\n        /* \"#utility.yul\":8907:8908   */\n      dup2\n        /* \"#utility.yul\":8904:8917   */\n      lt\n        /* \"#utility.yul\":8896:9050   */\n      iszero\n      tag_188\n      jumpi\n        /* \"#utility.yul\":8984:8991   */\n      dup2\n        /* \"#utility.yul\":8978:8992   */\n      sload\n        /* \"#utility.yul\":8974:8975   */\n      dup2\n        /* \"#utility.yul\":8969:8972   */\n      dup10\n        /* \"#utility.yul\":8965:8976   */\n      add\n        /* \"#utility.yul\":8958:8993   */\n      mstore\n        /* \"#utility.yul\":9034:9035   */\n      0x01\n        /* \"#utility.yul\":9025:9032   */\n      dup3\n        /* \"#utility.yul\":9021:9036   */\n      add\n        /* \"#utility.yul\":9010:9036   */\n      swap2\n      pop\n        /* \"#utility.yul\":8932:8936   */\n      0x20\n        /* \"#utility.yul\":8929:8930   */\n      dup2\n        /* \"#utility.yul\":8925:8937   */\n      add\n        /* \"#utility.yul\":8920:8937   */\n      swap1\n      pop\n        /* \"#utility.yul\":8896:9050   */\n      jump(tag_186)\n    tag_188:\n        /* \"#utility.yul\":9079:9085   */\n      dup4\n        /* \"#utility.yul\":9074:9077   */\n      dup9\n        /* \"#utility.yul\":9070:9086   */\n      add\n        /* \"#utility.yul\":9063:9086   */\n      swap6\n      pop\n        /* \"#utility.yul\":8762:9096   */\n      pop\n      pop\n        /* \"#utility.yul\":8547:9096   */\n    tag_182:\n      pop\n        /* \"#utility.yul\":8335:9102   */\n      pop\n      pop\n        /* \"#utility.yul\":8228:9102   */\n      swap3\n      swap2\n      pop\n      pop\n      jump\t// out\n        /* \"#utility.yul\":9108:9644   */\n    tag_39:\n        /* \"#utility.yul\":9328:9331   */\n      0x00\n        /* \"#utility.yul\":9343:9481   */\n      tag_190\n        /* \"#utility.yul\":9477:9480   */\n      dup3\n        /* \"#utility.yul\":9343:9481   */\n      tag_73\n      jump\t// in\n    tag_190:\n        /* \"#utility.yul\":9506:9508   */\n      0x0e\n        /* \"#utility.yul\":9501:9504   */\n      dup3\n        /* \"#utility.yul\":9497:9509   */\n      add\n        /* \"#utility.yul\":9490:9509   */\n      swap2\n      pop\n        /* \"#utility.yul\":9526:9618   */\n      tag_191\n        /* \"#utility.yul\":9614:9617   */\n      dup3\n        /* \"#utility.yul\":9605:9611   */\n      dup5\n        /* \"#utility.yul\":9526:9618   */\n      tag_76\n      jump\t// in\n    tag_191:\n        /* \"#utility.yul\":9519:9618   */\n      swap2\n      pop\n        /* \"#utility.yul\":9635:9638   */\n      dup2\n        /* \"#utility.yul\":9628:9638   */\n      swap1\n      pop\n        /* \"#utility.yul\":9108:9644   */\n      swap3\n      swap2\n      pop\n      pop\n      jump\t// out\n        /* \"#utility.yul\":9650:9743   */\n    tag_77:\n        /* \"#utility.yul\":9687:9693   */\n      0x00\n        /* \"#utility.yul\":9734:9736   */\n      0x20\n        /* \"#utility.yul\":9729:9731   */\n      0x1f\n        /* \"#utility.yul\":9722:9727   */\n      dup4\n        /* \"#utility.yul\":9718:9732   */\n      add\n        /* \"#utility.yul\":9714:9737   */\n      div\n        /* \"#utility.yul\":9704:9737   */\n      swap1\n      pop\n        /* \"#utility.yul\":9650:9743   */\n      swap2\n      swap1\n      pop\n      jump\t// out\n        /* \"#utility.yul\":9749:9856   */\n    tag_78:\n        /* \"#utility.yul\":9793:9801   */\n      0x00\n        /* \"#utility.yul\":9843:9848   */\n      dup3\n        /* \"#utility.yul\":9837:9841   */\n      dup3\n        /* \"#utility.yul\":9833:9849   */\n      shl\n        /* \"#utility.yul\":9812:9849   */\n      swap1\n      pop\n        /* \"#utility.yul\":9749:9856   */\n      swap3\n      swap2\n      pop\n      pop\n      jump\t// out\n        /* \"#utility.yul\":9862:10255   */\n    tag_79:\n        /* \"#utility.yul\":9931:9937   */\n      0x00\n        /* \"#utility.yul\":9981:9982   */\n      0x08\n        /* \"#utility.yul\":9969:9979   */\n      dup4\n        /* \"#utility.yul\":9965:9983   */\n      mul\n        /* \"#utility.yul\":10004:10101   */\n      tag_195\n        /* \"#utility.yul\":10034:10100   */\n      0xffffffffffffffffffffffffffffffffffffffffffffffffffffffffffffffff\n        /* \"#utility.yul\":10023:10032   */\n      dup3\n        /* \"#utility.yul\":10004:10101   */\n      tag_78\n      jump\t// in\n    tag_195:\n        /* \"#utility.yul\":10122:10161   */\n      tag_196\n        /* \"#utility.yul\":10152:10160   */\n      dup7\n        /* \"#utility.yul\":10141:10150   */\n      dup4\n        /* \"#utility.yul\":10122:10161   */\n      tag_78\n      jump\t// in\n    tag_196:\n        /* \"#utility.yul\":10110:10161   */\n      swap6\n      pop\n        /* \"#utility.yul\":10194:10198   */\n      dup1\n        /* \"#utility.yul\":10190:10199   */\n      not\n        /* \"#utility.yul\":10183:10188   */\n      dup5\n        /* \"#utility.yul\":10179:10200   */\n      and\n        /* \"#utility.yul\":10170:10200   */\n      swap4\n      pop\n        /* \"#utility.yul\":10243:10247   */\n      dup1\n        /* \"#utility.yul\":10233:10241   */\n      dup7\n        /* \"#utility.yul\":10229:10248   */\n      and\n        /* \"#utility.yul\":10222:10227   */\n      dup5\n        /* \"#utility.yul\":10219:10249   */\n      or\n        /* \"#utility.yul\":10209:10249   */\n      swap3\n      pop\n        /* \"#utility.yul\":9938:10255   */\n      pop\n      pop\n        /* \"#utility.yul\":9862:10255   */\n      swap4\n      swap3\n      pop\n      pop\n      pop\n      jump\t// out\n        /* \"#utility.yul\":10261:10338   */\n    tag_80:\n        /* \"#utility.yul\":10298:10305   */\n      0x00\n        /* \"#utility.yul\":10327:10332   */\n      dup2\n        /* \"#utility.yul\":10316:10332   */\n      swap1\n      pop\n        /* \"#utility.yul\":10261:10338   */\n      swap2\n      swap1\n      pop\n      jump\t// out\n        /* \"#utility.yul\":10344:10404   */\n    tag_81:\n        /* \"#utility.yul\":10372:10375   */\n      0x00\n        /* \"#utility.yul\":10393:10398   */\n      dup2\n        /* \"#utility.yul\":10386:10398   */\n      swap1\n      pop\n        /* \"#utility.yul\":10344:10404   */\n      swap2\n      swap1\n      pop\n      jump\t// out\n        /* \"#utility.yul\":10410:10552   */\n    tag_82:\n        /* \"#utility.yul\":10460:10469   */\n      0x00\n        /* \"#utility.yul\":10493:10546   */\n      tag_200\n        /* \"#utility.yul\":10511:10545   */\n      tag_201\n        /* \"#utility.yul\":10520:10544   */\n      tag_202\n        /* \"#utility.yul\":10538:10543   */\n      dup5\n        /* \"#utility.yul\":10520:10544   */\n      tag_80\n      jump\t// in\n    tag_202:\n        /* \"#utility.yul\":10511:10545   */\n      tag_81\n      jump\t// in\n    tag_201:\n        /* \"#utility.yul\":10493:10546   */\n      tag_80\n      jump\t// in\n    tag_200:\n        /* \"#utility.yul\":10480:10546   */\n      swap1\n      pop\n        /* \"#utility.yul\":10410:10552   */\n      swap2\n      swap1\n      pop\n      jump\t// out\n        /* \"#utility.yul\":10558:10633   */\n    tag_83:\n        /* \"#utility.yul\":10601:10604   */\n      0x00\n        /* \"#utility.yul\":10622:10627   */\n      dup2\n        /* \"#utility.yul\":10615:10627   */\n      swap1\n      pop\n        /* \"#utility.yul\":10558:10633   */\n      swap2\n      swap1\n      pop\n      jump\t// out\n        /* \"#utility.yul\":10639:10908   */\n    tag_84:\n        /* \"#utility.yul\":10749:10788   */\n      tag_205\n        /* \"#utility.yul\":10780:10787   */\n      dup4\n        /* \"#utility.yul\":10749:10788   */\n      tag_82\n      jump\t// in\n    tag_205:\n        /* \"#utility.yul\":10810:10901   */\n      tag_206\n        /* \"#utility.yul\":10859:10900   */\n      tag_207\n        /* \"#utility.yul\":10883:10899   */\n      dup3\n        /* \"#utility.yul\":10859:10900   */\n      tag_83\n      jump\t// in\n    tag_207:\n        /* \"#utility.yul\":10851:10857   */\n      dup5\n        /* \"#utility.yul\":10844:10848   */\n      dup5\n        /* \"#utility.yul\":10838:10849   */\n      sload\n        /* \"#utility.yul\":10810:10901   */\n      tag_79\n      jump\t// in\n    tag_206:\n        /* \"#utility.yul\":10804:10808   */\n      dup3\n        /* \"#utility.yul\":10797:10902   */\n      sstore\n        /* \"#utility.yul\":10715:10908   */\n      pop\n        /* \"#utility.yul\":10639:10908   */\n      pop\n      pop\n      pop\n      jump\t// out\n        /* \"#utility.yul\":10914:10987   */\n    tag_85:\n        /* \"#utility.yul\":10959:10962   */\n      0x00\n        /* \"#utility.yul\":10914:10987   */\n      swap1\n      jump\t// out\n        /* \"#utility.yul\":10993:11182   */\n    tag_86:\n        /* \"#utility.yul\":11070:11102   */\n      tag_210\n      tag_85\n      jump\t// in\n    tag_210:\n        /* \"#utility.yul\":11111:11176   */\n      tag_211\n        /* \"#utility.yul\":11169:11175   */\n      dup2\n        /* \"#utility.yul\":11161:11167   */\n      dup5\n        /* \"#utility.yul\":11155:11159   */\n      dup5\n        /* \"#utility.yul\":11111:11176   */\n      tag_84\n      jump\t// in\n    tag_211:\n        /* \"#utility.yul\":11046:11182   */\n      pop\n        /* \"#utility.yul\":10993:11182   */\n      pop\n      pop\n      jump\t// out\n        /* \"#utility.yul\":11188:11402   */\n    tag_87:\n        /* \"#utility.yul\":11273:11274   */\n      0x00\n        /* \"#utility.yul\":11258:11396   */\n    tag_213:\n        /* \"#utility.yul\":11283:11292   */\n      dup3\n        /* \"#utility.yul\":11280:11281   */\n      dup2\n        /* \"#utility.yul\":11277:11293   */\n      lt\n        /* \"#utility.yul\":11258:11396   */\n      iszero\n      tag_215\n      jumpi\n        /* \"#utility.yul\":11335:11386   */\n      tag_216\n        /* \"#utility.yul\":11384:11385   */\n      0x00\n        /* \"#utility.yul\":11380:11381   */\n      dup3\n        /* \"#utility.yul\":11369:11378   */\n      dup5\n        /* \"#utility.yul\":11365:11382   */\n      add\n        /* \"#utility.yul\":11335:11386   */\n      tag_86\n      jump\t// in\n    tag_216:\n        /* \"#utility.yul\":11308:11309   */\n      0x01\n        /* \"#utility.yul\":11305:11306   */\n      dup2\n        /* \"#utility.yul\":11301:11310   */\n      add\n        /* \"#utility.yul\":11296:11310   */\n      swap1\n      pop\n        /* \"#utility.yul\":11258:11396   */\n      jump(tag_213)\n    tag_215:\n        /* \"#utility.yul\":11262:11276   */\n      pop\n        /* \"#utility.yul\":11188:11402   */\n      pop\n      pop\n      jump\t// out\n        /* \"#utility.yul\":11408:12154   */\n    tag_88:\n        /* \"#utility.yul\":11509:11511   */\n      0x1f\n        /* \"#utility.yul\":11504:11507   */\n      dup3\n        /* \"#utility.yul\":11501:11512   */\n      gt\n        /* \"#utility.yul\":11498:12147   */\n      iszero\n      tag_218\n      jumpi\n        /* \"#utility.yul\":11538:11548   */\n      dup3\n        /* \"#utility.yul\":11533:11536   */\n      dup3\n        /* \"#utility.yul\":11530:11549   */\n      gt\n        /* \"#utility.yul\":11527:12137   */\n      iszero\n      tag_219\n      jumpi\n        /* \"#utility.yul\":11584:11622   */\n      tag_220\n        /* \"#utility.yul\":11616:11621   */\n      dup2\n        /* \"#utility.yul\":11584:11622   */\n      tag_75\n      jump\t// in\n    tag_220:\n        /* \"#utility.yul\":11659:11681   */\n      tag_221\n        /* \"#utility.yul\":11677:11680   */\n      dup4\n        /* \"#utility.yul\":11659:11681   */\n      tag_77\n      jump\t// in\n    tag_221:\n        /* \"#utility.yul\":11718:11747   */\n      tag_222\n        /* \"#utility.yul\":11736:11746   */\n      dup6\n        /* \"#utility.yul\":11718:11747   */\n      tag_77\n      jump\t// in\n    tag_222:\n        /* \"#utility.yul\":11908:11910   */\n      0x20\n        /* \"#utility.yul\":11896:11906   */\n      dup7\n        /* \"#utility.yul\":11893:11911   */\n      lt\n        /* \"#utility.yul\":11890:11969   */\n      iszero\n      tag_223\n      jumpi\n        /* \"#utility.yul\":11950:11951   */\n      0x00\n        /* \"#utility.yul\":11934:11951   */\n      swap1\n      pop\n        /* \"#utility.yul\":11890:11969   */\n    tag_223:\n        /* \"#utility.yul\":12019:12031   */\n      dup1\n        /* \"#utility.yul\":12009:12017   */\n      dup4\n        /* \"#utility.yul\":12005:12032   */\n      add\n        /* \"#utility.yul\":12049:12123   */\n      tag_224\n        /* \"#utility.yul\":12109:12121   */\n      dup3\n        /* \"#utility.yul\":12095:12107   */\n      dup5\n        /* \"#utility.yul\":12091:12122   */\n      sub\n        /* \"#utility.yul\":12078:12089   */\n      dup3\n        /* \"#utility.yul\":12049:12123   */\n      tag_87\n      jump\t// in\n    tag_224:\n        /* \"#utility.yul\":11550:12137   */\n      pop\n      pop\n      pop\n      pop\n        /* \"#utility.yul\":11527:12137   */\n    tag_219:\n        /* \"#utility.yul\":11498:12147   */\n    tag_218:\n        /* \"#utility.yul\":11408:12154   */\n      pop\n      pop\n      pop\n      jump\t// out\n        /* \"#utility.yul\":12160:12277   */\n    tag_89:\n        /* \"#utility.yul\":12214:12222   */\n      0x00\n        /* \"#utility.yul\":12264:12269   */\n      dup3\n        /* \"#utility.yul\":12258:12262   */\n      dup3\n        /* \"#utility.yul\":12254:12270   */\n      shr\n        /* \"#utility.yul\":12233:12270   */\n      swap1\n      pop\n        /* \"#utility.yul\":12160:12277   */\n      swap3\n      swap2\n      pop\n      pop\n      jump\t// out\n        /* \"#utility.yul\":12283:12452   */\n    tag_90:\n        /* \"#utility.yul\":12327:12333   */\n      0x00\n        /* \"#utility.yul\":12360:12411   */\n      tag_227\n        /* \"#utility.yul\":12408:12409   */\n      0x00\n        /* \"#utility.yul\":12404:12410   */\n      not\n        /* \"#utility.yul\":12396:12401   */\n      dup5\n        /* \"#utility.yul\":12393:12394   */\n      0x08\n        /* \"#utility.yul\":12389:12402   */\n      mul\n        /* \"#utility.yul\":12360:12411   */\n      tag_89\n      jump\t// in\n    tag_227:\n        /* \"#utility.yul\":12356:12412   */\n      not\n        /* \"#utility.yul\":12441:12445   */\n      dup1\n        /* \"#utility.yul\":12435:12439   */\n      dup4\n        /* \"#utility.yul\":12431:12446   */\n      and\n        /* \"#utility.yul\":12421:12446   */\n      swap2\n      pop\n        /* \"#utility.yul\":12334:12452   */\n      pop\n        /* \"#utility.yul\":12283:12452   */\n      swap3\n      swap2\n      pop\n      pop\n      jump\t// out\n        /* \"#utility.yul\":12457:12752   */\n    tag_91:\n        /* \"#utility.yul\":12533:12537   */\n      0x00\n        /* \"#utility.yul\":12679:12708   */\n      tag_229\n        /* \"#utility.yul\":12704:12707   */\n      dup4\n        /* \"#utility.yul\":12698:12702   */\n      dup4\n        /* \"#utility.yul\":12679:12708   */\n      tag_90\n      jump\t// in\n    tag_229:\n        /* \"#utility.yul\":12671:12708   */\n      swap2\n      pop\n        /* \"#utility.yul\":12741:12744   */\n      dup3\n        /* \"#utility.yul\":12738:12739   */\n      0x02\n        /* \"#utility.yul\":12734:12745   */\n      mul\n        /* \"#utility.yul\":12728:12732   */\n      dup3\n        /* \"#utility.yul\":12725:12746   */\n      or\n        /* \"#utility.yul\":12717:12746   */\n      swap1\n      pop\n        /* \"#utility.yul\":12457:12752   */\n      swap3\n      swap2\n      pop\n      pop\n      jump\t// out\n        /* \"#utility.yul\":12757:14152   */\n    tag_42:\n        /* \"#utility.yul\":12874:12911   */\n      tag_231\n        /* \"#utility.yul\":12907:12910   */\n      dup3\n        /* \"#utility.yul\":12874:12911   */\n      tag_55\n      jump\t// in\n    tag_231:\n        /* \"#utility.yul\":12976:12994   */\n      0xffffffffffffffff\n        /* \"#utility.yul\":12968:12974   */\n      dup2\n        /* \"#utility.yul\":12965:12995   */\n      gt\n        /* \"#utility.yul\":12962:13018   */\n      iszero\n      tag_232\n      jumpi\n        /* \"#utility.yul\":12998:13016   */\n      tag_233\n      tag_63\n      jump\t// in\n    tag_233:\n        /* \"#utility.yul\":12962:13018   */\n    tag_232:\n        /* \"#utility.yul\":13042:13080   */\n      tag_234\n        /* \"#utility.yul\":13074:13078   */\n      dup3\n        /* \"#utility.yul\":13068:13079   */\n      sload\n        /* \"#utility.yul\":13042:13080   */\n      tag_29\n      jump\t// in\n    tag_234:\n        /* \"#utility.yul\":13127:13194   */\n      tag_235\n        /* \"#utility.yul\":13187:13193   */\n      dup3\n        /* \"#utility.yul\":13179:13185   */\n      dup3\n        /* \"#utility.yul\":13173:13177   */\n      dup6\n        /* \"#utility.yul\":13127:13194   */\n      tag_88\n      jump\t// in\n    tag_235:\n        /* \"#utility.yul\":13221:13222   */\n      0x00\n        /* \"#utility.yul\":13245:13249   */\n      0x20\n        /* \"#utility.yul\":13232:13249   */\n      swap1\n      pop\n        /* \"#utility.yul\":13277:13279   */\n      0x1f\n        /* \"#utility.yul\":13269:13275   */\n      dup4\n        /* \"#utility.yul\":13266:13280   */\n      gt\n        /* \"#utility.yul\":13294:13295   */\n      0x01\n        /* \"#utility.yul\":13289:13907   */\n      dup2\n      eq\n      tag_237\n      jumpi\n        /* \"#utility.yul\":13951:13952   */\n      0x00\n        /* \"#utility.yul\":13968:13974   */\n      dup5\n        /* \"#utility.yul\":13965:14042   */\n      iszero\n      tag_238\n      jumpi\n        /* \"#utility.yul\":14017:14026   */\n      dup3\n        /* \"#utility.yul\":14012:14015   */\n      dup8\n        /* \"#utility.yul\":14008:14027   */\n      add\n        /* \"#utility.yul\":14002:14028   */\n      mload\n        /* \"#utility.yul\":13993:14028   */\n      swap1\n      pop\n        /* \"#utility.yul\":13965:14042   */\n    tag_238:\n        /* \"#utility.yul\":14068:14135   */\n      tag_239\n        /* \"#utility.yul\":14128:14134   */\n      dup6\n        /* \"#utility.yul\":14121:14126   */\n      dup3\n        /* \"#utility.yul\":14068:14135   */\n      tag_91\n      jump\t// in\n    tag_239:\n        /* \"#utility.yul\":14062:14066   */\n      dup7\n        /* \"#utility.yul\":14055:14136   */\n      sstore\n        /* \"#utility.yul\":13924:14146   */\n      pop\n        /* \"#utility.yul\":13259:14146   */\n      jump(tag_236)\n        /* \"#utility.yul\":13289:13907   */\n    tag_237:\n        /* \"#utility.yul\":13341:13345   */\n      0x1f\n        /* \"#utility.yul\":13337:13346   */\n      not\n        /* \"#utility.yul\":13329:13335   */\n      dup5\n        /* \"#utility.yul\":13325:13347   */\n      and\n        /* \"#utility.yul\":13375:13412   */\n      tag_240\n        /* \"#utility.yul\":13407:13411   */\n      dup7\n        /* \"#utility.yul\":13375:13412   */\n      tag_75\n      jump\t// in\n    tag_240:\n        /* \"#utility.yul\":13434:13435   */\n      0x00\n        /* \"#utility.yul\":13448:13656   */\n    tag_241:\n        /* \"#utility.yul\":13462:13469   */\n      dup3\n        /* \"#utility.yul\":13459:13460   */\n      dup2\n        /* \"#utility.yul\":13456:13470   */\n      lt\n        /* \"#utility.yul\":13448:13656   */\n      iszero\n      tag_243\n      jumpi\n        /* \"#utility.yul\":13541:13550   */\n      dup5\n        /* \"#utility.yul\":13536:13539   */\n      dup10\n        /* \"#utility.yul\":13532:13551   */\n      add\n        /* \"#utility.yul\":13526:13552   */\n      mload\n        /* \"#utility.yul\":13518:13524   */\n      dup3\n        /* \"#utility.yul\":13511:13553   */\n      sstore\n        /* \"#utility.yul\":13592:13593   */\n      0x01\n        /* \"#utility.yul\":13584:13590   */\n      dup3\n        /* \"#utility.yul\":13580:13594   */\n      add\n        /* \"#utility.yul\":13570:13594   */\n      swap2\n      pop\n        /* \"#utility.yul\":13639:13641   */\n      0x20\n        /* \"#utility.yul\":13628:13637   */\n      dup6\n        /* \"#utility.yul\":13624:13642   */\n      add\n        /* \"#utility.yul\":13611:13642   */\n      swap5\n      pop\n        /* \"#utility.yul\":13485:13489   */\n      0x20\n        /* \"#utility.yul\":13482:13483   */\n      dup2\n        /* \"#utility.yul\":13478:13490   */\n      add\n        /* \"#utility.yul\":13473:13490   */\n      swap1\n      pop\n        /* \"#utility.yul\":13448:13656   */\n      jump(tag_241)\n    tag_243:\n        /* \"#utility.yul\":13684:13690   */\n      dup7\n        /* \"#utility.yul\":13675:13682   */\n      dup4\n        /* \"#utility.yul\":13672:13691   */\n      lt\n        /* \"#utility.yul\":13669:13848   */\n      iszero\n      tag_244\n      jumpi\n        /* \"#utility.yul\":13742:13751   */\n      dup5\n        /* \"#utility.yul\":13737:13740   */\n      dup10\n        /* \"#utility.yul\":13733:13752   */\n      add\n        /* \"#utility.yul\":13727:13753   */\n      mload\n        /* \"#utility.yul\":13785:13833   */\n      tag_245\n        /* \"#utility.yul\":13827:13831   */\n      0x1f\n        /* \"#utility.yul\":13819:13825   */\n      dup10\n        /* \"#utility.yul\":13815:13832   */\n      and\n        /* \"#utility.yul\":13804:13813   */\n      dup3\n        /* \"#utility.yul\":13785:13833   */\n      tag_90\n      jump\t// in\n    tag_245:\n        /* \"#utility.yul\":13777:13783   */\n      dup4\n        /* \"#utility.yul\":13770:13834   */\n      sstore\n        /* \"#utility.yul\":13692:13848   */\n      pop\n        /* \"#utility.yul\":13669:13848   */\n    tag_244:\n        /* \"#utility.yul\":13894:13895   */\n      0x01\n        /* \"#utility.yul\":13890:13891   */\n      0x02\n        /* \"#utility.yul\":13882:13888   */\n      dup9\n        /* \"#utility.yul\":13878:13892   */\n      mul\n        /* \"#utility.yul\":13874:13896   */\n      add\n        /* \"#utility.yul\":13868:13872   */\n      dup9\n        /* \"#utility.yul\":13861:13897   */\n      sstore\n        /* \"#utility.yul\":13296:13907   */\n      pop\n      pop\n      pop\n        /* \"#utility.yul\":13259:14146   */\n    tag_236:\n      pop\n        /* \"#utility.yul\":12849:14152   */\n      pop\n      pop\n      pop\n        /* \"#utility.yul\":12757:14152   */\n      pop\n      pop\n      jump\t// out\n        /* \"#utility.yul\":14158:14548   */\n    tag_92:\n        /* \"#utility.yul\":14264:14267   */\n      0x00\n        /* \"#utility.yul\":14292:14331   */\n      tag_247\n        /* \"#utility.yul\":14325:14330   */\n      dup3\n        /* \"#utility.yul\":14292:14331   */\n      tag_55\n      jump\t// in\n    tag_247:\n        /* \"#utility.yul\":14347:14436   */\n      tag_248\n        /* \"#utility.yul\":14429:14435   */\n      dup2\n        /* \"#utility.yul\":14424:14427   */\n      dup6\n        /* \"#utility.yul\":14347:14436   */\n      tag_74\n      jump\t// in\n    tag_248:\n        /* \"#utility.yul\":14340:14436   */\n      swap4\n      pop\n        /* \"#utility.yul\":14445:14510   */\n      tag_249\n        /* \"#utility.yul\":14503:14509   */\n      dup2\n        /* \"#utility.yul\":14498:14501   */\n      dup6\n        /* \"#utility.yul\":14491:14495   */\n      0x20\n        /* \"#utility.yul\":14484:14489   */\n      dup7\n        /* \"#utility.yul\":14480:14496   */\n      add\n        /* \"#utility.yul\":14445:14510   */\n      tag_57\n      jump\t// in\n    tag_249:\n        /* \"#utility.yul\":14535:14541   */\n      dup1\n        /* \"#utility.yul\":14530:14533   */\n      dup5\n        /* \"#utility.yul\":14526:14542   */\n      add\n        /* \"#utility.yul\":14519:14542   */\n      swap2\n      pop\n        /* \"#utility.yul\":14268:14548   */\n      pop\n        /* \"#utility.yul\":14158:14548   */\n      swap3\n      swap2\n      pop\n      pop\n      jump\t// out\n        /* \"#utility.yul\":14554:14829   */\n    tag_44:\n        /* \"#utility.yul\":14686:14689   */\n      0x00\n        /* \"#utility.yul\":14708:14803   */\n      tag_251\n        /* \"#utility.yul\":14799:14802   */\n      dup3\n        /* \"#utility.yul\":14790:14796   */\n      dup5\n        /* \"#utility.yul\":14708:14803   */\n      tag_92\n      jump\t// in\n    tag_251:\n        /* \"#utility.yul\":14701:14803   */\n      swap2\n      pop\n        /* \"#utility.yul\":14820:14823   */\n      dup2\n        /* \"#utility.yul\":14813:14823   */\n      swap1\n      pop\n        /* \"#utility.yul\":14554:14829   */\n      swap3\n      swap2\n      pop\n      pop\n      jump\t// out\n\n    auxdata: 0xa2646970667358221220e1c81c9aee6f84d730f6ab4fd2f787e6453f4f304642ef0cef165f448144133d64736f6c63430008210033\n}\n",
				"bytecode": {
					"linkReferences": {},
					"object": "6080604052348015600f57600080fd5b50610d5d8061001f6000396000f3fe608060405234801561001057600080fd5b506004361061004c5760003560e01c8063163f7522146100515780636f77926b14610081578063b34e97e8146100b3578063f2c298be146100d1575b600080fd5b61006b600480360381019061006691906105be565b6100ed565b6040516100789190610606565b60405180910390f35b61009b600480360381019061009691906105be565b610145565b6040516100aa939291906106c0565b60405180910390f35b6100bb6102b7565b6040516100c891906106fe565b60405180910390f35b6100eb60048036038101906100e69190610855565b6103ac565b005b60008060008373ffffffffffffffffffffffffffffffffffffffff1673ffffffffffffffffffffffffffffffffffffffff16815260200190815260200160002060010160149054906101000a900460ff169050919050565b606060008060008060008673ffffffffffffffffffffffffffffffffffffffff1673ffffffffffffffffffffffffffffffffffffffff1681526020019081526020016000206040518060600160405290816000820180546101a5906108cd565b80601f01602080910402602001604051908101604052809291908181526020018280546101d1906108cd565b801561021e5780601f106101f35761010080835404028352916020019161021e565b820191906000526020600020905b81548152906001019060200180831161020157829003601f168201915b505050505081526020016001820160009054906101000a900473ffffffffffffffffffffffffffffffffffffffff1673ffffffffffffffffffffffffffffffffffffffff1673ffffffffffffffffffffffffffffffffffffffff1681526020016001820160149054906101000a900460ff1615151515815250509050806000015181602001518260400151935093509350509193909250565b60606000803373ffffffffffffffffffffffffffffffffffffffff1673ffffffffffffffffffffffffffffffffffffffff16815260200190815260200160002060010160149054906101000a900460ff16610347576040517f08c379a000000000000000000000000000000000000000000000000000000000815260040161033e9061094a565b60405180910390fd5b6000803373ffffffffffffffffffffffffffffffffffffffff1673ffffffffffffffffffffffffffffffffffffffff1681526020019081526020016000206000016040516020016103989190610a33565b604051602081830303815290604052905090565b60405180606001604052808281526020013373ffffffffffffffffffffffffffffffffffffffff168152602001600115158152506000803373ffffffffffffffffffffffffffffffffffffffff1673ffffffffffffffffffffffffffffffffffffffff16815260200190815260200160002060008201518160000190816104339190610c0d565b5060208201518160010160006101000a81548173ffffffffffffffffffffffffffffffffffffffff021916908373ffffffffffffffffffffffffffffffffffffffff16021790555060408201518160010160146101000a81548160ff021916908315150217905550905050336001826040516104af9190610d10565b908152602001604051809103902060006101000a81548173ffffffffffffffffffffffffffffffffffffffff021916908373ffffffffffffffffffffffffffffffffffffffff1602179055503373ffffffffffffffffffffffffffffffffffffffff167f48cac28ad4dc618e15f4c2dd5e97751182f166de97b25618318b2112aa951a2f8260405161054191906106fe565b60405180910390a250565b6000604051905090565b600080fd5b600080fd5b600073ffffffffffffffffffffffffffffffffffffffff82169050919050565b600061058b82610560565b9050919050565b61059b81610580565b81146105a657600080fd5b50565b6000813590506105b881610592565b92915050565b6000602082840312156105d4576105d3610556565b5b60006105e2848285016105a9565b91505092915050565b60008115159050919050565b610600816105eb565b82525050565b600060208201905061061b60008301846105f7565b92915050565b600081519050919050565b600082825260208201905092915050565b60005b8381101561065b578082015181840152602081019050610640565b60008484015250505050565b6000601f19601f8301169050919050565b600061068382610621565b61068d818561062c565b935061069d81856020860161063d565b6106a681610667565b840191505092915050565b6106ba81610580565b82525050565b600060608201905081810360008301526106da8186610678565b90506106e960208301856106b1565b6106f660408301846105f7565b949350505050565b600060208201905081810360008301526107188184610678565b905092915050565b600080fd5b600080fd5b7f4e487b7100000000000000000000000000000000000000000000000000000000600052604160045260246000fd5b61076282610667565b810181811067ffffffffffffffff821117156107815761078061072a565b5b80604052505050565b600061079461054c565b90506107a08282610759565b919050565b600067ffffffffffffffff8211156107c0576107bf61072a565b5b6107c982610667565b9050602081019050919050565b82818337600083830152505050565b60006107f86107f3846107a5565b61078a565b90508281526020810184848401111561081457610813610725565b5b61081f8482856107d6565b509392505050565b600082601f83011261083c5761083b610720565b5b813561084c8482602086016107e5565b91505092915050565b60006020828403121561086b5761086a610556565b5b600082013567ffffffffffffffff8111156108895761088861055b565b5b61089584828501610827565b91505092915050565b7f4e487b7100000000000000000000000000000000000000000000000000000000600052602260045260246000fd5b600060028204905060018216806108e557607f821691505b6020821081036108f8576108f761089e565b5b50919050565b7f4e6f742072656769737465726564000000000000000000000000000000000000600082015250565b6000610934600e8361062c565b915061093f826108fe565b602082019050919050565b6000602082019050818103600083015261096381610927565b9050919050565b7f57656c636f6d65206261636b2c20000000000000000000000000000000000000815250565b600081905092915050565b60008190508160005260206000209050919050565b600081546109bd816108cd565b6109c78186610990565b945060018216600081146109e257600181146109f757610a2a565b60ff1983168652811515820286019350610a2a565b610a008561099b565b60005b83811015610a2257815481890152600182019150602081019050610a03565b838801955050505b50505092915050565b6000610a3e8261096a565b600e82019150610a4e82846109b0565b915081905092915050565b60006020601f8301049050919050565b600082821b905092915050565b600060088302610aa67fffffffffffffffffffffffffffffffffffffffffffffffffffffffffffffffff82610a69565b610ab08683610a69565b95508019841693508086168417925050509392505050565b6000819050919050565b6000819050919050565b6000610af7610af2610aed84610ac8565b610ad2565b610ac8565b9050919050565b6000819050919050565b610b1183610adc565b610b25610b1d82610afe565b848454610a76565b825550505050565b600090565b610b3a610b2d565b610b45818484610b08565b505050565b60005b82811015610b6d57610b626000828401610b32565b600181019050610b4d565b505050565b601f821115610bc15782821115610bc057610b8c8161099b565b610b9583610a59565b610b9e85610a59565b6020861015610bac57600090505b808301610bbb82840382610b4a565b505050505b5b505050565b600082821c905092915050565b6000610be460001984600802610bc6565b1980831691505092915050565b6000610bfd8383610bd3565b9150826002028217905092915050565b610c1682610621565b67ffffffffffffffff811115610c2f57610c2e61072a565b5b610c3982546108cd565b610c44828285610b72565b600060209050601f831160018114610c775760008415610c65578287015190505b610c6f8582610bf1565b865550610cd7565b601f198416610c858661099b565b60005b82811015610cad57848901518255600182019150602085019450602081019050610c88565b86831015610cca5784890151610cc6601f891682610bd3565b8355505b6001600288020188555050505b505050505050565b6000610cea82610621565b610cf48185610990565b9350610d0481856020860161063d565b80840191505092915050565b6000610d1c8284610cdf565b91508190509291505056fea2646970667358221220e1c81c9aee6f84d730f6ab4fd2f787e6453f4f304642ef0cef165f448144133d64736f6c63430008210033",
					"opcodes": "PUSH1 0x80 PUSH1 0x40 MSTORE CALLVALUE DUP1 ISZERO PUSH1 0xF JUMPI PUSH1 0x0 DUP1 REVERT JUMPDEST POP PUSH2 0xD5D DUP1 PUSH2 0x1F PUSH1 0x0 CODECOPY PUSH1 0x0 RETURN INVALID PUSH1 0x80 PUSH1 0x40 MSTORE CALLVALUE DUP1 ISZERO PUSH2 0x10 JUMPI PUSH1 0x0 DUP1 REVERT JUMPDEST POP PUSH1 0x4 CALLDATASIZE LT PUSH2 0x4C JUMPI PUSH1 0x0 CALLDATALOAD PUSH1 0xE0 SHR DUP1 PUSH4 0x163F7522 EQ PUSH2 0x51 JUMPI DUP1 PUSH4 0x6F77926B EQ PUSH2 0x81 JUMPI DUP1 PUSH4 0xB34E97E8 EQ PUSH2 0xB3 JUMPI DUP1 PUSH4 0xF2C298BE EQ PUSH2 0xD1 JUMPI JUMPDEST PUSH1 0x0 DUP1 REVERT JUMPDEST PUSH2 0x6B PUSH1 0x4 DUP1 CALLDATASIZE SUB DUP2 ADD SWAP1 PUSH2 0x66 SWAP2 SWAP1 PUSH2 0x5BE JUMP JUMPDEST PUSH2 0xED JUMP JUMPDEST PUSH1 0x40 MLOAD PUSH2 0x78 SWAP2 SWAP1 PUSH2 0x606 JUMP JUMPDEST PUSH1 0x40 MLOAD DUP1 SWAP2 SUB SWAP1 RETURN JUMPDEST PUSH2 0x9B PUSH1 0x4 DUP1 CALLDATASIZE SUB DUP2 ADD SWAP1 PUSH2 0x96 SWAP2 SWAP1 PUSH2 0x5BE JUMP JUMPDEST PUSH2 0x145 JUMP JUMPDEST PUSH1 0x40 MLOAD PUSH2 0xAA SWAP4 SWAP3 SWAP2 SWAP1 PUSH2 0x6C0 JUMP JUMPDEST PUSH1 0x40 MLOAD DUP1 SWAP2 SUB SWAP1 RETURN JUMPDEST PUSH2 0xBB PUSH2 0x2B7 JUMP JUMPDEST PUSH1 0x40 MLOAD PUSH2 0xC8 SWAP2 SWAP1 PUSH2 0x6FE JUMP JUMPDEST PUSH1 0x40 MLOAD DUP1 SWAP2 SUB SWAP1 RETURN JUMPDEST PUSH2 0xEB PUSH1 0x4 DUP1 CALLDATASIZE SUB DUP2 ADD SWAP1 PUSH2 0xE6 SWAP2 SWAP1 PUSH2 0x855 JUMP JUMPDEST PUSH2 0x3AC JUMP JUMPDEST STOP JUMPDEST PUSH1 0x0 DUP1 PUSH1 0x0 DUP4 PUSH20 0xFFFFFFFFFFFFFFFFFFFFFFFFFFFFFFFFFFFFFFFF AND PUSH20 0xFFFFFFFFFFFFFFFFFFFFFFFFFFFFFFFFFFFFFFFF AND DUP2 MSTORE PUSH1 0x20 ADD SWAP1 DUP2 MSTORE PUSH1 0x20 ADD PUSH1 0x0 KECCAK256 PUSH1 0x1 ADD PUSH1 0x14 SWAP1 SLOAD SWAP1 PUSH2 0x100 EXP SWAP1 DIV PUSH1 0xFF AND SWAP1 POP SWAP2 SWAP1 POP JUMP JUMPDEST PUSH1 0x60 PUSH1 0x0 DUP1 PUSH1 0x0 DUP1 PUSH1 0x0 DUP7 PUSH20 0xFFFFFFFFFFFFFFFFFFFFFFFFFFFFFFFFFFFFFFFF AND PUSH20 0xFFFFFFFFFFFFFFFFFFFFFFFFFFFFFFFFFFFFFFFF AND DUP2 MSTORE PUSH1 0x20 ADD SWAP1 DUP2 MSTORE PUSH1 0x20 ADD PUSH1 0x0 KECCAK256 PUSH1 0x40 MLOAD DUP1 PUSH1 0x60 ADD PUSH1 0x40 MSTORE SWAP1 DUP2 PUSH1 0x0 DUP3 ADD DUP1 SLOAD PUSH2 0x1A5 SWAP1 PUSH2 0x8CD JUMP JUMPDEST DUP1 PUSH1 0x1F ADD PUSH1 0x20 DUP1 SWAP2 DIV MUL PUSH1 0x20 ADD PUSH1 0x40 MLOAD SWAP1 DUP2 ADD PUSH1 0x40 MSTORE DUP1 SWAP3 SWAP2 SWAP1 DUP2 DUP2 MSTORE PUSH1 0x20 ADD DUP3 DUP1 SLOAD PUSH2 0x1D1 SWAP1 PUSH2 0x8CD JUMP JUMPDEST DUP1 ISZERO PUSH2 0x21E JUMPI DUP1 PUSH1 0x1F LT PUSH2 0x1F3 JUMPI PUSH2 0x100 DUP1 DUP4 SLOAD DIV MUL DUP4 MSTORE SWAP2 PUSH1 0x20 ADD SWAP2 PUSH2 0x21E JUMP JUMPDEST DUP3 ADD SWAP2 SWAP1 PUSH1 0x0 MSTORE PUSH1 0x20 PUSH1 0x0 KECCAK256 SWAP1 JUMPDEST DUP2 SLOAD DUP2 MSTORE SWAP1 PUSH1 0x1 ADD SWAP1 PUSH1 0x20 ADD DUP1 DUP4 GT PUSH2 0x201 JUMPI DUP3 SWAP1 SUB PUSH1 0x1F AND DUP3 ADD SWAP2 JUMPDEST POP POP POP POP POP DUP2 MSTORE PUSH1 0x20 ADD PUSH1 0x1 DUP3 ADD PUSH1 0x0 SWAP1 SLOAD SWAP1 PUSH2 0x100 EXP SWAP1 DIV PUSH20 0xFFFFFFFFFFFFFFFFFFFFFFFFFFFFFFFFFFFFFFFF AND PUSH20 0xFFFFFFFFFFFFFFFFFFFFFFFFFFFFFFFFFFFFFFFF AND PUSH20 0xFFFFFFFFFFFFFFFFFFFFFFFFFFFFFFFFFFFFFFFF AND DUP2 MSTORE PUSH1 0x20 ADD PUSH1 0x1 DUP3 ADD PUSH1 0x14 SWAP1 SLOAD SWAP1 PUSH2 0x100 EXP SWAP1 DIV PUSH1 0xFF AND ISZERO ISZERO ISZERO ISZERO DUP2 MSTORE POP POP SWAP1 POP DUP1 PUSH1 0x0 ADD MLOAD DUP2 PUSH1 0x20 ADD MLOAD DUP3 PUSH1 0x40 ADD MLOAD SWAP4 POP SWAP4 POP SWAP4 POP POP SWAP2 SWAP4 SWAP1 SWAP3 POP JUMP JUMPDEST PUSH1 0x60 PUSH1 0x0 DUP1 CALLER PUSH20 0xFFFFFFFFFFFFFFFFFFFFFFFFFFFFFFFFFFFFFFFF AND PUSH20 0xFFFFFFFFFFFFFFFFFFFFFFFFFFFFFFFFFFFFFFFF AND DUP2 MSTORE PUSH1 0x20 ADD SWAP1 DUP2 MSTORE PUSH1 0x20 ADD PUSH1 0x0 KECCAK256 PUSH1 0x1 ADD PUSH1 0x14 SWAP1 SLOAD SWAP1 PUSH2 0x100 EXP SWAP1 DIV PUSH1 0xFF AND PUSH2 0x347 JUMPI PUSH1 0x40 MLOAD PUSH32 0x8C379A000000000000000000000000000000000000000000000000000000000 DUP2 MSTORE PUSH1 0x4 ADD PUSH2 0x33E SWAP1 PUSH2 0x94A JUMP JUMPDEST PUSH1 0x40 MLOAD DUP1 SWAP2 SUB SWAP1 REVERT JUMPDEST PUSH1 0x0 DUP1 CALLER PUSH20 0xFFFFFFFFFFFFFFFFFFFFFFFFFFFFFFFFFFFFFFFF AND PUSH20 0xFFFFFFFFFFFFFFFFFFFFFFFFFFFFFFFFFFFFFFFF AND DUP2 MSTORE PUSH1 0x20 ADD SWAP1 DUP2 MSTORE PUSH1 0x20 ADD PUSH1 0x0 KECCAK256 PUSH1 0x0 ADD PUSH1 0x40 MLOAD PUSH1 0x20 ADD PUSH2 0x398 SWAP2 SWAP1 PUSH2 0xA33 JUMP JUMPDEST PUSH1 0x40 MLOAD PUSH1 0x20 DUP2 DUP4 SUB SUB DUP2 MSTORE SWAP1 PUSH1 0x40 MSTORE SWAP1 POP SWAP1 JUMP JUMPDEST PUSH1 0x40 MLOAD DUP1 PUSH1 0x60 ADD PUSH1 0x40 MSTORE DUP1 DUP3 DUP2 MSTORE PUSH1 0x20 ADD CALLER PUSH20 0xFFFFFFFFFFFFFFFFFFFFFFFFFFFFFFFFFFFFFFFF AND DUP2 MSTORE PUSH1 0x20 ADD PUSH1 0x1 ISZERO ISZERO DUP2 MSTORE POP PUSH1 0x0 DUP1 CALLER PUSH20 0xFFFFFFFFFFFFFFFFFFFFFFFFFFFFFFFFFFFFFFFF AND PUSH20 0xFFFFFFFFFFFFFFFFFFFFFFFFFFFFFFFFFFFFFFFF AND DUP2 MSTORE PUSH1 0x20 ADD SWAP1 DUP2 MSTORE PUSH1 0x20 ADD PUSH1 0x0 KECCAK256 PUSH1 0x0 DUP3 ADD MLOAD DUP2 PUSH1 0x0 ADD SWAP1 DUP2 PUSH2 0x433 SWAP2 SWAP1 PUSH2 0xC0D JUMP JUMPDEST POP PUSH1 0x20 DUP3 ADD MLOAD DUP2 PUSH1 0x1 ADD PUSH1 0x0 PUSH2 0x100 EXP DUP2 SLOAD DUP2 PUSH20 0xFFFFFFFFFFFFFFFFFFFFFFFFFFFFFFFFFFFFFFFF MUL NOT AND SWAP1 DUP4 PUSH20 0xFFFFFFFFFFFFFFFFFFFFFFFFFFFFFFFFFFFFFFFF AND MUL OR SWAP1 SSTORE POP PUSH1 0x40 DUP3 ADD MLOAD DUP2 PUSH1 0x1 ADD PUSH1 0x14 PUSH2 0x100 EXP DUP2 SLOAD DUP2 PUSH1 0xFF MUL NOT AND SWAP1 DUP4 ISZERO ISZERO MUL OR SWAP1 SSTORE POP SWAP1 POP POP CALLER PUSH1 0x1 DUP3 PUSH1 0x40 MLOAD PUSH2 0x4AF SWAP2 SWAP1 PUSH2 0xD10 JUMP JUMPDEST SWAP1 DUP2 MSTORE PUSH1 0x20 ADD PUSH1 0x40 MLOAD DUP1 SWAP2 SUB SWAP1 KECCAK256 PUSH1 0x0 PUSH2 0x100 EXP DUP2 SLOAD DUP2 PUSH20 0xFFFFFFFFFFFFFFFFFFFFFFFFFFFFFFFFFFFFFFFF MUL NOT AND SWAP1 DUP4 PUSH20 0xFFFFFFFFFFFFFFFFFFFFFFFFFFFFFFFFFFFFFFFF AND MUL OR SWAP1 SSTORE POP CALLER PUSH20 0xFFFFFFFFFFFFFFFFFFFFFFFFFFFFFFFFFFFFFFFF AND PUSH32 0x48CAC28AD4DC618E15F4C2DD5E97751182F166DE97B25618318B2112AA951A2F DUP3 PUSH1 0x40 MLOAD PUSH2 0x541 SWAP2 SWAP1 PUSH2 0x6FE JUMP JUMPDEST PUSH1 0x40 MLOAD DUP1 SWAP2 SUB SWAP1 LOG2 POP JUMP JUMPDEST PUSH1 0x0 PUSH1 0x40 MLOAD SWAP1 POP SWAP1 JUMP JUMPDEST PUSH1 0x0 DUP1 REVERT JUMPDEST PUSH1 0x0 DUP1 REVERT JUMPDEST PUSH1 0x0 PUSH20 0xFFFFFFFFFFFFFFFFFFFFFFFFFFFFFFFFFFFFFFFF DUP3 AND SWAP1 POP SWAP2 SWAP1 POP JUMP JUMPDEST PUSH1 0x0 PUSH2 0x58B DUP3 PUSH2 0x560 JUMP JUMPDEST SWAP1 POP SWAP2 SWAP1 POP JUMP JUMPDEST PUSH2 0x59B DUP2 PUSH2 0x580 JUMP JUMPDEST DUP2 EQ PUSH2 0x5A6 JUMPI PUSH1 0x0 DUP1 REVERT JUMPDEST POP JUMP JUMPDEST PUSH1 0x0 DUP2 CALLDATALOAD SWAP1 POP PUSH2 0x5B8 DUP2 PUSH2 0x592 JUMP JUMPDEST SWAP3 SWAP2 POP POP JUMP JUMPDEST PUSH1 0x0 PUSH1 0x20 DUP3 DUP5 SUB SLT ISZERO PUSH2 0x5D4 JUMPI PUSH2 0x5D3 PUSH2 0x556 JUMP JUMPDEST JUMPDEST PUSH1 0x0 PUSH2 0x5E2 DUP5 DUP3 DUP6 ADD PUSH2 0x5A9 JUMP JUMPDEST SWAP2 POP POP SWAP3 SWAP2 POP POP JUMP JUMPDEST PUSH1 0x0 DUP2 ISZERO ISZERO SWAP1 POP SWAP2 SWAP1 POP JUMP JUMPDEST PUSH2 0x600 DUP2 PUSH2 0x5EB JUMP JUMPDEST DUP3 MSTORE POP POP JUMP JUMPDEST PUSH1 0x0 PUSH1 0x20 DUP3 ADD SWAP1 POP PUSH2 0x61B PUSH1 0x0 DUP4 ADD DUP5 PUSH2 0x5F7 JUMP JUMPDEST SWAP3 SWAP2 POP POP JUMP JUMPDEST PUSH1 0x0 DUP2 MLOAD SWAP1 POP SWAP2 SWAP1 POP JUMP JUMPDEST PUSH1 0x0 DUP3 DUP3 MSTORE PUSH1 0x20 DUP3 ADD SWAP1 POP SWAP3 SWAP2 POP POP JUMP JUMPDEST PUSH1 0x0 JUMPDEST DUP4 DUP2 LT ISZERO PUSH2 0x65B JUMPI DUP1 DUP3 ADD MLOAD DUP2 DUP5 ADD MSTORE PUSH1 0x20 DUP2 ADD SWAP1 POP PUSH2 0x640 JUMP JUMPDEST PUSH1 0x0 DUP5 DUP5 ADD MSTORE POP POP POP POP JUMP JUMPDEST PUSH1 0x0 PUSH1 0x1F NOT PUSH1 0x1F DUP4 ADD AND SWAP1 POP SWAP2 SWAP1 POP JUMP JUMPDEST PUSH1 0x0 PUSH2 0x683 DUP3 PUSH2 0x621 JUMP JUMPDEST PUSH2 0x68D DUP2 DUP6 PUSH2 0x62C JUMP JUMPDEST SWAP4 POP PUSH2 0x69D DUP2 DUP6 PUSH1 0x20 DUP7 ADD PUSH2 0x63D JUMP JUMPDEST PUSH2 0x6A6 DUP2 PUSH2 0x667 JUMP JUMPDEST DUP5 ADD SWAP2 POP POP SWAP3 SWAP2 POP POP JUMP JUMPDEST PUSH2 0x6BA DUP2 PUSH2 0x580 JUMP JUMPDEST DUP3 MSTORE POP POP JUMP JUMPDEST PUSH1 0x0 PUSH1 0x60 DUP3 ADD SWAP1 POP DUP2 DUP2 SUB PUSH1 0x0 DUP4 ADD MSTORE PUSH2 0x6DA DUP2 DUP7 PUSH2 0x678 JUMP JUMPDEST SWAP1 POP PUSH2 0x6E9 PUSH1 0x20 DUP4 ADD DUP6 PUSH2 0x6B1 JUMP JUMPDEST PUSH2 0x6F6 PUSH1 0x40 DUP4 ADD DUP5 PUSH2 0x5F7 JUMP JUMPDEST SWAP5 SWAP4 POP POP POP POP JUMP JUMPDEST PUSH1 0x0 PUSH1 0x20 DUP3 ADD SWAP1 POP DUP2 DUP2 SUB PUSH1 0x0 DUP4 ADD MSTORE PUSH2 0x718 DUP2 DUP5 PUSH2 0x678 JUMP JUMPDEST SWAP1 POP SWAP3 SWAP2 POP POP JUMP JUMPDEST PUSH1 0x0 DUP1 REVERT JUMPDEST PUSH1 0x0 DUP1 REVERT JUMPDEST PUSH32 0x4E487B7100000000000000000000000000000000000000000000000000000000 PUSH1 0x0 MSTORE PUSH1 0x41 PUSH1 0x4 MSTORE PUSH1 0x24 PUSH1 0x0 REVERT JUMPDEST PUSH2 0x762 DUP3 PUSH2 0x667 JUMP JUMPDEST DUP2 ADD DUP2 DUP2 LT PUSH8 0xFFFFFFFFFFFFFFFF DUP3 GT OR ISZERO PUSH2 0x781 JUMPI PUSH2 0x780 PUSH2 0x72A JUMP JUMPDEST JUMPDEST DUP1 PUSH1 0x40 MSTORE POP POP POP JUMP JUMPDEST PUSH1 0x0 PUSH2 0x794 PUSH2 0x54C JUMP JUMPDEST SWAP1 POP PUSH2 0x7A0 DUP3 DUP3 PUSH2 0x759 JUMP JUMPDEST SWAP2 SWAP1 POP JUMP JUMPDEST PUSH1 0x0 PUSH8 0xFFFFFFFFFFFFFFFF DUP3 GT ISZERO PUSH2 0x7C0 JUMPI PUSH2 0x7BF PUSH2 0x72A JUMP JUMPDEST JUMPDEST PUSH2 0x7C9 DUP3 PUSH2 0x667 JUMP JUMPDEST SWAP1 POP PUSH1 0x20 DUP2 ADD SWAP1 POP SWAP2 SWAP1 POP JUMP JUMPDEST DUP3 DUP2 DUP4 CALLDATACOPY PUSH1 0x0 DUP4 DUP4 ADD MSTORE POP POP POP JUMP JUMPDEST PUSH1 0x0 PUSH2 0x7F8 PUSH2 0x7F3 DUP5 PUSH2 0x7A5 JUMP JUMPDEST PUSH2 0x78A JUMP JUMPDEST SWAP1 POP DUP3 DUP2 MSTORE PUSH1 0x20 DUP2 ADD DUP5 DUP5 DUP5 ADD GT ISZERO PUSH2 0x814 JUMPI PUSH2 0x813 PUSH2 0x725 JUMP JUMPDEST JUMPDEST PUSH2 0x81F DUP5 DUP3 DUP6 PUSH2 0x7D6 JUMP JUMPDEST POP SWAP4 SWAP3 POP POP POP JUMP JUMPDEST PUSH1 0x0 DUP3 PUSH1 0x1F DUP4 ADD SLT PUSH2 0x83C JUMPI PUSH2 0x83B PUSH2 0x720 JUMP JUMPDEST JUMPDEST DUP2 CALLDATALOAD PUSH2 0x84C DUP5 DUP3 PUSH1 0x20 DUP7 ADD PUSH2 0x7E5 JUMP JUMPDEST SWAP2 POP POP SWAP3 SWAP2 POP POP JUMP JUMPDEST PUSH1 0x0 PUSH1 0x20 DUP3 DUP5 SUB SLT ISZERO PUSH2 0x86B JUMPI PUSH2 0x86A PUSH2 0x556 JUMP JUMPDEST JUMPDEST PUSH1 0x0 DUP3 ADD CALLDATALOAD PUSH8 0xFFFFFFFFFFFFFFFF DUP2 GT ISZERO PUSH2 0x889 JUMPI PUSH2 0x888 PUSH2 0x55B JUMP JUMPDEST JUMPDEST PUSH2 0x895 DUP5 DUP3 DUP6 ADD PUSH2 0x827 JUMP JUMPDEST SWAP2 POP POP SWAP3 SWAP2 POP POP JUMP JUMPDEST PUSH32 0x4E487B7100000000000000000000000000000000000000000000000000000000 PUSH1 0x0 MSTORE PUSH1 0x22 PUSH1 0x4 MSTORE PUSH1 0x24 PUSH1 0x0 REVERT JUMPDEST PUSH1 0x0 PUSH1 0x2 DUP3 DIV SWAP1 POP PUSH1 0x1 DUP3 AND DUP1 PUSH2 0x8E5 JUMPI PUSH1 0x7F DUP3 AND SWAP2 POP JUMPDEST PUSH1 0x20 DUP3 LT DUP2 SUB PUSH2 0x8F8 JUMPI PUSH2 0x8F7 PUSH2 0x89E JUMP JUMPDEST JUMPDEST POP SWAP2 SWAP1 POP JUMP JUMPDEST PUSH32 0x4E6F742072656769737465726564000000000000000000000000000000000000 PUSH1 0x0 DUP3 ADD MSTORE POP JUMP JUMPDEST PUSH1 0x0 PUSH2 0x934 PUSH1 0xE DUP4 PUSH2 0x62C JUMP JUMPDEST SWAP2 POP PUSH2 0x93F DUP3 PUSH2 0x8FE JUMP JUMPDEST PUSH1 0x20 DUP3 ADD SWAP1 POP SWAP2 SWAP1 POP JUMP JUMPDEST PUSH1 0x0 PUSH1 0x20 DUP3 ADD SWAP1 POP DUP2 DUP2 SUB PUSH1 0x0 DUP4 ADD MSTORE PUSH2 0x963 DUP2 PUSH2 0x927 JUMP JUMPDEST SWAP1 POP SWAP2 SWAP1 POP JUMP JUMPDEST PUSH32 0x57656C636F6D65206261636B2C20000000000000000000000000000000000000 DUP2 MSTORE POP JUMP JUMPDEST PUSH1 0x0 DUP2 SWAP1 POP SWAP3 SWAP2 POP POP JUMP JUMPDEST PUSH1 0x0 DUP2 SWAP1 POP DUP2 PUSH1 0x0 MSTORE PUSH1 0x20 PUSH1 0x0 KECCAK256 SWAP1 POP SWAP2 SWAP1 POP JUMP JUMPDEST PUSH1 0x0 DUP2 SLOAD PUSH2 0x9BD DUP2 PUSH2 0x8CD JUMP JUMPDEST PUSH2 0x9C7 DUP2 DUP7 PUSH2 0x990 JUMP JUMPDEST SWAP5 POP PUSH1 0x1 DUP3 AND PUSH1 0x0 DUP2 EQ PUSH2 0x9E2 JUMPI PUSH1 0x1 DUP2 EQ PUSH2 0x9F7 JUMPI PUSH2 0xA2A JUMP JUMPDEST PUSH1 0xFF NOT DUP4 AND DUP7 MSTORE DUP2 ISZERO ISZERO DUP3 MUL DUP7 ADD SWAP4 POP PUSH2 0xA2A JUMP JUMPDEST PUSH2 0xA00 DUP6 PUSH2 0x99B JUMP JUMPDEST PUSH1 0x0 JUMPDEST DUP4 DUP2 LT ISZERO PUSH2 0xA22 JUMPI DUP2 SLOAD DUP2 DUP10 ADD MSTORE PUSH1 0x1 DUP3 ADD SWAP2 POP PUSH1 0x20 DUP2 ADD SWAP1 POP PUSH2 0xA03 JUMP JUMPDEST DUP4 DUP9 ADD SWAP6 POP POP POP JUMPDEST POP POP POP SWAP3 SWAP2 POP POP JUMP JUMPDEST PUSH1 0x0 PUSH2 0xA3E DUP3 PUSH2 0x96A JUMP JUMPDEST PUSH1 0xE DUP3 ADD SWAP2 POP PUSH2 0xA4E DUP3 DUP5 PUSH2 0x9B0 JUMP JUMPDEST SWAP2 POP DUP2 SWAP1 POP SWAP3 SWAP2 POP POP JUMP JUMPDEST PUSH1 0x0 PUSH1 0x20 PUSH1 0x1F DUP4 ADD DIV SWAP1 POP SWAP2 SWAP1 POP JUMP JUMPDEST PUSH1 0x0 DUP3 DUP3 SHL SWAP1 POP SWAP3 SWAP2 POP POP JUMP JUMPDEST PUSH1 0x0 PUSH1 0x8 DUP4 MUL PUSH2 0xAA6 PUSH32 0xFFFFFFFFFFFFFFFFFFFFFFFFFFFFFFFFFFFFFFFFFFFFFFFFFFFFFFFFFFFFFFFF DUP3 PUSH2 0xA69 JUMP JUMPDEST PUSH2 0xAB0 DUP7 DUP4 PUSH2 0xA69 JUMP JUMPDEST SWAP6 POP DUP1 NOT DUP5 AND SWAP4 POP DUP1 DUP7 AND DUP5 OR SWAP3 POP POP POP SWAP4 SWAP3 POP POP POP JUMP JUMPDEST PUSH1 0x0 DUP2 SWAP1 POP SWAP2 SWAP1 POP JUMP JUMPDEST PUSH1 0x0 DUP2 SWAP1 POP SWAP2 SWAP1 POP JUMP JUMPDEST PUSH1 0x0 PUSH2 0xAF7 PUSH2 0xAF2 PUSH2 0xAED DUP5 PUSH2 0xAC8 JUMP JUMPDEST PUSH2 0xAD2 JUMP JUMPDEST PUSH2 0xAC8 JUMP JUMPDEST SWAP1 POP SWAP2 SWAP1 POP JUMP JUMPDEST PUSH1 0x0 DUP2 SWAP1 POP SWAP2 SWAP1 POP JUMP JUMPDEST PUSH2 0xB11 DUP4 PUSH2 0xADC JUMP JUMPDEST PUSH2 0xB25 PUSH2 0xB1D DUP3 PUSH2 0xAFE JUMP JUMPDEST DUP5 DUP5 SLOAD PUSH2 0xA76 JUMP JUMPDEST DUP3 SSTORE POP POP POP POP JUMP JUMPDEST PUSH1 0x0 SWAP1 JUMP JUMPDEST PUSH2 0xB3A PUSH2 0xB2D JUMP JUMPDEST PUSH2 0xB45 DUP2 DUP5 DUP5 PUSH2 0xB08 JUMP JUMPDEST POP POP POP JUMP JUMPDEST PUSH1 0x0 JUMPDEST DUP3 DUP2 LT ISZERO PUSH2 0xB6D JUMPI PUSH2 0xB62 PUSH1 0x0 DUP3 DUP5 ADD PUSH2 0xB32 JUMP JUMPDEST PUSH1 0x1 DUP2 ADD SWAP1 POP PUSH2 0xB4D JUMP JUMPDEST POP POP POP JUMP JUMPDEST PUSH1 0x1F DUP3 GT ISZERO PUSH2 0xBC1 JUMPI DUP3 DUP3 GT ISZERO PUSH2 0xBC0 JUMPI PUSH2 0xB8C DUP2 PUSH2 0x99B JUMP JUMPDEST PUSH2 0xB95 DUP4 PUSH2 0xA59 JUMP JUMPDEST PUSH2 0xB9E DUP6 PUSH2 0xA59 JUMP JUMPDEST PUSH1 0x20 DUP7 LT ISZERO PUSH2 0xBAC JUMPI PUSH1 0x0 SWAP1 POP JUMPDEST DUP1 DUP4 ADD PUSH2 0xBBB DUP3 DUP5 SUB DUP3 PUSH2 0xB4A JUMP JUMPDEST POP POP POP POP JUMPDEST JUMPDEST POP POP POP JUMP JUMPDEST PUSH1 0x0 DUP3 DUP3 SHR SWAP1 POP SWAP3 SWAP2 POP POP JUMP JUMPDEST PUSH1 0x0 PUSH2 0xBE4 PUSH1 0x0 NOT DUP5 PUSH1 0x8 MUL PUSH2 0xBC6 JUMP JUMPDEST NOT DUP1 DUP4 AND SWAP2 POP POP SWAP3 SWAP2 POP POP JUMP JUMPDEST PUSH1 0x0 PUSH2 0xBFD DUP4 DUP4 PUSH2 0xBD3 JUMP JUMPDEST SWAP2 POP DUP3 PUSH1 0x2 MUL DUP3 OR SWAP1 POP SWAP3 SWAP2 POP POP JUMP JUMPDEST PUSH2 0xC16 DUP3 PUSH2 0x621 JUMP JUMPDEST PUSH8 0xFFFFFFFFFFFFFFFF DUP2 GT ISZERO PUSH2 0xC2F JUMPI PUSH2 0xC2E PUSH2 0x72A JUMP JUMPDEST JUMPDEST PUSH2 0xC39 DUP3 SLOAD PUSH2 0x8CD JUMP JUMPDEST PUSH2 0xC44 DUP3 DUP3 DUP6 PUSH2 0xB72 JUMP JUMPDEST PUSH1 0x0 PUSH1 0x20 SWAP1 POP PUSH1 0x1F DUP4 GT PUSH1 0x1 DUP2 EQ PUSH2 0xC77 JUMPI PUSH1 0x0 DUP5 ISZERO PUSH2 0xC65 JUMPI DUP3 DUP8 ADD MLOAD SWAP1 POP JUMPDEST PUSH2 0xC6F DUP6 DUP3 PUSH2 0xBF1 JUMP JUMPDEST DUP7 SSTORE POP PUSH2 0xCD7 JUMP JUMPDEST PUSH1 0x1F NOT DUP5 AND PUSH2 0xC85 DUP7 PUSH2 0x99B JUMP JUMPDEST PUSH1 0x0 JUMPDEST DUP3 DUP2 LT ISZERO PUSH2 0xCAD JUMPI DUP5 DUP10 ADD MLOAD DUP3 SSTORE PUSH1 0x1 DUP3 ADD SWAP2 POP PUSH1 0x20 DUP6 ADD SWAP5 POP PUSH1 0x20 DUP2 ADD SWAP1 POP PUSH2 0xC88 JUMP JUMPDEST DUP7 DUP4 LT ISZERO PUSH2 0xCCA JUMPI DUP5 DUP10 ADD MLOAD PUSH2 0xCC6 PUSH1 0x1F DUP10 AND DUP3 PUSH2 0xBD3 JUMP JUMPDEST DUP4 SSTORE POP JUMPDEST PUSH1 0x1 PUSH1 0x2 DUP9 MUL ADD DUP9 SSTORE POP POP POP JUMPDEST POP POP POP POP POP POP JUMP JUMPDEST PUSH1 0x0 PUSH2 0xCEA DUP3 PUSH2 0x621 JUMP JUMPDEST PUSH2 0xCF4 DUP2 DUP6 PUSH2 0x990 JUMP JUMPDEST SWAP4 POP PUSH2 0xD04 DUP2 DUP6 PUSH1 0x20 DUP7 ADD PUSH2 0x63D JUMP JUMPDEST DUP1 DUP5 ADD SWAP2 POP POP SWAP3 SWAP2 POP POP JUMP JUMPDEST PUSH1 0x0 PUSH2 0xD1C DUP3 DUP5 PUSH2 0xCDF JUMP JUMPDEST SWAP2 POP DUP2 SWAP1 POP SWAP3 SWAP2 POP POP JUMP INVALID LOG2 PUSH5 0x6970667358 0x22 SLT KECCAK256 RJUMPI 0xC81C SWAP11 RETURNCONTRACT 0x6F DUP5 0xD7 ADDRESS 0xF6 0xAB 0x4F 0xD2 0xF7 DUP8 DUPN 0x45 EXTCODEHASH 0x4F ADDRESS CHAINID TIMESTAMP 0xEF 0xC 0xEF AND PUSH0 DIFFICULTY DUP2 DIFFICULTY SGT RETURNDATASIZE PUSH5 0x736F6C6343 STOP ADDMOD 0x21 STOP CALLER "
				},
				"gasEstimates": {
					"creation": {
						"codeDepositCost": "684200",
						"executionCost": "715",
						"totalCost": "684915"
					},
					"external": {
						"getUser(address)": "infinite",
						"isUserRegistered(address)": "2917",
						"login()": "infinite",
						"register(string)": "infinite"
					}
				},
				"methodIdentifiers": {
					"getUser(address)": "6f77926b",
					"isUserRegistered(address)": "163f7522",
					"login()": "b34e97e8",
					"register(string)": "f2c298be"
				}
			},
			"storageLayout": {
				"storage": [
					{
						"astId": 13,
						"contract": "contracts/Register.sol:Register",
						"label": "users",
						"offset": 0,
						"slot": "0",
						"type": "t_mapping(t_address,t_struct(User)8_storage)"
					},
					{
						"astId": 17,
						"contract": "contracts/Register.sol:Register",
						"label": "usernameToAddress",
						"offset": 0,
						"slot": "1",
						"type": "t_mapping(t_string_memory_ptr,t_address)"
					}
				],
				"types": {
					"t_address": {
						"encoding": "inplace",
						"label": "address",
						"numberOfBytes": "20"
					},
					"t_bool": {
						"encoding": "inplace",
						"label": "bool",
						"numberOfBytes": "1"
					},
					"t_mapping(t_address,t_struct(User)8_storage)": {
						"encoding": "mapping",
						"key": "t_address",
						"label": "mapping(address => struct Register.User)",
						"numberOfBytes": "32",
						"value": "t_struct(User)8_storage"
					},
					"t_mapping(t_string_memory_ptr,t_address)": {
						"encoding": "mapping",
						"key": "t_string_memory_ptr",
						"label": "mapping(string => address)",
						"numberOfBytes": "32",
						"value": "t_address"
					},
					"t_string_memory_ptr": {
						"encoding": "bytes",
						"label": "string",
						"numberOfBytes": "32"
					},
					"t_string_storage": {
						"encoding": "bytes",
						"label": "string",
						"numberOfBytes": "32"
					},
					"t_struct(User)8_storage": {
						"encoding": "inplace",
						"label": "struct Register.User",
						"members": [
							{
								"astId": 3,
								"contract": "contracts/Register.sol:Register",
								"label": "username",
								"offset": 0,
								"slot": "0",
								"type": "t_string_storage"
							},
							{
								"astId": 5,
								"contract": "contracts/Register.sol:Register",
								"label": "userAddress",
								"offset": 0,
								"slot": "1",
								"type": "t_address"
							},
							{
								"astId": 7,
								"contract": "contracts/Register.sol:Register",
								"label": "isRegistered",
								"offset": 20,
								"slot": "1",
								"type": "t_bool"
							}
						],
						"numberOfBytes": "64"
					}
				}
			},
			"userdoc": {
				"kind": "user",
				"methods": {},
				"version": 1
			}
		}
	}
}