{
  "_format": "hh-sol-artifact-1",
  "contractName": "AutoRefund",
  "sourceName": "contracts/AutoRefund.sol",
  "abi": [
    {
      "inputs": [
        {
          "internalType": "address",
          "name": "_campaignContract",
          "type": "address"
        }
      ],
      "stateMutability": "nonpayable",
      "type": "constructor"
    },
    {
      "anonymous": false,
      "inputs": [
        {
          "indexed": true,
          "internalType": "uint256",
          "name": "campaignId",
          "type": "uint256"
        },
        {
          "indexed": true,
          "internalType": "address",
          "name": "contributor",
          "type": "address"
        },
        {
          "indexed": false,
          "internalType": "uint256",
          "name": "amount",
          "type": "uint256"
        },
        {
          "indexed": false,
          "internalType": "uint256",
          "name": "timestamp",
          "type": "uint256"
        }
      ],
      "name": "RefundIssued",
      "type": "event"
    },
    {
      "anonymous": false,
      "inputs": [
        {
          "indexed": true,
          "internalType": "uint256",
          "name": "campaignId",
          "type": "uint256"
        },
        {
          "indexed": false,
          "internalType": "uint256",
          "name": "count",
          "type": "uint256"
        },
        {
          "indexed": false,
          "internalType": "uint256",
          "name": "totalAmount",
          "type": "uint256"
        }
      ],
      "name": "RefundIssuedToAll",
      "type": "event"
    },
    {
      "inputs": [],
      "name": "campaignContract",
      "outputs": [
        {
          "internalType": "contract Campaign",
          "name": "",
          "type": "address"
        }
      ],
      "stateMutability": "view",
      "type": "function"
    },
    {
      "inputs": [
        {
          "internalType": "uint256",
          "name": "_id",
          "type": "uint256"
        }
      ],
      "name": "issueRefundToAll",
      "outputs": [],
      "stateMutability": "nonpayable",
      "type": "function"
    },
    {
      "inputs": [
        {
          "internalType": "uint256",
          "name": "_id",
          "type": "uint256"
        }
      ],
      "name": "refund",
      "outputs": [],
      "stateMutability": "nonpayable",
      "type": "function"
    }
  ],
  "bytecode": "0x60806040523480156200001157600080fd5b5060405162001542380380620015428339818101604052810190620000379190620000e8565b806000806101000a81548173ffffffffffffffffffffffffffffffffffffffff021916908373ffffffffffffffffffffffffffffffffffffffff160217905550506200011a565b600080fd5b600073ffffffffffffffffffffffffffffffffffffffff82169050919050565b6000620000b08262000083565b9050919050565b620000c281620000a3565b8114620000ce57600080fd5b50565b600081519050620000e281620000b7565b92915050565b6000602082840312156200010157620001006200007e565b5b60006200011184828501620000d1565b91505092915050565b611418806200012a6000396000f3fe608060405234801561001057600080fd5b50600436106100415760003560e01c8063231c8a4614610046578063278ecde11461006257806358ae05cd1461007e575b600080fd5b610060600480360381019061005b9190610b0c565b61009c565b005b61007c60048036038101906100779190610b0c565b610669565b005b610086610a9e565b6040516100939190610bb8565b60405180910390f35b60008060008060008060009054906101000a900473ffffffffffffffffffffffffffffffffffffffff1673ffffffffffffffffffffffffffffffffffffffff1663141961bc876040518263ffffffff1660e01b81526004016100fe9190610be2565b600060405180830381865afa15801561011b573d6000803e3d6000fd5b505050506040513d6000823e3d601f19601f820116820180604052508101906101449190610de9565b50985098509850985098505050505083421015610196576040517f08c379a000000000000000000000000000000000000000000000000000000000815260040161018d90610f5d565b60405180910390fd5b81156101d7576040517f08c379a00000000000000000000000000000000000000000000000000000000081526004016101ce90610fc9565b60405180910390fd5b848310610219576040517f08c379a000000000000000000000000000000000000000000000000000000000815260040161021090611035565b60405180910390fd5b801561025a576040517f08c379a0000000000000000000000000000000000000000000000000000000008152600401610251906110a1565b60405180910390fd5b60008060009054906101000a900473ffffffffffffffffffffffffffffffffffffffff1673ffffffffffffffffffffffffffffffffffffffff166319c5f695886040518263ffffffff1660e01b81526004016102b69190610be2565b602060405180830381865afa1580156102d3573d6000803e3d6000fd5b505050506040513d601f19601f820116820180604052508101906102f791906110c1565b905060008060005b8381101561058e5760008060008054906101000a900473ffffffffffffffffffffffffffffffffffffffff1673ffffffffffffffffffffffffffffffffffffffff166344a982e78d856040518363ffffffff1660e01b81526004016103659291906110ee565b6040805180830381865afa158015610381573d6000803e3d6000fd5b505050506040513d601f19601f820116820180604052508101906103a59190611117565b9150915060008060009054906101000a900473ffffffffffffffffffffffffffffffffffffffff1673ffffffffffffffffffffffffffffffffffffffff16634f1ff4598e856040518363ffffffff1660e01b8152600401610407929190611166565b602060405180830381865afa158015610424573d6000803e3d6000fd5b505050506040513d601f19601f82011682018060405250810190610448919061118f565b9050600082118015610458575080155b156105785760008060009054906101000a900473ffffffffffffffffffffffffffffffffffffffff1673ffffffffffffffffffffffffffffffffffffffff1663991c49708f86866040518463ffffffff1660e01b81526004016104bd939291906111bc565b6020604051808303816000875af11580156104dc573d6000803e3d6000fd5b505050506040513d601f19601f82011682018060405250810190610500919061118f565b905080156105765782876105149190611222565b9650858061052190611256565b9650508373ffffffffffffffffffffffffffffffffffffffff168e7f275893a421a5df15c4da79585c78852a6bbf95b9064470c3d6a5636240274b87854260405161056d9291906110ee565b60405180910390a35b505b505050808061058690611256565b9150506102ff565b50600081111561065e5760008054906101000a900473ffffffffffffffffffffffffffffffffffffffff1673ffffffffffffffffffffffffffffffffffffffff1663a0a441bb8a6040518263ffffffff1660e01b81526004016105f19190610be2565b600060405180830381600087803b15801561060b57600080fd5b505af115801561061f573d6000803e3d6000fd5b50505050887f80df15d37ce153535545f5bd390273fdbd1fe18dd814e88e5bc469bd006f49e182846040516106559291906110ee565b60405180910390a25b505050505050505050565b60008060008060009054906101000a900473ffffffffffffffffffffffffffffffffffffffff1673ffffffffffffffffffffffffffffffffffffffff1663141961bc856040518263ffffffff1660e01b81526004016106c89190610be2565b600060405180830381865afa1580156106e5573d6000803e3d6000fd5b505050506040513d6000823e3d601f19601f8201168201806040525081019061070e9190610de9565b505050965096509650505050508142101561075e576040517f08c379a000000000000000000000000000000000000000000000000000000000815260040161075590610f5d565b60405180910390fd5b8281106107a0576040517f08c379a000000000000000000000000000000000000000000000000000000000815260040161079790611035565b60405180910390fd5b60008060009054906101000a900473ffffffffffffffffffffffffffffffffffffffff1673ffffffffffffffffffffffffffffffffffffffff16634320580086336040518363ffffffff1660e01b81526004016107fe929190611166565b6040805180830381865afa15801561081a573d6000803e3d6000fd5b505050506040513d601f19601f8201168201806040525081019061083e9190611117565b91505060008111610884576040517f08c379a000000000000000000000000000000000000000000000000000000000815260040161087b906112ea565b60405180910390fd5b60008054906101000a900473ffffffffffffffffffffffffffffffffffffffff1673ffffffffffffffffffffffffffffffffffffffff16634f1ff45986336040518363ffffffff1660e01b81526004016108df929190611166565b602060405180830381865afa1580156108fc573d6000803e3d6000fd5b505050506040513d601f19601f82011682018060405250810190610920919061118f565b15610960576040517f08c379a000000000000000000000000000000000000000000000000000000000815260040161095790611356565b60405180910390fd5b60008060009054906101000a900473ffffffffffffffffffffffffffffffffffffffff1673ffffffffffffffffffffffffffffffffffffffff1663991c49708733856040518463ffffffff1660e01b81526004016109c0939291906111bc565b6020604051808303816000875af11580156109df573d6000803e3d6000fd5b505050506040513d601f19601f82011682018060405250810190610a03919061118f565b905080610a45576040517f08c379a0000000000000000000000000000000000000000000000000000000008152600401610a3c906113c2565b60405180910390fd5b3373ffffffffffffffffffffffffffffffffffffffff16867f275893a421a5df15c4da79585c78852a6bbf95b9064470c3d6a5636240274b878442604051610a8e9291906110ee565b60405180910390a3505050505050565b60008054906101000a900473ffffffffffffffffffffffffffffffffffffffff1681565b6000604051905090565b600080fd5b600080fd5b6000819050919050565b610ae981610ad6565b8114610af457600080fd5b50565b600081359050610b0681610ae0565b92915050565b600060208284031215610b2257610b21610acc565b5b6000610b3084828501610af7565b91505092915050565b600073ffffffffffffffffffffffffffffffffffffffff82169050919050565b6000819050919050565b6000610b7e610b79610b7484610b39565b610b59565b610b39565b9050919050565b6000610b9082610b63565b9050919050565b6000610ba282610b85565b9050919050565b610bb281610b97565b82525050565b6000602082019050610bcd6000830184610ba9565b92915050565b610bdc81610ad6565b82525050565b6000602082019050610bf76000830184610bd3565b92915050565b600081519050610c0c81610ae0565b92915050565b6000610c1d82610b39565b9050919050565b610c2d81610c12565b8114610c3857600080fd5b50565b600081519050610c4a81610c24565b92915050565b600080fd5b600080fd5b6000601f19601f8301169050919050565b7f4e487b7100000000000000000000000000000000000000000000000000000000600052604160045260246000fd5b610ca382610c5a565b810181811067ffffffffffffffff82111715610cc257610cc1610c6b565b5b80604052505050565b6000610cd5610ac2565b9050610ce18282610c9a565b919050565b600067ffffffffffffffff821115610d0157610d00610c6b565b5b610d0a82610c5a565b9050602081019050919050565b60005b83811015610d35578082015181840152602081019050610d1a565b60008484015250505050565b6000610d54610d4f84610ce6565b610ccb565b905082815260208101848484011115610d7057610d6f610c55565b5b610d7b848285610d17565b509392505050565b600082601f830112610d9857610d97610c50565b5b8151610da8848260208601610d41565b91505092915050565b60008115159050919050565b610dc681610db1565b8114610dd157600080fd5b50565b600081519050610de381610dbd565b92915050565b6000806000806000806000806000806101408b8d031215610e0d57610e0c610acc565b5b6000610e1b8d828e01610bfd565b9a50506020610e2c8d828e01610c3b565b99505060408b015167ffffffffffffffff811115610e4d57610e4c610ad1565b5b610e598d828e01610d83565b98505060608b015167ffffffffffffffff811115610e7a57610e79610ad1565b5b610e868d828e01610d83565b9750506080610e978d828e01610bfd565b96505060a0610ea88d828e01610bfd565b95505060c0610eb98d828e01610bfd565b94505060e0610eca8d828e01610dd4565b935050610100610edc8d828e01610dd4565b925050610120610eee8d828e01610bfd565b9150509295989b9194979a5092959850565b600082825260208201905092915050565b7f43616d706169676e207374696c6c206163746976650000000000000000000000600082015250565b6000610f47601583610f00565b9150610f5282610f11565b602082019050919050565b60006020820190508181036000830152610f7681610f3a565b9050919050565b7f46756e647320776572652077697468647261776e000000000000000000000000600082015250565b6000610fb3601483610f00565b9150610fbe82610f7d565b602082019050919050565b60006020820190508181036000830152610fe281610fa6565b9050919050565b7f476f616c206d65743a206e6f20726566756e6473000000000000000000000000600082015250565b600061101f601483610f00565b915061102a82610fe9565b602082019050919050565b6000602082019050818103600083015261104e81611012565b9050919050565b7f43616d706169676e20616c726561647920726566756e646564206d6163726f00600082015250565b600061108b601f83610f00565b915061109682611055565b602082019050919050565b600060208201905081810360008301526110ba8161107e565b9050919050565b6000602082840312156110d7576110d6610acc565b5b60006110e584828501610bfd565b91505092915050565b60006040820190506111036000830185610bd3565b6111106020830184610bd3565b9392505050565b6000806040838503121561112e5761112d610acc565b5b600061113c85828601610c3b565b925050602061114d85828601610bfd565b9150509250929050565b61116081610c12565b82525050565b600060408201905061117b6000830185610bd3565b6111886020830184611157565b9392505050565b6000602082840312156111a5576111a4610acc565b5b60006111b384828501610dd4565b91505092915050565b60006060820190506111d16000830186610bd3565b6111de6020830185611157565b6111eb6040830184610bd3565b949350505050565b7f4e487b7100000000000000000000000000000000000000000000000000000000600052601160045260246000fd5b600061122d82610ad6565b915061123883610ad6565b92508282019050808211156112505761124f6111f3565b5b92915050565b600061126182610ad6565b91507fffffffffffffffffffffffffffffffffffffffffffffffffffffffffffffffff8203611293576112926111f3565b5b600182019050919050565b7f4e6f20636f6e747269627574696f6e20666f756e640000000000000000000000600082015250565b60006112d4601583610f00565b91506112df8261129e565b602082019050919050565b60006020820190508181036000830152611303816112c7565b9050919050565b7f416c726561647920726566756e64656400000000000000000000000000000000600082015250565b6000611340601083610f00565b915061134b8261130a565b602082019050919050565b6000602082019050818103600083015261136f81611333565b9050919050565b7f526566756e64206661696c656400000000000000000000000000000000000000600082015250565b60006113ac600d83610f00565b91506113b782611376565b602082019050919050565b600060208201905081810360008301526113db8161139f565b905091905056fea2646970667358221220f9d745639ac749414a6b1e8636e1ac389331784f1419aa09f0b78a9c91e2c6f964736f6c63430008140033",
  "linkReferences": {},
  "deployedLinkReferences": {}
}