{
  "_format": "hh-sol-artifact-1",
  "contractName": "Campaign",
  "sourceName": "contracts/Campaign.sol",
  "abi": [
    {
      "inputs": [
        {
          "internalType": "address",
          "name": "_rewardTokenAddress",
          "type": "address"
        }
      ],
      "stateMutability": "nonpayable",
      "type": "constructor"
    },
    {
      "anonymous": false,
      "inputs": [
        {
          "indexed": true,
          "internalType": "uint256",
          "name": "id",
          "type": "uint256"
        },
        {
          "indexed": true,
          "internalType": "address",
          "name": "creator",
          "type": "address"
        },
        {
          "indexed": false,
          "internalType": "string",
          "name": "title",
          "type": "string"
        },
        {
          "indexed": false,
          "internalType": "uint256",
          "name": "goal",
          "type": "uint256"
        },
        {
          "indexed": false,
          "internalType": "uint256",
          "name": "deadline",
          "type": "uint256"
        },
        {
          "indexed": false,
          "internalType": "uint256",
          "name": "timestamp",
          "type": "uint256"
        }
      ],
      "name": "CampaignCreated",
      "type": "event"
    },
    {
      "anonymous": false,
      "inputs": [
        {
          "indexed": true,
          "internalType": "uint256",
          "name": "campaignId",
          "type": "uint256"
        },
        {
          "indexed": true,
          "internalType": "address",
          "name": "contributor",
          "type": "address"
        },
        {
          "indexed": false,
          "internalType": "uint256",
          "name": "amount",
          "type": "uint256"
        },
        {
          "indexed": false,
          "internalType": "uint256",
          "name": "timestamp",
          "type": "uint256"
        }
      ],
      "name": "ContributionMade",
      "type": "event"
    },
    {
      "anonymous": false,
      "inputs": [
        {
          "indexed": true,
          "internalType": "uint256",
          "name": "campaignId",
          "type": "uint256"
        },
        {
          "indexed": true,
          "internalType": "address",
          "name": "creator",
          "type": "address"
        },
        {
          "indexed": false,
          "internalType": "uint256",
          "name": "amount",
          "type": "uint256"
        },
        {
          "indexed": false,
          "internalType": "uint256",
          "name": "timestamp",
          "type": "uint256"
        }
      ],
      "name": "FundsWithdrawn",
      "type": "event"
    },
    {
      "anonymous": false,
      "inputs": [
        {
          "indexed": true,
          "internalType": "uint256",
          "name": "campaignId",
          "type": "uint256"
        },
        {
          "indexed": false,
          "internalType": "uint256",
          "name": "timestamp",
          "type": "uint256"
        }
      ],
      "name": "RefundCompleted",
      "type": "event"
    },
    {
      "anonymous": false,
      "inputs": [
        {
          "indexed": true,
          "internalType": "uint256",
          "name": "campaignId",
          "type": "uint256"
        },
        {
          "indexed": true,
          "internalType": "address",
          "name": "contributor",
          "type": "address"
        },
        {
          "indexed": false,
          "internalType": "uint256",
          "name": "amount",
          "type": "uint256"
        },
        {
          "indexed": false,
          "internalType": "uint256",
          "name": "timestamp",
          "type": "uint256"
        }
      ],
      "name": "RefundIssued",
      "type": "event"
    },
    {
      "anonymous": false,
      "inputs": [
        {
          "indexed": true,
          "internalType": "uint256",
          "name": "campaignId",
          "type": "uint256"
        },
        {
          "indexed": false,
          "internalType": "uint256",
          "name": "count",
          "type": "uint256"
        },
        {
          "indexed": false,
          "internalType": "uint256",
          "name": "totalAmount",
          "type": "uint256"
        }
      ],
      "name": "RefundIssuedToAll",
      "type": "event"
    },
    {
      "inputs": [],
      "name": "autoRefundContract",
      "outputs": [
        {
          "internalType": "address",
          "name": "",
          "type": "address"
        }
      ],
      "stateMutability": "view",
      "type": "function"
    },
    {
      "inputs": [
        {
          "internalType": "uint256",
          "name": "",
          "type": "uint256"
        },
        {
          "internalType": "uint256",
          "name": "",
          "type": "uint256"
        }
      ],
      "name": "campaignContributors",
      "outputs": [
        {
          "internalType": "address",
          "name": "",
          "type": "address"
        }
      ],
      "stateMutability": "view",
      "type": "function"
    },
    {
      "inputs": [],
      "name": "campaignCount",
      "outputs": [
        {
          "internalType": "uint256",
          "name": "",
          "type": "uint256"
        }
      ],
      "stateMutability": "view",
      "type": "function"
    },
    {
      "inputs": [
        {
          "internalType": "uint256",
          "name": "",
          "type": "uint256"
        }
      ],
      "name": "campaigns",
      "outputs": [
        {
          "internalType": "uint256",
          "name": "id",
          "type": "uint256"
        },
        {
          "internalType": "address",
          "name": "creator",
          "type": "address"
        },
        {
          "internalType": "string",
          "name": "title",
          "type": "string"
        },
        {
          "internalType": "string",
          "name": "description",
          "type": "string"
        },
        {
          "internalType": "uint256",
          "name": "goal",
          "type": "uint256"
        },
        {
          "internalType": "uint256",
          "name": "deadline",
          "type": "uint256"
        },
        {
          "internalType": "uint256",
          "name": "fundsRaised",
          "type": "uint256"
        },
        {
          "internalType": "bool",
          "name": "isWithdrawn",
          "type": "bool"
        },
        {
          "internalType": "bool",
          "name": "isRefunded",
          "type": "bool"
        },
        {
          "internalType": "uint256",
          "name": "createdAt",
          "type": "uint256"
        }
      ],
      "stateMutability": "view",
      "type": "function"
    },
    {
      "inputs": [
        {
          "internalType": "uint256",
          "name": "_id",
          "type": "uint256"
        }
      ],
      "name": "contribute",
      "outputs": [],
      "stateMutability": "payable",
      "type": "function"
    },
    {
      "inputs": [
        {
          "internalType": "uint256",
          "name": "",
          "type": "uint256"
        },
        {
          "internalType": "address",
          "name": "",
          "type": "address"
        }
      ],
      "name": "contributions",
      "outputs": [
        {
          "internalType": "uint256",
          "name": "",
          "type": "uint256"
        }
      ],
      "stateMutability": "view",
      "type": "function"
    },
    {
      "inputs": [
        {
          "internalType": "string",
          "name": "_title",
          "type": "string"
        },
        {
          "internalType": "string",
          "name": "_description",
          "type": "string"
        },
        {
          "internalType": "uint256",
          "name": "_goal",
          "type": "uint256"
        },
        {
          "internalType": "uint256",
          "name": "_deadline",
          "type": "uint256"
        }
      ],
      "name": "createCampaign",
      "outputs": [],
      "stateMutability": "nonpayable",
      "type": "function"
    },
    {
      "inputs": [
        {
          "internalType": "uint256",
          "name": "_id",
          "type": "uint256"
        },
        {
          "internalType": "address",
          "name": "_contributor",
          "type": "address"
        },
        {
          "internalType": "uint256",
          "name": "_amount",
          "type": "uint256"
        }
      ],
      "name": "executeAuthorizedRefund",
      "outputs": [
        {
          "internalType": "bool",
          "name": "",
          "type": "bool"
        }
      ],
      "stateMutability": "nonpayable",
      "type": "function"
    },
    {
      "inputs": [],
      "name": "getActiveCampaigns",
      "outputs": [
        {
          "components": [
            {
              "internalType": "uint256",
              "name": "id",
              "type": "uint256"
            },
            {
              "internalType": "address",
              "name": "creator",
              "type": "address"
            },
            {
              "internalType": "string",
              "name": "title",
              "type": "string"
            },
            {
              "internalType": "string",
              "name": "description",
              "type": "string"
            },
            {
              "internalType": "uint256",
              "name": "goal",
              "type": "uint256"
            },
            {
              "internalType": "uint256",
              "name": "deadline",
              "type": "uint256"
            },
            {
              "internalType": "uint256",
              "name": "fundsRaised",
              "type": "uint256"
            },
            {
              "internalType": "bool",
              "name": "isWithdrawn",
              "type": "bool"
            },
            {
              "internalType": "bool",
              "name": "isRefunded",
              "type": "bool"
            },
            {
              "internalType": "uint256",
              "name": "createdAt",
              "type": "uint256"
            }
          ],
          "internalType": "struct Campaign.CampaignData[]",
          "name": "",
          "type": "tuple[]"
        }
      ],
      "stateMutability": "view",
      "type": "function"
    },
    {
      "inputs": [
        {
          "internalType": "uint256",
          "name": "_id",
          "type": "uint256"
        },
        {
          "internalType": "uint256",
          "name": "_index",
          "type": "uint256"
        }
      ],
      "name": "getContributor",
      "outputs": [
        {
          "internalType": "address",
          "name": "contributor",
          "type": "address"
        },
        {
          "internalType": "uint256",
          "name": "amount",
          "type": "uint256"
        }
      ],
      "stateMutability": "view",
      "type": "function"
    },
    {
      "inputs": [
        {
          "internalType": "uint256",
          "name": "_id",
          "type": "uint256"
        },
        {
          "internalType": "address",
          "name": "_contributor",
          "type": "address"
        }
      ],
      "name": "getContributorByAddress",
      "outputs": [
        {
          "internalType": "address",
          "name": "",
          "type": "address"
        },
        {
          "internalType": "uint256",
          "name": "",
          "type": "uint256"
        }
      ],
      "stateMutability": "view",
      "type": "function"
    },
    {
      "inputs": [
        {
          "internalType": "uint256",
          "name": "_id",
          "type": "uint256"
        }
      ],
      "name": "getContributorCount",
      "outputs": [
        {
          "internalType": "uint256",
          "name": "",
          "type": "uint256"
        }
      ],
      "stateMutability": "view",
      "type": "function"
    },
    {
      "inputs": [
        {
          "internalType": "uint256",
          "name": "_id",
          "type": "uint256"
        }
      ],
      "name": "getContributors",
      "outputs": [
        {
          "internalType": "address[]",
          "name": "",
          "type": "address[]"
        }
      ],
      "stateMutability": "view",
      "type": "function"
    },
    {
      "inputs": [
        {
          "internalType": "address",
          "name": "_creator",
          "type": "address"
        }
      ],
      "name": "getMyCampaigns",
      "outputs": [
        {
          "components": [
            {
              "internalType": "uint256",
              "name": "id",
              "type": "uint256"
            },
            {
              "internalType": "address",
              "name": "creator",
              "type": "address"
            },
            {
              "internalType": "string",
              "name": "title",
              "type": "string"
            },
            {
              "internalType": "string",
              "name": "description",
              "type": "string"
            },
            {
              "internalType": "uint256",
              "name": "goal",
              "type": "uint256"
            },
            {
              "internalType": "uint256",
              "name": "deadline",
              "type": "uint256"
            },
            {
              "internalType": "uint256",
              "name": "fundsRaised",
              "type": "uint256"
            },
            {
              "internalType": "bool",
              "name": "isWithdrawn",
              "type": "bool"
            },
            {
              "internalType": "bool",
              "name": "isRefunded",
              "type": "bool"
            },
            {
              "internalType": "uint256",
              "name": "createdAt",
              "type": "uint256"
            }
          ],
          "internalType": "struct Campaign.CampaignData[]",
          "name": "",
          "type": "tuple[]"
        }
      ],
      "stateMutability": "view",
      "type": "function"
    },
    {
      "inputs": [
        {
          "internalType": "uint256",
          "name": "_id",
          "type": "uint256"
        }
      ],
      "name": "markCampaignRefunded",
      "outputs": [],
      "stateMutability": "nonpayable",
      "type": "function"
    },
    {
      "inputs": [
        {
          "internalType": "uint256",
          "name": "",
          "type": "uint256"
        },
        {
          "internalType": "address",
          "name": "",
          "type": "address"
        }
      ],
      "name": "refunded",
      "outputs": [
        {
          "internalType": "bool",
          "name": "",
          "type": "bool"
        }
      ],
      "stateMutability": "view",
      "type": "function"
    },
    {
      "inputs": [],
      "name": "rewardToken",
      "outputs": [
        {
          "internalType": "contract RewardToken",
          "name": "",
          "type": "address"
        }
      ],
      "stateMutability": "view",
      "type": "function"
    },
    {
      "inputs": [
        {
          "internalType": "address",
          "name": "_address",
          "type": "address"
        }
      ],
      "name": "setAutoRefundContract",
      "outputs": [],
      "stateMutability": "nonpayable",
      "type": "function"
    },
    {
      "inputs": [
        {
          "internalType": "uint256",
          "name": "_id",
          "type": "uint256"
        }
      ],
      "name": "withdraw",
      "outputs": [],
      "stateMutability": "nonpayable",
      "type": "function"
    }
  ],
  "bytecode": "0x60806040523480156200001157600080fd5b506040516200351d3803806200351d8339818101604052810190620000379190620000e9565b80600260006101000a81548173ffffffffffffffffffffffffffffffffffffffff021916908373ffffffffffffffffffffffffffffffffffffffff160217905550506200011b565b600080fd5b600073ffffffffffffffffffffffffffffffffffffffff82169050919050565b6000620000b18262000084565b9050919050565b620000c381620000a4565b8114620000cf57600080fd5b50565b600081519050620000e381620000b8565b92915050565b6000602082840312156200010257620001016200007f565b5b60006200011284828501620000d2565b91505092915050565b6133f2806200012b6000396000f3fe6080604052600436106101145760003560e01c806364c90966116100a0578063a318f26911610064578063a318f2691461041a578063c1cbbca714610443578063c362b1561461045f578063f7c618c11461048a578063ff96de21146104b557610114565b806364c90966146103215780637274e30d1461035e5780637de71ff814610389578063991c4970146103b4578063a0a441bb146103f157610114565b80633c1ab00f116100e75780633c1ab00f146101ee5780633d891f591461022b578063432058001461026857806344a982e7146102a65780634f1ff459146102e457610114565b80630369741b14610119578063141961bc1461014257806319c5f695146101885780632e1a7d4d146101c5575b600080fd5b34801561012557600080fd5b50610140600480360381019061013b9190612008565b6104f2565b005b34801561014e57600080fd5b506101696004803603810190610164919061206b565b6105c7565b60405161017f9a99989796959493929190612161565b60405180910390f35b34801561019457600080fd5b506101af60048036038101906101aa919061206b565b610765565b6040516101bc919061220b565b60405180910390f35b3480156101d157600080fd5b506101ec60048036038101906101e7919061206b565b610785565b005b3480156101fa57600080fd5b506102156004803603810190610210919061206b565b610be1565b60405161022291906122e4565b60405180910390f35b34801561023757600080fd5b50610252600480360381019061024d9190612306565b610c82565b60405161025f919061220b565b60405180910390f35b34801561027457600080fd5b5061028f600480360381019061028a9190612306565b610ca7565b60405161029d929190612346565b60405180910390f35b3480156102b257600080fd5b506102cd60048036038101906102c8919061236f565b610d07565b6040516102db929190612346565b60405180910390f35b3480156102f057600080fd5b5061030b60048036038101906103069190612306565b610dbc565b60405161031891906123af565b60405180910390f35b34801561032d57600080fd5b5061034860048036038101906103439190612008565b610deb565b60405161035591906125d5565b60405180910390f35b34801561036a57600080fd5b506103736111a9565b604051610380919061220b565b60405180910390f35b34801561039557600080fd5b5061039e6111af565b6040516103ab91906125f7565b60405180910390f35b3480156103c057600080fd5b506103db60048036038101906103d69190612612565b6111d5565b6040516103e891906123af565b60405180910390f35b3480156103fd57600080fd5b506104186004803603810190610413919061206b565b611454565b005b34801561042657600080fd5b50610441600480360381019061043c919061279a565b611515565b005b61045d6004803603810190610458919061206b565b611771565b005b34801561046b57600080fd5b50610474611b35565b60405161048191906125d5565b60405180910390f35b34801561049657600080fd5b5061049f611eb5565b6040516104ac9190612898565b60405180910390f35b3480156104c157600080fd5b506104dc60048036038101906104d7919061236f565b611edb565b6040516104e991906125f7565b60405180910390f35b600073ffffffffffffffffffffffffffffffffffffffff16600360009054906101000a900473ffffffffffffffffffffffffffffffffffffffff1673ffffffffffffffffffffffffffffffffffffffff1614610583576040517f08c379a000000000000000000000000000000000000000000000000000000000815260040161057a906128ff565b60405180910390fd5b80600360006101000a81548173ffffffffffffffffffffffffffffffffffffffff021916908373ffffffffffffffffffffffffffffffffffffffff16021790555050565b60016020528060005260406000206000915090508060000154908060010160009054906101000a900473ffffffffffffffffffffffffffffffffffffffff16908060020180546106169061294e565b80601f01602080910402602001604051908101604052809291908181526020018280546106429061294e565b801561068f5780601f106106645761010080835404028352916020019161068f565b820191906000526020600020905b81548152906001019060200180831161067257829003601f168201915b5050505050908060030180546106a49061294e565b80601f01602080910402602001604051908101604052809291908181526020018280546106d09061294e565b801561071d5780601f106106f25761010080835404028352916020019161071d565b820191906000526020600020905b81548152906001019060200180831161070057829003601f168201915b5050505050908060040154908060050154908060060154908060070160009054906101000a900460ff16908060070160019054906101000a900460ff1690806008015490508a565b600060056000838152602001908152602001600020805490509050919050565b60006001600083815260200190815260200160002090508060010160009054906101000a900473ffffffffffffffffffffffffffffffffffffffff1673ffffffffffffffffffffffffffffffffffffffff163373ffffffffffffffffffffffffffffffffffffffff161461082e576040517f08c379a0000000000000000000000000000000000000000000000000000000008152600401610825906129cb565b60405180910390fd5b8060070160009054906101000a900460ff1615610880576040517f08c379a000000000000000000000000000000000000000000000000000000000815260040161087790612a37565b60405180910390fd5b8060070160019054906101000a900460ff16156108d2576040517f08c379a00000000000000000000000000000000000000000000000000000000081526004016108c990612aa3565b60405180910390fd5b80600401548160060154101561091d576040517f08c379a000000000000000000000000000000000000000000000000000000000815260040161091490612b0f565b60405180910390fd5b60018160070160006101000a81548160ff02191690831515021790555060008160010160009054906101000a900473ffffffffffffffffffffffffffffffffffffffff1673ffffffffffffffffffffffffffffffffffffffff16826006015460405161098890612b60565b60006040518083038185875af1925050503d80600081146109c5576040519150601f19603f3d011682016040523d82523d6000602084013e6109ca565b606091505b5050905080610a0e576040517f08c379a0000000000000000000000000000000000000000000000000000000008152600401610a0590612bc1565b60405180910390fd5b3373ffffffffffffffffffffffffffffffffffffffff16837f3dbb1a26f29aef1264c12ca1285deb60cca5666d8b17100c7ea1602c0a4014f6846006015442604051610a5b929190612be1565b60405180910390a360005b6005600085815260200190815260200160002080549050811015610bdb576000600560008681526020019081526020016000208281548110610aab57610aaa612c0a565b5b9060005260206000200160009054906101000a900473ffffffffffffffffffffffffffffffffffffffff16905060006004600087815260200190815260200160002060008373ffffffffffffffffffffffffffffffffffffffff1673ffffffffffffffffffffffffffffffffffffffff1681526020019081526020016000205490506000811115610bc657600260009054906101000a900473ffffffffffffffffffffffffffffffffffffffff1673ffffffffffffffffffffffffffffffffffffffff166340c10f1983836040518363ffffffff1660e01b8152600401610b93929190612346565b600060405180830381600087803b158015610bad57600080fd5b505af1158015610bc1573d6000803e3d6000fd5b505050505b50508080610bd390612c68565b915050610a66565b50505050565b606060056000838152602001908152602001600020805480602002602001604051908101604052809291908181526020018280548015610c7657602002820191906000526020600020905b8160009054906101000a900473ffffffffffffffffffffffffffffffffffffffff1673ffffffffffffffffffffffffffffffffffffffff1681526020019060010190808311610c2c575b50505050509050919050565b6004602052816000526040600020602052806000526040600020600091509150505481565b600080826004600086815260200190815260200160002060008573ffffffffffffffffffffffffffffffffffffffff1673ffffffffffffffffffffffffffffffffffffffff16815260200190815260200160002054915091509250929050565b6000806000600560008681526020019081526020016000208481548110610d3157610d30612c0a565b5b9060005260206000200160009054906101000a900473ffffffffffffffffffffffffffffffffffffffff169050806004600087815260200190815260200160002060008373ffffffffffffffffffffffffffffffffffffffff1673ffffffffffffffffffffffffffffffffffffffff1681526020019081526020016000205492509250509250929050565b60066020528160005260406000206020528060005260406000206000915091509054906101000a900460ff1681565b6060600080600190505b6000548111610e89578373ffffffffffffffffffffffffffffffffffffffff166001600083815260200190815260200160002060010160009054906101000a900473ffffffffffffffffffffffffffffffffffffffff1673ffffffffffffffffffffffffffffffffffffffff1603610e76578180610e7290612c68565b9250505b8080610e8190612c68565b915050610df5565b5060008167ffffffffffffffff811115610ea657610ea561266f565b5b604051908082528060200260200182016040528015610edf57816020015b610ecc611f29565b815260200190600190039081610ec45790505b509050600080600190505b600054811161119d578573ffffffffffffffffffffffffffffffffffffffff166001600083815260200190815260200160002060010160009054906101000a900473ffffffffffffffffffffffffffffffffffffffff1673ffffffffffffffffffffffffffffffffffffffff160361118a576001600082815260200190815260200160002060405180610140016040529081600082015481526020016001820160009054906101000a900473ffffffffffffffffffffffffffffffffffffffff1673ffffffffffffffffffffffffffffffffffffffff1673ffffffffffffffffffffffffffffffffffffffff168152602001600282018054610feb9061294e565b80601f01602080910402602001604051908101604052809291908181526020018280546110179061294e565b80156110645780601f1061103957610100808354040283529160200191611064565b820191906000526020600020905b81548152906001019060200180831161104757829003601f168201915b5050505050815260200160038201805461107d9061294e565b80601f01602080910402602001604051908101604052809291908181526020018280546110a99061294e565b80156110f65780601f106110cb576101008083540402835291602001916110f6565b820191906000526020600020905b8154815290600101906020018083116110d957829003601f168201915b505050505081526020016004820154815260200160058201548152602001600682015481526020016007820160009054906101000a900460ff161515151581526020016007820160019054906101000a900460ff161515151581526020016008820154815250508383815181106111705761116f612c0a565b5b6020026020010181905250818061118690612c68565b9250505b808061119590612c68565b915050610eea565b50819350505050919050565b60005481565b600360009054906101000a900473ffffffffffffffffffffffffffffffffffffffff1681565b6000600360009054906101000a900473ffffffffffffffffffffffffffffffffffffffff1673ffffffffffffffffffffffffffffffffffffffff163373ffffffffffffffffffffffffffffffffffffffff1614611267576040517f08c379a000000000000000000000000000000000000000000000000000000000815260040161125e90612d22565b60405180910390fd5b6006600085815260200190815260200160002060008473ffffffffffffffffffffffffffffffffffffffff1673ffffffffffffffffffffffffffffffffffffffff16815260200190815260200160002060009054906101000a900460ff1615611305576040517f08c379a00000000000000000000000000000000000000000000000000000000081526004016112fc90612d8e565b60405180910390fd5b60016006600086815260200190815260200160002060008573ffffffffffffffffffffffffffffffffffffffff1673ffffffffffffffffffffffffffffffffffffffff16815260200190815260200160002060006101000a81548160ff02191690831515021790555060008373ffffffffffffffffffffffffffffffffffffffff168360405161139490612b60565b60006040518083038185875af1925050503d80600081146113d1576040519150601f19603f3d011682016040523d82523d6000602084013e6113d6565b606091505b50509050806114495760006006600087815260200190815260200160002060008673ffffffffffffffffffffffffffffffffffffffff1673ffffffffffffffffffffffffffffffffffffffff16815260200190815260200160002060006101000a81548160ff0219169083151502179055505b809150509392505050565b600360009054906101000a900473ffffffffffffffffffffffffffffffffffffffff1673ffffffffffffffffffffffffffffffffffffffff163373ffffffffffffffffffffffffffffffffffffffff16146114e4576040517f08c379a00000000000000000000000000000000000000000000000000000000081526004016114db90612d22565b60405180910390fd5b600180600083815260200190815260200160002060070160016101000a81548160ff02191690831515021790555050565b60008211611558576040517f08c379a000000000000000000000000000000000000000000000000000000000815260040161154f90612dfa565b60405180910390fd5b42811161159a576040517f08c379a000000000000000000000000000000000000000000000000000000000815260040161159190612e66565b60405180910390fd5b6000808154809291906115ac90612c68565b919050555060405180610140016040528060005481526020013373ffffffffffffffffffffffffffffffffffffffff168152602001858152602001848152602001838152602001828152602001600081526020016000151581526020016000151581526020014281525060016000805481526020019081526020016000206000820151816000015560208201518160010160006101000a81548173ffffffffffffffffffffffffffffffffffffffff021916908373ffffffffffffffffffffffffffffffffffffffff16021790555060408201518160020190816116909190613028565b5060608201518160030190816116a69190613028565b506080820151816004015560a0820151816005015560c0820151816006015560e08201518160070160006101000a81548160ff0219169083151502179055506101008201518160070160016101000a81548160ff02191690831515021790555061012082015181600801559050503373ffffffffffffffffffffffffffffffffffffffff166000547f9a6f279818b6c3ecad22dd882c63460a80cee0df2841c888adb08588aff26c228685854260405161176394939291906130fa565b60405180910390a350505050565b6000600160008381526020019081526020016000209050806005015442106117ce576040517f08c379a00000000000000000000000000000000000000000000000000000000081526004016117c590613192565b60405180910390fd5b8060070160009054906101000a900460ff1615611820576040517f08c379a0000000000000000000000000000000000000000000000000000000008152600401611817906131fe565b60405180910390fd5b8060070160019054906101000a900460ff1615611872576040517f08c379a000000000000000000000000000000000000000000000000000000000815260040161186990612aa3565b60405180910390fd5b600034116118b5576040517f08c379a00000000000000000000000000000000000000000000000000000000081526004016118ac90613290565b60405180910390fd5b80600401548160060154106118ff576040517f08c379a00000000000000000000000000000000000000000000000000000000081526004016118f6906132fc565b60405180910390fd5b8060010160009054906101000a900473ffffffffffffffffffffffffffffffffffffffff1673ffffffffffffffffffffffffffffffffffffffff163373ffffffffffffffffffffffffffffffffffffffff1603611991576040517f08c379a000000000000000000000000000000000000000000000000000000000815260040161198890613368565b60405180910390fd5b60006004600084815260200190815260200160002060003373ffffffffffffffffffffffffffffffffffffffff1673ffffffffffffffffffffffffffffffffffffffff1681526020019081526020016000205403611a5e5760056000838152602001908152602001600020339080600181540180825580915050600190039060005260206000200160009091909190916101000a81548173ffffffffffffffffffffffffffffffffffffffff021916908373ffffffffffffffffffffffffffffffffffffffff1602179055505b34816006016000828254611a729190613388565b92505081905550346004600084815260200190815260200160002060003373ffffffffffffffffffffffffffffffffffffffff1673ffffffffffffffffffffffffffffffffffffffff1681526020019081526020016000206000828254611ad99190613388565b925050819055503373ffffffffffffffffffffffffffffffffffffffff16827ff9b7589b7a8d939b9da5dae90770378fe5fd7802be5d66432e85bedbdbfbcb7a3442604051611b29929190612be1565b60405180910390a35050565b6060600080600190505b6000548111611bb557600160008281526020019081526020016000206005015442108015611b8e57506001600082815260200190815260200160002060070160009054906101000a900460ff16155b15611ba2578180611b9e90612c68565b9250505b8080611bad90612c68565b915050611b3f565b5060008167ffffffffffffffff811115611bd257611bd161266f565b5b604051908082528060200260200182016040528015611c0b57816020015b611bf8611f29565b815260200190600190039081611bf05790505b509050600080600190505b6000548111611eab57600160008281526020019081526020016000206005015442108015611c6557506001600082815260200190815260200160002060070160009054906101000a900460ff16155b15611e98576001600082815260200190815260200160002060405180610140016040529081600082015481526020016001820160009054906101000a900473ffffffffffffffffffffffffffffffffffffffff1673ffffffffffffffffffffffffffffffffffffffff1673ffffffffffffffffffffffffffffffffffffffff168152602001600282018054611cf99061294e565b80601f0160208091040260200160405190810160405280929190818152602001828054611d259061294e565b8015611d725780601f10611d4757610100808354040283529160200191611d72565b820191906000526020600020905b815481529060010190602001808311611d5557829003601f168201915b50505050508152602001600382018054611d8b9061294e565b80601f0160208091040260200160405190810160405280929190818152602001828054611db79061294e565b8015611e045780601f10611dd957610100808354040283529160200191611e04565b820191906000526020600020905b815481529060010190602001808311611de757829003601f168201915b505050505081526020016004820154815260200160058201548152602001600682015481526020016007820160009054906101000a900460ff161515151581526020016007820160019054906101000a900460ff16151515158152602001600882015481525050838381518110611e7e57611e7d612c0a565b5b60200260200101819052508180611e9490612c68565b9250505b8080611ea390612c68565b915050611c16565b5081935050505090565b600260009054906101000a900473ffffffffffffffffffffffffffffffffffffffff1681565b60056020528160005260406000208181548110611ef757600080fd5b906000526020600020016000915091509054906101000a900473ffffffffffffffffffffffffffffffffffffffff1681565b60405180610140016040528060008152602001600073ffffffffffffffffffffffffffffffffffffffff1681526020016060815260200160608152602001600081526020016000815260200160008152602001600015158152602001600015158152602001600081525090565b6000604051905090565b600080fd5b600080fd5b600073ffffffffffffffffffffffffffffffffffffffff82169050919050565b6000611fd582611faa565b9050919050565b611fe581611fca565b8114611ff057600080fd5b50565b60008135905061200281611fdc565b92915050565b60006020828403121561201e5761201d611fa0565b5b600061202c84828501611ff3565b91505092915050565b6000819050919050565b61204881612035565b811461205357600080fd5b50565b6000813590506120658161203f565b92915050565b60006020828403121561208157612080611fa0565b5b600061208f84828501612056565b91505092915050565b6120a181612035565b82525050565b6120b081611fca565b82525050565b600081519050919050565b600082825260208201905092915050565b60005b838110156120f05780820151818401526020810190506120d5565b60008484015250505050565b6000601f19601f8301169050919050565b6000612118826120b6565b61212281856120c1565b93506121328185602086016120d2565b61213b816120fc565b840191505092915050565b60008115159050919050565b61215b81612146565b82525050565b600061014082019050612177600083018d612098565b612184602083018c6120a7565b8181036040830152612196818b61210d565b905081810360608301526121aa818a61210d565b90506121b96080830189612098565b6121c660a0830188612098565b6121d360c0830187612098565b6121e060e0830186612152565b6121ee610100830185612152565b6121fc610120830184612098565b9b9a5050505050505050505050565b60006020820190506122206000830184612098565b92915050565b600081519050919050565b600082825260208201905092915050565b6000819050602082019050919050565b61225b81611fca565b82525050565b600061226d8383612252565b60208301905092915050565b6000602082019050919050565b600061229182612226565b61229b8185612231565b93506122a683612242565b8060005b838110156122d75781516122be8882612261565b97506122c983612279565b9250506001810190506122aa565b5085935050505092915050565b600060208201905081810360008301526122fe8184612286565b905092915050565b6000806040838503121561231d5761231c611fa0565b5b600061232b85828601612056565b925050602061233c85828601611ff3565b9150509250929050565b600060408201905061235b60008301856120a7565b6123686020830184612098565b9392505050565b6000806040838503121561238657612385611fa0565b5b600061239485828601612056565b92505060206123a585828601612056565b9150509250929050565b60006020820190506123c46000830184612152565b92915050565b600081519050919050565b600082825260208201905092915050565b6000819050602082019050919050565b6123ff81612035565b82525050565b600082825260208201905092915050565b6000612421826120b6565b61242b8185612405565b935061243b8185602086016120d2565b612444816120fc565b840191505092915050565b61245881612146565b82525050565b60006101408301600083015161247760008601826123f6565b50602083015161248a6020860182612252565b50604083015184820360408601526124a28282612416565b915050606083015184820360608601526124bc8282612416565b91505060808301516124d160808601826123f6565b5060a08301516124e460a08601826123f6565b5060c08301516124f760c08601826123f6565b5060e083015161250a60e086018261244f565b5061010083015161251f61010086018261244f565b506101208301516125346101208601826123f6565b508091505092915050565b600061254b838361245e565b905092915050565b6000602082019050919050565b600061256b826123ca565b61257581856123d5565b935083602082028501612587856123e6565b8060005b858110156125c357848403895281516125a4858261253f565b94506125af83612553565b925060208a0199505060018101905061258b565b50829750879550505050505092915050565b600060208201905081810360008301526125ef8184612560565b905092915050565b600060208201905061260c60008301846120a7565b92915050565b60008060006060848603121561262b5761262a611fa0565b5b600061263986828701612056565b935050602061264a86828701611ff3565b925050604061265b86828701612056565b9150509250925092565b600080fd5b600080fd5b7f4e487b7100000000000000000000000000000000000000000000000000000000600052604160045260246000fd5b6126a7826120fc565b810181811067ffffffffffffffff821117156126c6576126c561266f565b5b80604052505050565b60006126d9611f96565b90506126e5828261269e565b919050565b600067ffffffffffffffff8211156127055761270461266f565b5b61270e826120fc565b9050602081019050919050565b82818337600083830152505050565b600061273d612738846126ea565b6126cf565b9050828152602081018484840111156127595761275861266a565b5b61276484828561271b565b509392505050565b600082601f83011261278157612780612665565b5b813561279184826020860161272a565b91505092915050565b600080600080608085870312156127b4576127b3611fa0565b5b600085013567ffffffffffffffff8111156127d2576127d1611fa5565b5b6127de8782880161276c565b945050602085013567ffffffffffffffff8111156127ff576127fe611fa5565b5b61280b8782880161276c565b935050604061281c87828801612056565b925050606061282d87828801612056565b91505092959194509250565b6000819050919050565b600061285e61285961285484611faa565b612839565b611faa565b9050919050565b600061287082612843565b9050919050565b600061288282612865565b9050919050565b61289281612877565b82525050565b60006020820190506128ad6000830184612889565b92915050565b7f416c726561647920736574000000000000000000000000000000000000000000600082015250565b60006128e9600b836120c1565b91506128f4826128b3565b602082019050919050565b60006020820190508181036000830152612918816128dc565b9050919050565b7f4e487b7100000000000000000000000000000000000000000000000000000000600052602260045260246000fd5b6000600282049050600182168061296657607f821691505b6020821081036129795761297861291f565b5b50919050565b7f4f6e6c792063726561746f722063616e20776974686472617700000000000000600082015250565b60006129b56019836120c1565b91506129c08261297f565b602082019050919050565b600060208201905081810360008301526129e4816129a8565b9050919050565b7f416c72656164792077697468647261776e000000000000000000000000000000600082015250565b6000612a216011836120c1565b9150612a2c826129eb565b602082019050919050565b60006020820190508181036000830152612a5081612a14565b9050919050565b7f43616d706169676e20726566756e646564000000000000000000000000000000600082015250565b6000612a8d6011836120c1565b9150612a9882612a57565b602082019050919050565b60006020820190508181036000830152612abc81612a80565b9050919050565b7f476f616c206e6f74206d65740000000000000000000000000000000000000000600082015250565b6000612af9600c836120c1565b9150612b0482612ac3565b602082019050919050565b60006020820190508181036000830152612b2881612aec565b9050919050565b600081905092915050565b50565b6000612b4a600083612b2f565b9150612b5582612b3a565b600082019050919050565b6000612b6b82612b3d565b9150819050919050565b7f5769746864726177206661696c65640000000000000000000000000000000000600082015250565b6000612bab600f836120c1565b9150612bb682612b75565b602082019050919050565b60006020820190508181036000830152612bda81612b9e565b9050919050565b6000604082019050612bf66000830185612098565b612c036020830184612098565b9392505050565b7f4e487b7100000000000000000000000000000000000000000000000000000000600052603260045260246000fd5b7f4e487b7100000000000000000000000000000000000000000000000000000000600052601160045260246000fd5b6000612c7382612035565b91507fffffffffffffffffffffffffffffffffffffffffffffffffffffffffffffffff8203612ca557612ca4612c39565b5b600182019050919050565b7f556e617574686f72697a65643a204f6e6c79204175746f526566756e6420636f60008201527f6e74726163740000000000000000000000000000000000000000000000000000602082015250565b6000612d0c6026836120c1565b9150612d1782612cb0565b604082019050919050565b60006020820190508181036000830152612d3b81612cff565b9050919050565b7f416c726561647920726566756e64656400000000000000000000000000000000600082015250565b6000612d786010836120c1565b9150612d8382612d42565b602082019050919050565b60006020820190508181036000830152612da781612d6b565b9050919050565b7f476f616c206d7573742062652067726561746572207468616e20300000000000600082015250565b6000612de4601b836120c1565b9150612def82612dae565b602082019050919050565b60006020820190508181036000830152612e1381612dd7565b9050919050565b7f446561646c696e65206d75737420626520696e20746865206675747572650000600082015250565b6000612e50601e836120c1565b9150612e5b82612e1a565b602082019050919050565b60006020820190508181036000830152612e7f81612e43565b9050919050565b60008190508160005260206000209050919050565b60006020601f8301049050919050565b600082821b905092915050565b600060088302612ee87fffffffffffffffffffffffffffffffffffffffffffffffffffffffffffffffff82612eab565b612ef28683612eab565b95508019841693508086168417925050509392505050565b6000612f25612f20612f1b84612035565b612839565b612035565b9050919050565b6000819050919050565b612f3f83612f0a565b612f53612f4b82612f2c565b848454612eb8565b825550505050565b600090565b612f68612f5b565b612f73818484612f36565b505050565b5b81811015612f9757612f8c600082612f60565b600181019050612f79565b5050565b601f821115612fdc57612fad81612e86565b612fb684612e9b565b81016020851015612fc5578190505b612fd9612fd185612e9b565b830182612f78565b50505b505050565b600082821c905092915050565b6000612fff60001984600802612fe1565b1980831691505092915050565b60006130188383612fee565b9150826002028217905092915050565b613031826120b6565b67ffffffffffffffff81111561304a5761304961266f565b5b613054825461294e565b61305f828285612f9b565b600060209050601f8311600181146130925760008415613080578287015190505b61308a858261300c565b8655506130f2565b601f1984166130a086612e86565b60005b828110156130c8578489015182556001820191506020850194506020810190506130a3565b868310156130e557848901516130e1601f891682612fee565b8355505b6001600288020188555050505b505050505050565b60006080820190508181036000830152613114818761210d565b90506131236020830186612098565b6131306040830185612098565b61313d6060830184612098565b95945050505050565b7f43616d706169676e2068617320656e6465640000000000000000000000000000600082015250565b600061317c6012836120c1565b915061318782613146565b602082019050919050565b600060208201905081810360008301526131ab8161316f565b9050919050565b7f46756e647320616c72656164792077697468647261776e000000000000000000600082015250565b60006131e86017836120c1565b91506131f3826131b2565b602082019050919050565b60006020820190508181036000830152613217816131db565b9050919050565b7f436f6e747269627574696f6e206d75737420626520677265617465722074686160008201527f6e20300000000000000000000000000000000000000000000000000000000000602082015250565b600061327a6023836120c1565b91506132858261321e565b604082019050919050565b600060208201905081810360008301526132a98161326d565b9050919050565b7f476f616c20616c72656164792072656163686564000000000000000000000000600082015250565b60006132e66014836120c1565b91506132f1826132b0565b602082019050919050565b60006020820190508181036000830152613315816132d9565b9050919050565b7f43726561746f722063616e6e6f7420636f6e7472696275746500000000000000600082015250565b60006133526019836120c1565b915061335d8261331c565b602082019050919050565b6000602082019050818103600083015261338181613345565b9050919050565b600061339382612035565b915061339e83612035565b92508282019050808211156133b6576133b5612c39565b5b9291505056fea264697066735822122062bb9a6d5a943898073cebe3c2cfd9fe881653f4139351862890b3ea46ea754564736f6c63430008140033",
  "linkReferences": {},
  "deployedLinkReferences": {}
}