{
  "_format": "hh-sol-artifact-1",
  "contractName": "UserAuth",
  "sourceName": "contracts/UserAuth.sol",
  "abi": [
    {
      "anonymous": false,
      "inputs": [
        {
          "indexed": true,
          "internalType": "address",
          "name": "userAddress",
          "type": "address"
        },
        {
          "indexed": false,
          "internalType": "string",
          "name": "username",
          "type": "string"
        }
      ],
      "name": "UserRegistered",
      "type": "event"
    },
    {
      "inputs": [],
      "name": "deleteAccount",
      "outputs": [],
      "stateMutability": "nonpayable",
      "type": "function"
    },
    {
      "inputs": [
        {
          "internalType": "address",
          "name": "_user",
          "type": "address"
        }
      ],
      "name": "getUser",
      "outputs": [
        {
          "internalType": "string",
          "name": "",
          "type": "string"
        },
        {
          "internalType": "address",
          "name": "",
          "type": "address"
        },
        {
          "internalType": "bool",
          "name": "",
          "type": "bool"
        }
      ],
      "stateMutability": "view",
      "type": "function"
    },
    {
      "inputs": [
        {
          "internalType": "address",
          "name": "_user",
          "type": "address"
        }
      ],
      "name": "isUserRegistered",
      "outputs": [
        {
          "internalType": "bool",
          "name": "",
          "type": "bool"
        }
      ],
      "stateMutability": "view",
      "type": "function"
    },
    {
      "inputs": [
        {
          "internalType": "string",
          "name": "_username",
          "type": "string"
        }
      ],
      "name": "isUsernameRegistered",
      "outputs": [
        {
          "internalType": "bool",
          "name": "",
          "type": "bool"
        }
      ],
      "stateMutability": "view",
      "type": "function"
    },
    {
      "inputs": [
        {
          "internalType": "string",
          "name": "_username",
          "type": "string"
        }
      ],
      "name": "register",
      "outputs": [],
      "stateMutability": "nonpayable",
      "type": "function"
    }
  ],
  "bytecode": "0x608060405234801561001057600080fd5b50611171806100206000396000f3fe608060405234801561001057600080fd5b50600436106100575760003560e01c8063163f75221461005c5780633be32f7d1461008c57806352ac2091146100965780636f77926b146100c6578063f2c298be146100f8575b600080fd5b61007660048036038101906100719190610970565b610114565b60405161008391906109b8565b60405180910390f35b61009461016c565b005b6100b060048036038101906100ab9190610b19565b610398565b6040516100bd91906109b8565b60405180910390f35b6100e060048036038101906100db9190610970565b61040f565b6040516100ef93929190610bf0565b60405180910390f35b610112600480360381019061010d9190610b19565b610581565b005b60008060008373ffffffffffffffffffffffffffffffffffffffff1673ffffffffffffffffffffffffffffffffffffffff16815260200190815260200160002060010160149054906101000a900460ff169050919050565b6000803373ffffffffffffffffffffffffffffffffffffffff1673ffffffffffffffffffffffffffffffffffffffff16815260200190815260200160002060010160149054906101000a900460ff166101fa576040517f08c379a00000000000000000000000000000000000000000000000000000000081526004016101f190610c7a565b60405180910390fd5b60008060003373ffffffffffffffffffffffffffffffffffffffff1673ffffffffffffffffffffffffffffffffffffffff168152602001908152602001600020600001805461024890610cc9565b80601f016020809104026020016040519081016040528092919081815260200182805461027490610cc9565b80156102c15780601f10610296576101008083540402835291602001916102c1565b820191906000526020600020905b8154815290600101906020018083116102a457829003601f168201915b505050505090506001816040516102d89190610d36565b908152602001604051809103902060006101000a81549073ffffffffffffffffffffffffffffffffffffffff02191690556000803373ffffffffffffffffffffffffffffffffffffffff1673ffffffffffffffffffffffffffffffffffffffff1681526020019081526020016000206000808201600061035891906108a1565b6001820160006101000a81549073ffffffffffffffffffffffffffffffffffffffff02191690556001820160146101000a81549060ff0219169055505050565b60008073ffffffffffffffffffffffffffffffffffffffff166001836040516103c19190610d36565b908152602001604051809103902060009054906101000a900473ffffffffffffffffffffffffffffffffffffffff1673ffffffffffffffffffffffffffffffffffffffff1614159050919050565b606060008060008060008673ffffffffffffffffffffffffffffffffffffffff1673ffffffffffffffffffffffffffffffffffffffff16815260200190815260200160002060405180606001604052908160008201805461046f90610cc9565b80601f016020809104026020016040519081016040528092919081815260200182805461049b90610cc9565b80156104e85780601f106104bd576101008083540402835291602001916104e8565b820191906000526020600020905b8154815290600101906020018083116104cb57829003601f168201915b505050505081526020016001820160009054906101000a900473ffffffffffffffffffffffffffffffffffffffff1673ffffffffffffffffffffffffffffffffffffffff1673ffffffffffffffffffffffffffffffffffffffff1681526020016001820160149054906101000a900460ff1615151515815250509050806000015181602001518260400151935093509350509193909250565b6000803373ffffffffffffffffffffffffffffffffffffffff1673ffffffffffffffffffffffffffffffffffffffff16815260200190815260200160002060010160149054906101000a900460ff1615610610576040517f08c379a000000000000000000000000000000000000000000000000000000000815260040161060790610d99565b60405180910390fd5b6000815111610654576040517f08c379a000000000000000000000000000000000000000000000000000000000815260040161064b90610e05565b60405180910390fd5b600073ffffffffffffffffffffffffffffffffffffffff1660018260405161067c9190610d36565b908152602001604051809103902060009054906101000a900473ffffffffffffffffffffffffffffffffffffffff1673ffffffffffffffffffffffffffffffffffffffff1614610701576040517f08c379a00000000000000000000000000000000000000000000000000000000081526004016106f890610e71565b60405180910390fd5b60405180606001604052808281526020013373ffffffffffffffffffffffffffffffffffffffff168152602001600115158152506000803373ffffffffffffffffffffffffffffffffffffffff1673ffffffffffffffffffffffffffffffffffffffff16815260200190815260200160002060008201518160000190816107889190611047565b5060208201518160010160006101000a81548173ffffffffffffffffffffffffffffffffffffffff021916908373ffffffffffffffffffffffffffffffffffffffff16021790555060408201518160010160146101000a81548160ff021916908315150217905550905050336001826040516108049190610d36565b908152602001604051809103902060006101000a81548173ffffffffffffffffffffffffffffffffffffffff021916908373ffffffffffffffffffffffffffffffffffffffff1602179055503373ffffffffffffffffffffffffffffffffffffffff167f48cac28ad4dc618e15f4c2dd5e97751182f166de97b25618318b2112aa951a2f826040516108969190611119565b60405180910390a250565b5080546108ad90610cc9565b6000825580601f106108bf57506108de565b601f0160209004906000526020600020908101906108dd91906108e1565b5b50565b5b808211156108fa5760008160009055506001016108e2565b5090565b6000604051905090565b600080fd5b600080fd5b600073ffffffffffffffffffffffffffffffffffffffff82169050919050565b600061093d82610912565b9050919050565b61094d81610932565b811461095857600080fd5b50565b60008135905061096a81610944565b92915050565b60006020828403121561098657610985610908565b5b60006109948482850161095b565b91505092915050565b60008115159050919050565b6109b28161099d565b82525050565b60006020820190506109cd60008301846109a9565b92915050565b600080fd5b600080fd5b6000601f19601f8301169050919050565b7f4e487b7100000000000000000000000000000000000000000000000000000000600052604160045260246000fd5b610a26826109dd565b810181811067ffffffffffffffff82111715610a4557610a446109ee565b5b80604052505050565b6000610a586108fe565b9050610a648282610a1d565b919050565b600067ffffffffffffffff821115610a8457610a836109ee565b5b610a8d826109dd565b9050602081019050919050565b82818337600083830152505050565b6000610abc610ab784610a69565b610a4e565b905082815260208101848484011115610ad857610ad76109d8565b5b610ae3848285610a9a565b509392505050565b600082601f830112610b0057610aff6109d3565b5b8135610b10848260208601610aa9565b91505092915050565b600060208284031215610b2f57610b2e610908565b5b600082013567ffffffffffffffff811115610b4d57610b4c61090d565b5b610b5984828501610aeb565b91505092915050565b600081519050919050565b600082825260208201905092915050565b60005b83811015610b9c578082015181840152602081019050610b81565b60008484015250505050565b6000610bb382610b62565b610bbd8185610b6d565b9350610bcd818560208601610b7e565b610bd6816109dd565b840191505092915050565b610bea81610932565b82525050565b60006060820190508181036000830152610c0a8186610ba8565b9050610c196020830185610be1565b610c2660408301846109a9565b949350505050565b7f4e6f742072656769737465726564000000000000000000000000000000000000600082015250565b6000610c64600e83610b6d565b9150610c6f82610c2e565b602082019050919050565b60006020820190508181036000830152610c9381610c57565b9050919050565b7f4e487b7100000000000000000000000000000000000000000000000000000000600052602260045260246000fd5b60006002820490506001821680610ce157607f821691505b602082108103610cf457610cf3610c9a565b5b50919050565b600081905092915050565b6000610d1082610b62565b610d1a8185610cfa565b9350610d2a818560208601610b7e565b80840191505092915050565b6000610d428284610d05565b915081905092915050565b7f416c726561647920726567697374657265640000000000000000000000000000600082015250565b6000610d83601283610b6d565b9150610d8e82610d4d565b602082019050919050565b60006020820190508181036000830152610db281610d76565b9050919050565b7f557365726e616d652063616e6e6f7420626520656d7074790000000000000000600082015250565b6000610def601883610b6d565b9150610dfa82610db9565b602082019050919050565b60006020820190508181036000830152610e1e81610de2565b9050919050565b7f557365726e616d6520616c72656164792074616b656e00000000000000000000600082015250565b6000610e5b601683610b6d565b9150610e6682610e25565b602082019050919050565b60006020820190508181036000830152610e8a81610e4e565b9050919050565b60008190508160005260206000209050919050565b60006020601f8301049050919050565b600082821b905092915050565b600060088302610ef37fffffffffffffffffffffffffffffffffffffffffffffffffffffffffffffffff82610eb6565b610efd8683610eb6565b95508019841693508086168417925050509392505050565b6000819050919050565b6000819050919050565b6000610f44610f3f610f3a84610f15565b610f1f565b610f15565b9050919050565b6000819050919050565b610f5e83610f29565b610f72610f6a82610f4b565b848454610ec3565b825550505050565b600090565b610f87610f7a565b610f92818484610f55565b505050565b5b81811015610fb657610fab600082610f7f565b600181019050610f98565b5050565b601f821115610ffb57610fcc81610e91565b610fd584610ea6565b81016020851015610fe4578190505b610ff8610ff085610ea6565b830182610f97565b50505b505050565b600082821c905092915050565b600061101e60001984600802611000565b1980831691505092915050565b6000611037838361100d565b9150826002028217905092915050565b61105082610b62565b67ffffffffffffffff811115611069576110686109ee565b5b6110738254610cc9565b61107e828285610fba565b600060209050601f8311600181146110b1576000841561109f578287015190505b6110a9858261102b565b865550611111565b601f1984166110bf86610e91565b60005b828110156110e7578489015182556001820191506020850194506020810190506110c2565b868310156111045784890151611100601f89168261100d565b8355505b6001600288020188555050505b505050505050565b600060208201905081810360008301526111338184610ba8565b90509291505056fea264697066735822122067bef2de2564b595e5bf599693a8405f6a0e9f0f860e70b937d94087cfa83bc064736f6c63430008140033",
  "linkReferences": {},
  "deployedLinkReferences": {}
}